:020000040000FA
:39000000FFFF62FF3600FFFFFFFFFFFFFFFFFFFFFFFFFFFFFFFFFFFFFFFFFFFFFFFFFFFFFFFFFFFFFFFFFFFFFFFFFFFFFFFFFFFFFFFFFFFFFFFFFFFFFF65
:39003900000C800130D004C840136802600264812C3000060000000000000000000000000000000090052640161800034D800C80013000064016188084A1
:390072000012400248800A70012A4005D0012A400548000900000000000000000000000000000000A8001DA002248004A800174002480009A0022480A176
:3900AB000000000000000000000000000000000000000000000000000000000000000000000000000000000000000000000000000000000000000080F9A3
:3900E4000000000000000000000000000000000000000000000000000000000000000000000000000000000000000000000000000000000000000080F96A
:39011D000000000000000010000000000001000000000000000000000000000000000000000000000000100000000000000001000000000000000080F80F
:390156000000000000000010000000000400000000000000000000000000000000000100000000000000840000000000000001000000000000000000A135
:39018F000000000000000000000000000000000000000000000000000000000000000000000000000000000000000000000000000000000000000080F9BE
:3901C8000000000000000000000000000000000000000000000000000000000000000000000000000000000000000000000000000000000000000080F985
:390201000000000000000000000000000000000000000000000000000000000000000000000000000000000000000000000000000000000000000080F94B
:39023A000000000000000000000000000000000000000000000000000000000000000000000000000000000000000000000000000000000000000080F912
:390273000000000000000000000000000000000000000000000000000000000000000000000000000000000000000000000000000000000000000080F9D9
:3902AC000000000000000000000000000000000000000000000000000000000000000000000000000000000000000000000000000000000000000080F9A0
:3902E5000000000000000000000000000000000000000000000000000000000000000000000000000000000000000000000000000000000000000080F967
:39031E000000000000000000000000000000000000000000000000000000000000000000000000000000000000000000000000000000000000000080F92D
:390357000000000000000000000000000000000000000000000000000000000000000000000000000000000000000000000000000000000000000080F9F4
:390390000000000000000000000000000000000000000000000000000000000000000000000000000000000000000000000000000000000000000080F9BB
:3903C9000000000000000000000000000000000000000000000000000000000000000000000000000000000000000000000000000000000000000080F982
:390402000800000000000000000000000000000000000000000000000000000000000000000000000000000000000000000000000000000000000020DBBE
:39043B000000000000000000000000000000000000000000000000000000000000000000000000000000000000000000000000000000000000000080F90F
:390474000000000000000000000000000000000000000000000000000000000000000000000000000000000000000000000000000000000000000080F9D6
:3904AD000400000000000000000000000000000000000000000000000000000000000000000000000000000000000000000000000000000000000090ACD6
:3904E6000000000000000000000000000000000000000000000000000000000000000000000000000000000000000000000000000000000000000080F964
:39051F0000000000000000000000000000000000000000000000000000000000000000000000000000000000000000000000000000000000000000C0BD26
:390558000000000000000000000000000000000000000000000000000000000000000000000000000000000000000000000000000000000000000080F9F1
:390591000000000000000000000000000000000000000000000000000000000000000000000000000000000000000000000000000000000000000080F9B8
:3905CA000800000000000000000000000000000000000000000000000000000000000000000000000000000000000000000000000000000000000030CAF6
:390603000000000000000000000000000000000000000000000000000000000000000000000000000000000000000000000000000000000000000090E846
:39063C000000000000000000000000000000000000000000000000000000000000000000000000000000000000000000000000000000000000000080F90C
:3906750004000000000000000000000000000000000000000000000000000000000000000000000000000000000000000000000000000000000000B08E0A
:3906AE000000000000000000000000000000000000000000000000000000000000000000000000000000000000000000000000000000000000000080F99A
:3906E7000000000000000000000000000000000000000000000000000000000000000000000000000000000000000000000000000000000000000080F961
:390720000000000000000000000000000000000000000000000000000000000000000000000000000000000000000000000000000000000000000080F927
:390759000000000000000000000000000000000000000000000000000000000000000000000000000000000000000000000000000000000000000080F9EE
:390792000800000000000000000000000000000000000000000000000000000000000000000000000000000000000000000000000000000000000020DB2B
:3907CB000000000000000000000000000000000000000000000000000000000000000000000000000000000000000000000000000000000000000080F97C
:390804000000000000000000000000000000000000000000000000000000000000000000000000000000000000000000000000000000000000000080F942
:39083D000400000000000000000000000000000000000000000000000000000000000000000000000000000000000000000000000000000000000090AC42
:390876000000000000000000000000000000000000000000000000000000000000000000000000000000000000000000000000000000000000000080F9D0
:3908AF000000000000000000000000000000000000000000000000000000000000000000000000000000000000000000000000000000000000000080F997
:3908E8000000000000000000000000000000000000000000000000000000000000000000000000000000000000000000000000000000000000000080F95E
:390921000000000000000000000000000000000000000000000000000000000000000000000000000000000000000000000000000000000000000080F924
:39095A000800000000000000000000000000000000000000000000000000000000000000000000000000000000000000000000000000000000000020DB61
:390993000000000000000000000000000000000000000000000000000000000000000000000000000000000000000000000000000000000000000080F9B2
:3909CC000000000000000000000000000000000000000000000000000000000000000000000000000000000000000000000000000000000000000080F979
:390A05000400000000000000000000000000000000000000000000000000000000000000000000000000000000000000000000000000000000000090AC78
:390A3E000000000000000000000000000000000000000000000000000000000000000000000000000000000000000000000000000000000000000080F906
:390A77000000000000000000000000000000000000000000000000000000000000000000000000000000000000000000000000000000000000000080F9CD
:390AB0000000000000000000000000000000000000000000000000000000000000000000000000000000000000000000000000000000000000000080F994
:390AE9000000000000000000000000000000000000000000000000000000000000000000000000000000000000000000000000000000000000000080F95B
:390B22000800000000000000000000000000000000000000000000000000000000000000000000000000000000000000000000000000000000000020DB97
:390B5B000000000000000000000000000000000000000000000000000000000000000000000000000000000000000000000000000000000000000080F9E8
:390B94000000000000000000000000000000000000000000000000000000000000000000000000000000000000000000000000000000000000000080F9AF
:390BCD000400000000000000000000000000000000000000000000000000000000000000000000000000000000000000000000000000000000000090ACAF
:390C06000000000000000000000000000000000000000000000000000000000000000000000000000000000000000000000000000000000000000080F93C
:390C3F000000000000000000000000000000000000000000000000000000000000000000000000000000000000000000000000000000000000000080F903
:390C78000000000000000000000000000000000000000000000000000000000000000000000000000000000000000000000000000000000000000080F9CA
:390CB1000000000000000000000000000000000000000000000000000000000000000000000000000000000000000000000000000000000000000080F991
:390CEA000800000000000000000000000000000000000000000000000000000000000000000000000000000000000000000000000000000000000020DBCE
:390D23000000000000000000000000000000000000000000000000000000000000000000000000000000000000000000000000000000000000000080F91E
:390D5C000000000000000000000000000000000000000000000000000000000000000000000000000000000000000000000000000000000000000080F9E5
:390D95000400000000000000000000000000000000000000000000000000000000000000000000000000000000000000000000000000000000000090ACE5
:390DCE000000000000000000000000000000000000000000000000000000000000000000000000000000000000000000000000000000000000000080F973
:390E07000000000000000000000000000000000000000000000000000000000000000000000000000000000000000000000000000000000000000080F939
:390E40000000000000000000000000000000000000000000000000000000000000000000000000000000000000000000000000000000000000000080F900
:390E79000000000000000000000000000000000000000000000000000000000000000000000000000000000000000000000000000000000000000080F9C7
:390EB2000800000000000000000000000000000000000000000000000000000000000000000000000000000000000000000000000000000000000020DB04
:390EEB000000000000000000000000000000000000000000000000000000000000000000000000000000000000000000000000000000000000000080F955
:390F24000000000000000000000000000000000000000000000000000000000000000000000000000000000000000000000000000000000000000080F91B
:390F5D000400000000000000000000000000000000000000000000000000000000000000000000000000000000000000000000000000000000000090AC1B
:390F96000000000000000000000000000000000000000000000000000000000000000000000000000000000000000000000000000000000000000080F9A9
:390FCF0000000000000000000000000000000000000000000000000000000000000000000000000000000000000000000000000000000000000000C0BD6C
:391008002000048000100002400008000120000480001000000000000000000000000000000000800010000240000800012000048000100002400080F9B2
:391041000000000000000000000000000000000000000000000000000000000000000000000000000000000000000000000000000000000000000080F9FD
:39107A002800048000100002400008000120000480001000000000000000000000000000000000800010000240000800012000048000100002400030CAB7
:3910B3000000000000000000000000000000000000000000000000000000000000000000000000000000000000000000000000000000000000000090E88C
:3910EC002000048000100002400008000120000480001000000000000000000000000000000000800010000240000800012000048000100002400080F9CE
:3911250004000000000000000000000000000000000000000000000000000000000000000000000000000000000000000000000000000000000000B08E4F
:39115E002000048000100002400008000120000480001000000000000000000000000000000000800010000240000800012000048000100002400080F95B
:391197000000000000000000000000000000000000000000000000000000000000000000000000000000000000000000000000000000000000000080F9A6
:3911D0000000000000000000000000000000000000000000000000000000000000000000000000000000000000000000000000000000000000000080F96D
:391209000000000000000000000000000000000000000000000000000000000000000000000000000000000000000000000000000000000000000080F933
:391242000000000000000000000000000000000000000000000000000000000000000000000000000000000000000000000000000000000000000080F9FA
:39127B000000000000000000000000000000000000000000000000000000000000000000000000000000000000000000000000000000000000000080F9C1
:3912B4000000000000000000000000000000000000000000000000000000000000000000000000000000000000000000000000000000000000000080F988
:3912ED000000000000000000000000000000000000000000000000000000000000000000000000000000000000000000000000000000000000000080F94F
:391326000000000000000000000000000000000000000000000000000000000000000000000000000000000000000000000000000000000000000080F915
:39135F000000000000000000000000000000000000000000000000000000000000000000000000000000000000000000000000000000000000000080F9DC
:391398000000000000000000000000000000000000000000000000000000000000000000000000000001000000000000000000000000000000000080E9B2
:3913D1000000000000000000000000000000000000000000000000000000000000000000000000000002000000000000000000000000000000000080D988
:39140A0000000000000000000000000000000000000000000000000000000000000000000000000000000000000000000000000000000000000000A0DB2E
:391443000000000000000000000000000000000000000000000000000000000000000000000000000000000000000000000000000000000000000080F9F7
:39147C000000000000000000000000000000000000000000000000000000000000000000000000000000000000000000000000000000000000000080F9BE
:3914B5000000000000000000000000000000000000000000000000000000000000000000000000000000000000000000000000000000000000000080F985
:3914EE000000000000000000000000000000000000000000000000000000000000000000000000000000000000000000000000000000000000000080F94C
:391527000000000000000000000000000000000000000000000000000000000000000000000000000000000000000000000000000000000000000080F912
:391560000000000000000000000000000000000000000000000000000000000000000000000000000000000000000000000000000000000000000080F9D9
:391599000000000000000000000000000000000000000000000000000000000000000000000000000000000000000000000000000000000000000080F9A0
:3915D2000000000000000000000000000000000000000000000000000000000000000000000000000000000000000000000000000000000000000080F967
:39160B0000000000000000000000000000000000000000000000000000000000000000000000000000000000000000000000000000000000000000A0DB2B
:391644000000000000000000000000000000000000000000000000000000000000000000000000000000000000000000000000000000000000000080F9F4
:39167D000000000000000000000000000000000000000000000000000000000000000000000000000000000000000000000000000000000000000080F9BB
:3916B6000000000000000000000000000000000000000000000000000000000000000000000000000000000000000000000000000000000000000008F102
:3916EF000000000000000000000000000000000000000000000000000000000000000000000000000000000000000000000000000000000000000080F949
:391728000000000000000000000000000000000000000000000000000000000000000000000000000000000000000000040000000000000000000008F587
:391761000000000000000000000000000000000000000000000000000000000000000000000000000000000000000000010000000000000000000080F8D6
:39179A000000000000000000000000000000000000000000000000000000000000000000000000000000000000000000000000000000000000000080F99D
:3917D3000000000000000000000000000000000000000000000000000000000000000000000000000000000000000000000000000000000000000080F964
:39180C000000000000000000000000000000000000000000000000000000000000000000000000000000000000000000000000000000000000000080F92A
:391845000000000000000000000000000000000000000000000000000000000000000000000000000000000000000000000000000000000000000080F9F1
:39187E000000000000000000000000000000000000000000000000000000000000000000000000000000000000000000000000000000000000000080F9B8
:3918B7000000000000000000000000000000000000000000000000000000000000000000000000000000000000000000000000000000000000000080F97F
:3918F0000000000000000000000000000000000000000000000000000000000000000000000000000000000000000000000000000000000000000080F946
:391929000000000000000000000000000000000000000000000000000000000000000000000000000000000000000000000000000000000000000080F90C
:391962000000000000000000000000000000000000000000000000000000000000000000000000000000000000000000000000000000000000000080F9D3
:39199B000000000000000000000000000000000000000000000000000000000000000000000000000000000000000000000000000000000000000080F99A
:3919D4000000000000000000000000000000000000000000000000000000000000000000000000000000000000000000000000000000000000000080F961
:391A0D000000000000000000000000000000000000000000000000000000000000000000000000000000000000000000000000000000000000000080F927
:391A46000000000000000000000000000000000000000000000000000000000000000000000000000000000000000000000000000000000000000080F9EE
:391A7F00000000000000000000000000000000000000000000000000000000000000000000000080C2000000000008000120000400000000004000809867
:391AB8000000000000000000000000000000000000000000000000000000000000000000000000000000000000000000000000000000000000000080F97C
:391AF1000000000000000000000000000000000000000000000000000000000000000000000000000600000000000040008001300000000000000380C082
:391B2A0000000000000000000000000000000000000000000000000000000000000000000000000002010000000060042C1004021000000000004080E722
:391B63000000000000000000000000000000000000000000000000000000000000000000000000002401000000000084008011001000000000001300D517
:391B9C0000000000000000000000000000000000000000000000000000000000000000000000008007000000000078000F64403C0000000000C08000F4EE
:391BD50000000000000000000000000000000000000000000000000000000000000000000000000000000000000060000C8801300800000000000380E83F
:391C0E0000000000000000000000000000000000000000000000000000000000000000000000000014010000000060100C8011310000000000008B00B40B
:391C4700000000000000000000000000000000000000000000000000000000000000000000000080420200004003280025B0000400000000000000C0DCC0
:391C80000000000000000000000000000000000000000000000000000000000000000000000000000000000000000020000000010000000000000080DAB0
:391CB90000000000000000000000000000000000000000000000000000000000000000000000000004000000000061000C8401010000000000000080FB80
:391CF20008000000000000000000000000000000000000000000000000000000000000000000000024080000000B4042040009B040000000000000B0CF7C
:391D2B000000000000000000000000000000000000000000000000000000000000000000000000002202000000102002288208001200000000000010F362
:391D640000000000000000000000000000000000000000000000000000000000000000000000008007000000C00039200FE0803C0000000000000080CFAC
:391D9D0004000000000000000000000000000000000000000000000000000000000000000000000004000000000341200004813000000000000000309A22
:391DD6000000000000000000000000000000000000000000000000000000000000000000000000004202000000232004488010B00800000000000080F742
:391E0F000000000000000000000000000000000000000000000000000000000000000000000000800000000040004842012000140200000000400080A0B9
:391E48000000000000000000000000000000000000000000000000000000000000000000000000000000000000000000000000001000000000000080F8D9
:391E810000000000000000000000000000000000000000000000000000000000000000000000000006000000000360100000003010000000000003808963
:391EBA0004000000000000000000000000000000000000000000000000000000000000000000000006000000000340012C9005A200000000000008A4F1A1
:391EF3000C0000000000000000000000000000000000000000000000000000000000000000000000260000000023404040040010010000000000430088C1
:391F2C0000000000000000000000000000000000000000000000000000000000000000000000008007010000C08318000FE0011D1000000000C000009D1F
:391F650008000000000000000000000000000000000000000000000000000000000000000000000000020000000060000C80412010000000000003119C2C
:391F9E0000000000000000000000000000000000000000000000000000000000000000000000000000000000000844814C9011100200000000000300E457
:391FD7000000000000000000000000000000000000000000000000000000000000000000000000800600000040090C00293000A440000000004009C4C9E3
:392010000000000000000000000000000000000000000000000000000000000000000000000000000000000000000000000000000000000000000080F91E
:3920490000000000000000000000000000000000000000000000000000000000000000000000000000000000000361000C8201300800000000000300D858
:3920820008000000000000000000000000000000000000000000000000000000000000000000000026080000000A0022880020A000000000000011B29424
:3920BB00000000000000000000000000000000000000000000000000000000000000000000000000200000000011004008810922100000000000A210BD48
:3920F40000000000000000000000000000000000000000000000000000000000000000000000008001020000C00179000360000C0000000000C00380E163
:39212D0004000000000000000000000000000000000000000000000000000000000000000000000006020000000261100C80013000000000000000B0E8A5
:392166000000000000000000000000000000000000000000000000000000000000000000000000004600000000216000088449200400000000000202C2BA
:39219F000000000000000000000000000000000000000000000000000000000000000000000000800000000040090C0001A010060000000000400080A417
:3921D8000000000000000000000000000000000000000000000000000000000000000000000000000000000000000000000000000000000000000080F955
:3922110000000000000000000000000000000000000000000000000000000000000000000000000006000000000160000C80813020000000000003008D40
:39224A0004000000000000000000000000000000000000000000000000000000000000000000000040040000008000080C00098000000000000003A0F45F
:392283000C000000000000000000000000000000000000000000000000000000000000000000000010020000000064012C8008300100000000008B00F837
:3922BC0000000000000000000000000000000000000000000000000000000000000000000000008007000000C00218100FE8800C0800000000C00300A684
:3922F5000800000000000000000000000000000000000000000000000000000000000000000000000600000000036000000481300000000000000090EF0B
:39232E00000000000000000000000000000000000000000000000000000000000000000000000000A6000000008B6012008010300800000000001082A9D0
:39236700000000000000000000000000000000000000000000000000000000000000000000000080000000004003080001200506000000000040038090F3
:3923A0000000000000000000000000000000000000000000000000000000000000000000000000000000000000000000000000000000000000000080F98B
:3923D90000000000000000000000000000000000000000000000000000000000000000000000000006020000000060000C8441300000000000000082BD23
:3924120008000000000000000000000000000000000000000000000000000000000000000000000000000000000B6100000001300000000000001310E6E3
:39244B000000000000000000000000000000000000000000000000000000000000000000000000002001000000106014000121300A00000000001030AF68
:3924840000000000000000000000000000000000000000000000000000000000000000000000008007000000C00079000F60003C0000000000C00081B9BA
:3924BD0004000000000000000000000000000000000000000000000000000000000000000000000006000000000301000C80010000000000000003A1DCCB
:3924F60000000000000000000000000000000000000000000000000000000000000000000000000046010000002300222C0889001000000000002300AE83
:39252F00000000000000000000000000000000000000000000000000000000000000000000000080C000000040036800012000340000000000400080CBA8
:392568000000000000000000000000000000000000000000000000000000000000000000000000000000000000000000000000000000000000000080F9C1
:3925A10000000000000000000000000000000000000000000000000000000000000000000000000004000000000001000C80010010000000000003808A52
:3925DA000400000000000000000000000000000000000000000000000000000000000000000000001008000000136042008101B000000000000010A2F71C
:392613000C000000000000000000000000000000000000000000000000000000000000000000000006000000001000024C8091000100000000001080BEBE
:39264C0000000000000000000000000000000000000000000000000000000000000000000000008001010000C000192003E2010C1000000000C00382EFA4
:3926850008000000000000000000000000000000000000000000000000000000000000000000000006000000000361200C0000301000000000008310BEED
:3926BE0000000000000000000000000000000000000000000000000000000000000000000000000042040000002360042C0200320200000000000B00D7D2
:3926F7000000000000000000000000000000000000000000000000000000000000000000000000800000000040110800012000141200000000400A44F606
:392730000000000000000000000000000000000000000000000000000000000000000000000000000000000000000200000000000000000000000080DB13
:3927690000000000000000000000000000000000000000000000000000000000000000000000000006000000000360000C80013000000000000083808589
:3927A20008000000000000000000000000000000000000000000000000000000000000000000000006000000000A01800001202020000000000022B086AC
:3927DB0000000000000000000000000000000000000000000000000000000000000000000000000086000000001100028C80451001000000000012108D1B
:3928140000000000000000000000000000000000000000000000000000000000000000000000008007000000C00179100362001C1000000000C000829651
:39284D0004000000000000000000000000000000000000000000000000000000000000000000000000000000000261200C80012010000000000003B0BF9C
:3928860000000000000000000000000000000000000000000000000000000000000000000000000040040000002160004C8245100200000000000284B8F1
:3928BF0000000000000000000000000000000000000000000000000000000000000000000000000000000000000000000000000000000000000000C0BD63
:3928F8002000048000100002400008000120000480001000000000000000000000000000000000800010000240000800012000048000100002400080F9AA
:392931000000000000000000000000000000000000000000000000000000000000000000000000000000000000000000000000000000000000000080F9F4
:39296A0024000480001000024000080001200004800010000000000000000000000000000000008000100002400008000120000480001000024000B08E6E
:3929A3000C00000000000000000000000000000000000000000000000000000000000000000000000000000000000000000000000000000000000010AC33
:3929DC002000048000100002400008000120000480001000000000000000000000000000000000800010000240000800012000048000100002400080F9C5
:392A15000800000000000000000000000000000000000000000000000000000000000000000000000000000000000000000000000000000000000030CA86
:392A4E002000048000100002400008000120000480001000000000000000000000000000000000800010000240000800012000048000100002400080F952
:392A87000000000000000000000000000000000000000000000000000000000000000000000000000000000000000000000000000000000000000080F99D
:392AC0000000000000000000000000000000000000000000000000000000000000000000000000000000000000000000000200000000000000000080DB80
:392AF9000000000000000000000000000000000000000000000000000000000000000000000000000000000000000000100000400000000000000080A92B
:392B32000000000000000000000000000000000000000000000000000000000000000000000000000000000000000000210000000000000000000080D8F1
:392B6B000000000000000000000000000000000000000000000000000000000000000000000000000000000000000000000000000000000000000090E8B9
:392BA4000000000000000000000000000000000000000000000000000000000000000000000000000000000000000000000000000000000000000080F97F
:392BDD000000000000000000000000000000000000000000000000000000000000000000000000000000000800000000000040100000000000040000A9BA
:392C160000000000000000000000000000000000000000000000000000000000000000000000000000000000000000000000000000000000000000C0BD08
:392C4F000000000000000000000000000000000000000000000000000000000000000000000000000000000400000000000080080000000000080000BDFB
:392C88000000000000000000000000000000000004000000000000000000000000000000000000000001006804004000040008800000000080040080EBE7
:392CC1000000000000000000000000000000000000000000000000000000000000000000000000000004000810000000080000000000000000100000B0F6
:392CFA0000000000000000000000000000000000100000000000000000000000000000000000000000000000000020000000000000000000000000D0BFE2
:392D33000000000000000000000000000000000000000000000000000000000000000000000000000000000000000000000000000000000000000080F9EE
:392D6C000000000000000000000000000000000000000000000000000000000000000000000000000000000000000000000000000000000000000080F9B5
:392DA5000000000000000000000000000000000000000000000000000000000000000000000000000000000000000000020000000000000000000080FB78
:392DDE000000000000000000000000000000000000000000000000000000000000000000000000000100000000008000100002000000000000800000D8D1
:392E17000000000000000000000000000000000000000000000000000000000000000000000000000000000000000000000000000000000000000080F909
:392E50000000000000000000000000000000000000000000000000000000000000000000000000000000000000000000002000000000000000000080FBAE
:392E89000000000000000000000000000000000000000000000000000000000000000000000000000400000000034000000001200000000000000280A87E
:392EC2000000000000000000000000000000000000000000000000000000000000000000000000000200000000012000008000100000000000000180D1D2
:392EFB000000000000000000000000000000000000000000000000000000000000000000000000800008000080000800017000124400000000400084AD56
:392F340000000000000000000000000000000000000000000000000000000000000000000000000000000000000200080200000A0000000000000000FB53
:392F6D000000000000000000000000000000000000000000000000000000000000000000000000000000000804000000040000000000000008000008BD4E
:392FA6000000000000000000000000000000000000000000000000000000000000000000000000000000000000002000000000000000000000000080FB57
:392FDF000A000000000000000000000000000000000000000000000000000000000000000000000014001404080008000200000008000000040000808461
:39301800002000000000000000000000000000000000000000000000000000000000000000000000060004F00580A00D3120001000024010700481809477
:393051000000000000000000000000000000000000000000000000000000000000000000000000000200000004402000000000100001200000824000F7F6
:39308A000020000000000000000000000000000000000000000000000000000000000000000000000100000800000010000000000000001008000080D26A
:3930C3000000000000000000000000000000000000000000000000000000000000000000000000000000000000000000000000080000000000000080F15B
:3930FC000000000000000000000000000000000000000000000000000000000000000000000000000000000000000000000080000000000000400001A931
:393135000000000000000000000000000000000000000000000000000000000000000000000000000201000000800001000840000000000000000081878D
:39316E000000000000000000000000000000000000000000000000000000000000000000000000800000000000001020004000000000000000000000D662
:3931A7000A000000000000000000000000000000000000000000000000000000000000000000000000000000000000000000000000000000000000409F06
:3931E0000000000000000000000000000000000000000000000000000000000000000000000000000000000000000000000000000000000000000080F93D
:393219000000000000000000000000000000000000000000000000000000000000000000000000000000000000000480000000001000000000000000BC2C
:393252000000000000000000000000000000000000000000000000000000000000000000000000000000000000000000040000000000000000000080FDC2
:39328B000000000000000000000000000000000000000000000000000000000000000000000000000004000000000000000000040000000000008080B54D
:3932C40000000000000000000000000000000000000000000000000000000000000000000000000000000000000000400000000100000000000000829C72
:3932FD0000000000000000000000000000000000000000000000000000000000000000000000000000000000000002000000040000000000000008009BEF
:393336000000000000000000000000000000000000000000000000000000000000000000000000000000000000000000000000000000000000000090E8E6
:39336F002000000000000000400008000020003400001000000000000000000000000000000000800000000000000000000000000000000000000080DF7A
:3933A8000000000000000000000000000000000000000000000000000000000000000000000000000000000000000000000000000000000000000080F973
:3933E100800100000000000000000000000000000000C000000000000000000000000000000000000000000000000000000000000000000000000080ED05
:39341A000008020000000000000B6481008005322100001000000000000000000000000000000000160800000000000000000000000000000000000087F2
:39345300002000000000000000000482000004000100C0080000000000000000000000000000000040000000000000000000000000000000000000808588
:39348C00E001000000000000C003780000E0810C10003020000000000000000000000000000000800702000000000000000000000000000000000080A76E
:3934C500804100000000000000036040008001301000C000000000000000000000000000000000000600000000000000000000000000000000000000C91A
:3934FE00800500000000000000836000008041300200C088000000000000000000000000000000001601000000000000000000000000000000000000EDEE
:3935370030000000000000004001488100A01006000090020100000000000000000000000000008000000000000000000000000000000000000000809A3E
:393570000000000000000000000001000000000000000000000000000000000000000000000000000000000000000000000000000000000000000080E9B8
:3935A900000000000000000000036000008081000000C020000000000000000000000000000000000600000000000000000000000000000000000080ED32
:3935E2008C0502000000000000024240000011B0400080080000000000000000000000000000000080000000000000000000000000000000000000A0955B
:39361B000410020000000000001140140080080001008004000000000000000000000000000000002600000000000000000000000000000000000000DAEE
:39365400E001000000000000C001190000E0803C2000302000000000000000000000000000000080010100000000000000000000000000000000008094E0
:39368D008C0100000000000000026100000001300000C0000000000000000000000000000000000006000000000000000000000000000000000000108885
:3936C600804500000000000000214022008088B008008000010000000000000000000000000000002601000000000000000000000000000000000000EE2D
:3936FF00A0000200000000004000080000A001144100D000000000000000000000000000000000802200000000000000000000000000000000000000AE92
:393738000000000000000000000000000000000000000000000000000000000000000000000000000004000000000000000000000000000000000080B91B
:393771008001000000000000000060000000003000000000000000000000000000000000000000000602000000000000000000000000000000000080C2C4
:3937AA000421000000000000000B0480008001212100C0440000000000000000000000000000000044000000000000000000000000000000000000108D8A
:3937E3008C0800000000000000000020000008100100C0000000000000000000000000000000000022000000000000000000000000000000000000B09BB3
:39381C00E080000000000000C00379000060801C10003080000000000000000000000000000000800302000000000000000000000000000000000000C1D5
:393855000881000000000000000360000080012010000000000000000000000000000000000000000400000000000000000000000000000000000020C8B1
:39388E00801000000000000000A3600A008089100200C000010000000000000000000000000000002202000000000000000000000000000000000080984C
:3938C700200502000000000040210C0000A0000600001000000000000000000000000000000000801408000000000000000000000000000000000080B2B0
:393900000000000000000000000000000000000000000000000000000000000000000000000000000000000000000000000000000000000000000080F915
:39393900804100000000000000036000008001300000C0000000000000000000000000000000000006010000000000000000000000000000000000008831
:3939720008110000000000000002610000008100410000440000000000000000000000000000000014000000000000000000000000000000000000A09254
:3939AB000021000000000000001160110080080000000000000000000000000000000000000000002401000000000000000000000000000000000000F2A1
:3939E4006000000000000000C001790000E0803C1000F080000000000000000000000000000000800100000000000000000000000000000000000000E78C
:393A1D00840100000000000000020100000001300000C000000000000000000000000000000000000600000000000000000000000000000000000090EE73
:393A5600008500000000000000210022008088304000C0000100000000000000000000000000000044080000000000000000000000000000000000809AD0
:393A8F0020000000000000004000080000A0010400001000000000000000000000000000000000800000000000000000000000000000000000000000DD84
:393AC8000000000000000000000000000000000000000000000000000000000000000000000000000000000000000000000000000000000000000080F94C
:393B0100800100000000000000036000000000300000C000000000000000000000000000000000000600000000000000000000000000000000000080DD54
:393B3A00840100000000000000400008008081300000C000000000000000000000000000000000004008000000000000000000000000000000000010B28A
:393B73008C45000000000000008B6004000008304200C0220000000000000000000000000000000010020000000000000000000000000000000000B08BB0
:393BAC00E001000000000000C00018100060803C0000F000000000000000000000000000000000800700000000000000000000000000000000000000FF85
:393BE50008000000000000000003600000800100000000000000000000000000000000000000000006040000000000000000000000000000000000A0A968
:393C1E000008020000000000008B60120080890041000042000000000000000000000000000000002600000000000000000000000000000000000080E94B
:393C5700A001000000000000400A6C0000A001A44000D0000000000000000000000000000000008000000000000000000000000000000000000000808305
:393C90000000000000000000000000000000000000000000000000000000000000000000000000000000000000000000000000000000000000000080F982
:393CC9000000000000000000008300000000803008000040000000000000000000000000000000000600000000000000000000000000000000000080E3DE
:393D0200882100000000000000026020008009200100C0000000000000000000000000000000000006000000000000000000000000000000000000A0F459
:393D3B000008000000000000004200020000082001000004000000000000000000000000000000004601000000000000000000000000000000000000FD92
:393D74006080000000000000C00018200060800C0800304000000000000000000000000000000080070000000000000000000000000000000000000094BF
:393DAD00848100000000000000036220008001300000C040000000000000000000000000000000000000000000000000000000000000000000000090AB67
:393DE600801100000000000000226004008089204100C008000000000000000000000000000000004004000000000000000000000000000000000000A572
:393E1F003000000000000000400008000020300400005002000000000000000000000000000000800600000000000000000000000000000000000080AF97
:393E58000000000000000000000000000000000000000040000000000000000000000000000000000000000000000000000000000000000000000080BDB4
:393E9100000000000000000000036000008000300000C040000000000000000000000000000000000002000000000000000000000000000000000000C71C
:393ECA008C05020000000000000300220000050204008000000000000000000000000000000000004600000000000000000000000000000000000010EA3C
:393F03000400020000000000000B0001000011B1080040040000000000000000000000000000000020000000000000000000000000000000000000B0FB9A
:393F3C00E001000000000000C00379100060000C00007040000000000000000000000000000000800102000000000000000000000000000000000080BB45
:393F75008C81000000000000000060100080013000008040000000000000000000000000000000000600000000000000000000000000000000000020D926
:393FAE0080050000000000000000640100004930080040080000000000000000000000000000000026020000000000000000000000000000000000808CF3
:393FE70030000000000000004000488100A00104000010000000000000000000000000000000008000000000000000000000000000000000000000809122
:394020000000000000000000000000000000000000000000000000000000000000000000000000000000000000000000000000000000000000000080F9EE
:39405900800101000000000000036000000080300000C000000000000000000000000000000000000600000000000000000000000000000000000000D4FF
:394092000C040000000000000040401400801130000000420000000000000000000000000000000040040000000000000000000000000000000000A0B9B1
:3940CB008409000000000000000B400100000830000000040000000000000000000000000000000020010000000000000000000000000000000000808284
:394104006040000000000000C0001A100060803C0800F020000000000000000000000000000000800700000000000000000000000000000000000080A914
:39413D008C0100000000000000036000008001000000C020000000000000000000000000000000000601000000000000000000000000000000000090B8A9
:39417600804100000000000000934080008089004200C002000000000000000000000000000000000600000000000000000000000000000000000000FCED
:3941AF001000000000000000000000000000000000000000000000000000000000000000000000000000000000000000000000000000000000000080F84F
:3941E8002000048000100002400008000120000480001000000000000000000000000000000000800010000240000800012000048000100002400080F9A1
:394221000000000000000000000000000000000000000000000000000000000000000000000000000000000000000000000000000000000000000080F9EB
:39425A002C00048000100002400008000120000480001000000000000000000000000000000000800010000240000800012000048000100002400010ACDF
:3942930004000000000000000000000000000000000000000000000000000000000000000000000000000000000000000000000000000000000000B08EB0
:3942CC002000048000100002400008000120000480001000000000000000000000000000000000800010000240000800012000048000100002400080F9BC
:394305000C000000000000000000000000000000000000000000000000000000000000000000000000000000000000000000000000000000000000209FB4
:39433E002000048000100002400008000120000480001000000000000000000000000000000000800010000240000800012000048000100002400080F949
:394377000000000000000000000000000000020000000000000000000000000000000000000000000000000000000000000000000000000000000080FB90
:3943B0000000000000000000000000000000000000000000000000000000000000000000000000000000000000000000000000000000000000000080F95B
:3943E9000000000000000000000091000000000000000000000000000000000000000000000000000800000000000000000000000000000000000080F88A
:394422000000000000000000400000010000000000000001000000000000000000000000000000000000000000000000000000000000000000000080A8F7
:39445B000000000000000000000000000000000000000000000000000000000000000000000000000000000000000000000000000000000000000080F9AF
:394494000000000000000000000000000000000000000000000000000000000000000000000000000000000000000000000000000000000000000080F976
:3944CD000040000000000000000000000000000000020100000000000000000000000000000000000000000000000000000000000000000000000080AE45
:394506001000000000000000000000000000400000000000000000000000000000000000000000000000000000000000000000000000000000000080B8F4
:39453F000080000000000000000000000000000100010200000000000000000000000000000000000000000000000000000000000000000000000000CBF4
:39457800000000000080000000012000008048205A30000000000000000000000000000000000000000A000000000000040000000000000000000080E980
:3945B1000000000000000000000240000080000120000000000000000000000000000000000000000000000000000000080000000000000000000000A442
:3945EA001000000000800000000000000000001000000000000000000000000000000000000000000000000000000000000000000000000000000000F107
:394623000000000000000000000000000000000000000000000000000000000000000000000000001200000000000000000000000000000000000080DAF2
:39465C000000000000000000000000000000000000000000000000000000000000000000000000000000000000000000000000000000000000000080F9AC
:394695000000000000000000000000000000000000000000000000000000000000000000000000000000000000000000000000000000000000000080F973
:3946CE000000000000000000000480000080040000000000000000000000000000000000000000000000000000000000000000000000000000000080B972
:394707000000000000000000000000000000000000000000000000000000000000000000000000000000000000000000000000000000000000000080F900
:394740000000000000000000000000000000000000000000000000000000000000000000000000000000000000000000000000000000000000000080F9C7
:394779000001000000000000000240000000012000008000000000000000000000000000000000000400000000000000000000000000000000000080C0DF
:3947B200800100000000000000012000000003100000C000000000000000000000000000000000000800000000000000000000000000000000000000DC75
:3947EB00002002000000000040000C800020000640001000010000000000000000000000000000800008000000000000000000000000000000000080D94F
:394824002000010000000000000002C00000000040002000000000000000000000000000000000000208000000000000000000000000000000000080FE90
:39485D0000000000000000000000200000804000080200000000000000000000000000000000000000000000000000000000000000000000000000809127
:394896008400000000000000000000000000000000000000000000000000000000000000000000000000000000000000000000000000000000000080B530
:3948CF002A00000000000000008010000040800010010000000000000000000000000000000000000000000000000000000000000000000000000028B647
:39490800862110000200002200004000120045000A1A0000000000000000000000000000000000000100000000400000000000000000000000000000D6C9
:394941008000080001000000000000000000400008020000000000000000000000000000000000000000000000000000000000000000000000000000A3C7
:39497A004020000000000000000020000080000000000000000000000000000000000000000000000000000000400000000000000000000000000000BD07
:3949B3000000010000000000000400000040000000000000000000000000000000000000000000000000000000000000000000000000000000000080F80E
:3949EC00000000000000000000C0000000000001000000C0000000000000000000000000000000000000000000000000000000000000000000000000A071
:394A25008000000000000000000002000000000120000000000000000000000000000000000000000000000000000000000000000000000000000080E253
:394A5E000000000000000000000208000000004030000000000000000000000000000000000000000000000000000000000000000000000000000000E4C1
:394A97000000000000000000000000000000000000000000000000000000000000000000000000000000000000000000000000000000000000000028D3EB
:394AD0000000000000000000000000000000000000000000000000000000000000000000000000000000000000000000000000000000000000000080F934
:394B09002000000000000000000000000000800000000020000000000000000000000000000000000000000000000000000000000000000000000000D1E2
:394B42000200000000000000000000000000000000000000000000000000000000000000000000000000000000000000000000000000000000000080DBDD
:394B7B000000000000000000000000200000000000000000000000000000000000000000000000000000000000000000000000000000000000000080D988
:394BB4000800000000000000000000000000000000000000000000000000000000000000000000000000000000000000000000000000000000000000F9C7
:394BED000000000000000000000000000000000008000000000000000000000000000000000000000001000000000000000000000000000000000000E1A5
:394C26000000000000000000000000000000000000000000000000000000000000000000000000000000000000000000000000000000000000000080F9DC
:394C5F000000000000000000001000000000000000000000000000000000000000000000000000801000000000000000000000000000000000000000F18B
:394C98000000000000000000004001000000000000000000000000000000000000000000000000000400000000000000000000001400000000000080EC1E
:394CD1000000000000000000000000000000000000000000000000000000000000000000000000000000000000000000000000000000000000000080F931
:394D0A000000000000000000000000000000000000000000000000000000000000000000000000000000000000000000000000000000000000000080F9F7
:394D4300002DA00254000920017480049000124002480009000000000000000000000000000000005C000920015480049000124007548016A0025A80A36D
:394D7C00A0613581260006C00098000360000C800130000600000000000000000000000000000000320006C000C8020360000C808926D0B04056C302DD85
:024DB500FFFFFE
:00000001FF
