:020000040000FA
:39000000FFFF62FF3600FFFFFFFFFFFFFFFFFFFFFFFFFFFFFFFFFFFFFFFFFFFFFFFFFFFFFFFFFFFFFFFFFFFFFFFFFFFFFFFFFFFFFFFFFFFFFFFFFFFFFF65
:39003900000C8001300006C00018000360000C800130000600000000000000000000000000000000300006C0001800034DA0098001300006401618009809
:390072000012400248000920012480049000124002480009000000000000000000000000000000004800092001248004A800154002480009A0022400B2D0
:3900AB000000000000000000000000000000000000000000000000000000000000000000000000000000000000000000000000000000000000000080F9A3
:3900E4000000000000000000000000000000000000000000000000000000000000000000000000000000000000000000000000000000000000000080F96A
:39011D000000000000000000000000000000000000000000000000000000000000000000000000000000000000000000000000000000000000000080F930
:390156000000000000000000000000000000000000000000000000000000000000000100000000000000000000000000000000000000000000000080E807
:39018F000000000000000000000000000000000000000000000000000000000000000000000000000000000000000000000000000000000000000080F9BE
:3901C8000000000000000000000000000000000000000000000000000000000000000000000000000000000000000000000000000000000000000080F985
:390201000000000000000000000000000000000000000000000000000000000000000000000000000000000000000000000000000000000000000080F94B
:39023A000000000000000000000000000000000000000000000000000000000000000000000000000000000000000000000000000000000000000080F912
:390273000000000000000000000000000000000000000000000000000000000000000000000000000000000000000000000000000000000000000080F9D9
:3902AC000000000000000000000000000000000000000000000000000000000000000000000000000000000000000000000000000000000000000080F9A0
:3902E5000000000000000000000000000000000000000000000000000000000000000000000000000000000000000000000000000000000000000080F967
:39031E000000000000000000000000000000000000000000000000000000000000000000000000000000000000000000000000000000000000000080F92D
:390357000000000000000000000000000000000000000000000000000000000000000000000000000000000000000000000000000000000000000080F9F4
:390390000000000000000000000000000000000000000000000000000000000000000000000000000000000000000000000000000000000000000080F9BB
:3903C9000000000000000000000000000000000000000000000000000000000000000000000000000000000000000000000000000000000000000080F982
:390402000800000000000000000000000000000000000000000000000000000000000000000000000000000000000000000000000000000000000020DBBE
:39043B000000000000000000000000000000000000000000000000000000000000000000000000000000000000000000000000000000000000000080F90F
:390474000000000000000000000000000000000000000000000000000000000000000000000000000000000000000000000000000000000000000080F9D6
:3904AD000400000000000000000000000000000000000000000000000000000000000000000000000000000000000000000000000000000000000090ACD6
:3904E6000000000000000000000000000000000000000000000000000000000000000000000000000000000000000000000000000000000000000080F964
:39051F000000000000000000000000000000000000000000000000000000000000000000000000000000000000000000000000000000000000000080F92A
:390558000000000000000000000000000000000000000000000000000000000000000000000000000000000000000000000000000000000000000080F9F1
:390591000000000000000000000000000000000000000000000000000000000000000000000000000000000000000000000000000000000000000080F9B8
:3905CA000800000000000000000000000000000000000000000000000000000000000000000000000000000000000000000000000000000000000020DBF5
:390603000000000000000000000000000000000000000000000000000000000000000000000000000000000000000000000000000000000000000080F945
:39063C000000000000000000000000000000000000000000000000000000000000000000000000000000000000000000000000000000000000000080F90C
:390675000400000000000000000000000000000000000000000000000000000000000000000000000000000000000000000000000000000000000090AC0C
:3906AE000000000000000000000000000000000000000000000000000000000000000000000000000000000000000000000000000000000000000080F99A
:3906E7000000000000000000000000000000000000000000000000000000000000000000000000000000000000000000000000000000000000000080F961
:390720000000000000000000000000000000000000000000000000000000000000000000000000000000000000000000000000000000000000000080F927
:390759000000000000000000000000000000000000000000000000000000000000000000000000000000000000000000000000000000000000000080F9EE
:390792000800000000000000000000000000000000000000000000000000000000000000000000000000000000000000000000000000000000000020DB2B
:3907CB000000000000000000000000000000000000000000000000000000000000000000000000000000000000000000000000000000000000000080F97C
:390804000000000000000000000000000000000000000000000000000000000000000000000000000000000000000000000000000000000000000080F942
:39083D000400000000000000000000000000000000000000000000000000000000000000000000000000000000000000000000000000000000000090AC42
:390876000000000000000000000000000000000000000000000000000000000000000000000000000000000000000000000000000000000000000080F9D0
:3908AF000000000000000000000000000000000000000000000000000000000000000000000000000000000000000000000000000000000000000080F997
:3908E8000000000000000000000000000000000000000000000000000000000000000000000000000000000000000000000000000000000000000080F95E
:390921000000000000000000000000000000000000000000000000000000000000000000000000000000000000000000000000000000000000000080F924
:39095A000800000000000000000000000000000000000000000000000000000000000000000000000000000000000000000000000000000000000020DB61
:390993000000000000000000000000000000000000000000000000000000000000000000000000000000000000000000000000000000000000000080F9B2
:3909CC000000000000000000000000000000000000000000000000000000000000000000000000000000000000000000000000000000000000000080F979
:390A05000400000000000000000000000000000000000000000000000000000000000000000000000000000000000000000000000000000000000090AC78
:390A3E000000000000000000000000000000000000000000000000000000000000000000000000000000000000000000000000000000000000000080F906
:390A77000000000000000000000000000000000000000000000000000000000000000000000000000000000000000000000000000000000000000080F9CD
:390AB0000000000000000000000000000000000000000000000000000000000000000000000000000000000000000000000000000000000000000080F994
:390AE9000000000000000000000000000000000000000000000000000000000000000000000000000000000000000000000000000000000000000080F95B
:390B22000800000000000000000000000000000000000000000000000000000000000000000000000000000000000000000000000000000000000020DB97
:390B5B000000000000000000000000000000000000000000000000000000000000000000000000000000000000000000000000000000000000000080F9E8
:390B94000000000000000000000000000000000000000000000000000000000000000000000000000000000000000000000000000000000000000080F9AF
:390BCD000400000000000000000000000000000000000000000000000000000000000000000000000000000000000000000000000000000000000090ACAF
:390C06000000000000000000000000000000000000000000000000000000000000000000000000000000000000000000000000000000000000000080F93C
:390C3F000000000000000000000000000000000000000000000000000000000000000000000000000000000000000000000000000000000000000080F903
:390C78000000000000000000000000000000000000000000000000000000000000000000000000000000000000000000000000000000000000000080F9CA
:390CB1000000000000000000000000000000000000000000000000000000000000000000000000000000000000000000000000000000000000000080F991
:390CEA000800000000000000000000000000000000000000000000000000000000000000000000000000000000000000000000000000000000000020DBCE
:390D23000000000000000000000000000000000000000000000000000000000000000000000000000000000000000000000000000000000000000080F91E
:390D5C000000000000000000000000000000000000000000000000000000000000000000000000000000000000000000000000000000000000000080F9E5
:390D95000400000000000000000000000000000000000000000000000000000000000000000000000000000000000000000000000000000000000090ACE5
:390DCE000000000000000000000000000000000000000000000000000000000000000000000000000000000000000000000000000000000000000080F973
:390E07000000000000000000000000000000000000000000000000000000000000000000000000000000000000000000000000000000000000000080F939
:390E40000000000000000000000000000000000000000000000000000000000000000000000000000000000000000000000000000000000000000080F900
:390E79000000000000000000000000000000000000000000000000000000000000000000000000000000000000000000000000000000000000000080F9C7
:390EB2000800000000000000000000000000000000000000000000000000000000000000000000000000000000000000000000000000000000000020DB04
:390EEB000000000000000000000000000000000000000000000000000000000000000000000000000000000000000000000000000000000000000080F955
:390F24000000000000000000000000000000000000000000000000000000000000000000000000000000000000000000000000000000000000000080F91B
:390F5D000400000000000000000000000000000000000000000000000000000000000000000000000000000000000000000000000000000000000090AC1B
:390F96000000000000000000000000000000000000000000000000000000000000000000000000000000000000000000000000000000000000000080F9A9
:390FCF000000000000000000000000000000000000000000000000000000000000000000000000000000000000000000000000000000000000000080F970
:391008002000048000100002400008000120000480001000000000000000000000000000000000800010000240000800012000048000100002400080F9B2
:391041000000000000000000000000000000000000000000000000000000000000000000000000000000000000000000000000000000000000000080F9FD
:39107A002800048000100002400008000120000480001000000000000000000000000000000000800010000240000800012000048000100002400020DBB6
:3910B3000000000000000000000000000000000000000000000000000000000000000000000000000000000000000000000000000000000000000080F98B
:3910EC002000048000100002400008000120000480001000000000000000000000000000000000800010000240000800012000048000100002400080F9CE
:391125000400000000000000000000000000000000000000000000000000000000000000000000000000000000000000000000000000000000000090AC51
:39115E002000048000100002400008000120000480001000000000000000000000000000000000800010000240000800012000048000100002400080F95B
:391197000000000000000000000000000000000000000000000000000000000000000000000000000000000000000000000000000000000000000080F9A6
:3911D0000000000000000000000000000000000000000000000000000000000000000000000000000000000000000000000000000000000000000080F96D
:391209000000000000000000000000000000000000000000000000000000000000000000000000000000000000000000000000000000000000000080F933
:391242000000000000000000000000000000000000000000000000000000000000000000000000000000000000000000000000000000000000000080F9FA
:39127B000000000000000000000000000000000000000000000000000000000000000000000000000000000000000000000000000000000000000080F9C1
:3912B4000000000000000000000000000000000000000000000000000000000000000000000000000000000000000000000000000000000000000080F988
:3912ED000000000000000000000000000000000000000000000000000000000000000000000000000000000000000000000000000000000000000080F94F
:391326000000000000000000000000000000000000000000000000000000000000000000000000000000000000000000000000000000000000000080F915
:39135F000000000000000000000000000000000000000000000000000000000000000000000000000000000000000000000000000000000000000080F9DC
:391398000000000000000000000000000000000000000000000000000000000000000000000000000000000000000000000000000000000000000080F9A3
:3913D1000000000000000000000000000000000000000000000000000000000000000000000000000000000000000000000000000000000000000080F96A
:39140A000000000000000000000000000000000000000000000000000000000000000000000000000000000000000000000000000000000000000080F930
:391443000000000000000000000000000000000000000000000000000000000000000000000000000000000000000000000000000000000000000080F9F7
:39147C000000000000000000000000000000000000000000000000000000000000000000000000000000000000000000000000000000000000000080F9BE
:3914B5000000000000000000000000000000000000000000000000000000000000000000000000000000000000000000000000000000000000000080F985
:3914EE000000000000000000000000000000000000000000000000000000000000000000000000000000000000000000000000000000000000000080F94C
:391527000000000000000000000000000000000000000000000000000000000000000000000000000000000000000000000000000000000000000080F912
:391560000000000000000000000000000000000000000000000000000000000000000000000000000000000000000000000000000000000000000080F9D9
:391599000000000000000000000000000000000000000000000000000000000000000000000000000000000000000000000000000000000000000080F9A0
:3915D2000000000000000000000000000000000000000000000000000000000000000000000000000000000000000000000000000000000000000080F967
:39160B000000000000000000000000000000000000000000000000000000000000000000000000000000000000000000000000000000000000000080F92D
:391644000000000000000000000000000000000000000000000000000000000000000000000000000000000000000000000000000000000000000080F9F4
:39167D000000000000000000000000000000000000000000000000000000000000000000000000000000000000000000000000000000000000000080F9BB
:3916B6000000000000000000000000000000000000000000000000000000000000000000000000000000000000000000000000000000000000000080F982
:3916EF000000000000000000000000000000000000000000000000000000000000000000000000000000000000000000000000000000000000000080F949
:391728000000000000000000000000000000000000000000000000000000000000000000000000000000000000000000000000000000000000000080F90F
:391761000000000000000000000000000000000000000000000000000000000000000000000000000000000000000000000000000000000000000080F9D6
:39179A000000000000000000000000000000000000000000000000000000000000000000000000000000000000000000000000000000000000000080F99D
:3917D3000000000000000000000000000000000000000000000000000000000000000000000000000000000000000000000000000000000000000080F964
:39180C000000000000000000000000000000000000000000000000000000000000000000000000000000000000000000000000000000000000000080F92A
:391845000000000000000000000000000000000000000000000000000000000000000000000000000000000000000000000000000000000000000080F9F1
:39187E000000000000000000000000000000000000000000000000000000000000000000000000000000000000000000000000000000000000000080F9B8
:3918B7000000000000000000000000000000000000000000000000000000000000000000000000000000000000000000000000000000000000000080F97F
:3918F0000000000000000000000000000000000000000000000000000000000000000000000000000000000000000000000000000000000000000080F946
:391929000000000000000000000000000000000000000000000000000000000000000000000000000000000000000000000000000000000000000080F90C
:391962000000000000000000000000000000000000000000000000000000000000000000000000000000000000000000000000000000000000000080F9D3
:39199B000000000000000000000000000000000000000000000000000000000000000000000000000000000000000000000000000000000000000080F99A
:3919D4000000000000000000000000000000000000000000000000000000000000000000000000000000000000000000000000000000000000000080F961
:391A0D000000000000000000000000000000000000000000000000000000000000000000000000000000000000000000000000000000000000000080F927
:391A46000000000000000000000000000000000000000000000000000000000000000000000000000000000000000000000000000000000000000080F9EE
:391A7F000000000000000000000000000000000000000000000000000000000000000000000000000000000000000000000000000000000000000080F9B5
:391AB8000000000000000000000000000000000000000000000000000000000000000000000000000000000000000000000000000000000000000080F97C
:391AF1000000000000000000000000000000000000000000000000000000000000000000000000000000000000000000000000000000000000000080F943
:391B2A000000000000000000000000000000000000000000000000000000000000000000000000000000000000000000000000000000000000000080F909
:391B63000000000000000000000000000000000000000000000000000000000000000000000000000000000000000000000000000000000000000080F9D0
:391B9C000000000000000000000000000000000000000000000000000000000000000000000000000000000000000000000000000000000000000080F997
:391BD5000000000000000000000000000000000000000000000000000000000000000000000000000000000000000000000000000000000000000080F95E
:391C0E000000000000000000000000000000000000000000000000000000000000000000000000000000000000000000000000000000000000000080F924
:391C4700000000000000000000000000000000000000000000000000000000C000000000000000600000000000000000000000000000000000000080952F
:391C80000000000000000000000000000000000000000000000000000000003000000000000000180000000000000000000000000000000000000080E281
:391CB9000000000000000000000000000000000000000000000000000000003000000000000000180000000000000000000000000000000000000080E248
:391CF20008000000000000000000000000000000000000000000000000000028000000000000001400000000000000000000000000000000000000A0CD08
:391D2B000000000000000000000000000000000000000000000000000000002800000000000000140000000000000000000000000000000000000000EF54
:391D64000000000000000000000000000000000000000000000000000000000000000000000000000000000000000000000000000000000000000080F9CD
:391D9D000400000000000000000000000000000000000000000000000000000000000000000000000000000000000000000000000000000000000090ACCD
:391DD6000000000000000000000000000000000000000000000000000000000800000000000000040000000000000000000000000000000000000000FDCB
:391E0F000000000000000000000000000000000000000000000000000000008000000000000000400000000000000000000000000000000000000080B1A9
:391E48000000000000000000000000000000000000000000000000000000009000000000000000480000000000000000000000000000000000000080B851
:391E81000000000000000000000000000000000000000000000000000000000000000000000000000000000000000000000000000000000000000080F9AF
:391EBA0008000000000000000000000000000000000000000000000000000008000000000000000400000000000000000000000000000000000000A0DF5C
:391EF3000000000000000000000000000000000000000000000000000000002000000000000000100000000000000000000000000000000000000080EB1B
:391F2C000000000000000000000000000000000000000000000000000000000000000000000000000000000000000000000000000000000000000080F903
:391F65000400000000000000000000000000000000000000000000000000001000000000000000080000000000000000000000000000000000000090A5F2
:391F9E000000000000000000000000000000000000000000000000000000004000000000000000200000000000000000000000000000000000000080DD4D
:391FD7000000000000000000000000000000000000000000000000000000000000000000000000000000000000000000000000000000000000000080F958
:392010000000000000000000000000000000000000000000000000000000001000000000000000000000000000000000000000000000000000000080F80F
:392049000000000000000000000000000000000000000000000000000000004000000000000000240000000000000000000000000000000000000080D9A1
:392082000800000000000000000000000000000000000000000000000000000000000000000000000000000000000000000000000000000000000020DB22
:3920BB000000000000000000000000000000000000000000000000000000004800000000000000240000000000000000000000000000000000000000D9A7
:3920F4000000000000000000000000000000000000000000020000000000000801000000000000080000000000000000000000000000000000000000E3BD
:39212D00040000000000000000000000000000000000000020000000000000401000000000000010000000000000000000000000000000000000009089DC
:392166000000000000000000000000000000000000000000240000000000002012000000000000100000000000000000000000000000000000000080FE5C
:39219F000000000000000000000000000000000000000000000000000000000000000000000000000000000000000000000000000000000000000080F98E
:3921D8000000000000000000000000000000000000000000020000000000004001000000000000200000000000000000000000000000000000000080CF1C
:392211000000000000000000000000000000000000000000080000000000000004000000000000000000000000000000000000000000000000000080B157
:39224A000800000000000000000000000000000000000000000000000000000000000000000000000000000000000000000000000000000000000020DB58
:392283000000000000000000000000000000000000000000040000000000001002000000000000080000000000000000000000000000000000000080D4B0
:3922BC000000000000000000000000000000000000000000100000000000000008000000000000000000000000000000000000000000000000000000E1F0
:3922F5000400000000000000000000000000000000000000000000000000000000000000000000000000000000000000000000000000000000000090AC70
:39232E000000000000000000000000000000000000000000040000000000000002000000000000000000000000000000000000000000000000000080DD13
:392367000000000000000000000000000000000000000000100000000000000008000000000000000000000000000000000000000000000000000000E144
:3923A0000000000000000000000000000000000000000000000000000000000000000000000000000000000000000000000000000000000000000080F98B
:3923D9000000000000000000000000000000000000000000120000000000000009000000000000000000000000000000000000000000000000000000F3BD
:392412000800000000000000000000000000000000000000040000000000000002000000000000000000000000000000000000000000000000000020FF64
:39244B000000000000000000000000000000000000000000080000000000000004000000000000000000000000000000000000000000000000000080B11B
:392484000000000000000000000000000000000000000000080000000000000004000000000000000000000000000000000000000000000000000080B1E2
:3924BD000400000000000000000000000000000000000000000000000000000000000000000000000000000000000000000000000000000000000090ACA6
:3924F6000000000000000000000000000000000000000000100000000000000008000000000000000000000000000000000000000000000000000000E1B4
:39252F000000000000000000000000000000000000000000000000000000000000000000000000000000000000000000000000000000000000000080F9FA
:392568000000000000000000000000000000000000000000000000000000000000000000000000000000000000000000000000000000000000000080F9C1
:3925A1000000000000000000000000000000000000000000040000000000000002000000000000000000000000000000000000000000000000000080DD9E
:3925DA000800000000000000000000000000000000000000000000000000000000000000000000000000000000000000000000000000000000000020DBC5
:392613000000000000000000000000000000000000000000000000000000002000000000000000200000000000000000000000000000000000000080DBF3
:39264C000000000000000000000000000000000000000000000000000000000000000000000000000000000000000000000000000000000000000080F9DC
:392685000400000000000000000000000000000000000000000000000000000000000000000000000000000000000000000000000000000000000090ACDC
:3926BE000000000000000000000000000000000000000000000000000000000000000000000000000000000000000000000000000000000000000080F96A
:3926F7000000000000000000000000000000000000000000000000000000000000000000000000000000000000000000000000000000000000000080F931
:392730000000000000000000000000000000000000000000000000000000000000000000000000000000000000000000000000000000000000000080F9F7
:392769000000000000000000000000000000000000000000000000000000000000000000000000000000000000000000000000000000000000000080F9BE
:3927A20008000000000000000000000000000000000000001000000000000040080000000000002000000000000000000000000000000000000000A0E7F7
:3927DB0000000000000000000000000000000000000000000800000000000040040000000000002000000000000000000000000000000000000000809544
:3928140000000000000000000000000000000000000000001C000000000000400E000000000000200000000000000000000000000000000000000000A958
:39284D00040000000000000000000000000000000000000016000000000000400B000000000000200000000000000000000000000000000000000010A617
:392886000000000000000000000000000000000000000000100000000000002008000000000000100000000000000000000000000000000000000000F3DE
:3928BF000000000000000000000000000000000000000000100000000000001008000000000000080000000000000000000000000000000000000000E8C8
:3928F8002000048000100002400008000120000480001000000000000000004000000000000000A00010000240000800012000048000100002400080DD66
:392931000000000000000000000000000000000000000000000000000000000000000000000000000000000000000000000000000000000000000080F9F4
:39296A002800048000100002400008000120000480001000000000000000000000000000000000800010000240000800012000048000100002400020DBAD
:3929A3000000000000000000000000000000000000000000000000000000000000000000000000000000000000000000000000000000000000000080F982
:3929DC002000048000100002400008000120000480001000000000000000000000000000000000800010000240000800012000048000100002400080F9C5
:392A15000400000000000000000000000000000000000000000000000000000000000000000000000000000000000000000000000000000000000090AC48
:392A4E002000048000100002400008000120000480001000000000000000000000000000000000800010000240000800012000048000100002400080F952
:392A87000000000000000000000000000000000000000000000000000000000000000000000000000000000000000000000000000000000000000080F99D
:392AC0000000000000000000000000000000000000000000000000000000000000000000000000000000000000000000000000000000000000000080F964
:392AF9000000000000000000000000000000000000000000000000800000000000000000000000000000000000000000000000000000000000000000F133
:392B32000000000000000000000000000000000000000000000000000000000000000000000000000000000000000000000000000000000000000080F9F1
:392B6B000000000000000000000000000000000000000000000000000000000000000000000000000000000000000000000000000000000000000080F9B8
:392BA4000000000000000000000000000000000000000000000000000000000000000000000000000000000000000000000000000000000000000080F97F
:392BDD000000000000000000000000000000000000000000000000000000000000000000000000000000000000000000000000000000000000000080F946
:392C16000000000000000000000000000000000000000000000000000000000000000000000000000000000000000000000000000000000000000080F90C
:392C4F000000000000000000000000000000000000000000000000000000000000000000000000000000000000000000000000000000000000000080F9D3
:392C88000000000000000000000000000000000000000000000000000000000000000000000000000000000000000000048000000000000000040080F11A
:392CC1000000000000000000000000000000000000000000000000000000000000000000000000000000000000000000080001000000000000100080F150
:392CFA000000000000000000000000000000000000000000000000000000000000000000000000000000000000000000000000000000000000000080F928
:392D33000000000000000000000000000000000000000000000000000000000000000000000000000000000000000000000000000000000000000080F9EE
:392D6C000000000000000000000000000000000000000000000000000000000000000000000000000000000000000000000000000000000000000080F9B5
:392DA5000000000000000000000000000000000000000000000000000000000000000000000000000000000000000000000000000000000000000080F97C
:392DDE000000000000000000000000000000000000000000044000100040000002200008002000000000000000000000000000000000000000000000A737
:392E17000000000000000000000000000000000000000000000000000000000000000000000000000000000000000000000000000000000000000080F909
:392E50000000000000000000000000000000000000000000000000000000000000000000000000000000000000000000000000000000000000000080F9D0
:392E89000000000000000000000000000000000000000000000000000000000000000000000000000000000000000000000000000000000000000080F997
:392EC200000000000000000000000000000000000000000010000040000000000800002000000000000000000000000000000000000000000000000083DC
:392EFB000000000000000000000000000000000000000000022008088000080001100404400004000000000000000000000000000000000000000000FD8A
:392F34000000000000000000000000000000000000000000001000004000000000080000200000000000000000000000000000000000000000000080D498
:392F6D0000000000000000000000000000000000000000000000000000000000000000000000000000000000000000000000000004002010000000809CDB
:392FA6000000000000000000000000000000000000000000000000000000000000000000000000000000000000000000000000000000000000000080F979
:392FDF000000000000000000000000000000000000000000000000100000000000000008000000000000000000000000000000001000204000000000C46D
:393018000000000000000000000000000000000000000000000000000000000000000000000000000000000000000000000000000002000000008180C0BC
:393051000000000000000000000000000000000000000000000000000000000000000000000000000000000000000000000000000001000000804000E5A0
:39308A000000000000000000000000000000000000000000000000000000000000000000000000000000000000000000000000000000000000000080F994
:3930C3000000000000000000000000000000000000000000000000000000000000000000000000000000000000000000000000000000000000000080F95B
:3930FC000000000000000000000000000000000000000000000000000000000000000000000000000000000000000000000000000000000000000080F922
:393135000000000000000000000000000000000000000000000000000000000000000000000000000000000000000000000000000000000000000080F9E8
:39316E0000000000000000000000000000000000000000004000000001000000200000800000000000000000000000000000000000000000000000008ABD
:3931A7000000000000000000000000000000000000000000000000000000000000000000000000000000000000000000000000000000000000000080F976
:3931E0000000000000000000000000000000000000000000000000000000000000000000000000000000000000000000000000000000000000000080F93D
:393219000000000000000000000000000000000000000000000000000000000000000000000000000000000000000000000000000000000000000080F903
:393252000000000000000000000000000000000000000000000000000000000000000000000000000000000000000000000000000000000000000080F9CA
:39328B000000000000000000000000000000000000000000000004010000000100008200100042000000000000000000000000000000000000000080F7B9
:3932C4000000000000000000000000000000000000000000000000011000000100008000000080000000000000000000000000000000000000000000E0DF
:3932FD000000000000000000000000000000000000000000000000000000000000000000000000000000000000000000000000000000000000000080F91F
:393336000000000000000000000000000000000000000000000000000000000000000000000000000000000000000000000000000000000000000080F9E5
:39336F000000000000000000000000000000000000000000000000000000000000000000000000000000000000000000000000000000000000000080F9AC
:3933A8000000000000000000000000000000000000000000000000000000000000000000000000000000000000000000000000000000000000000080F973
:3933E1000000000000000000000000000000000000000000000000000000000000000000000000000000000000000000000000000000000000000080F93A
:39341A000000000000000000000000000000000000000000000000000000000000000000000000000000000000000000000000000000000000000080F900
:393453000000000000000000000000000000000000000000000000000000000000000000000000000000000000000000000000000000000000000080F9C7
:39348C000000000000000000000000000000000000000000000000000000000000000000000000000000000000000000000000000000000000000080F98E
:3934C5000000000000000000000000000000000000000000000000000000000000000000000000000000000000000000000000000000000000000080F955
:3934FE000000000000000000000000000000000000000000000000000000000000000000000000000000000000000000000000000000000000000080F91C
:39353700000000000000000000000000000000000000000000000000000000C000000000000000600000000000000000000000000000000000400080D5A6
:393570000000000000000000000000000000000000000000000000000000003000000000000000180000000000000000000000000000000000000080E278
:3935A9000000000000000000000000000000000000000000000000000000003000000000000000180000000000000000000000000000000000000382F12B
:3935E20008000000000000000000000000000000000000000000000000000028000000000000001400000000000000000000000000000000000000A0CDFF
:39361B000000000000000000000000000000000000000000000000000000002800000000000000140000000000000000000000000000000000000B80DCD3
:393654000000000000000000000000000000000000000000000000000000000000000000000000000000000000000000000000000000000000C0000291EA
:39368D0004000000000000000000000000000000000000000000000000000000000000000000000000000000000000000000000000000000000003918FDD
:3936C6000000000000000000000000000000000000000000000000000000005000000000000000280000000000000000000000000000000000000B00E761
:3936FF0000000000000000000000000000000000000000000000000000000000000000000000000000000000000000000000000000000000000000C0BD15
:393738000000000000000000000000000000000000000000000000000000009000000000000000480000000000000000000000000000000000000080B848
:393771000000000000000000000000000000000000000000000000000000000000000000000000000000000000000000000000000000000000000080F9A6
:3937AA000800000000000000000000000000000000000000000000000000001000000000000000080000000000000000000000000000000000000030C3D3
:3937E3000000000000000000000000000000000000000000000000000000008000000000000000400000000000000000000000000000000000000090A0BD
:39381C000000000000000000000000000000000000000000000000000000002000000000000000100000000000000000000000000000000000000080EBD8
:3938550004000000000000000000000000000000000000000000000000000008000000000000000400000000000000000000000000000000000000308A70
:39388E000000000000000000000000000000000000000000000000000000004000000000000000200000000000000000000000000000000000000080DD44
:3938C7000000000000000000000000000000000000000000000000000000000000000000000000000000000000000000000000000000000000000080F94F
:393900000000000000000000000000000000000000000000000000000000003000000000000000180000000000000000000000000000000000000080E2E4
:393939000000000000000000000000000000000000000000000000000000000000000000000000000000000000000000000000000000000000000080F9DC
:393972000800000000000000000000000000000000000000000000000000000000000000000000000000000000000000000000000000000000000020DB19
:3939AB000000000000000000000000000000000000000000000000000000004800000000000000240000000000000000000000000000000000000000D99E
:3939E400000000000000000000000000000000000000000014000000000000000A000000000000080000000000000000000000000000000000000000CDB7
:393A1D000400000000000000000000000000000000000000000000000000002000000000000000100000000000000000000000000000000000000090BEEE
:393A56000000000000000000000000000000000000000000240000000000000812000000000000040000000000000000000000000000000000000000E80D
:393A8F000000000000000000000000000000000000000000000000000000004000000000000000200000000000000000000000000000000000000080DD41
:393AC8000000000000000000000000000000000000000000040000000000004002000000000000100000000000000000000000000000000000000080C926
:393B01000000000000000000000000000000000000000000200000000000000010000000000000000000000000000000000000000000000000000080C813
:393B3A000800000000000000000000000000000000000000080000000000000004000000000000000000000000000000000000000000000000000020938B
:393B73000000000000000000000000000000000000000000020000000000001001000000000000080000000000000000000000000000000000000080E29C
:393BAC000000000000000000000000000000000000000000100000000000000008000000000000000000000000000000000000000000000000000000E1E7
:393BE5000400000000000000000000000000000000000000000000000000000000000000000000000000000000000000000000000000000000000090AC67
:393C1E0000000000000000000000000000000000000000000C00000000000000060000000000000000000000000000000000000000000000000000809546
:393C57000000000000000000000000000000000000000000000000000000000000000000000000000000000000000000000000000000000000000080F9BB
:393C90000000000000000000000000000000000000000000000000000000000000000000000000000000000000000000000000000000000000000080F982
:393CC9000000000000000000000000000000000000000000120000000000000009000000000000000000000000000000000000000000000000000000F3B4
:393D02000800000000000000000000000000000000000000040000000000000002000000000000000000000000000000000000000000000000000020FF5B
:393D3B000000000000000000000000000000000000000000080000000000000004000000000000000000000000000000000000000000000000000080B112
:393D74000000000000000000000000000000000000000000020000000000000001000000000000000000000000000000000000000000000000000080EBA8
:393DAD000400000000000000000000000000000000000000100000000000000008000000000000000000000000000000000000000000000000000010B4FD
:393DE6000000000000000000000000000000000000000000100000000000000008000000000000000000000000000000000000000000000000000000E1AB
:393E1F000000000000000000000000000000000000000000000000000000000000000000000000000000000000000000000000000000000000000080F9F1
:393E58000000000000000000000000000000000000000000000000000000000000000000000000000000000000000000000000000000000000000080F9B8
:393E91000000000000000000000000000000000000000000040000000000000002000000000000000000000000000000000000000000000000000080DD95
:393ECA000800000000000000000000000000000000000000000000000000000000000000000000200000000000000000000000000000000000000020FB7C
:393F03000000000000000000000000000000000000000000000000000000002000000000000000040000000000000000000000000000000000000080FFE2
:393F3C000000000000000000000000000000000000000000000000000000000000000000000000000000000000000000000000000000000000000080F9D3
:393F75000400000000000000000000000000000000000000000000000000000000000000000000000000000000000000000000000000000000000090ACD3
:393FAE000000000000000000000000000000000000000000000000000000000000000000000000000000000000000000000000000000000000000080F961
:393FE7000000000000000000000000000000000000000000000000000000000000000000000000000000000000000000000000000000000000400080B928
:394020000000000000000000000000000000000000000000000000000000000000000000000000000000000000000000000000000000000000000080F9EE
:394059000000000000000000000000000000000000000000000000000000000000000000000000000000000000000000000000000000000000000382EABF
:3940920008000000000000000000000000000000000000001000000000000040080000000000002000000000000000000000000000000000000000A0E7EE
:3940CB000000000000000000000000000000000000000000080000000000004004000000000000200000000000000000000000000000000000000384E6E3
:3941040000000000000000000000000000000000000000001C000000000000400E000000000000200000000000000000000000000000000000C00080E1D7
:39413D00040000000000000000000000000000000000000016000000000000400B000000000000200000000000000000000000000000000000000310951C
:394176000000000000000000000000000000000000000000100000000000003008000000000000180000000000000000000000000000000000000B848998
:3941AF000000000000000000000000000000000000000000100000000000000008000000000000000000000000000000000000000000000000000040A5DA
:3941E8002000048000100002400008000120000480001000000000000000004000000000000000A00010000240000800012000048000100002400080DD5D
:394221000000000000000000000000000000000000000000000000000000000000000000000000000000000000000000000000000000000000000080F9EB
:39425A0024000480001000024000080001200004800010000000000000000000000000000000008000100002400008000120000480001000024000B08E65
:394293000C00000000000000000000000000000000000000000000000000000000000000000000000000000000000000000000000000000000000010AC2A
:3942CC002000048000100002400008000120000480001000000000000000000000000000000000800010000240000800012000048000100002400080F9BC
:394305000800000000000000000000000000000000000000000000000000000000000000000000000000000000000000000000000000000000000030CA7D
:39433E002000048000100002400008000120000480001000000000000000000000000000000000800010000240000800012000048000100002400080F949
:394377000000000000000000000000000000000000000000000000000000000000000000000000000000000000000000000000000000000000000080F994
:3943B0000000000000000000000000000000000000000000000000000000000000000000000000000000000000000000000000000000000000000080F95B
:3943E9000000000000000000000000000000000000000000000000800000000000000000000000000000000000000000000000000000000000000000F12A
:394422000000000000000000000000000000000000000000000000000000000000000000000000000000000000000000000000000000000000000080F9E8
:39445B000000000000000000000000000000000000000000000000000000000000000000000000000000000000000000000000000000000000000080F9AF
:394494000000000000000000000000000000000000000000000000000000000000000000000000000000000000000000000000000000000000000080F976
:3944CD000000000000000000000000000000000000000000000000000000000000000000000000000000000000000000000000000000000000000080F93D
:3945060000000000000000000000000000000000000000000000000000000000000000000000000000000000000000000000000000000000000000A0DB01
:39453F000000000000000000000000000000000000000000000000000000000000000000000000000000000000000000000000000000000000000080F9CA
:394578000000000000000000000000000000000000000000000000000000000000000000000000000000000000000000048000000000000000048080F989
:3945B1000000000000000000000000000000000000000000000000000000000000000000000000000000000000000000080001000000000000108080F9BF
:3945EA0000000000000000000000000000000000000000000000000000000000000000000000000000000000000000000000000000000000000000A0DB1D
:394623000000000000000000000000000000000000000000000000000000000000000000000000000000000000000000000000000000000000000080F9E5
:39465C000000000000000000000000000000000000000000000000000000000000000000000000000000000000000000000000000000000000000080F9AC
:394695000000000000000000000000000000000000000000000000000000000000000000000000000000000000000000000000000000000000000080F973
:3946CE000000000000000000000000000000000000000000080080200000800004004010000040000000000000000000000000000000000000000080C8AF
:394707000000000000000000000000000000000000000000000000000000000000000000000000000000000000000000000000000000000000000080F900
:394740000000000000000000000000000000000000000000000000000000000000000000000000000000000000000000000000000000000000000080F9C7
:394779000000000000000000000000000000000000000000000000000000000000000000000000000000000000000000000000000000000000000080F98E
:3947B2000000000000000000000000000000000000000000002000008000000000100000400000000000000000000000000000000000000000000080A3BB
:3947EB00000000000000000000000000000000000000000002000808000008000100040C000000000000000000000000000000000000000000000080EFFB
:394824000000000000000000000000000000000000000000001040004000400000082000200020000000000000000000000000000000000000000080F0B3
:39485D0000000000000000000000000000000000000000000000000000000000000000000000000000000000000000000000000004002010000000089452
:394896000000000000000000000000000000000000000000000000000000000000000000000000000000000000000000000000000000000000000080F970
:3948CF000000000000000000000000000000000000000000000000000000000000000000000000000000000000000000000000001000204000000080DCE4
:394908000000000000000000000000000000000000000000000000600000000000000030000000000000000000000000000000000002000028008100B982
:394941000000000000000000000000000000000000000000000000200000000000000010000000000000000000000000000000000001000008804080DCE8
:39497A0000000000000000000000000000000000000000000000004000000000000000200000000000000000000000000000000000000000000000809B89
:3949B3000000000000000000000000000000000000000000000000000000000000000000000000000000000000000000000000000000000000000180E862
:3949EC000000000000000000000000000000000000000000000000000000000000000000000000000000000000000000000000000000000000000080F919
:394A25000000000000000000000000000000000000000000000000000000000000000000000000000000000000000000000000000000000000000080F9DF
:394A5E0000000000000000000000000000000000000000004000000001000000200000800000000000000000000000000000000000000000000000008AB4
:394A97000200000000000000000000000000000000000000000000000000000000000000000000000000000000000000000000000000000000000080DB89
:394AD0000000000000000000000000000000000000000000000000000000000000000000000000000000000000000000000000000000000000008080F1BC
:394B09000000000000000000000000000000000000000000000000000000000000000000000000000000000000000000000000000000000000000082D918
:394B42000000000000000000000000000000000000000000000000000000000000000000000000000000000000000000000000000000000000000080F9C1
:394B7B000000000000000000000000000000000000000000000004000000000000000200000006000000000000000000000000000000000000000080FB7A
:394BB4000000000000000000000000000000000000000000008000010080040100408000004080000000000000000000000000000000000000000080A919
:394BED000000000000000000000000000000000000000000000000000000000000000000000000000000000000000000000000000000000000000084B952
:394C26000000000000000000000000000000000000000000000000000000000000000000000000000000000000000000000000000000000000000800F954
:394C5F000000000000000000000000000000000000000000000000000000000000000000000000000000000000000000000000000000000000000080F9A3
:394C98000000000000000000000000000000000000000000000000000000000000000000000000000000000000000000000000000000000000000080F96A
:394CD1000000000000000000000000000000000000000000000000000000000000000000000000000000000000000000000000000000000000000080F931
:394D0A000000000000000000000000000000000000000000000000000000000000000000000000000000000000000000000000000000000000000080F9F7
:394D43000012400248000920012480049000124002480009000000000000000000000000000000004800092001248004900012400554801620015A80C8E6
:394D7C00000C8001300006C00018000360000C800130000600000000000000000000000000000000300006C00018000360000C809C26E070C040C30283E6
:024DB500FFFFFE
:00000001FF
