:020000040000FA
:39000000FFFF62FF3600FFFFFFFFFFFFFFFFFFFFFFFFFFFFFFFFFFFFFFFFFFFFFFFFFFFFFFFFFFFFFFFFFFFFFFFFFFFFFFFFFFFFFFFFFFFFFFFFFFFFFF65
:39003900000C8001300006C00018000360000C800130000600000000000000000000000000000000300006C00018000360000C8001300006C0001880F948
:390072000012400248000920012480049000124002480009000000000000000000000000000000004800092001248004900012400248000920012480F9A5
:3900AB000000000000000000000000000000000000000000000000000000000000000000000000000000000000000000000000000000000000000080F9A3
:3900E4000000000000000000000000000000000000000000000000000000000000000000000000000000000000000000000000000000000000000080F96A
:39011D000000000000000000000000000000000000000000000000000000000000000000000000000000000000000000000000000000000000000080F930
:390156000000000000000000000000000000000000000000000000000000000000000100000000000000000000000000000000000000000000000080E807
:39018F000000000000000000000000000000000000000000000000000000000000000000000000000000000000000000000000000000000000000080F9BE
:3901C8000000000000000000000000000000000000000000000000000000000000000000000000000000000000000000000000000000000000000080F985
:390201000000000000000000000000000000000000000000000000000000000000000000000000000000000000000000000000000000000000000080F94B
:39023A000000000000000000000000000000000000000000000000000000000000000000000000000000000000000000000000000000000000000080F912
:390273000000000000000000000000000000000000000000000000000000000000000000000000000000000000000000000000000000000000000080F9D9
:3902AC000000000000000000000000000000000000000000000000000000000000000000000000000000000000000000000000000000000000000080F9A0
:3902E5000000000000000000000000000000000000000000000000000000000000000000000000000000000000000000000000000000000000000080F967
:39031E000000000000000000000000000000000000000000000000000000000000000000000000000000000000000000000000000000000000000080F92D
:390357000000000000000000000000000000000000000000000000000000008800000000000000440000000000000000000000000000000000000000B5EC
:390390000000000000000000000000000000000000000000000000000000003000000000000000180000000000000000000000000000000000000080E28A
:3903C9000000000000000000000000000000000000000000000000000000003000000000000000180000000000000000000000000000000000000080E251
:3904020008000000000000000000000000000000000000000000000000000028000000000000001400000000000000000000000000000000000000A0CD10
:39043B000000000000000000000000000000000000000000000000000000002800000000000000140000000000000000000000000000000000000000EF5D
:390474000000000000000000000000000000000000000000000000000000000000000000000000000000000000000000000000000000000000000080F9D6
:3904AD000400000000000000000000000000000000000000000000000000000000000000000000000000000000000000000000000000000000000090ACD6
:3904E6000000000000000000000000000000000000000000000000000000000000000000000000000000000000000000000000000000000000000080F964
:39051F0010000000000000000000000000000000000000000000000000000000000000000000000000000000000000000000000000000000000000C0BC17
:390558000000000000000000000000000000000000000000000000000000000000000000000000000000000000000000000000000000000000000080F9F1
:390591000000000000000000000000000000000000000000000000000000000000000000000000000000000000000000000000000000000000000080F9B8
:3905CA000C000000000000000000000000000000000000000000000000000000000000000000000000000000000000000000000000000000000000308E2E
:390603000400000000000000000000000000000000000000000000000000000000000000000000000000000000000000000000000000000000000090AC7E
:39063C000000000000000000000000000000000000000000000000000000000000000000000000000000000000000000000000000000000000000080F90C
:390675000C000000000000000000000000000000000000000000000000000000000000000000000000000000000000000000000000000000000000308E82
:3906AE000000000000000000000000000000000000000000000000000000000000000000000000000000000000000000000000000000000000000080F99A
:3906E7000000000000000000000000000000000000000000000000000000000000000000000000000000000000000000000000000000000000000080F961
:390720000000000000000000000000000000000000000000000000000000000000000000000000000000000000000000000000000000000000000080F927
:390759000000000000000000000000000000000000000000000000000000000000000000000000000000000000000000000000000000000000000080F9EE
:390792000800000000000000000000000000000000000000000000000000000000000000000000000000000000000000000000000000000000000020DB2B
:3907CB000000000000000000000000000000000000000000000000000000000000000000000000000000000000000000000000000000000000000080F97C
:390804000000000000000000000000000000000000000000000000000000001000000000000000000000000000000000000000000000000000000080F833
:39083D000400000000000000000000000000000000000000000000000000002000000000000000140000000000000000000000000000000000000090BA00
:390876000000000000000000000000000000000000000000000000000000000000000000000000180000000000000000000000000000000000000080E1D0
:3908AF000000000000000000000000000000000000000000000000000000002800000000000000000000000000000000000000000000000000000000FBED
:3908E8000000000000000000000000000000000000000000000000000000000000000000000000440000000000000000000000000000000000000080BD56
:390921000000000000000000000000000000000000000000000000000000004800000000000000000000000000000000000000000000000000000000FD58
:39095A0008000000000000000000000000000000000000000000000000000048000000000000000000000000000000000000000000000000000000A0DF95
:390993000000000000000000000000000000000000000000000000000000000000000000000000080000000000000000000000000000000000000080F1B2
:3909CC000000000000000000000000000000000000000000000000000000000000000000000000000000000000000000000000000000000000000080F979
:390A05000400000000000000000000000000000000000000000000000000000000000000000000000000000000000000000000000000000000000090AC78
:390A3E000000000000000000000000000000000000000000000000000000005000000000000000040000000000000000000000000000000000000080F8B3
:390A77001000000000000000000000000000000000000000000000000000000000000000000000200000000000000000000000000000000000000080D8BE
:390AB0000000000000000000000000000000000000000000000000000000000000000000000000000000000000000000000000000000000000000080F994
:390AE9000000000000000000000000000000000000000000000000000000000000000000000000000000000000000000000000000000000000000080F95B
:390B22000C000000000000000000000000000000000000000000000000000000100000000000000000000000000000000000000000000000000000208ED0
:390B5B0004000000000000000000000000000000000000000A0000000000000001000000000000000000000000000000000000000000000000000080A72B
:390B940000000000000000000000000000000000000000000C0000000000000004000000000000000000000000000000000000000000000000000080B5E3
:390BCD000C00000000000000000000000000000000000000000000000000000000000000000000000000000000000000000000000000000000000010AC27
:390C060000000000000000000000000000000000000000002200000000000000040000000000000000000000000000000000000000000000000000809B74
:390C3F000000000000000000000000000000000000000000000000000000000001000000000000000000000000000000000000000000000000000080E912
:390C78000000000000000000000000000000000000000000000000000000002005000000000000000000000000000000000000000000000000000080ABF3
:390CB1000000000000000000000000000000000000000000040000000000000800000000000000000000000000000000000000000000000000000000FD01
:390CEA000800000000000000000000000000000000000000000000000000000000000000000000080000000000000000000000000000000000000020D3CE
:390D23000000000000000000000000000000000000000000000000000000000000000000000000400000000000000000000000000000000000000080B91E
:390D5C000000000000000000000000000000000000000000000000000000000000000000000000000000000000000000000000000000000000000080F9E5
:390D95000400000000000000000000000000000000000000000000000000000000000000000000000000000000000000000000000000000000000090ACE5
:390DCE000000000000000000000000000000000000000000000000000000000000000000000000000000000000000000000000000000000000000080F973
:390E07001000000000000000000000000000000000000000000000000000000000000000000000000000000000000000000000000000000000000080F82A
:390E40000000000000000000000000000000000000000000000000000000000000000000000000000000000000000000000000000000000000000080F900
:390E79000000000000000000000000000000000000000000000000000000000000000000000000000000000000000000000000000000000000000080F9C7
:390EB2000C000000000000000000000000000000000000001000000000000040080000000000002000000000000000000000000000000000000000A0A340
:390EEB000400000000000000000000000000000000000000080000000000004004000000000000200000000000000000000000000000000000000080D10D
:390F240000000000000000000000000000000000000000001C000000000000400E000000000000200000000000000000000000000000000000000000A961
:390F5D000C0000000000000000000000000000000000000016000000000000400B000000000000200000000000000000000000000000000000000090A698
:390F96000000000000000000000000000000000000000000100000000000002008000000000000100000000000000000000000000000000000000000F3E7
:390FCF000000000000000000000000000000000000000000100000000000000008000000000000000000000000000000000000000000000000000000E1F0
:391008002000048000100002400008000120000480001000000000000000000800000000000000840010000240000800012000048000100002400000FD22
:391041000000000000000000000000000000000000000000000000000000000000000000000000000000000000000000000000000000000000000080F9FD
:39107A002400048000100002400008000120000480001000000000000000000000000000000000800010000240000800012000048000100002400090AC79
:3910B3000C000000000000000000000000000000000000000000000000000000000000000000000000000000000000000000000000000000000000308E3A
:3910EC002000048000100002400008000120000480001000000000000000000000000000000000800010000240000800012000048000100002400080F9CE
:391125000800000000000000000000000000000000000000000000000000000000000000000000000000000000000000000000000000000000000020DB8E
:39115E002000048000100002400008000120000480001000000000000000000000000000000000800010000240000800012000048000100002400080F95B
:391197000000000000000000000000000000000000000000000000000000000000000000000000000000000000000000000000000000000000000080F9A6
:3911D0000000000000000000000000000000000000000000000000000000000000000000000000000000000000000000000000000000000000000080F96D
:391209000000000000000000000000000000000000000000000000000000000000000000000000000000000000000000000000000000000000000080F933
:3912420000000000000000000000000000000000000000000000000000000000000000000000000000000000000000000000000000000000000000A0DBF8
:39127B000000000000000000000000000000000000000000000000000000000000000000000000000000000000000000000000000000000000000080F9C1
:3912B4000000000000000000000000000000000000000000000000000000000000000000000000000000000000000000000000000000000000000080F988
:3912ED000000000000000000000000000000000000000000000000000000000000000000000000000000000000000000000000000000000000000080F94F
:391326000000000000000000000000000000000000000000000000000000000000000000000000000000000000000000000000000000000000000080F915
:39135F000000000000000000000000000000000000000000000000000000000000000000000000000000000000000000000000000000000000000080F9DC
:391398000000000000000000000000000000000000000000000000000000000000000000000000000000000000000000000000000000000000000080F9A3
:3913D1000000000000000000000000000000000000000000000000000000000000000000000000000000000000000000000000000000000000000080F96A
:39140A000800000000000000000000000000000000000000000000000000000000000000000000000000000000000000000000000000000000000020DBA6
:391443000000000000000000000000000000000000000000000000000000000000000000000000000000000000000000000000000000000000000080F9F7
:39147C000000000000000000000000000000000000000000000000000000000000000000000000000000000000000000000000000000000000000080F9BE
:3914B5000000000000000000000000000000000000000000000000000000000000000000000000000000000000000000000000000000000000000080F985
:3914EE000000000000000000000000000000000000000000000000000000000000000000000000000000000000000000000000000000000000000080F94C
:391527000000000000000000000000000000000000000000000000000000000000000000000000000000000000000000000000000000000000000080F912
:391560000000000000000000000000000000000000000000000000000000000000000000000000000000000000000000000000000000000000000080F9D9
:391599000000000000000000000000000000000000000000100000800000000000000020000000000000000000000000000000000000000000000000C3A6
:3915D2000000000000000000000000000000000000000000080000800000000002000012400000000000000000000000000000000000000000000000A85C
:39160B000000000000000000000000000000000000000000022000000800800004000004400000000000000000000000000000000000000000000080B183
:391644000800000000000000000000000000000000000000000000000800000004000000000000000000000000000000000000000000000000000080B920
:39167D000000000000000000000000000000000000000000000000000000800000000000000040000000000000000000000000000000000000000000B5BF
:3916B6000000000000000000000000000000000000000000000000000000000000000000000000000000000000000000000000000000000000000080F982
:3916EF0000000000000000000000000000000000000000000000000000004000000000000000200000000000000000000000000000000000000000809B47
:391728000400000000000000000000000000000000000000000000000000800000000000080000000000000000000000000000000000000000000000BD3F
:391761000000000000000000000000000000000000000000000000000000800000000000080000000000000000000000000000000000000000000000F9CE
:39179A000000000000000000000000000000000000000000000000000000000000000000000000000000000000000000000000000000000000000080F99D
:3917D3000000000000000000000000000000000000000000000000000000000000000000000000000000000000000000000000000000000000000080F964
:39180C000000000000000000000000000000000000000000000000000000000000000000000000000000000000000000000000000000000000000080F92A
:391845000000000000000000000000000000000000000000000000000000000000000000000000000000000000000000000000000000000000000080F9F1
:39187E000000000000000000000000000000000000000000000000000000000000000000000000000000000000000000000000000000000000000080F9B8
:3918B7000200000000000000000000000000000000000000000000000000000000000000000000000000000000000000000000000000000000000008D31B
:3918F0000000000000000000000000000000000000000000000000000000000000000000000000000000000000000000000000000000000000000080F946
:391929000000000000000000000000000000000000000000000000000000000000000000000000000000000000000000000000000000000000000080F90C
:391962000000000000000000000000000000000000000000000000000000000000000000000040000000000000000000000000000000000000000080BDCF
:39199B001000000000000000000000000000000000000000000000000000000000000000000000000000000000000000000000000000000000000080F88B
:3919D4000000000000000000000000000000000000000000000000000000000000000000000000000000000000000000000000000000000000000080F961
:391A0D000000000000000000000000000000000000000000000000000000000000000000000000000000000000000000000000000000000000000080F927
:391A460004000000000000000000000000000000000000000000002000000000000000000000000000000000000000000000000000000000000000809D26
:391A7F000000000000000000000000000000000000000000000000000000000000000000000000000000000000000000000000000000000000000080F9B5
:391AB8000000000000000000000000000000000000000000000000000000000000000000000000000000000000000000000000000000000000000080F97C
:391AF1000000000000000000000000000000000000000000000000000000000000000000000000000000000000000000000000000000000000000080F943
:391B2A000000000000000000000000000000000000000000000000000000000000000000000000000000000000000000000000000000000000000080F909
:391B63000000000000000000000000000000000000000000000000000000000000000000000000000000000000000000000000000000000000000080F9D0
:391B9C000000000000000000000000000000000000000000000000000000000000000000000000000000000000000000000000000000000000000080F997
:391BD5000000000000000000000000000000000000000000000000000000000000000000000000000000000000000000000000000000000000000080F95E
:391C0E000000000000000000000000000000000000000000000000000000000000000000000000000000000000000000000000000000000000000080F924
:391C47000000000000000000000000000000000000000000000000000000000000000000000000000000000000000000000000000000000000000080F9EB
:391C80000000000000000000000000000000000000000000000000000000000000000000000000000000000000000000000000000000000000000080F9B2
:391CB9000000000000000000000000000000000000000000000000000000000000000000000000000000000000000000000000000000000000000080F979
:391CF2000800000000000000000000000000000000000000000000000000000000000000000000000000000000000000000000000000000000000020DBB6
:391D2B000000000000000000000000000000000000000000000000000000000000000000000000000000000000000000000000000000000000000080F906
:391D64000000000000000000000000000000000000000000000000000000000000000000000000000000000000000000000000000000000000000080F9CD
:391D9D000400000000000000000000000000000000000000000000000000000000000000000000000000000000000000000000000000000000000090ACCD
:391DD6000000000000000000000000000000000000000000000000000000000000000000000000000000000000000000000000000000000000000080F95B
:391E0F000000000000000000000000000000000000000000000000000000000000000000000000000000000000000000000000000000000000000080F921
:391E48000000000000000000000000000000000000000000000000000000000000000000000000000000000000000000000000000000000000000080F9E8
:391E81000000000000000000000000000000000000000000000000000000000000000000000000000000000000000000000000000000000000000080F9AF
:391EBA000800000000000000000000000000000000000000000000000000000000000000000000000000000000000000000000000000000000000020DBEC
:391EF3000000000000000000000000000000000000000000000000000000000000000000000000000000000000000000000000000000000000000080F93D
:391F2C000000000000000000000000000000000000000000000000000000000000000000000000000000000000000000000000000000000000000080F903
:391F65000400000000000000000000000000000000000000000000000000000000000000000000000000000000000000000000000000000000000090AC03
:391F9E000000000000000000000000000000000000000000000000000000000000000000000000000000000000000000000000000000000000000080F991
:391FD7000000000000000000000000000000000000000000000000000000000000000000000000000000000000000000000000000000000000000080F958
:392010000000000000000000000000000000000000000000000000000000000000000000000000000000000000000000000000000000000000000080F91E
:392049000000000000000000000000000000000000000000000000000000000000000000000000000000000000000000000000000000000000000080F9E5
:392082000800000000000000000000000000000000000000000000000000000000000000000000000000000000000000000000000000000000000020DB22
:3920BB000000000000000000000000000000000000000000000000000000000000000000000000000000000000000000000000000000000000000080F973
:3920F4000000000000000000000000000000000000000000000000000000000000000000000000000000000000000000000000000000000000000080F93A
:39212D000400000000000000000000000000000000000000000000000000000000000000000000000000000000000000000000000000000000000090AC39
:392166000000000000000000000000000000000000000000000000000000000000000000000000000000000000000000000000000000000000000080F9C7
:39219F000000000000000000000000000000000000000000000000000000000000000000000000000000000000000000000000000000000000000080F98E
:3921D8000000000000000000000000000000000000000000000000000000000000000000000000000000000000000000000000000000000000000080F955
:392211000000000000000000000000000000000000000000000000000000000000000000000000000000000000000000000000000000000000000080F91B
:39224A000800000000000000000000000000000000000000000000000000000000000000000000000000000000000000000000000000000000000020DB58
:392283000000000000000000000000000000000000000000000000000000000000000000000000000000000000000000000000000000000000000080F9A9
:3922BC000000000000000000000000000000000000000000000000000000000000000000000000000000000000000000000000000000000000000080F970
:3922F5000400000000000000000000000000000000000000000000000000000000000000000000000000000000000000000000000000000000000090AC70
:39232E000000000000000000000000000000000000000000000000000000000000000000000000000000000000000000000000000000000000000080F9FD
:392367000000000000000000000000000000000000000000000000000000000000000000000000000000000000000000000000000000000000000080F9C4
:3923A0000000000000000000000000000000000000000000000000000000000000000000000000000000000000000000000000000000000000000080F98B
:3923D9000000000000000000000000000000000000000000000000000000000000000000000000000000000000000000000000000000000000000080F952
:392412000800000000000000000000000000000000000000000000000000000000000000000000000000000000000000000000000000000000000020DB8E
:39244B000000000000000000000000000000000000000000000000000000000000000000000000000000000000000000000000000000000000000080F9DF
:392484000000000000000000000000000000000000000000000000000000000000000000000000000000000000000000000000000000000000000080F9A6
:3924BD000400000000000000000000000000000000000000000000000000000000000000000000000000000000000000000000000000000000000090ACA6
:3924F6000000000000000000000000000000000000000000000000000000000000000000000000000000000000000000000000000000000000000080F934
:39252F000000000000000000000000000000000000000000000000000000000000000000000000000000000000000000000000000000000000000080F9FA
:392568000000000000000000000000000000000000000000000000000000000000000000000000000000000000000000000000000000000000000080F9C1
:3925A1000000000000000000000000000000000000000000000000000000000000000000000000000000000000000000000000000000000000000080F988
:3925DA000800000000000000000000000000000000000000000000000000000000000000000000000000000000000000000000000000000000000020DBC5
:392613000000000000000000000000000000000000000000000000000000000000000000000000000000000000000000000000000000000000000080F915
:39264C000000000000000000000000000000000000000000000000000000000000000000000000000000000000000000000000000000000000000080F9DC
:392685000400000000000000000000000000000000000000000000000000000000000000000000000000000000000000000000000000000000000090ACDC
:3926BE000000000000000000000000000000000000000000000000000000000000000000000000000000000000000000000000000000000000000080F96A
:3926F7000000000000000000000000000000000000000000000000000000000000000000000000000000000000000000000000000000000000000080F931
:392730000000000000000000000000000000000000000000000000000000000000000000000000000000000000000000000000000000000000000080F9F7
:392769000000000000000000000000000000000000000000000000000000000000000000000000000000000000000000000000000000000000000080F9BE
:3927A2000800000000000000000000000000000000000000000000000000000000000000000000000000000000000000000000000000000000000020DBFB
:3927DB000000000000000000000000000000000000000000000000000000000000000000000000000000000000000000000000000000000000000080F94C
:392814000000000000000000000000000000000000000000000000000000000000000000000000000000000000000000000000000000000000000080F912
:39284D000400000000000000000000000000000000000000000000000000000000000000000000000000000000000000000000000000000000000090AC12
:392886000000000000000000000000000000000000000000000000000000000000000000000000000000000000000000000000000000000000000080F9A0
:3928BF000000000000000000000000000000000000000000000000000000000000000000000000000000000000000000000000000000000000000080F967
:3928F8002000048000100002400008000120000480001000000000000000000000000000000000800010000240000800012000048000100002400080F9AA
:392931000000000000000000000000000000000000000000000000000000000000000000000000000000000000000000000000000000000000000080F9F4
:39296A002800048000100002400008000120000480001000000000000000000000000000000000800010000240000800012000048000100002400020DBAD
:3929A3000000000000000000000000000000000000000000000000000000000000000000000000000000000000000000000000000000000000000080F982
:3929DC002000048000100002400008000120000480001000000000000000000000000000000000800010000240000800012000048000100002400080F9C5
:392A15000400000000000000000000000000000000000000000000000000000000000000000000000000000000000000000000000000000000000090AC48
:392A4E002000048000100002400008000120000480001000000000000000000000000000000000800010000240000800012000048000100002400080F952
:392A87000000000000000000000000000000000000000000000000000000000000000000000000000000000000000000000000000000000000000080F99D
:392AC0000000000000000000000000000000000000000000000000000000000000000000000000000000000000000000000000000000000000000080F964
:392AF9000000000000000000000000000000000000000000000000000000000000000000000000000000000000000000000000000000000000000080F92B
:392B32000000000000000000000000000000000000000000000000000000000000000000000000000000000000000000000000000000000000000080F9F1
:392B6B000000000000000000000000000000000000000000000000000000000000000000000000000000000000000000000000000000000000000080F9B8
:392BA4000000000000000000000000000000000000000000000000000000000000000000000000000000000000000000000000000000000000000080F97F
:392BDD000000000000000000000000000000000000000000000000000000000000000000000000000000000000000000000000000000000000000080F946
:392C16000000000000000000000000000000000000000000000000000000000000000000000000000000000000000000000000000000000000000080F90C
:392C4F000000000000000000000000000000000000000000000000000000000000000000000000000000000000000000000000000000000000000080F9D3
:392C88000000000000000000000000000000000000000000000000000000000000000000000000000000000000000000000000000000000000000080F99A
:392CC1000000000000000000000000000000000000000000000000000000000000000000000000000000000000000000000000000000000000000080F961
:392CFA000000000000000000000000000000000000000000000000000000000000000000000000000000000000000000000000000000000000000080F928
:392D33000000000000000000000000000000000000000000000000000000000000000000000000000000000000000000000000000000000000000080F9EE
:392D6C000000000000000000000000000000000000000000000000000000000000000000000000000000000000000000000000000000000000000080F9B5
:392DA5000000000000000000000000000000000000000000000000000000000000000000000000000000000000000000000000000000000000000080F97C
:392DDE000000000000000000000000000000000000000000000000000000000000000000000000000000000000000000000000000000000000000080F943
:392E17000000000000000000000000000000000000000000000000000000000000000000000000000000000000000000000000000000000000000080F909
:392E50000000000000000000000000000000000000000000000000000000000000000000000000000000000000000000000000000000000000000080F9D0
:392E89000000000000000000000000000000000000000000000000000000000000000000000000000000000000000000000000000000000000000080F997
:392EC2000000000000000000000000000000000000000000000000000000000000000000000000000000000000000000000000000000000000000080F95E
:392EFB000000000000000000000000000000000000000000000000000000000000000000000000000000000000000000000000000000000000000080F925
:392F34000000000000000000000000000000000000000000000000000000000000000000000000000000000000000000000000000000000000000080F9EB
:392F6D000000000000000000000000000000000000000000000000000000000000000000000000000000000000000000000000000000000000000080F9B2
:392FA6000000000000000000000000000000000000000000000000000000000000000000000000000000000000000000000000000000000000000080F979
:392FDF000000000000000000000000000000000000000000000000000000000000000000000000000000000000000000000000000000000000000080F940
:393018000000000000000000000000000000000000000000000000000000000000000000000000000000000000000000000000000000000000000080F906
:393051000000000000000000000000000000000000000000000000000000000000000000000000000000000000000000000000000000000000000080F9CD
:39308A000000000000000000000000000000000000000000000000000000000000000000000000000000000000000000000000000000000000000080F994
:3930C3000000000000000000000000000000000000000000000000000000000000000000000000000000000000000000000000000000000000000080F95B
:3930FC000000000000000000000000000000000000000000000000000000000000000000000000000000000000000000000000000000000000000080F922
:393135000000000000000000000000000000000000000000000000000000000000000000000000000000000000000000000000000000000000000080F9E8
:39316E000000000000000000000000000000000000000000000000000000000000000000000000000000000000000000000000000000000000000080F9AF
:3931A7000000000000000000000000000000000000000000000000000000000000000000000000000000000000000000000000000000000000000080F976
:3931E0000000000000000000000000000000000000000000000000000000000000000000000000000000000000000000000000000000000000000080F93D
:393219000000000000000000000000000000000000000000000000000000000000000000000000000000000000000000000000000000000000000080F903
:393252000000000000000000000000000000000000000000000000000000000000000000000000000000000000000000000000000000000000000080F9CA
:39328B000000000000000000000000000000000000000000000000000000000000000000000000000000000000000000000000000000000000000080F991
:3932C4000000000000000000000000000000000000000000000000000000000000000000000000000000000000000000000000000000000000000080F958
:3932FD000000000000000000000000000000000000000000000000000000000000000000000000000000000000000000000000000000000000000080F91F
:393336000000000000000000000000000000000000000000000000000000000000000000000000000000000000000000000000000000000000000080F9E5
:39336F000000000000000000000000000000000000000000000000000000000000000000000000000000000000000000000000000000000000000080F9AC
:3933A8000000000000000000000000000000000000000000000000000000000000000000000000000000000000000000000000000000000000000080F973
:3933E1000000000000000000000000000000000000000000000000000000000000000000000000000000000000000000000000000000000000000080F93A
:39341A000000000000000000000000000000000000000000000000000000000000000000000000000000000000000000000000000000000000000080F900
:393453000000000000000000000000000000000000000000000000000000000000000000000000000000000000000000000000000000000000000080F9C7
:39348C000000000000000000000000000000000000000000000000000000000000000000000000000000000000000000000000000000000000000080F98E
:3934C5000000000000000000000000000000000000000000000000000000000000000000000000000000000000000000000000000000000000000080F955
:3934FE000000000000000000000000000000000000000000000000000000000000000000000000000000000000000000000000000000000000000080F91C
:393537000000000000000000000000000000000000000000000000000000000000000000000000000000000000000000000000000000000000000080F9E2
:393570000000000000000000000000000000000000000000000000000000000000000000000000000000000000000000000000000000000000000080F9A9
:3935A9000000000000000000000000000000000000000000000000000000000000000000000000000000000000000000000000000000000000000080F970
:3935E2000800000000000000000000000000000000000000000000000000000000000000000000000000000000000000000000000000000000000020DBAD
:39361B000000000000000000000000000000000000000000000000000000000000000000000000000000000000000000000000000000000000000080F9FD
:393654000000000000000000000000000000000000000000000000000000000000000000000000000000000000000000000000000000000000000080F9C4
:39368D000400000000000000000000000000000000000000000000000000000000000000000000000000000000000000000000000000000000000090ACC4
:3936C6000000000000000000000000000000000000000000000000000000000000000000000000000000000000000000000000000000000000000080F952
:3936FF000000000000000000000000000000000000000000000000000000000000000000000000000000000000000000000000000000000000000080F919
:393738000000000000000000000000000000000000000000000000000000000000000000000000000000000000000000000000000000000000000080F9DF
:393771000000000000000000000000000000000000000000000000000000000000000000000000000000000000000000000000000000000000000080F9A6
:3937AA000800000000000000000000000000000000000000000000000000000000000000000000000000000000000000000000000000000000000020DBE3
:3937E3000000000000000000000000000000000000000000000000000000000000000000000000000000000000000000000000000000000000000080F934
:39381C000000000000000000000000000000000000000000000000000000000000000000000000000000000000000000000000000000000000000080F9FA
:393855000400000000000000000000000000000000000000000000000000000000000000000000000000000000000000000000000000000000000090ACFA
:39388E000000000000000000000000000000000000000000000000000000000000000000000000000000000000000000000000000000000000000080F988
:3938C7000000000000000000000000000000000000000000000000000000000000000000000000000000000000000000000000000000000000000080F94F
:393900000000000000000000000000000000000000000000000000000000000000000000000000000000000000000000000000000000000000000080F915
:393939000000000000000000000000000000000000000000000000000000000000000000000000000000000000000000000000000000000000000080F9DC
:393972000800000000000000000000000000000000000000000000000000000000000000000000000000000000000000000000000000000000000020DB19
:3939AB000000000000000000000000000000000000000000000000000000000000000000000000000000000000000000000000000000000000000080F96A
:3939E4000000000000000000000000000000000000000000000000000000000000000000000000000000000000000000000000000000000000000080F931
:393A1D000400000000000000000000000000000000000000000000000000000000000000000000000000000000000000000000000000000000000090AC30
:393A56000000000000000000000000000000000000000000000000000000000000000000000000000000000000000000000000000000000000000080F9BE
:393A8F000000000000000000000000000000000000000000000000000000000000000000000000000000000000000000000000000000000000000080F985
:393AC8000000000000000000000000000000000000000000000000000000000000000000000000000000000000000000000000000000000000000080F94C
:393B01000000000000000000000000000000000000000000000000000000000000000000000000000000000000000000000000000000000000000080F912
:393B3A000800000000000000000000000000000000000000000000000000000000000000000000000000000000000000000000000000000000000020DB4F
:393B73000000000000000000000000000000000000000000000000000000000000000000000000000000000000000000000000000000000000000080F9A0
:393BAC000000000000000000000000000000000000000000000000000000000000000000000000000000000000000000000000000000000000000080F967
:393BE5000400000000000000000000000000000000000000000000000000000000000000000000000000000000000000000000000000000000000090AC67
:393C1E000000000000000000000000000000000000000000000000000000000000000000000000000000000000000000000000000000000000000080F9F4
:393C57000000000000000000000000000000000000000000000000000000000000000000000000000000000000000000000000000000000000000080F9BB
:393C90000000000000000000000000000000000000000000000000000000000000000000000000000000000000000000000000000000000000000080F982
:393CC9000000000000000000000000000000000000000000000000000000000000000000000000000000000000000000000000000000000000000080F949
:393D02000800000000000000000000000000000000000000000000000000000000000000000000000000000000000000000000000000000000000020DB85
:393D3B000000000000000000000000000000000000000000000000000000000000000000000000000000000000000000000000000000000000000080F9D6
:393D74000000000000000000000000000000000000000000000000000000000000000000000000000000000000000000000000000000000000000080F99D
:393DAD000400000000000000000000000000000000000000000000000000000000000000000000000000000000000000000000000000000000000090AC9D
:393DE6000000000000000000000000000000000000000000000000000000000000000000000000000000000000000000000000000000000000000080F92B
:393E1F000000000000000000000000000000000000000000000000000000000000000000000000000000000000000000000000000000000000000080F9F1
:393E58000000000000000000000000000000000000000000000000000000000000000000000000000000000000000000000000000000000000000080F9B8
:393E91000000000000000000000000000000000000000000000000000000000000000000000000000000000000000000000000000000000000000080F97F
:393ECA000800000000000000000000000000000000000000000000000000000000000000000000000000000000000000000000000000000000000020DBBC
:393F03000000000000000000000000000000000000000000000000000000000000000000000000000000000000000000000000000000000000000080F90C
:393F3C000000000000000000000000000000000000000000000000000000000000000000000000000000000000000000000000000000000000000080F9D3
:393F75000400000000000000000000000000000000000000000000000000000000000000000000000000000000000000000000000000000000000090ACD3
:393FAE000000000000000000000000000000000000000000000000000000000000000000000000000000000000000000000000000000000000000080F961
:393FE7000000000000000000000000000000000000000000000000000000000000000000000000000000000000000000000000000000000000000080F928
:394020000000000000000000000000000000000000000000000000000000000000000000000000000000000000000000000000000000000000000080F9EE
:394059000000000000000000000000000000000000000000000000000000000000000000000000000000000000000000000000000000000000000080F9B5
:394092000800000000000000000000000000000000000000000000000000000000000000000000000000000000000000000000000000000000000020DBF2
:3940CB000000000000000000000000000000000000000000000000000000000000000000000000000000000000000000000000000000000000000080F943
:394104000000000000000000000000000000000000000000000000000000000000000000000000000000000000000000000000000000000000000080F909
:39413D000400000000000000000000000000000000000000000000000000000000000000000000000000000000000000000000000000000000000090AC09
:394176000000000000000000000000000000000000000000000000000000000000000000000000000000000000000000000000000000000000000080F997
:3941AF000000000000000000000000000000000000000000000000000000000000000000000000000000000000000000000000000000000000000080F95E
:3941E8002000048000100002400008000120000480001000000000000000000000000000000000800010000240000800012000048000100002400080F9A1
:394221000000000000000000000000000000000000000000000000000000000000000000000000000000000000000000000000000000000000000080F9EB
:39425A002800048000100002400008000120000480001000000000000000000000000000000000800010000240000800012000048000100002400020DBA4
:394293000000000000000000000000000000000000000000000000000000000000000000000000000000000000000000000000000000000000000080F979
:3942CC002000048000100002400008000120000480001000000000000000000000000000000000800010000240000800012000048000100002400080F9BC
:394305000400000000000000000000000000000000000000000000000000000000000000000000000000000000000000000000000000000000000090AC3F
:39433E002000048000100002400008000120000480001000000000000000000000000000000000800010000240000800012000048000100002400080F949
:394377000000000000000000000000000000000000000000000000000000000000000000000000000000000000000000000000000000000000000080F994
:3943B0000000000000000000000000000000000000000000000000000000000000000000000000000000000000000000000000000000000000000080F95B
:3943E9000000000000000000000000000000000000000000000000000000000000000000000000000000000000000000000000000000000000000080F922
:394422000000000000000000000000000000000000000000000000000000000000000000000000000000000000000000000000000000000000000080F9E8
:39445B000000000000000000000000000000000000000000000000000000000000000000000000000000000000000000000000000000000000000080F9AF
:394494000000000000000000000000000000000000000000000000000000000000000000000000000000000000000000000000000000000000000080F976
:3944CD000000000000000000000000000000000000000000000000000000000000000000000000000000000000000000000000000000000000000080F93D
:394506000000000000000000000000000000000000000000000000000000000000000000000000000000000000000000000000000000000000000080F903
:39453F000000000000000000000000000000000000000000000000000000000000000000000000000000000000000000000000000000000000000080F9CA
:394578000000000000000000000000000000000000000000000000000000000000000000000000000000000000000000000000000000000000000080F991
:3945B1000000000000000000000000000000000000000000000000000000000000000000000000000000000000000000000000000000000000000080F958
:3945EA000000000000000000000000000000000000000000000000000000000000000000000000000000000000000000000000000000000000000080F91F
:394623000000000000000000000000000000000000000000000000000000000000000000000000000000000000000000000000000000000000000080F9E5
:39465C000000000000000000000000000000000000000000000000000000000000000000000000000000000000000000000000000000000000000080F9AC
:394695000000000000000000000000000000000000000000000000000000000000000000000000000000000000000000000000000000000000000080F973
:3946CE000000000000000000000000000000000000000000000000000000000000000000000000000000000000000000000000000000000000000080F93A
:394707000000000000000000000000000000000000000000000000000000000000000000000000000000000000000000000000000000000000000080F900
:394740000000000000000000000000000000000000000000000000000000000000000000000000000000000000000000000000000000000000000080F9C7
:394779000000000000000000000000000000000000000000000000000000000000000000000000000000000000000000000000000000000000000080F98E
:3947B2000000000000000000000000000000000000000000000000000000000000000000000000000000000000000000000000000000000000000080F955
:3947EB000000000000000000000000000000000000000000000000000000000000000000000000000000000000000000000000000000000000000080F91C
:394824000000000000000000000000000000000000000000000000000000000000000000000000000000000000000000000000000000000000000080F9E2
:39485D000000000000000000000000000000000000000000000000000000000000000000000000000000000000000000000000000000000000000080F9A9
:394896000000000000000000000000000000000000000000000000000000000000000000000000000000000000000000000000000000000000000080F970
:3948CF000000000000000000000000000000000000000000000000000000000000000000000000000000000000000000000000000000000000000080F937
:394908000000000000000000000000000000000000000000000000000000000000000000000000000000000000000000000000000000000000000080F9FD
:394941000000000000000000000000000000000000000000000000000000000000000000000000000000000000000000000000000000000000000080F9C4
:39497A000000000000000000000000000000000000000000000000000000000000000000000000000000000000000000000000000000000000000080F98B
:3949B3000000000000000000000000000000000000000000000000000000000000000000000000000000000000000000000000000000000000000080F952
:3949EC000000000000000000000000000000000000000000000000000000000000000000000000000000000000000000000000000000000000000080F919
:394A25000000000000000000000000000000000000000000000000000000000000000000000000000000000000000000000000000000000000000080F9DF
:394A5E000000000000000000000000000000000000000000000000000000000000000000000000000000000000000000000000000000000000000080F9A6
:394A97000000000000000000000000000000000000000000000000000000000000000000000000000000000000000000000000000000000000000080F96D
:394AD0000000000000000000000000000000000000000000000000000000000000000000000000000000000000000000000000000000000000000080F934
:394B09000000000000000000000000000000000000000000000000000000000000000000000000000000000000000000000000000000000000000080F9FA
:394B42000000000000000000000000000000000000000000000000000000000000000000000000000000000000000000000000000000000000000080F9C1
:394B7B000000000000000000000000000000000000000000000000000000000000000000000000000000000000000000000000000000000000000080F988
:394BB4000000000000000000000000000000000000000000000000000000000000000000000000000000000000000000000000000000000000000080F94F
:394BED000000000000000000000000000000000000000000000000000000000000000000000000000000000000000000000000000000000000000080F916
:394C26000000000000000000000000000000000000000000000000000000000000000000000000000000000000000000000000000000000000000080F9DC
:394C5F000000000000000000000000000000000000000000000000000000000000000000000000000000000000000000000000000000000000000080F9A3
:394C98000000000000000000000000000000000000000000000000000000000000000000000000000000000000000000000000000000000000000080F96A
:394CD1000000000000000000000000000000000000000000000000000000000000000000000000000000000000000000000000000000000000000080F931
:394D0A000000000000000000000000000000000000000000000000000000000000000000000000000000000000000000000000000000000000000080F9F7
:394D43000012400248000920012480049000124002480009000000000000000000000000000000004800092001248004900012400248000920012480F987
:394D7C00000C8001300006C00018000360000C800130000600000000000000000000000000000000300006C00018000360000C8001300006C0001880F9B8
:024DB500FFFFFE
:00000001FF
