:020000040000FA
:39000000FFFF62FF3600FFFFFFFFFFFFFFFFFFFFFFFFFFFFFFFFFFFFFFFFFFFFFFFFFFFFFFFFFFFFFFFFFFFFFFFFFFFFFFFFFFFFFFFFFFFFFFFFFFFFFF65
:39003900000C8001304006C00018000360004C800132000600000000000000000000000000000000300006C00018000360000C8001300006C0001880FBC4
:390072000012400248800B200124800490003A40025C0009000000000000000000000000000000004800092001248004900012400248000920012400EF71
:3900AB000000000000000000000000000000000000000000000000000000000000000000000000000000000000000000000000000000000000000080F9A3
:3900E4000000000000000000000000000000000000000000000000000000000000000000000000000000000000000000000000000000000000000080F96A
:39011D000000000000804000000000000000200000040000000000000000000000000000000000000000000000000000000000000000000000000000D1F4
:390156000000000000000200000000000000000100800000000000000000000000000100000000000000000000000000000000000000000000000000D319
:39018F000000000000000000000000000000000000000000000000000000000000000000000000000000000000000000000000000000000000000080F9BE
:3901C8000000000000000000000000000000000000000000000000000000000000000000000000000000000000000000000000000000000000000080F985
:390201000000000000000000000000000000000000000000000000000000000000000000000000000000000000000000000000000000000000000080F94B
:39023A000000000000000000000000000000000000000000000000000000000000000000000000000000000000000000000000000000000000000080F912
:390273000000000000000000000000000000000000000000000000000000000000000000000000000000000000000000000000000000000000000080F9D9
:3902AC000000000000000000000000000000000000000000000000000000000000000000000000000000000000000000000000000000000000000080F9A0
:3902E5000000000000000000000000000000000000000000000000000000000000000000000000000000000000000000000000000000000000000080F967
:39031E000000000000000000000000000000000000000000000000000000000000000000000000000000000000000000000000000000000000000080F92D
:390357000000000000000000000000000000000000000000000000000000000000000000000000000000000000000000000000000000000000000080F9F4
:390390000000000000000000000000000000000000000000000000000000000000000000000000000000000000000000000000000000000000000080F9BB
:3903C9000000000000000000000000000000000000000000000000000000000000000000000000000000000000000000000000000000000000000080F982
:390402000800000000000000000000000000000000000000000000000000000000000000000000000000000000000000000000000000000000000020DBBE
:39043B000000000000000000000000000000000000000000000000000000000000000000000000000000000000000000000000000000000000000080F90F
:390474000000000000000000000000000000000000000000000000000000000000000000000000000000000000000000000000000000000000000080F9D6
:3904AD000400000000000000000000000000000000000000000000000000000000000000000000000000000000000000000000000000000000000090ACD6
:3904E6000000000000000000000000000000000000000000000000000000000000000000000000000000000000000000000000000000000000000080F964
:39051F000000000000000000000000000000000000000000000000000000000000000000000000000000000000000000000000000000000000000080F92A
:390558000000000000000000000000000000000000000000000000000000000000000000000000000000000000000000000000000000000000000080F9F1
:390591000000000000000000000000000000000000000000000000000000000000000000000000000000000000000000000000000000000000000080F9B8
:3905CA000800000000000000000000000000000000000000000000000000000000000000000000000000000000000000000000000000000000000020DBF5
:390603000000000000000000000000000000000000000000000000000000000000000000000000000000000000000000000000000000000000000080F945
:39063C000000000000000000000000000000000000000000000000000000000000000000000000000000000000000000000000000000000000000080F90C
:390675000400000000000000000000000000000000000000000000000000000000000000000000000000000000000000000000000000000000000090AC0C
:3906AE000000000000000000000000000000000000000000000000000000000000000000000000000000000000000000000000000000000000000080F99A
:3906E7000000000000000000000000000000000000000000000000000000000000000000000000000000000000000000000000000000000000000080F961
:390720000000000000000000000000000000000000000000000000000000000000000000000000000000000000000000000000000000000000000080F927
:390759000000000000000000000000000000000000000000000000000000000000000000000000000000000000000000000000000000000000000080F9EE
:390792000800000000000000000000000000000000000000000000000000000000000000000000000000000000000000000000000000000000000020DB2B
:3907CB000000000000000000000000000000000000000000000000000000000000000000000000000000000000000000000000000000000000000080F97C
:390804000000000000000000000000000000000000000000000000000000000000000000000000000000000000000000000000000000000000000080F942
:39083D000400000000000000000000000000000000000000000000000000000000000000000000000000000000000000000000000000000000000090AC42
:390876000000000000000000000000000000000000000000000000000000000000000000000000000000000000000000000000000000000000000080F9D0
:3908AF000000000000000000000000000000000000000000000000000000000000000000000000000000000000000000000000000000000000000080F997
:3908E8000000000000000000000000000000000000000000000000000000000000000000000000000000000000000000000000000000000000000080F95E
:390921000000000000000000000000000000000000000000000000000000000000000000000000000000000000000000000000000000000000000080F924
:39095A000800000000000000000000000000000000000000000000000000000000000000000000000000000000000000000000000000000000000020DB61
:390993000000000000000000000000000000000000000000000000000000000000000000000000000000000000000000000000000000000000000080F9B2
:3909CC000000000000000000000000000000000000000000000000000000000000000000000000000000000000000000000000000000000000000080F979
:390A05000400000000000000000000000000000000000000000000000000000000000000000000000000000000000000000000000000000000000090AC78
:390A3E000000000000000000000000000000000000000000000000000000000000000000000000000000000000000000000000000000000000000080F906
:390A77001000000000000000000000000000000000000000000000000000000000000000000000000000000000000000000000000000000000000080F8BE
:390AB0000000000000000000000000000000000000000000000000000000000000000000000000000000000000000000000000000000000000000080F994
:390AE9000000000000000000000000000000000000000000000000000000000000000000000000000000000000000000000000000000000000000080F95B
:390B22000C000000000000000000000000000000000000000000000000000000000000000000000000000000000000000000000000000000000000209FCF
:390B5B000400000000000000000000000000000000000000000000000000000000000000000000000000000000000000000000000000000000000080BD20
:390B94000000000000000000000000000000000000000000000000000000000000000000000000000000000000000000000000000000000000000080F9AF
:390BCD000C00000000000000000000000000000000000000000000000000000000000000000000000000000000000000000000000000000000000010AC27
:390C06000000000000000000000000000000000000000000000000000000000000000000000000000000000000000000000000000000000000000080F93C
:390C3F000000000000000000000000000000000000000000000000000000000000000000000000000000000000000000000000000000000000000080F903
:390C78000000000000000000000000000000000000000000000000000000000000000000000000000000000000000000000000000000000000000080F9CA
:390CB1000000000000000000000000000000000000000000000000000000000000000000000000000000000000000000000000000000000000000080F991
:390CEA000800000000000000000000000000000000000000000000000000000000000000000000000000000000000000000000000000000000000020DBCE
:390D23000000000000000000000000000000000000000000000000000000000000000000000000000000000000000000000000000000000000000080F91E
:390D5C000000000000000000000000000000000000000000000000000000000000000000000000000000000000000000000000000000000000000080F9E5
:390D95000400000000000000000000000000000000000000000000000000000000000000000000000000000000000000000000000000000000000090ACE5
:390DCE000000000000000000000000000000000000000000000000000000000000000000000000000000000000000000000000000000000000000080F973
:390E07000000000000000000000000000000000000000000000000000000000000000000000000000000000000000000000000000000000000000080F939
:390E40000000000000000000000000000000000000000000000000000000000000000000000000000000000000000000000000000000000000000080F900
:390E79000000000000000000000000000000000000000000000000000000000000000000000000000000000000000000000000000000000000000080F9C7
:390EB2000800000000000000000000000000000000000000000000000000000000000000000000000000000000000000000000000000000000000020DB04
:390EEB000000000000000000000000000000000000000000000000000000000000000000000000000000000000000000000000000000000000000080F955
:390F24000000000000000000000000000000000000000000000000000000000000000000000000000000000000000000000000000000000000000080F91B
:390F5D000400000000000000000000000000000000000000000000000000000000000000000000000000000000000000000000000000000000000090AC1B
:390F96000000000000000000000000000000000000000000000000000000000000000000000000000000000000000000000000000000000000000080F9A9
:390FCF000000000000000000000000000000000000000000000000000000000000000000000000000000000000000000000000000000000000000080F970
:391008002000048000100002400008000120000480001000000000000000000000000000000000800010000240000800012000048000100002400080F9B2
:391041000000000000000000000000000000000000000000000000000000000000000000000000000000000000000000000000000000000000000080F9FD
:39107A002800048000100002400008000120000480001000000000000000000000000000000000800010000240000800012000048000100002400020DBB6
:3910B3000000000000000000000000000000000000000000000000000000000000000000000000000000000000000000000000000000000000000080F98B
:3910EC002000048000100002400008000120000480001000000000000000000000000000000000800010000240000800012000048000100002400080F9CE
:391125000400000000000000000000000000000000000000000000000000000000000000000000000000000000000000000000000000000000000090AC51
:39115E002000048000100002400008000120000480001000000000000000000000000000000000800010000240000800012000048000100002400080F95B
:391197000000000000000000000000000000000000000000000000000000000000000000000000000000000000000000000000000000000000000080F9A6
:3911D0000000000000000000000000000000000000000000000000000000000000000000000000000000000000000000000000000000000000000080F96D
:391209000000000000000000000000000000000000000000000000000000000000000000000000000000000000000000000000000000000000000080F933
:391242000000000000000000000000000000000000000000000000000000000000000000000000000000000000000000000000000000000000000080F9FA
:39127B000000000000000000000000000000000000000000000000000000000000000000000000000000000000000000000000000000000000000080F9C1
:3912B4000000000000000000000000000000000000000000000000000000000000000000000000000000000000000000000000000000000000000080F988
:3912ED000000000000000000000000000000000000000000000000000000000000000000000000000000000000000000000000000000000000000080F94F
:391326000000000000000000000000000000000000000000000000000000000000000000000000000000000000000000000000000000000000000080F915
:39135F000000000000000000000000000000000000000000000000000000000000000000000000000000000000000000000000000000000000000080F9DC
:391398000000000000000000000000000000000000000000000000000000000000000000000000000000000000000000000000000000000000000080F9A3
:3913D1000000000000000000000000000000000000000000000000000000000000000000000000000000000000000000000000000000000000000080F96A
:39140A000000000000000000000000000000000000000000000000000000000000000000000000000000000000000000000000000000000000000080F930
:391443000000000000000000000000000000000000000000000000000000000000000000000000000000000000000000000000000000000000000080F9F7
:39147C000000000000000000000000000000000000000000000000000000000000000000000000000000000000000000000000000000000000000080F9BE
:3914B5000000000000000000000000000000000000000000000000000000000000000000000000000000000000000000000000000000000000000080F985
:3914EE000000000000000000000000000000000000000000000000000000000000000000000000000000000000000000000000000000000000000080F94C
:391527000000000000000000000000000000000000000000000000000000000000000000000000000000000000000000000000000000000000000080F912
:391560000000000000000000000000000000000000000000000000000000000000000000000000000000000000000000000000000000000000000080F9D9
:391599000000000000000000000000000000000000000000000000000000000000000000000000000000000000000000000000000000000000000080F9A0
:3915D2000000000000000000000000000000000000000000000000000000000000000000000000000000000000000000000000000000000000000080F967
:39160B000000000000000000000000000000000000000000000000000000000000000000000000000000000000000000000000000000000000000080F92D
:391644000000000000000000000000000000000000000000000000000000000000000000000000000000000000000000000000000000000000000080F9F4
:39167D000000000000000000000000000000000000000200000000000000000000000000000000000000000000000000000000000000000000000080DBD7
:3916B6001000000000000000000000000000000000000000000000000000000000000000000000000000000000000000000000000000000000000080F873
:3916EF000000000000000000000000000000000000000200000000000000000000000000000000000000000000000000000000000000000000000080DB65
:391728001000000000000000000000000000000000000000000000000000000000000000000000000000000000000000000000000000000000000080F800
:391761000000000000000000000000000000000000000000000000000000000000000000000000000000000000000000000000000000000000000080F9D6
:39179A000000000000000000000000000000000000000000000000000000000000000000000000000000000000000000000000000000000000000080F99D
:3917D3000000000000000000000000000000000000000000000000000000000000000000000000000000000000000000000000000000000000000080F964
:39180C000000000000000000000000000000000000000000000000000000000000000000000000000000000000000000000000000000000000000080F92A
:391845000000000000000000000000000000000000000000000000000000000000000000000000000000000000000000000000000000000000000080F9F1
:39187E000000000000000000000000000000000000000000000000000000000000000000000000000000000000000000000000000000000000000080F9B8
:3918B7000000000000000000000000000000000000000000000000000000000000000000000000000000000000000000000000000000000000000080F97F
:3918F0000000000000000000000000000000000000000000000000000000000000000000000000000000000000000000000000000000000000000080F946
:391929000000000000000000000000000000000000000000000000000000000000000000000000000000000000000000000000000000000000000080F90C
:391962000000000000000000000000000000000000000000000000000000000000000000000000000000000000000000000000000000000000000080F9D3
:39199B000000000000000000000000000000000000000000000000000000000000000000000000000000000000000000000000000000000000000080F99A
:3919D4000000000000000000000000000000000000000000000000000000000000000000000000000000000000000000000000000000000000000080F961
:391A0D000000000000000000000000000000000000000000000000000000000000000000000000000000000000000000000000000000000000000080F927
:391A46000000000000000000000000000000000000000000000000000000000000000000000000000000000000000000000000000000000000000080F9EE
:391A7F000000000000000000000000000000000000000000000000000000000000000000000000000000000000000000000000000000000000000080F9B5
:391AB8000000000000000000000000000000000000000000000000000000000000000000000000000000000000000000000000000000000000000080F97C
:391AF1000000000000000000000000000000000000000000000000000000000000000000000000000000000000000000000000000000000000000080F943
:391B2A000000000000000000000000000000000000000000000000000000000000000000000000000000000000000000000000000000000000000080F909
:391B63000000000000000000000000000000000000000000000000000000000000000000000000000000000000000000000000000000000000000080F9D0
:391B9C000000000000000000000000000000000000000000000000000000000000000000000000000000000000000000000000000000000000000080F997
:391BD5000000000000000000000000000000000000000000000000000000000000000000000000000000000000000000000000000000000000000080F95E
:391C0E000000000000000000000000000000000000000000000000000000000000000000000000000000000000000000000000000000000000000080F924
:391C470000000000000000000000000000000000000000000000000000000000000000000000000000000000000000000000000000000000000000C0BDE7
:391C80000000000000000000000000000000000000000000000000000000000000000000000000000000000000000000000000000000000000000080F9B2
:391CB9000000000000000000000000000000000000000000000000000000000000000000000000000000000000000000000000000000000000000080F979
:391CF2000800000000000000000000000000000000000000000000000000000000000000000000000000000000000000000000000000000000000030CAB7
:391D2B000000000000000000000000000000000000000000000000000000000000000000000000000000000000000000000000000000000000000090E807
:391D64000000000000000000000000000000000000000000000000000000000000000000000000000000000000000000000000000000000000000080F9CD
:391D9D0004000000000000000000000000000000000000000000000000000000000000000000000000000000000000000000000000000000000000B08ECB
:391DD6000000000000000000000000000000000000000000000000000000000000000000000000000000000000000000000000000000000000000080F95B
:391E0F001000000000000000000000000000000000000000000000000000000000000000000000000000000000000000000000000000000000000080F812
:391E48000000000000000000000000000000000000000000000000000000000000000000000000000000000000000000000000000000000000000080F9E8
:391E81000000000000000000000000000000000000000000000000000000000000000000000000000000000000000000000000000000000000000080F9AF
:391EBA000C000000000000000000000000000000000000000000000000000000000000000000000000000000000000000000000000000000000000209F24
:391EF3000400000000000000000000000000000000000000000000000000000000000000000000000000000000000000000000000000000000000080BD75
:391F2C000000000000000000000000000000000000000000000000000000000000000000000000000000000000000000000000000000000000000080F903
:391F65000C00000000000000000000000000000000000000000000000000000000000000000000000000000000000000000000000000000000000010AC7B
:391F9E000000000000000000000000000000000000000000000000000000000000000000000000000000000000000000000000000000000000000080F991
:391FD70000000000000000000000000000000000000000000000000000000000000000000000000000000000000000000000000000000000000000C0BD54
:392010000000000000000000000000000000000000000000000000000000000000000000000000000000000000000000000000000000000000000080F91E
:392049000000000000000000000000000000000000000000000000000000000000000000000000000000000000000000000000000000000000000080F9E5
:392082000800000000000000000000000000000000000000000000000000000000000000000000000000000000000000000000000000000000000030CA23
:3920BB000000000000000000000000000000000000000000000000000000000000000000000000000000000000000000000000000000000000000090E874
:3920F4000000000000000000000000000000000000000000000000000000000000000000000000000000000000000000000000000000000000000080F93A
:39212D0004000000000000000000000000000000000000000000000000000000000000000000000000000000000000000000000000000000000000B08E37
:392166000000000000000000000000000000000000000000000000000000000000000000000000000000000000000000000000000000000000000080F9C7
:39219F000000000000000000000000000000000000000000000000000000000000000000000000000000000000000000000000000000000000000080F98E
:3921D8000000000000000000000000000000000000000000000000000000000000000000000000000000000000000000000000000000000000000080F955
:392211000000000000000000000000000000000000000000000000000000000000000000000000000000000000000000000000000000000000000080F91B
:39224A000800000000000000000000000000000000000000000000000000000000000000000000000000000000000000000000000000000000000020DB58
:392283000000000000000000000000000000000000000000000000000000000000000000000000000000000000000000000000000000000000000080F9A9
:3922BC000000000000000000000000000000000000000000000000000000000000000000000000000000000000000000000000000000000000000080F970
:3922F5000400000000000000000000000000000000000000000000000000000000000000000000000000000000000000000000000000000000000090AC70
:39232E000000000000000000000000000000000000000000000000000000000000000000000000000000000000000000000000000000000000000080F9FD
:392367000000000000000000000000000000000000000000000000000000000000000000000000000000000000000000000000000000000000000080F9C4
:3923A0000000000000000000000000000000000000000000000000000000000000000000000000000000000000000000000000000000000000000080F98B
:3923D9000000000000000000000000000000000000000000000000000000000000000000000000000000000000000000000000000000000000000080F952
:392412000800000000000000000000000000000000000000000000000000000000000000000000000000000000000000000000000000000000000020DB8E
:39244B000000000000000000000000000000000000000000000000000000000000000000000000000000000000000000000000000000000000000080F9DF
:392484000000000000000000000000000000000000000000000000000000000000000000000000000000000000000000000000000000000000000080F9A6
:3924BD000400000000000000000000000000000000000000000000000000000000000000000000000000000000000000000000000000000000000090ACA6
:3924F6000000000000000000000000000000000000000000000000000000000000000000000000000000000000000000000000000000000000000080F934
:39252F000000000000000000000000000000000000000000000000000000000000000000000000000000000000000000000000000000000000000080F9FA
:392568000000000000000000000000000000000000000000000000000000000000000000000000000000000000000000000000000000000000000080F9C1
:3925A1000000000000000000000000000000000000000000000000000000000000000000000000000000000000000000000000000000000000000080F988
:3925DA000800000000000000000000000000000000000000000000000000000000000000000000000000000000000000000000000000000000000020DBC5
:392613000000000000000000000000000000000000000000000000000000000000000000000000000000000000000000000000000000000000000080F915
:39264C000000000000000000000000000000000000000000000000000000000000000000000000000000000000000000000000000000000000000080F9DC
:392685000400000000000000000000000000000000000000000000000000000000000000000000000000000000000000000000000000000000000090ACDC
:3926BE000000000000000000000000000000000000000000000000000000000000000000000000000000000000000000000000000000000000000080F96A
:3926F7000000000000000000000000000000000000000000000000000000000000000000000000000000000000000000000000000000000000000080F931
:392730000000000000000000000000000000000000000000000000000000000000000000000000000000000000000000000000000000000000000080F9F7
:392769000000000000000000000000000000000000000000000000000000000000000000000000000000000000000000000000000000000000000080F9BE
:3927A2000800000000000000000000000000000000000000000000000000000000000000000000000000000000000000000000000000000000000020DBFB
:3927DB000000000000000000000000000000000000000000000000000000000000000000000000000000000000000000000000000000000000000080F94C
:392814000000000000000000000000000000000000000000000000000000000000000000000000000000000000000000000000000000000000000080F912
:39284D000400000000000000000000000000000000000000000000000000000000000000000000000000000000000000000000000000000000000090AC12
:392886000000000000000000000000000000000000000000000000000000000000000000000000000000000000000000000000000000000000000080F9A0
:3928BF000000000000000000000000000000000000000000000000000000000000000000000000000000000000000000000000000000000000000080F967
:3928F8002000048000100002400008000120000480001000000000000000000000000000000000800010000240000800012000048000100002400080F9AA
:392931000000000000000000000000000000000000000000000000000000000000000000000000000000000000000000000000000000000000000080F9F4
:39296A002800048000100002400008000120000480001000000000000000000000000000000000800010000240000800012000048000100002400020DBAD
:3929A3000000000000000000000000000000000000000000000000000000000000000000000000000000000000000000000000000000000000000080F982
:3929DC002000048000100002400008000120000480001000000000000000000000000000000000800010000240000800012000048000100002400080F9C5
:392A15000400000000000000000000000000000000000000000000000000000000000000000000000000000000000000000000000000000000000090AC48
:392A4E002000048000100002400008000120000480001000000000000000000000000000000000800010000240000800012000048000100002400080F952
:392A87000000000000000000000000000000000000000000000000000000000000000000000000000000000000000000000000000000000000000080F99D
:392AC0000000000000000000000000000000000000000000000000000000000000000000000000000000000000000000000000000000000000000080F964
:392AF9000000000000000000000000000000000000000000000000000000000000000000000000000000000000000000000000000000000000000080F92B
:392B320000000000000000000000000000000000000000000000000000000000000000000000000000000000000000000000000000000000000000C0BDED
:392B6B000000000000000000000000000000000000000000000000000000000000000000000000000000000000000000000000000000000000000080F9B8
:392BA4000000000000000000000000000000000000000000000000000000000000000000000000000000000000000000000000000000000000000080F97F
:392BDD000000000000000000000000000000000000000000000000000000000000000000000000000000000000000000000000000000000000000080F946
:392C160008000000002000000000000000000000000000400000000000000000000000000000000000000000000000000000000000000000000000009D80
:392C4F000000000000100000000000000000000000000080000000000000000000000000000000000000000000000000000000000000000000000000E9D3
:392C88000000000000000000000000000000000000000020000000000000000000000000000000000000000000000000000000000000000000000080DB98
:392CC1000000000000000000000000000000000000000080000000000000000000000000000000000000000000000000000000000000000000000000F961
:392CFA000800000000000000000000000000000000000000000000000000000000000000000000000000000000000000000000000000000000000050AC9D
:392D33000000000000000000000000000000000000000000000000000000000000000000000000000000000000000000000000000000000000000080F9EE
:392D6C000000000000000000000000000000000000000000000000000000000000000000000000000000000000000000000000000000000000000080F9B5
:392DA5000000000000000000000000000000000000000000000000000000000000000000000000000000000000000000000000000000000000000080F97C
:392DDE000000000000000000000000000000000000000000000000000000000000000000000000000000000000000000000000000000000000000080F943
:392E17000000000000000000000000000000000000000000000000000000000000000000000000000000000000000000000000000000000000000080F909
:392E50000000000000000000000000000000000000000000000000000000000000000000000000000000000000000000000000000000000000000080F9D0
:392E89000000000000000000000000000000000000000000000000000000000000000000000000000000000000000000000000000000000000000080F997
:392EC2000000000000000000000000000000000000000000000000000000000000000000000000000000000000000000000000000000000000000080F95E
:392EFB000000000000000000000000000000000000000000000000000000000000000000000000000000000000000000000000000000000000000080F925
:392F34000000000000000000000000000000000000000000000000000000000000000000000000000000000000000000000000000000000000000090E8EC
:392F6D000000000000000000000000000000000000000000000000000000000000000000000000000000000000000000000000000000000000000080F9B2
:392FA6000000000000000000000000000000000000000000000000000000000000000000000000000000000000000000000000000000000000000080F979
:392FDF000000000000000000000000000000000000000000000000000000000000000000000000000000000000000000000000000000000000000080F940
:393018000000000000000000000000000000000000000000000000000000000000000000000000000000000000000000000000000000000000000080F906
:393051000000000000000000000000000000000000000000000000000000000000000000000000000000000000000000000000000000000000000080F9CD
:39308A000000000000000000000000000000000000000000000000000000000000000000000000000000000000000000000000000000000000000080F994
:3930C3000000000000000000000000000000000000000000000000000000000000000000000000000000000000000000000000000000000000000080F95B
:3930FC000000000000000000000000000000000000000000000000000000000000000000000000000000000000000000000000000000000000000080F922
:393135000000000000000000000000000000000000000000000000000000000000000000000000000000000000000000000000000000000000000080F9E8
:39316E000000000000000000000000000000000000000000000000000000000000000000000000000000000000000000000000000000000000000080F9AF
:3931A7000000000000000000000000000000000000000000000000000000000000000000000000000000000000000000000000000000000000000080F976
:3931E0000000000000000000000000000000000000000000000000000000000000000000000000000000000000000000000000000000000000000080F93D
:393219000000000000000000000000000000000000000000000000000000000000000000000000000000000000000000000000000000000000000080F903
:393252000000000000000000000000000000000000000000000000000000000000000000000000000000000000000000000000000000000000000080F9CA
:39328B000000000000000000000000000000000000000000000000000000000000000000000000000000000000000000000000000000000000000080F991
:3932C4000000000000000000000000000000000000000000000000000000000000000000000000000000000000000000000000000000000000000080F958
:3932FD000000000000000000000000000000000000000000000000000000000000000000000000000000000000000000000000000000000000000080F91F
:393336000000000000000000000000000000000000000000000000000000000000000000000000000000000000000000000000000000000000000080F9E5
:39336F000000000000100000000000000000000080000000000000000000000000000000000000000000000000000000000000000000000000000000E9AC
:3933A8000000000000008000000000000000000000000400000000000000000000000000000000000000000000000000000000000000000000000080B533
:3933E1000000000000400000000000000000000000000000000000000000000000000000000000000000000000000000000000000000000000000080B93A
:39341A000000000000000001000000000000000000420100000000000000000000000000000000000000000000000000000000000000000000000080BAFB
:393453000000000000001000000000000000000000800000000000000000000000000000000000000000000000000000000000000000000000000000F0C0
:39348C000000000000300000000000000000000080010000000000000000000000000000000000000000000000000000000000000000000000000000C88E
:3934C5000000000000004000000000000000000000000200000000000000000000000000000000000000000000000000000000000000000000000080DF2D
:3934FE000000000000000000000000000000000000000000000000000000000000000000000000000000000000000000000000000000000000000080F91C
:393537001000000000100000000000000000000080000000000000000000000000000000000000000000000000000000000000000000000000000000E8D3
:393570000000000000008000000000000000000000020400000000000000000000000000000000000000000000000000000000000000000000000080B765
:3935A9000000000000800000000000000000000000000000000000000000000000000000000000000000000000000000000000000000000000000000F178
:3935E2000C00000000000001000000000000000000400100000000000000000000000000000000000000000000000000000000000000000000000020DE64
:39361B000400000000001000000000000000000000800000000000000000000000000000000000000000000000000000000000000000000000000000B42E
:393654000000000000300000000000000000000080010000000000000000000000000000000000000000000000000000000000000000000000000000C8C4
:39368D000C000000000040000000000000000000000002000000000000000000000000000000000000000000000000000000000000000000000000108A1C
:3936C6000000000000000000000000000000000000000000000000000000000000000000000000000000000000000000000000000000000000000080F952
:3936FF001000000000100000000000000000000080200000000000000000000000000000000000000000000000000000000000000000000000000000C80A
:393738000000000000808000000000000000000000000100000000000000000000000000000000000000000000000000000000000000000000000000E86F
:393771000000000000000000000000000000000000000200000000000000000000000000000000000000000000000000000000000000000000000080DBC2
:3937AA000C000000000000010000000000000000000000000000000000000000000000000000000000000000000000000000000000000000000000208F2A
:3937E3000400000000001000000000000000000000800000000000000000000000000000000000000000000000000000000000000000000000000000B465
:39381C000000000000300000000000000000000080030000000000000000000000000000000000000000000000000000000000000000000000000000CAF6
:393855000C00000000004000000000000000000000000000000000000000000000000000000000000000000000000000000000000000000000000010A836
:39388E0000000000000000000000000000000000002004000000000000000000000000000000000000000000000000000000000000000000000000809DC0
:3938C7000000000000900000000000000000000080220000000000000000000000000000000000000000000000000000000000000000000000000080C353
:393900000000000000008000000000000000000000040100000000000000000000000000000000000000000000000000000000000000000000000080E4A5
:393939000000000000000000000000000000000080030200000000000000000000000000000000000000000000000000000000000000000000000000D8F8
:3939720008000000000000010000000000000000800400000000000000000000000000000000000000000000000000000000000000000000000000A0CF20
:3939AB000000000000001000000000000000000000820000000000000000000000000000000000000000000000000000000000000000000000000000F25F
:3939E4000000000000300000000000000000000080050000000000000000000000000000000000000000000000000000000000000000000000000000CC29
:393A1D000400000000004000000000000000000000020000000000000000000000000000000000000000000000000000000000000000000000000090AAF0
:393A560000000000000000000000000000000000002204000000000000000000000000000000000000000000000000000000000000000000000000809FF2
:393A8F001000000000500000000000000020100280200000000000000000000000000000000000000000000000000000000000000000000000000040DCB0
:393AC8000000000000008000000000000000000000000100000000000000000000000000000000000000000000000000000000000000000000000080E0E4
:393B010000000000000000000000000000004000000002000000000000000000000000000000000000000000000000000000000000000000000000809B2E
:393B3A000C000000000000010000000000000000000000000000000000000000000000000000000000000000000000000000000000000000000000309E77
:393B73000400000000001000000000000000440000800000000000000000000000000000000000000000000000000000000000000000000000000010E150
:393BAC000000000000300000000000000060010080010000000000000000000000000000000000000000000000000000000000000000000000000000AF1F
:393BE5000C00000000004000000000000000400000040000000000000000000000000000000000000000000000000000000000000000000000000030CE19
:393C1E000000000000000000000000000000080000200400000000000000000000000000000000000000000000000000000000000000000000000080952C
:393C57000000000000100801000000000020000080200000000000000000000000000000000000000000000000000000000000000000000000000080FBE0
:393C90000000000000000000000000000000000000000100000000000000000000000000000000000000000000000000000000000000000000000080E892
:393CC90000000000000040000000000000E0010000000200000000000000000000000000000000000000000000000000000000000000000000000000B8E7
:393D020008000000000000000000000000A00100000000000000000000000000000000000000000000000000000000000000000000000000000000A0F847
:393D3B000000000000801000000000000080410000800000000000000000000000000000000000000000000000000000000000000000000000000000B9C5
:393D740000000000003000000000000000E0010080010000000000000000000000000000000000000000000000000000000000000000000000000080AF55
:393DAD000400000000000000000000000000400000000000000000000000000000000000000000000000000000000000000000000000000000000090EC1D
:393DE6000000000000008400000000000000040000220400000000000000000000000000000000000000000000000000000000000000000000000080D79F
:393E1F0010000000001008010000000000A0010080000000000000000000000000000000000000000000000000000000000000000000000000000000DB45
:393E58000000000000000000000000000000000000000400000000000000000000000000000000000000000000000000000000000000000000000080BDF0
:393E910000000000000040000000000000E0410000000000000000000000000000000000000000000000000000000000000000000000000000000000DABD
:393ECA000C00000000000000000000000020000000440100000000000000000000000000000000000000000000000000000000000000000000000020E846
:393F03000400000000001000000000000000400000800000000000000000000000000000000000000000000000000000000000000000000000000000F4BD
:393F3C0000000000003000000000000000E0010080010000000000000000000000000000000000000000000000000000000000000000000000000080AF8B
:393F75000C000000004000000000000000804100000002000000000000000000000000000000000000000000000000000000000000000000000000908FE5
:393FAE000000000000008400000000000000040000000000000000000000000000000000000000000000000000000000000000000000000000000080B121
:393FE70010000000001008010000000000A0010080200000000000000000000000000000000000000000000000000000000000000000000000000000FB3C
:394020000000000000000000000000000080010000000100000000000000000000000000000000000000000000000000000000000000000000000000E9FC
:3940590000000000000040000000000000E0010000000200000000000000000000000000000000000000000000000000000000000000000000000000B853
:394092000C000000000000000000000000A00100000000000000000000000000000000000000000000000000000000000000000000000000000000A0BCEC
:3940CB000400000000001000000000000000400000820000000000000000000000000000000000000000000000000000000000000000000000000000F6F0
:394104000000000000300000000000000060000080010000000000000000000000000000000000000000000000000000000000000000000000000000AEC3
:39413D000C00000000000000000000000000000000000000000000000000000000000000000000000000000000000000000000000000000000000010AC81
:394176000000000000808400000000000000000000200400000000000000000000000000000000000000000000000000000000000000000000000000D90F
:3941AF0000000000000000000000000000000000000000000000000000000000000000000000000000000000000000000000000000000000000000C0BD5A
:3941E8002000048000100002400008000120000480001000000000000000000000000000000000800010000240000800012000048000100002400080F9A1
:394221000000000000000000000000000000000000000000000000000000000000000000000000000000000000000000000000000000000000000080F9EB
:39425A002800048000100002400008000120000480001000000000000000000000000000000000800010000240000800012000048000100002400030CAA5
:394293000000000000000000000000000000010000040000000000000000000000000000000000000000000000000000000000000000000000000090ED70
:3942CC002000048000100002400008000100000400001000000000000000000000000000000000800010000240000800012000048000100002400000DBFA
:3943050004000000000000000000000000000000000000000000000000000000000000000000000000000000000000000000000000000000000000B08E3D
:39433E002000048000100002400008000120000480001000000000000000000000000000000000800010000240000800012000048000100002400080F949
:394377000000000000000000000000000000000000000000000000000000000000000000000000000000000000000000000000000000000000000080F994
:3943B0000000000000000000000000000000000000000000000000000000000000000000000000000000000000000000000000000000000000000080F95B
:3943E9000000000000000000000000000000000000000000000000000000000000000000000000000000000000000000000000000000000000000080F922
:394422000800000000000000000000000000000000000000000000000000000000000000000000000000000000000000000000000000000000000000F960
:39445B000000000000000000000000000000000000000000000000000000000000000000000000000000000000000000000000000000000000000080F9AF
:394494000000000000000000000000000000000000000000000000000000000000000000000000000000000000000000000000000000000000000080F976
:3944CD000200000000000000000000000000000000000000000000000000000000000000000000000000000000000000000000000000000000000080DB59
:394506000000000000010000000000000000000000000000000000000000000000000000000000000000000000000000000000000000000000000080F803
:39453F0010000000004400000000000000000000000000200000000000000000000000000000000000000000000000000000000000000000000000809EB1
:39457800000000002C00200000000000000000000002408D000000000000000000000000000000000000000000000000000000000000000000000000CF20
:3945B1000000000000002000000000000000000000024000000000000000000000000000000000000000000000000000000000000000000000000080FDF2
:3945EA001000000002000000000000000000000000000000000000000000000000000000000000000000000000000000000000000000000000000080D82E
:394623000000000000000000000000000000000000000000000000000000000000000000000000000000000000000000000000000000000000000080F9E5
:39465C000000000000000000000000000000000000000000000000000000000000000000000000000000000000000000000000000000000000000080F9AC
:394695000000000000000000000000000000000000000000000000000000000000000000000000000000000000000000000000000000000000000080F973
:3946CE000000000000008000000000000000000100000000000000000000000000000000000000000000000000000000000000000000000000000080E0D2
:394707000000000000000000000000000000000000000000000000000000000000000000000000000000000000000000000000000000000000000080F900
:394740000000000000000000000000000000000000000000000000000000000000000000000000000000000000000000000000000000000000000080F9C7
:394779000000000000000000000000000000000000000000000000000000000000000000000000000000000000000000000000000000000000000080F98E
:3947B2000000000000000000000000000000000000000000000000000000000000000000000000000000000000000000000000000000000000000080F955
:3947EB000000000000000000000000000000000000000000000000000000000000000000000000000000000000000000000000000000000000000008F19C
:394824000000000000000000000000000000000000000000000000000000000000000000000000000000000000000000000000000000000000000080F9E2
:39485D000000000000000000000000000080000000000000000000000000000000000000000000000000000000000000000000000000000000000000F9A9
:3948960004000000020000000000000000800000000000000000000000000000000000000000000000000000000000000000000000000000000000009DC6
:3948CF000000008000002000000000000060400000008102000000000000000000000000000000000000000000000000000000000000000000000080EC81
:39490800080000005C04000000000000008061000000042A000000000000000000000000000000000000000000000000000000000000000000000080CFB0
:3949410000000000000000000000000000804000000000200000000000000000000000000000000000000000000000000000000000000000000000009BC2
:39497A00000000000200000000000000008040000000000000000000000000000000000000000000000000000000000000000000000000000000000099A9
:3949B3000000000000000000000000000000000000000000000000000000000000000000000000000000000000000000000000000000000000000080F952
:3949EC000000000000204000000000000000000000000000000000000000000000000000000000000000000000000000000000000000000000000080DDD5
:394A25000000000000000000000000000000000000000000000000000000000000000000000000000000000000000000000000000000000000000080F9DF
:394A5E000000000000000000000000000000000080010200000000000000000000000000000000000000000000000000000000000000000000000000DAC2
:394A97000000000000000000000000000000000000000000000000000000000000000000000000000000000000000000000000000000000000000080F96D
:394AD0000000000000100000000000000000000000000000000000000000000000000000000000000000000000000000000000000000000000000080E934
:394B09000000000000000000000000000000000000000000000000000000000000000000000000000000000000000000000000000000000000000080F9FA
:394B42000800000000000000000000000000000000000000000000000000000000000000000000000000000000000000000000000000000000000000F939
:394B7B000000000000000000000000000000000000000000000000000000000000000000000000000000000000000000000000000000000000000080F988
:394BB4000000000000000000000000000000000000000000000000000000000000000000000000000000000000000000000000000000000000000080F94F
:394BED000000000000000000000000000000000000000000000000000000000000000000000000000000000000000000000000000000000000000080F916
:394C26000000000000000000000000000000000000000000000000000000000000000000000000000000000000000000000000000000000000000008F15C
:394C5F000000000000010000000000000000000000000000000000000000000000000000000000000000000000000000000000000000000000000080F8A3
:394C98000000000004000000000000000000000000002010000000000000000000000000000000000000000000000000000000000000000000000080AA85
:394CD1000000000000000000000000000000000000000000000000000000000000000000000000000000000000000000000000000000000000000080F931
:394D0A000000000000000000000000000000000000000000000000000000000000000000000000000000000000000000000000000000000000000080F9F7
:394D4300001240025C00092001248004900012400248001D000000000000000000000000000000004800092001248004900012400248000920012480F95F
:394D7C00000C8001320006C00018000360000C800130002600000000000000000000000000000000300006C00018000360000C8001300006C0001880FB94
:024DB500FFFFFE
:00000001FF
