:020000040000FA
:39000000FFFF62FF3600FFFFFFFFFFFFFFFFFFFFFFFFFFFFFFFFFFFFFFFFFFFFFFFFFFFFFFFFFFFFFFFFFFFFFFFFFFFFFFFFFFFFFFFFFFFFFFFFFFFFFF65
:39003900000C8001300006C00018000360000C800130000600000000000000000000000000000000300006C00018000360000C8001300006C0041880FD40
:3900720000124002480009200124800490001240024800090000000000000000000000000000000048000920012480049000124002480009A0032400FBA1
:3900AB000000000000000000000000000000000000000000000000000000000000000000000000000000000000000000000000000000000000000080F9A3
:3900E4000000000000000000000000000000000000000000000000000000000000000000000000000000000000000000000000000000000000000080F96A
:39011D000000000000000000000000000000000000000000000000000000000000000000000000000000000000000000000000000000000000020080FB2C
:390156000000000000000000000000000000000000000000000000000000000000000100000000000000000000000000000000000000000008000000E087
:39018F00A008000000000000000000000000000080060000000000000000000000000000000000000000000000000000000000000000000000400084FD48
:3901C8000081000000000000000000000000000000000000000000000000000000000000000000000000000000000000000000000000000000000200CBB0
:390201008000000000000000000000000000000000060200000000000000000000000000000000000000000000000000000000000000000000000381F6C2
:39023A000045000000000000000000000000000000100000000000000000000000000000000000000000000000000000000000000000000000002280DDB7
:390273008004000000000000000000000000000000000100000000000000000000000000000000000000000000000000000000000000000000001180B08C
:3902AC006081000000000000000000000000000080070000000000000000000000000000000000000000000000000000000000000000000000C083009BD3
:3902E5000000000000000000000000000000000000000000000000000000000000000000000000000000000000000000000000000000000000008180E0FF
:39031E0080290000000000000000000000000000000004000000000000000000000000000000000000000000000000000000000000000000000010008E5B
:390357000050000000000000000000000000000080200000000000000000000000000000000000000000000000000000000000000000000000401001DD4F
:390390000000000000000000000000000000000000000100000000000000000000000000000000000000000000000000000000000000000000000080E8CB
:3903C9006000000000000000000000000000000000020100000000000000000000000000000000000000000000000000000000000000000000008080E4B4
:39040200A8810000000000000000000000000000002000000000000000000000000000000000000000000000000000000000000000000000000020A0E3D5
:39043B008045000000000000000000000000000000400100000000000000000000000000000000000000000000000000000000000000000000001080B53D
:390474006000000000000000000000000000000080010000000000000000000000000000000000000000000000000000000000000000000000C08080BEF0
:3904AD008401000000000000000000000000000000000000000000000000000000000000000000000000000000000000000000000000000000008090BCC5
:3904E6000050000000000000000000000000000000020400000000000000000000000000000000000000000000000000000000000000000000001280C92C
:39051F00B001000000000000000000000000000080020200000000000000000000000000000000000000000000000000000000000000000000402104D138
:390558000000000000000000000000000000000000040000000000000000000000000000000000000000000000000000000000000000000000000280DF05
:39059100804100000000000000000000000000000006010000000000000000000000000000000000000000000000000000000000000000000000838089DD
:3905CA000C100000000000000000000000000000002400000000000000000000000000000000000000000000000000000000000000000000000008909987
:3906030004100000000000000000000000000000004201000000000000000000000000000000000000000000000000000000000000000000000091B0D452
:39063C00E041000000000000000000000000000080050000000000000000000000000000000000000000000000000000000000000000000000C00280CCD1
:390675008C01010000000000000000000000000000020000000000000000000000000000000000000000000000000000000000000000000000000321A7F1
:3906AE000000000000000000000000000000000000000400000000000000000000000000000000000000000000000000000000000000000000002080BFB0
:3906E700A001000000000000000000000000000000200000000000000000000000000000000000000000000000000000000000000000000000002081D1A7
:390720000000000000000000000000000000000000000400000000000000000000000000000000000000000000000000000000000000000000000080BD5F
:390759008001000000000000000000000000000080010000000000000000000000000000000000000000000000000000000000000000000000C00080A87D
:390792000808020000000000000000000000000080460200000000000000000000000000000000000000000000000000000000000000000000400020F5FF
:3907CB00002000000000000000000000000000000006000000000000000000000000000000000000000000000000000000000000000000000000A380E4C8
:39080400E001000000000000000000000000000080010100000000000000000000000000000000000000000000000000000000000000000000C003808C89
:39083D000400000000000000000000000000000000060000000000000000000000000000000000000000000000000000000000000000000000000090AA3E
:390876000084000000000000000000000000000000000100000000000000000000000000000000000000000000000000000000000000000000002001BAE9
:3908AF001050000000000000000000000000000080200000000000000000000000000000000000000000000000000000000000000000000000002041DBD4
:3908E8000000000000000000000000000000000000000100000000000000000000000000000000000000000000000000000000000000000000000080E86E
:390921006000000000000000000000000000000000000100000000000000000000000000000000000000000000000000000000000000000000C00000A6D6
:39095A002C00000000000000000000000000000000200000000000000000000000000000000000000000000000000000000000000000000000400030ECBC
:390993008401000000000000000000000000000000400100000000000000000000000000000000000000000000000000000000000000000000000B10D674
:3909CC00E041000000000000000000000000000080010000000000000000000000000000000000000000000000000000000000000000000000C08380D1BC
:390A05000C000000000000000000000000000000000000000000000000000000000000000000000000000000000000000000000000000000000000308EEE
:390A3E000080000000000000000000000000000000040400000000000000000000000000000000000000000000000000000000000000000000002001AB2B
:390A77003010010000000000000000000000000080400800000000000000000000000000000000000000000000000000000000000000000000400080EA93
:390AB0000000000000000000000000000000000000040000000000000000000000000000000000000000000000000000000000000000000000000080FD8C
:390AE9000000000000000000000000000000000000060200000000000000000000000000000000000000000000000000000000000000000000000081CD7E
:390B22000C400000000000000000000000000000004400000000000000000000000000000000000000000000000000000000000000000000000020209D2D
:390B5B000404000000000000000000000000000000420000000000000000000000000000000000000000000000000000000000000000000000001080BEC9
:390B94006080000000000000000000000000000080070400000000000000000000000000000000000000000000000000000000000000000000C08000FC81
:390BCD008C00000000000000000000000000000000020100000000000000000000000000000000000000000000000000000000000000000000008010BF11
:390C06008028000000000000000000000000000000200000000000000000000000000000000000000000000000000000000000000000000000001300C911
:390C3F00A001000000000000000000000000000400200000000000000000000000000000000000000000000000000000000000000000000000400380F400
:390C78000000000000000000000000000000000000000400000000000000000000000000000000000000000000000000000000000000000000000080BD02
:390CB1008001000000000000000000000000003080010000000000000000000000000000000000000000000000000000000000000000000000000300D005
:390CEA0008040200000000000000000000000030800000000000000000000000000000000000000000000000000000000000000000000000000043909EA2
:390D230000200000000000000000000000000030111600000000000000000000000000000000000000000000000000000000000000000000000010B0FD63
:390D5C00E001000000000000000000000000003C80070100000000000000000000000000000000000000000000000000000000000000000000C08300C5B1
:390D950084010000000000000000000000000030000000000000000000000000000000000000000000000000000000000000000000000000000000A1943B
:390DCE00808500000000000000000000000000B0404002000000000000000000000000000000000000000000000000000000000000000000000020008E07
:390E07002000000000000000000000000000000400400200000000000000000000000000000000000000000000000000000000000000000000002081CFDC
:390E40000000000000000000000000000000000000000000000000000000000000000000000000000000000000000000000000000000000000000080F900
:390E79000040000000000000000000000000003080010000000000000000000000000000000000000000000000000000000000000000000000C00080F718
:390EB2000410000000000000000000000000003080000000000000000000000000000000000000000000000000000000000000000000000000400020CD16
:390EEB000C100000000000000000000000000030101601000000000000000000000000000000000000000000000000000000000000000000000003008ACE
:390F24006040000000000000000000000000003C80070000000000000000000000000000000000000000000000000000000000000000000000C083008866
:390F5D000800010000000000000000000000003000000000000000000000000000000000000000000000000000000000000000000000000000000010EA28
:390F9600800100000000000000000000000000B040400200000000000000000000000000000000000000000000000000000000000000000000002081DEF0
:390FCF001000000000000000000000000000000000000000000000000000000000000000000000000000000000000000000000000000000000000080F861
:391008002000048000100002400008000120000480001000000000000000000000000000000000800010000240000800012000048000100002400080F9B2
:391041000000000000000000000000000000000000000000000000000000000000000000000000000000000000000000000000000000000000000080F9FD
:39107A002C00048000100002400008000120000480001000000000000000000000000000000000800010000240000800012000048000100002400010ACF1
:3910B30004010000000000000000000000000000000400000000000000000000000000000000000000000000000000000000000000000000000002B0B891
:3910EC000000048000100002400008000120000400001000000000000000000000000000000000800010000240000800012000048000100002000000BB6C
:391125000C000000000000000000000000000000000000000000000000000000000000000000000000000000000000000000000000000000000000209FC6
:39115E002000048000100002400008000120000480001000000000000000000000000000000000800010000240000800012000048000100002400080F95B
:391197000000000000000000000000000000000000010000000000000000000000000000000000000000000000000000000000000000000000000080F8A6
:3911D0000000000000000000000000000000000000000000000000000000000000000000000000000000000000000000000000000000000000000080F96D
:391209000000000000000000000000000000000000000000000000000000000000000000000000000000000000000000000000000000000000000080F933
:391242000000000000000000000000000000000000000000000000000000000000000000000000000000000000000000000000000000000000000080F9FA
:39127B000000000000000000000000000000000000000200000000000000000000000000000000000000000000000000000000000000000000000080DBDD
:3912B4000000000000000000000000000000000000000000000000000000000000000000000000000000000000000000000000000000000000000080F988
:3912ED000000000000000000000000000000000000000000000000000000000000000000000000000000000000000000000000000000000000000080F94F
:391326000000000000000000000000000000000000000000000000000000000000000000000000000000000000000000000000000000000000000080F915
:39135F000000000000000000000000000000000000000000000000000000000000000000000000000000000000000000000000000000000000000080F9DC
:391398000240000000000000000000000000000000020000000000000000000000000000000000000000000000000000000000000000000028034088B82D
:3913D1000040000000000000000000000000000000020000000000000000000000000000000000000000000000000000000000000000000008000000B7E2
:39140A000800000000000000000000000000000000000000000000000000000000000000000000000000000000000000000000000000000000048000F528
:391443000000000000000000000000000000000000000000000000000000000000000000000000000000000000000000000000000000000000000080F9F7
:39147C000000000000000000000000000000000000000000000000000000000000000000000000000000000000000000000000000000000000000080F9BE
:3914B5000000000000000000000000000000000000000000000000000000000000000000000000000000000000000000000000000000000000000080F985
:3914EE000000000000000000000000000000000000000000000000000000000000000000000000000000000000000000000000000000000000000080F94C
:391527000000000000000000000000000000000000000000000000000000000000000000000000000000000000000000000000000000000000000080F912
:391560000001000000000000000000000000000000000000000000000000000000000000000000000000000000000000000000000000000000000082C906
:391599000002000000000000000000000000000000040000000000000000000000000000000000000000000000000000000000000000000000000280FF92
:3915D2000400000000000000000000000000001000020000000000000000000000000000000000000000000000000000000000000000000000000108A71A
:39160B000801020000000000000000000000000040000000000000000000000000000000000000000000000000000000000000000000000000400000EF2C
:391644002000000000000000000000000000000000000400000000000000000000000000000000000000000000000000000000000000000000000080BF0A
:39167D0002400000000000000000000000000000000000000000000000000000000000000000000000000000000000000000000000000000000000809FD3
:3916B6008000000000000000000000000080000000000000000000000000000000000000000000000000000000000000000000000000000000000000F10A
:3916EF002080000000000000000000000020000000000000000000000000000000000000000000000000000000000000000000000000000000008020F36F
:391728004001000000000000008000000040060000028089000000000000000000000000000000000000000000000000000000000000000022040080B31D
:391761000000000000000000004000000000000000020000000000000000000000000000000000000000000000000000000000000000000000020080FD8E
:39179A008000000000000000000000000000000000004000000000000000000000000000000000000000000000000000000000000000000000000080F5E1
:3917D3000000010000000000000000000000000800000000000000000000000000000000000000000000000000000000000000000000000000000000F8DC
:39180C000004000000000000000000000000000000010000000000000000000000000000000000000000000000000000000000000000000000800000B06E
:391845000000000000000000000000000000000000000000000000000000000000000000000000000000000000000000000000000000000000000080F9F1
:39187E000000000000000000000000000000000000000000000000000000000000000000000000000000000000000000000000000000000000000080F9B8
:3918B70000000000000000000000000000000000000000000000000000000000000000000000000000000000000000000000000000000000000000A0DB7D
:3918F0000000000000000000000000000000000000000000000000000000000000000000000000000000000000000000000000000000000000000080F946
:391929001000000000000000000000000000000000000100000000000000000000000000000000000000000000000000000000000000000000000080E90B
:391962000000000000000000000000000000000000000000000000000000000000000000000000000000000000000000000000000000000000000080F9D3
:39199B000000000000000000000000000000000000020000000000000000000000000000000000000000000000000000000000000000000000000082DBB4
:3919D4000000000000000000000000000000000000000000000000000000000000000000000000000000000000000000000000000000000000000080F961
:391A0D000000000000000000000000000000000000000000000000000000000000000000000000000000000000000000000000000000000000000080F927
:391A46000000000000000000000000000000000000000000000000000000000000000000000000000000000000000000000000000000000000000080F9EE
:391A7F000000844000000000000000000000000000000000000000000000000000000000000000000000000000000000000000000000000000000000F179
:391AB8000000200000000000000000000000000000000000000000000000000000000000000000000000000000000000000000000000000000000080D97C
:391AF1000000301000000000000000000000000000000000000000000000000000000000000000000000000000000000000000000000000000000080C834
:391B2A000000200100000000000000000000000000000000000000000000000000000000000000000000000000000000000000000000000000000080C819
:391B63000000900800000000000000000000000000000000000000000000000000000000000000000000000000000000000000000000000000000080E150
:391B9C0000003C0000000000000000000000000000000000000000000000000000000000000000000000000000000000000000000000000000000080C58F
:391BD5000000100800000000000000000000000000000000000000000000000000000000000000000000000000000000000000000000000000000000E9D6
:391C0E000000000100000000000000000000000000000000000000000000000000000000000000000000000000000000000000000000000000000080E834
:391C47000000000000000000000000000000000000000000000000000000000000000000000000000000000000000000000000000000000000000080F9EB
:391C80000000002000000000000000000000000000000000000000000000000000000000000000000000000000000000000000000000000000000080FB90
:391CB90000000C0000000000000000000000000000000000000000000000000000000000000000000000000000000000000000000000000000000080F571
:391CF2000800040000000000000000000000000000000000000000000000000000000000000000000000000000000000000000000000000000000010ECB1
:391D2B000000B00000000000000000000000000000000000000000000000000000000000000000000000000000000000000000000000000000000030F2AD
:391D640000003C0800000000000000000000000000000000000000000000000000000000000000000000000000000000000000000000000000000000C53D
:391D9D0004000000000000000000000000000000000000000000000000000000000000000000000000000000000000000000000000000000000000A09FCA
:391DD6000000001200000000000000000000000000000000000000000000000000000000000000000000000000000000000000000000000000000080DA68
:391E0F001000140200000000000000000000000000000000000000000000000000000000000000000000000000000000000000000000000000000080CE26
:391E48000000201000000000000000000000000000000000000000000000000000000000000000000000000000000000000000000000000000000080D8D9
:391E81000000300000000000000000000000000000000000000000000000000000000000000000000000000000000000000000000000000000000080C9AF
:391EBA000C00000A000000000000000000000000000000000000000000000000000000000000000000000000000000000000000000000000000000A0BD7C
:391EF30004001002000000000000000000000000000000000000000000000000000000000000000000000000000000000000000000000000000000808F91
:391F2C0000002C0800000000000000000000000000000000000000000000000000000000000000000000000000000000000000000000000000000000D573
:391F65000C003010000000000000000000000000000000000000000000000000000000000000000000000000000000000000000000000000000000109D4A
:391F9E000000000100000000000000000000000000000000000000000000000000000000000000000000000000000000000000000000000000000080E8A1
:391FD7000000040000000000000000000000000000000000000000000000000000000000000000000000000000000000000000000000000000000080FD50
:392010000000000000000000000000000000000000000000000000000000000000000000000000000000000000000000000000000000000000000080F91E
:392049000000001000000000000000000000000000000000000000000000000000000000000000000000000000000000000000000000000000000080F8D6
:392082000800000100000000000000000000000000000000000000000000000000000000000000000000000000000000000000000000000000000010F913
:3920BB0000008008000000000000000000000000000000000000000000000000000000000000000000000000000000000000000000000000000000B0C2F2
:3920F40000000C0000000000000000000000000000000000000000000000000000000000000000000000000000000000000000000000000000000080F532
:39212D0004000008000000000000000000000000000000000000000000000000000000000000000000000000000000000000000000000000000000209FAE
:392166000000300100000000000000000000000000000000000000000000000000000000000000000000000000000000000000000000000000000080D8B7
:39219F000000340000000000000000000000000000000000000000000000000000000000000000000000000000000000000000000000000000000080CD86
:3921D8000000000000000000000000000000000000000000000000000000000000000000000000000000000000000000000000000000000000000080F955
:392211000000301000000000000000000000000000000000000000000000000000000000000000000000000000000000000000000000000000000080C80C
:39224A000800300200000000000000000000000000000000000000000000000000000000000000000000000000000000000000000000000000000020C938
:392283000000800800000000000000000000000000000000000000000000000000000000000000000000000000000000000000000000000000000080F129
:3922BC0000003C0000000000000000000000000000000000000000000000000000000000000000000000000000000000000000000000000000000080C568
:3922F5000400001000000000000000000000000000000000000000000000000000000000000000000000000000000000000000000000000000000090AD5F
:39232E000000000100000000000000000000000000000000000000000000000000000000000000000000000000000000000000000000000000000080E80D
:392367000000000000000000000000000000000000000000000000000000000000000000000000000000000000000000000000000000000000000080F9C4
:3923A0000000002000000000000000000000000000000000000000000000000000000000000000000000000000000000000000000000000000000080FB69
:3923D90000000C0000000000000000000000000000000000000000000000000000000000000000000000000000000000000000000000000000000080F54A
:392412000800040000000000000000000000000000000000000000000000000000000000000000000000000000000000000000000000000000000010EC89
:39244B000000300900000000000000000000000000000000000000000000000000000000000000000000000000000000000000000000000000000030EB04
:3924840000003C0000000000000000000000000000000000000000000000000000000000000000000000000000000000000000000000000000000080C59E
:3924BD0004000000000000000000000000000000000000000000000000000000000000000000000000000000000000000000000000000000000000A09FA3
:3924F6000000001200000000000000000000000000000000000000000000000000000000000000000000000000000000000000000000000000000080DA41
:39252F001000040200000000000000000000000000000000000000000000000000000000000000000000000000000000000000000000000000000080DEFF
:392568000000000800000000000000000000000000000000000000000000000000000000000000000000000000000000000000000000000000000000F939
:3925A1000000001000000000000000000000000000000000000000000000000000000000000000000000000000000000000000000000000000000080F879
:3925DA000C000001000000000000000000000000000000000000000000000000000000000000000000000000000000000000000000000000000000208E0D
:392613000400800800000000000000000000000000000000000000000000000000000000000000000000000000000000000000000000000000000080B5CD
:39264C0000000C0000000000000000000000000000000000000000000000000000000000000000000000000000000000000000000000000000000080F5D4
:392685000C00000800000000000000000000000000000000000000000000000000000000000000000000000000000000000000000000000000000090ACCC
:3926BE000000200100000000000000000000000000000000000000000000000000000000000000000000000000000000000000000000000000000080C87A
:3926F7000000000000000000000000000000000000000000000000000000000000000000000000000000000000000000000000000000000000000080F931
:392730000000002000000000000000000000000000000000000000000000000000000000000000000000000000000000000000000000000000000080FBD5
:3927690000000C0000000000000000000000000000000000000000000000000000000000000000000000000000000000000000000000000000000080F5B6
:3927A2000800040000000000000000000000000000000000000000000000000000000000000000000000000000000000000000000000000000000020DFF3
:3927DB000000300000000000000000000000000000000000000000000000000000000000000000000000000000000000000000000000000000000080C94C
:3928140000003C0800000000000000000000000000000000000000000000000000000000000000000000000000000000000000000000000000000000C582
:39284D000400000000000000000000000000000000000000000000000000000000000000000000000000000000000000000000000000000000000090AC12
:392886000000001200000000000000000000000000000000000000000000000000000000000000000000000000000000000000000000000000000080DAAD
:3928BF001000000000000000000000000000000000000000000000000000000000000000000000000000000000000000000000000000000000000080F858
:3928F8002000048000100002400008000120000480001000000000000000000000000000000000800010000240000800012000048000100002400080F9AA
:392931000000000000000000000000000000000000000000000000000000000000000000000000000000000000000000000000000000000000000080F9F4
:39296A002C000480001000024000080001200004800010000000000000000000000000000000008000100002400008000120000480001000024000209FE5
:3929A30004002000000000000000000000000000000000000000000000000000000000000000000000000000000000000000000000000000000000809DBA
:3929DC002000008000100002400008000120000480001000000000000000000000000000000000800010000240000800012000048000100002400080FDC5
:392A15000C00000000000000000000000000000000000000000000000000000000000000000000000000000000000000000000000000000000000010ACC0
:392A4E002000048000100002400008000120000480001000000000000000000000000000000000800010000240000800012000048000100002400080F952
:392A87000000400000000000000000000000000000000000000000000000000000000000000000000000000000000000000000000000000000000080B99D
:392AC0000000000000000000000000000000000000000000000000000000000000000000000000000000000000000000000000000000000000000080F964
:392AF9000000000000000000000000000000000000000000000000000000000000000000000000000000000000000000000000000000000000000080F92B
:392B32000000000000000000000000000000000000000000000000000000000000000000000000000000000000000000000000000000000000000080F9F1
:392B6B000000000000000000000000000000000000000000000000000000000000000000000000000000000000000000000000000000000000000080F9B8
:392BA4000000000000000000000000000000000000000000000000000000000000000000000000000000000000000000000000000000000000000080F97F
:392BDD000000000000000000000000000000000000000000000000000000000000000000000000000000000000000000000000000000000000000080F946
:392C16000000000000000000000000000000000000000000000000000000000000000000000000000000000000000000000000000000000000000080F90C
:392C4F000000000000000000000000000000000000000000000000000000000000000000000000000000000000000000000000000000000000000080F9D3
:392C88000050000000000000000000000000000000000000000000000000000000000000000000000000000000000000000000000000000000000080AC97
:392CC1000040000000000000000000000000000000000000000000000000000000000000000000000000000000000000000000000000000000000080BD5D
:392CFA000800000000000000000000000000000000000000000000000000000000000000000000000000000000000000000000000000000000000000F9A0
:392D33000000000000000000000000000000000000000000000000000000000000000000000000000000000000000000000000000000000000000080F9EE
:392D6C000000000000000000000000000000000000000000000000000000000000000000000000000000000000000000000000000000000000000080F9B5
:392DA5000000000000000000000000000000000000000000000000000000000000000000000000000000000000000000000000000000000000000080F97C
:392DDE000000000000000000000000000000000000000000000000000000000000000000000000000000000000000000000000000000000000000080F943
:392E17000000000000000000000000000000000000000000000000000000000000000000000000000000000000000000000000000000000000000080F909
:392E50000000000000000000000000000000000000000000000000000000000000000000000000000000000000000000000000000000000000000080F9D0
:392E89000000200000000000000000000000000000000000000000000000000000000000000000000000000000000000000000000000000000000080D997
:392EC20000000000000000000000000000000000000000000000000000000000000000000000000000000000000000000000000000000000000000C0BD5A
:392EFB000800000000000000000000000000000000000000000000000000000000000000000000000000000000000000000000000000000000000000F99D
:392F34000000000000000000000000000000000000000000000000000000000000000000000000000000000000000000000000000000000000000080F9EB
:392F6D000800000000000000000000000000000000000000000000000000000000000000000000000000000000000000000000000000000000000000F92A
:392FA6000000000000000000000000000000000000000000000000000000000000000000000000000000000000000000000000000000000000000080F979
:392FDF0000050000000000000000000000000000000000000000000000000000000000000000000000000000000000000000000000000000000000D0FCE8
:393018008257000000000000000000000000010000000000000000000000000000000000000000000000000000000000000000000000000000000080F72E
:393051008040000000000000000000000000000000000000000000000000000000000000000000000000000000000000000000000000000000000080B551
:39308A000001000000000000000000000000010000000000000000000000000000000000000000000000000000000000000000000000000000000080E8A3
:3930C3000000084000000000000000000000000000000000000000000000000000000000000000000000000000000000000000000000000000000080F517
:3930FC000000001000000000000000000000000000000000000000000000000000000000000000000000000000000000000000000000000000000080F813
:393135000000000000000000000000000000000000000000000000000000000000000000000000000000000000000000000000000000000000000080F9E8
:39316E000000000000000000000000000000000000000000000000000000000000000000000000000000000000000000000000000000000000000080F9AF
:3931A7000000000000000000000000000000000000000000000000000000000000000000000000000000000000000000000000000000000000000080F976
:3931E0000000000000000000000000000000000000000000000000000000000000000000000000000000000000000000000000000000000000000080F93D
:393219000000000000000000000000000000000000000000000000000000000000000000000000000000000000000000000000000000000000000080F903
:393252000200100000000000000000000000000000000000000000000000000000000000000000000000000000000000000000000000000000000080CBE6
:39328B000000000000000000000000000000000000000000000000000000000000000000000000000000000000000000000000000000000000000080F991
:3932C4000000000000000000000000000000000000000000000000000000000000000000000000000000000000000000000000000000000000000080F958
:3932FD000000000000000000000000000000000000000000000000000000000000000000000000000000000000000000000000000000000000000080F91F
:393336000000000000000000000000000000000000000000000000000000000000000000000000000000000000000000000000000000000000000080F9E5
:39336F000000000040020040040000000000000000000000000000000000000000000000000000000000000000000000000000000000000000000080FF20
:3933A8000000000000000000000000000000000000000000000000000000000000000000000000000000000000000000000000000000000000000080F973
:3933E1000000008001000006000000000000000000000000000000000000000000000000000000000000000000000000000000000000000000000080812B
:39341A000000008046020002000000000000000000000000000000000000000000000000000000000000000000000000000000000000000000000080F738
:393453000000000026000098040000000000000000000000000000000000000000000000000000000000000000000000000000000000000000000080A658
:39348C00000000800101001E00000000000000000000000000000000000000000000000000000000000000000000000000000000000000000000000099CE
:3934C500000000000601000000000000000000000000000000000000000000000000000000000000000000000000000000000000000000000000008098AF
:3934FE000000000040000000090000000000000000000000000000000000000000000000000000000000000000000000000000000000000000000080B418
:393537001000008000000000000000000000000000000000000000000000000000000000000000000000000000000000000000000000000000000080F05B
:393570000000000000010000000000000000000000000000000000000000000000000000000000000000000000000000000000000000000000000080F8A9
:3935A9000000000000010000000000000000000000000000000000000000000000000000000000000000000000000000000000000000000000000080F870
:3935E2000C00000020000000000000000000000000000000000000000000000000000000000000000000000000000000000000000000000000000020BDA7
:39361B000400000040010000000000000000000000000000000000000000000000000000000000000000000000000000000000000000000000000080F8B9
:393654000000008001000000000000000000000000000000000000000000000000000000000000000000000000000000000000000000000000000080E15B
:39368D000C00000000000000000000000000000000000000000000000000000000000000000000000000000000000000000000000000000000000010AC3C
:3936C6000000000044040000000000000000000000000000000000000000000000000000000000000000000000000000000000000000000000000080F90A
:3936FF00000000800208001A000000000000000000000000000000000000000000000000000000000000000000000000000000000000000000000000E00E
:393738000000000004000000000000000000000000000000000000000000000000000000000000000000000000000000000000000000000000000080B91B
:393771000000000006010018080000000000000000000000000000000000000000000000000000000000000000000000000000000000000000000000896F
:3937AA000400000024000000010000000000000000000000000000000000000000000000000000000000000000000000000000000000000000000090CF5E
:3937E3000C00000042010000000000000000000000000000000000000000000000000000000000000000000000000000000000000000000000000030EB43
:39381C00000000800500001E100000000000000000000000000000000000000000000000000000000000000000000000000000000000000000000000C8F8
:393855000800000002000000000000000000000000000000000000000000000000000000000000000000000000000000000000000000000000000020FB15
:39388E000000000040040000110000000000000000000000000000000000000000000000000000000000000000000000000000000000000000000080A884
:3938C7000000008006000002030000000000000000000000000000000000000000000000000000000000000000000000000000000000000000000080B20B
:393900000000000000000000000000000000000000000000000000000000000000000000000000000000000000000000000000000000000000000080F915
:3939390000000000060000000400000000000000000000000000000000000000000000000000000000000000000000000000000000000000000000809D2E
:3939720008000000800000000000000000000000000000000000000000000000000000000000000000000000000000000000000000000000000000A0DB19
:3939AB000000000000010080000000000000000000000000000000000000000000000000000000000000000000000000000000000000000000000000F86A
:3939E4000000008007000006100000000000000000000000000000000000000000000000000000000000000000000000000000000000000000000080F19C
:393A1D000400000000000008000000000000000000000000000000000000000000000000000000000000000000000000000000000000000000000010A4B0
:393A56000000000040040088100000000000000000000000000000000000000000000000000000000000000000000000000000000000000000000080A13A
:393A8F00100000800000008A200000000000000000000000000000000000000000000000000000000000000000000000000000000000000000000080F84C
:393AC8000000000000010010000000000000000000000000000000000000000000000000000000000000000000000000000000000000000000000080E94B
:393B01000000000002010008040000000000000000000000000000000000000000000000000000000000000000000000000000000000000000000000D4A8
:393B3A000C000000200000900000000000000000000000000000000000000000000000000000000000000000000000000000000000000000000000909F67
:393B730004000000400100880000000000000000000000000000000000000000000000000000000000000000000000000000000000000000000000B0C3D9
:393BAC0000000080010000161000000000000000000000000000000000000000000000000000000000000000000000000000000000000000000000808039
:393BE5000C000000000000000000000000000000000000000000000000000000000000000000000000000000000000000000000000000000000000209FDC
:393C1E000000000042040098100000000000000000000000000000000000000000000000000000000000000000000000000000000000000000000080906F
:393C5700000000804008001A00000000000000000000000000000000000000000000000000000000000000000000000000000000000000000000000084CE
:393C90000000000004000000000000000000000000000000000000000000000000000000000000000000000000000000000000000000000000000080B9BE
:393CC90000000000060200180000000000000000000000000000000000000000000000000000000000000000000000000000000000000000000000008220
:393D02000800000024000040200000000000000000000000000000000000000000000000000000000000000000000000000000000000000000000020DDFF
:393D3B000000000022000000000000000000000000000000000000000000000000000000000000000000000000000000000000000000000000000080FBB2
:393D7400000000800704001E100000000000000000000000000000000000000000000000000000000000000000000000000000000000000000000000EC71
:393DAD000400000002010018000000000000000000000000000000000000000000000000000000000000000000000000000000000000000000000010941A
:393DE6000000000020000018110000000000000000000000000000000000000000000000000000000000000000000000000000000000000000000000D388
:393E1F001000000040020040040000000000000000000000000000000000000000000000000000000000000000000000000000000000000000000080FE56
:393E58000000000000000000000000000000000000000000000000000000000000000000000000000000000000000000000000000000000000000080F9B8
:393E910000000080010000060000000000000000000000000000000000000000000000000000000000000000000000000000000000000000000000808170
:393ECA000C0000800000001A09000000000000000000000000000000000000000000000000000000000000000000000000000000000000000000009094EC
:393F030004000000160000980000000000000000000000000000000000000000000000000000000000000000000000000000000000000000000000B0E63D
:393F3C000000008007010006040000000000000000000000000000000000000000000000000000000000000000000000000000000000000000000080E456
:393F75000C000000000000180000000000000000000000000000000000000000000000000000000000000000000000000000000000000000000000A086C9
:393FAE000000000040020040040000000000000000000000000000000000000000000000000000000000000000000000000000000000000000000080FFD5
:393FE700100000000000001A000000000000000000000000000000000000000000000000000000000000000000000000000000000000000000000000C1B6
:394020000000000000040000000000000000000000000000000000000000000000000000000000000000000000000000000000000000000000000080FDE6
:394059000000008001000018000000000000000000000000000000000000000000000000000000000000000000000000000000000000000000000000F89D
:394092000C000080000000800400000000000000000000000000000000000000000000000000000000000000000000000000000000000000000000A093B2
:3940CB000400000016010000050000000000000000000000000000000000000000000000000000000000000000000000000000000000000000000080C854
:39410400000000800700001E000000000000000000000000000000000000000000000000000000000000000000000000000000000000000000000000F8E5
:39413D000C00000000000018000000000000000000000000000000000000000000000000000000000000000000000000000000000000000000000090B5E0
:394176000000000040020000020000000000000000000000000000000000000000000000000000000000000000000000000000000000000000000080BD8F
:3941AF001000000000000000000000000000000000000000000000000000000000000000000000000000000000000000000000000000000000000080F84F
:3941E8002000048000100002400008000120000480001000000000000000000000000000000000800010000240000800012000048000100002400080F9A1
:394221000000000000000000000000000000000000000000000000000000000000000000000000000000000000000000000000000000000000000080F9EB
:39425A002C00048000100002400008000120000480001000000000000000000000000000000000800010000240000800012000048000100002400010ACDF
:3942930004000000040000100000000000000000000000000000000000000000000000000000000000000000000000000000000000000000000000B0DF4B
:3942CC002000040000100000400008000120000480001000000000000000000000000000000000800010000240000800012000048000100002400080D166
:394305000C000000000000000000000000000000000000000000000000000000000000000000000000000000000000000000000000000000000000209FB4
:39433E002000048000100002400008000120000480001000000000000000000000000000000000800010000240000800012000048000100002400080F949
:394377000000000000000000000000000000000000000000000000000000000000000000000000000000000000000000000000000000000000000080F994
:3943B0000000000000000000000000000000000000000000000000000000000000000000000000000000000000000000000000000000000000000080F95B
:3943E9000000000000000000000000000000000000000000000000000000000000000000000000000000000000000000000000000000000000000080F922
:394422000000000000000000000000000000000000000000000000000000000000000000000000000000000000000000000000000000000000000080F9E8
:39445B000000000000000002000000000000000000000000000000000000000000000000000000000000000000000000000000000000000000000080D9CD
:394494000000000000000000000000000000000000000000000000000000000000000000000000000000000000000000000000000000000000000080F976
:3944CD000200000000010000000000000000000000000000000000000000000000000000000000000000000000000000000000000000000000000080DA59
:394506000000000000000000000000000000000000000000000000000000000000000000000000000000000000000000000000000000000000000080F903
:39453F000000000000020000000000000000000000000000000000000000000000000000000000000000000000000000000000000000000000000080FBC6
:394578001000000080000000000500000000000000000000000000000000000000000000000000000000000000000000000000000000000000000000ADC8
:3945B1000000000000000000000100000000000000000000000000000000000000000000000000000000000000000000000000000000000000000080E868
:3945EA000000000000010000000000000000000000000000000000000000000000000000000000000000000000000000000000000000000000000080F81F
:394623000000000000000000000000000000000000000000000000000000000000000000000000000000000000000000000000000000000000000080F9E5
:39465C000000000000000000000000000000000000000000000000000000000000000000000000000000000000000000000000000000000000000080F9AC
:394695000000000000000000000000000000000000000000000000000000000000000000000000000000000000000000000000000000000000000080F973
:3946CE000000000000000000000000000000000000000000000000000000000000000000000000000000000000000000000000000000000000000080F93A
:394707000000000000000000000000000000000000000000000000000000000000000000000000000000000000000000000000000000000000000080F900
:394740000000000000000000000000000000000000000000000000000000000000000000000000000000000000000000000000000000000000000080F9C7
:394779000000000004000010000000000000000000000000000000000000000000000000000000000000000000000000000000000000000000000080A8CB
:3947B2000000000000000000000000000000000000000000000000000000000000000000000000000000000000000000000000000000000000000080F955
:3947EB000000000000000000200000000000000000000000000000000000000000000000000000000000000000000000000000000000000000000080D91C
:394824000000000000000008200000000000000000000000000000000000000000000000000000000000000000000000000000000000000000000000D162
:39485D000000000002000000000000000000000000000000000000000000000000000000000000000000000000000000000000000000000000000080D9C7
:394896000401000000000000000000000000000000000000000000000000000000000000000000000000000000000000000000000000000000000080ADB7
:3948CF0028000000010000000000000000000000000000000000000000000000000000000000000000000000000000000000000000000000000000A8C11E
:394908000C0100000200000002A0000000000100000000000000000000000000000000000000000000000000000000000000000000000000000000008440
:394941000000000002000000008000000000000000000000000000000000000000000000000000000000000000000000000000000000000000000080D16A
:39497A000001000000000000040000000000010000000000000000000000000000000000000000000000000000000000000000000000000000000080EC92
:3949B3000000000001040000000000000000000000000000000000000000000000000000000000000000000000000000000000000000000000000080ED59
:3949EC000000000000060000000000000000000000000000000000000000000000000000000000000000000000000000000000000000000000000080FF0D
:394A25000000000000000000000000000000000000000000000000000000000000000000000000000000000000000000000000000000000000000080F9DF
:394A5E000000000000000000080000000000000000000000000000000000000000000000000000000000000000000000000000000000000000000080F1A6
:394A97000000000000000000000000000000000000000000000000000000000000000000000000000000000000000000000000000000000000000028D3EB
:394AD0000000000000000000000000000000000000000000000000000000000000000000000000000000000000000000000000000000000000000080F934
:394B09000000008000010000040000000000000000000000000000000000000000000000000000000000000000000000000000000000000000000080F47A
:394B42000800000000000000000000000000000000000000000000000000000000000000000000000000000000000000000000000000000000000000F939
:394B7B000000000000000000000000000000000000000000000000000000000000000000000000000000000000000000000000000000000000000080F988
:394BB4000200000000000000000000000000000000000000000000000000000000000000000000000000000000000000000000000000000000000080DB6B
:394BED000000000000000000000000000000000000000000000000000000000000000000000000000000000000000000000000000000000000000080F916
:394C26000000000001000000000000000000000000000000000000000000000000000000000000000000000000000000000000000000000000000080E9EB
:394C5F0000000000000000000000000000000000000000140000000000000000000000000000000000000000000000000000000000000000000008028876
:394C98000000000000000000000000000000000000000010000000000000000000000000000000000000000000000000000000000000000000000280CA87
:394CD1000000000000000000000000000000000000000000000000000000000000000000000000000000000000000000000000000000000000000080F931
:394D0A000000000000000000000000000000000000000000000000000000000000000000000000000000000000000000000000000000000000000080F9F7
:394D4300001240024800092001548004900012400248001D0000000000000000000000000000000048000920012480049000124002480009A0022E808E23
:394D7C00000C8001300006C000C8020360000C800130002600000000000000000000000000000000300006C00018000360000C800130000640161900F1D7
:024DB500FFFFFE
:00000001FF
