:020000040000FA
:39000000FFFF62FF3600FFFFFFFFFFFFFFFFFFFFFFFFFFFFFFFFFFFFFFFFFFFFFFFFFFFFFFFFFFFFFFFFFFFFFFFFFFFFFFFFFFFFFFFFFFFFFFFFFFFFFF65
:39003900000C8001300006C00018000360000C800130000600000000000000000000000000000000300072C000C802034DA009800130000640161880966D
:390072000012400248000920012480049000124002480009000000000000000000000000000000004800152001548004A800154002480009A0022400DE68
:3900AB000000000000000000000000000000000000000000000000000000000000000000000000000000000000000000000000000000000000000080F9A3
:3900E4000000000000000000000000000000000000000000000000000000000000000000000000000000000000000000000000000000000000000080F96A
:39011D000000000000000000000000000000000000000000000000000000000000000000000000000000000000000000000000000000000000000080F930
:390156000000000000000000000000000000000000000000000000000000000000000100000000000000000000000000000000000000000000000080E807
:39018F000000000000000000000000000000000000000000000000000000000000000000000000000000000000000000000000000000000000000080F9BE
:3901C8000000000000000000000000000000000000000000000000000000000000000000000000000000000000000000000000000000000000000080F985
:390201000000000000000000000000000000000000000000000000000000000000000000000000000000000000000000000000000000000000000080F94B
:39023A000000000000000000000000000000000000000000000000000000000000000000000000000000000000000000000000000000000000000080F912
:390273000000000000000000000000000000000000000000000000000000000000000000000000000000000000000000000000000000000000000080F9D9
:3902AC000000000000000000000000000000000000000000000000000000000000000000000000000000000000000000000000000000000000000080F9A0
:3902E5000000000000000000000000000000000000000000000000000000000000000000000000000000000000000000000000000000000000000080F967
:39031E000000000000000000000000000000000000000000000000000000000000000000000000000000000000000000000000000000000000000080F92D
:39035700000000000000000000000000000000000000000000000000000000C0000000000000006000000000000000000000000000000000000000809538
:390390000000000000000000000000000000000000000000000000000000003000000000000000180000000000000000000000000000000000000080E28A
:3903C9000000000000000000000000000000000000000000000000000000002000000000000000100000000000000000000000000000000000000080EB60
:390402000800000000000000000000000000000000000000000000000000000000000000000000000000000000000000000000000000000000000020DBBE
:39043B000000000000000000000000000000000000000000000000000000000000000000000000000000000000000000000000000000000000000080F90F
:390474000000000000000000000000000000000000000000000000000000000000000000000000000000000000000000000000000000000000000080F9D6
:3904AD000400000000000000000000000000000000000000000000000000000000000000000000000000000000000000000000000000000000000090ACD6
:3904E6000000000000000000000000000000000000000000000000000000000800000000000000040000000000000000000000000000000000000000FDD4
:39051F000000000000000000000000000000000000000000000000000000008000000000000000400000000000000000000000000000000000000080B1B2
:390558000000000000000000000000000000000000000000000000000000000000000000000000000000000000000000000000000000000000000080F9F1
:390591000000000000000000000000000000000000000000000000000000002800000000000000140000000000000000000000000000000000000000EF06
:3905CA000800000000000000000000000000000000000000000000000000002000000000000000100000000000000000000000000000000000000020C9D7
:390603000000000000000000000000000000000000000000000000000000000800000000000000040000000000000000000000000000000000000000FDB5
:39063C000000000000000000000000000000000000000000000000000000000800000000000000040000000000000000000000000000000000000000FD7C
:39067500040000000000000000000000000000000000000000000000000000400000000000000020000000000000000000000000000000000000009088D0
:3906AE000000000000000000000000000000000000000000000000000000001000000000000000000000000000000000000000000000000000000080F88B
:3906E7000000000000000000000000000000000000000000000000000000004000000000000000140000000000000000000000000000000000000080E91D
:390720000000000000000000000000000000000000000000000000000000005000000000000000000000000000000000000000000000000000000080FCD4
:390759000000000000000000000000000000000000000000000000000000000000000000000000200000000000000000000000000000000000000080D9EE
:390792000800000000000000000000000000000000000000000000000000000000000000000000000000000000000000000000000000000000000020DB2B
:3907CB000000000000000000000000000000000000000000000000000000001000000000000000080000000000000000000000000000000000000080F06D
:390804000000000000000000000000000000000000000000020000000000001001000000000000080000000000000000000000000000000000000080E23E
:39083D0004000000000000000000000000000000000000002000000000000020100000000000001000000000000000000000000000000000000000908FFF
:390876000000000000000000000000000000000000000000000000000000001000000000000000080000000000000000000000000000000000000080F0C1
:3908AF0000000000000000000000000000000000000000000A0000000000008005000000000000400000000000000000000000000000000000000080EBD6
:3908E80000000000000000000000000000000000000000000800000000000040040000000000002000000000000000000000000000000000000000809556
:390921000000000000000000000000000000000000000000020000000000000001000000000000000000000000000000000000000000000000000080EB2F
:39095A000800000000000000000000000000000000000000020000000000000001000000000000000000000000000000000000000000000000000020C970
:3909930000000000000000000000000000000000000000001000000000000018080000000000000C0000000000000000000000000000000000000080EC83
:3909CC000000000000000000000000000000000000000000000000000000000000000000000000000000000000000000000000000000000000000080F979
:390A050004000000000000000000000000000000000000000A0000000000000005000000000000000000000000000000000000000000000000000090F61F
:390A3E00000000000000000000000000000000000000000014000000000000000A000000000000000000000000000000000000000000000000000000C59C
:390A77000000000000000000000000000000000000000000000000000000000000000000000000000000000000000000000000000000000000000080F9CD
:390AB0000000000000000000000000000000000000000000000000000000000000000000000000000000000000000000000000000000000000000080F994
:390AE9000000000000000000000000000000000000000000040000000000000002000000000000000000000000000000000000000000000000000080DD71
:390B22000800000000000000000000000000000000000000040000000000000002000000000000000000000000000000000000000000000000000020FF6D
:390B5B000000000000000000000000000000000000000000080000000000000004000000000000000000000000000000000000000000000000000080B124
:390B94000000000000000000000000000000000000000000040000000000000002000000000000000000000000000000000000000000000000000080DDC5
:390BCD0004000000000000000000000000000000000000002000000000000000100000000000000000000000000000000000000000000000000000909D8E
:390C06000000000000000000000000000000000000000000100000000000000008000000000000000000000000000000000000000000000000000000E1BC
:390C3F0000000000000000000000000000000000000000000000000000000000000000000000000000000000000000000000000000000000000000C0BDFF
:390C78000000000000000000000000000000000000000000000000000000000000000000000000000000000000000000000000000000000000000080F9CA
:390CB1000000000000000000000000000000000000000000060000000000000003000000000000000000000000000000000000000000000000000080CFB2
:390CEA000800000000000000000000000000000000000000000000000000000000000000000000200000000000000000000000000000000000000030EA8F
:390D23000000000000000000000000000000000000000000000000000000002800000000000000000000000000000000000000000000000000000010EA75
:390D5C000000000000000000000000000000000000000000000000000000000000000000000000000000000000000000000000000000000000000080F9E5
:390D950004000000000000000000000000000000000000000000000000000000000000000000000000000000000000000000000000000000000000B08EE3
:390DCE000000000000000000000000000000000000000000000000000000000000000000000000000000000000000000000000000000000000000080F973
:390E07001000000000000000000000000000000000000000000000000000000000000000000000000000000000000000000000000000000000000080F82A
:390E40000000000000000000000000000000000000000000000000000000000000000000000000000000000000000000000000000000000000000080F900
:390E79000000000000000000000000000000000000000000000000000000000000000000000000000000000000000000000000000000000000000080F9C7
:390EB2000C000000000000000000000000000000000000001000000000000060080000000000003000000000000000000000000000000000000000A0B102
:390EEB000400000000000000000000000000000000000000080000000000004004000000000000200000000000000000000000000000000000000080D10D
:390F24000000000000000000000000000000000000000000100000000000006008000000000000300000000000000000000000000000000000000000D715
:390F5D000C000000000000000000000000000000000000001A000000000000400D000000000000200000000000000000000000000000000000000090CA6E
:390F9600000000000000000000000000000000000000000014000000000000200A000000000000100000000000000000000000000000000000000000D7FD
:390FCF000000000000000000000000000000000000000000100000000000000808000000000000040000000000000000000000000000000000000080E560
:391008002000048000100002400008000120000480001000000000000000004000000000000000A00010000240000800012000048000100002400080DD6E
:391041000000000000000000000000000000000000000000000000000000000000000000000000000000000000000000000000000000000000000080F9FD
:39107A002800048000100002400008000120000480001000000000000000000000000000000000800010000240000800012000048000100002400020DBB6
:3910B3000000000000000000000000000000000000000000000000000000000000000000000000000000000000000000000000000000000000000080F98B
:3910EC002000048000100002400008000120000480001000000000000000000000000000000000800010000240000800012000048000100002400080F9CE
:391125000400000000000000000000000000000000000000000000000000000000000000000000000000000000000000000000000000000000000090AC51
:39115E002000048000100002400008000120000480001000000000000000000000000000000000800010000240000800012000048000100002400080F95B
:391197000000000000000000000000000000000000000000000000000000000000000000000000000000000000000000000000000000000000000080F9A6
:3911D0000000000000000000000000000000000000000000000000000000000000000000000000000000000000000000000000000000000000000080F96D
:3912090000000000000000000000000000000000000000002000008000000000100000400000000000000000000000000000000000000000000000008438
:391242000000000000000000000000000000000000000000000000000000040000000000000000000000000000000000000000000000000000000080FDF2
:39127B000000000000000000000000000000000000000000000000000000000000000000000000000000000000000000000000000000000000000080F9C1
:3912B4000000000000000000000000000000000000000000000000000000000000000000000000000000000000000000000000000000000000000080F988
:3912ED000000000000000000000000000000000000000000000000000000000000000000000000000000800000000000000000000000000000000000F157
:391326000000000000000000000000000000000000000000000000000000000000000000000000000000000000000000000000000000000000000080F915
:39135F000000000000000000000000000000000000000000000000000000000000000000000000000000400000000000000000000000000000000080B9DC
:391398000000000000000000000000000000000000000000000000000000000000000000000000000000000000800000048000000000000000040000F91B
:3913D1000000000000000000000000000000000000000000000000000000000000000000000000000000000000000200080001000000000000100080D375
:39140A000000000000000000000000000000000000000000000000000000000000000000000000000000000000000000000000000000000000000080F930
:391443000000000000000000000000000000000000000000000000000000000000000000000000000000000000000000000000000000000000000080F9F7
:39147C000000000000000000000000000000000000000000000000000000000000000000000000000000000000000000000000000000000000000080F9BE
:3914B5000000000000000000000000000000000000000000000000000000000000000000000000000000000000000000000000000000000000000080F985
:3914EE000000000000000000000000000000000000000000004080000040800000204000002040000000000000000000000000000000000000000080D332
:391527000000000000000000000000000000000000000000000000000000000000000000000000000000000000000000000000000000000000000080F912
:391560000000000000000000000000000000000000000000000000000000000000000000000000000000000000000000000000000000000000000080F9D9
:391599000000000000000000000000000000000000000000000000000000000000000000000000000000000000000000000000000000000000000080F9A0
:3915D2000000000000000000000000000000000000000000000000400000000000000020000004000000000000000000000000000000000000000080DB21
:39160B00000000000000000000000000000000000000000014200050800000000A100028400000000000000000000000000000000000000000000080E5BB
:391644000000000000000000000000000000000000000000000000000000000000000000000000000000000000000000000000000000000000000080F9F4
:39167D000000000000000000000000000000000000000000000000000000000000000000000000000000000000400000000000000000000000000080B9BB
:3916B6000000000000000000000000000000000000000000000000000000000000000000000000000000000000000000000000000000000000000080F982
:3916EF000000000000000000000000000000000000000000000000000000000000000000000000000000000000000100000000000000000000000080E859
:391728000400000000000000000000000000000000000000000000001000000000000000080000000000000000000000000000000802402000000100C73A
:3917610000000000000000000000000000000000000000000000000010000000000000000800000000000000000000000000000004012010008000008DF5
:39179A000000000000000000000000000000000000000000000000000000000000000000000000000000000000000000000000000000000000000080F99D
:3917D3000000000000000000000000000000000000000000000000000000000000000000000000000000000000000000000000000000000000000080F964
:39180C000000000000000000000000000000000000000000000000000000000000000000000000000000000000000000000000000000000000000080F92A
:391845000000000000000000000000000000000000000000000000001000000000000000000000000000000000000000000000000000000000000080F8E2
:39187E000000000000000000000000000000000000000000600000000100000030000040100000000000000000000000000000000000000000000080EFE1
:3918B7000000000000000000000000000000000000000000000000000000000000000000000000000000000000000000000000000000000000000080F97F
:3918F0000000000000000000000000000000000000000000000000000000000000000000000000000000000000000000000000000000000000000080F946
:391929000000000000000000000000000000000000000000000000000000000000000000000000000000000000000000000000000000000000000080F90C
:391962000000000000000000000000000000000000000000000000000000000000000000000000000000000000000000000000000000000000000080F9D3
:39199B0000000000000000000000000000000000000000000040080000400800002004000020040000000000000000000000000000000000000000009F9C
:3919D40000000000000000000000000000000000000000000000000400000004000000020000000200000000000000000000000000000000000000809BB3
:391A0D000000000000000000000000000000000000000000000000000000000000000000000000000000000000000000000000000000000000000080F927
:391A460004000000000000000000000000000000000000000000000000000000000000000000000000000000000000000000000000000000000000A09F24
:391A7F000000000000000000000000000000000000000000000000000000000000000000000000000000000000000000000000000000000000000080F9B5
:391AB8000000000000000000000000000000000000000000000000000000000000000000000000000000000000000000000000000000000000000080F97C
:391AF1000000000000000000000000000000000000000000000000000000000000000000000000000000000000000000000000000000000000000080F943
:391B2A000000000000000000000000000000000000000000000000000000000000000000000000000000000000000000000000000000000000000080F909
:391B63000000000000000000000000000000000000000000000000000000000000000000000000000000000000000000000000000000000000000080F9D0
:391B9C000000000000000000000000000000000000000000000000000000000000000000000000000000000000000000000000000000000000000080F997
:391BD5000000000000000000000000000000000000000000000000000000000000000000000000000000000000000000000000000000000000000080F95E
:391C0E000000000000000000000000000000000000000000000000000000000000000000000000000000000000000000000000000000000000000080F924
:391C4700000000000000000000000000000000000000000000000000000000C000000000000000600000000000000000000000000000000000000080952F
:391C80000000000000000000000000000000000000000000000000000000003000000000000000180000000000000000000000000000000000000080E281
:391CB9000000000000000000000000000000000000000000000000000000002000000000000000100000000000000000000000000000000000000080EB57
:391CF2000800000000000000000000000000000000000000000000000000000000000000000000000000000000000000000000000000000000000020DBB6
:391D2B000000000000000000000000000000000000000000000000000000000000000000000000000000000000000000000000000000000000000080F906
:391D64000000000000000000000000000000000000000000000000000000000000000000000000000000000000000000000000000000000000000080F9CD
:391D9D000400000000000000000000000000000000000000000000000000000000000000000000000000000000000000000000000000000000000090ACCD
:391DD6000000000000000000000000000000000000000000000000000000005000000000000000280000000000000000000000000000000000000080D408
:391E0F000000000000000000000000000000000000000000000000000000000000000000000000000000000000000000000000000000000000000080F921
:391E48000000000000000000000000000000000000000000000000000000009000000000000000480000000000000000000000000000000000000080B851
:391E81000000000000000000000000000000000000000000000000000000000000000000000000000000000000000000000000000000000000000080F9AF
:391EBA000800000000000000000000000000000000000000000000000000002000000000000000100000000000000000000000000000000000000020C9CE
:391EF3000000000000000000000000000000000000000000000000000000000800000000000000040000000000000000000000000000000000000000FDAD
:391F2C000000000000000000000000000000000000000000000000000000000800000000000000040000000000000000000000000000000000000000FD73
:391F6500040000000000000000000000000000000000000000000000000000400000000000000020000000000000000000000000000000000000009088C7
:391F9E000000000000000000000000000000000000000000000000000000001000000000000000000000000000000000000000000000000000000080F882
:391FD7000000000000000000000000000000000000000000000000000000004000000000000000140000000000000000000000000000000000000080E914
:392010000000000000000000000000000000000000000000000000000000004800000000000000240000000000000000000000000000000000000000D952
:392049000000000000000000000000000000000000000000000000000000000000000000000000000000000000000000000000000000000000000080F9E5
:392082000800000000000000000000000000000000000000000000000000000000000000000000000000000000000000000000000000000000000020DB22
:3920BB000000000000000000000000000000000000000000000000000000001000000000000000080000000000000000000000000000000000000080F064
:3920F400000000000000000000000000000000000000000014000000000000100A000000000000080000000000000000000000000000000000000000CCB1
:39212D0004000000000000000000000000000000000000000000000000000020000000000000002000000000000000000000000000000000000000908E17
:392166000000000000000000000000000000000000000000240000000000003012000000000000180000000000000000000000000000000000000080F74B
:39219F000000000000000000000000000000000000000000000000000000000000000000000000000000000000000000000000000000000000000080F98E
:3921D8000000000000000000000000000000000000000000080000000000004004000000000000200000000000000000000000000000000000000080954D
:392211000000000000000000000000000000000000000000020000000000000001000000000000000000000000000000000000000000000000000080EB26
:39224A000800000000000000000000000000000000000000020000000000002001000000000000100000000000000000000000000000000000000020DB25
:392283000000000000000000000000000000000000000000100000000000000008000000000000000000000000000000000000000000000000000000E129
:3922BC000000000000000000000000000000000000000000000000000000000000000000000000000000000000000000000000000000000000000080F970
:3922F50004000000000000000000000000000000000000000A0000000000000005000000000000000000000000000000000000000000000000000090F617
:39232E000000000000000000000000000000000000000000120000000000000009000000000000000000000000000000000000000000000000000000F368
:3923670000000000000000000000000000000000000000000000000000000000000000000000000000000000000000000000000000000000000000C0BDC0
:3923A0000000000000000000000000000000000000000000000000000000000000000000000000000000000000000000000000000000000000000080F98B
:3923D9000000000000000000000000000000000000000000040000000000000002000000000000000000000000000000000000000000000000000080DD68
:392412000800000000000000000000000000000000000000040000000000000002000000000000000000000000000000000000000000000000000030EE65
:39244B000000000000000000000000000000000000000000080000000000000004000000000000000000000000000000000000000000000000000090A01C
:3924840000000000000000000000000000000000000000000C000000000000000600000000000000000000000000000000000000000000000000008095F8
:3924BD0004000000000000000000000000000000000000000000000000000000000000000000000000000000000000000000000000000000000000B08EA4
:3924F6000000000000000000000000000000000000000000100000000000000008000000000000000000000000000000000000000000000000000000E1B4
:39252F000000000000000000000000000000000000000000000000000000000000000000000000000000000000000000000000000000000000000080F9FA
:392568000000000000000000000000000000000000000000080000000000000004000000000000000000000000000000000000000000000000000080B1FD
:3925A1000000000000000000000000000000000000000000000000000000000000000000000000000000000000000000000000000000000000000080F988
:3925DA0004000000000000000000000000000000000000000000000000000000000000000000000000000000000000000000000000000000000000A09F85
:392613000C00000000000000000000000000000000000000000000000000002800000000000000100000000000000000000000000000000000000080AF1B
:39264C000000000000000000000000000000000000000000000000000000000000000000000000000000000000000000000000000000000000000080F9DC
:392685000800000000000000000000000000000000000000000000000000000000000000000000000000000000000000000000000000000000000010E81C
:3926BE000000000000000000000000000000000000000000000000000000000000000000000000000000000000000000000000000000000000000080F96A
:3926F70000000000000000000000000000000000000000000000000000000000000000000000000000000000000000000000000000000000000000C0BD2D
:392730000000000000000000000000000000000000000000000000000000000000000000000000000000000000000000000000000000000000000080F9F7
:392769000000000000000000000000000000000000000000000000000000000000000000000000000000000000000000000000000000000000000080F9BE
:3927A20008000000000000000000000000000000000000001000000000000060080000000000003000000000000000000000000000000000000000B0E4BA
:3927DB0000000000000000000000000000000000000000000800000000000040040000000000002000000000000000000000000000000000000000908445
:392814000000000000000000000000000000000000000000100000000000006008000000000000300000000000000000000000000000000000000000D70C
:39284D0004000000000000000000000000000000000000001A000000000000400D000000000000200000000000000000000000000000000000000030E8AF
:39288600000000000000000000000000000000000000000014000000000000200A000000000000100000000000000000000000000000000000000000D7F4
:3928BF000000000000000000000000000000000000000000100000000000001008000000000000080000000000000000000000000000000000000000E8C8
:3928F8002000048000100002400008000120000480001000000000000000004000000000000000A00010000240000800012000048000100002400080DD66
:392931000000000000000000000000000000000000000000000000000000000000000000000000000000000000000000000000000000000000000080F9F4
:39296A002800048000100002400008000120000480001000000000000000000000000000000000800010000240000800012000048000100002400020DBAD
:3929A3000000000000000000000000000000000000000000000000000000000000000000000000000000000000000000000000000000000000000080F982
:3929DC002000048000100002400008000120000480001000000000000000000000000000000000800010000240000800012000048000100002400080F9C5
:392A15000400000000000000000000000000000000000000000000000000000000000000000000000000000000000000000000000000000000000090AC48
:392A4E002000048000100002400008000120000480001000000000000000000000000000000000800010000240000800012000048000100002400080F952
:392A87000000000000000000000000000000000000000000000000000000000000000000000000000000000000000000000000000000000000000080F99D
:392AC0000000000000000000000000000000000000000000000000000000000000000000000000000000000000000000000000000000000000000080F964
:392AF9000000000000000000000000000000000000000000200000800000000010000000100000000000000000000000000000000000000000000000D014
:392B32000000000000000000000000000000000000000000000000000000040000000000000000000000000000000000000000000000000000000080FDE9
:392B6B000000000000000000000000000000000000000000000000000000000000000000000000000000000000000000000000000000000000000080F9B8
:392BA4000000000000000000000000000000000000000000000000000000000000000000000000000000000000000000000000000000000000000080F97F
:392BDD000000000000000000000000000000000000000000000000000000000000000000000000000000000000000000000000000000000000000080F946
:392C16000000000000000000000000000000000000000000000000000000000000000000000000000000000000000000000000000000000000000080F90C
:392C4F000000000000000000000000000000000000000000000000000000000000000000000000000000000000000000000000000000000000000080F9D3
:392C88000000000000000000000000000000000000000000000000000000000000000000000000000000000000800000048000000000000000040000F912
:392CC1000000000000000000000000000000000000000000000000000000000000000000000000000000000000000200080001000000000000100080D36C
:392CFA000000000000000000000000000000000000000000000000000000000000000000000000000000000000000000000000000000000000000080F928
:392D33000000000000000000000000000000000000000000000000000000000000000000000000000000000000000000000000000000000000000080F9EE
:392D6C000000000000000000000000000000000000000000000000000000000000000000000000000000000000000000000000000000000000000080F9B5
:392DA5000000000000000000000000000000000000000000000000000000000000000000000000000000000000000000000000000000000000000080F97C
:392DDE000000000000000000000000000000000000000000008080000080800000404000004040000000000000000000000000000000000000000000FDBF
:392E17000000000000000000000000000000000000000000000000000000000000000000000000000000000000000000000000000000000000000080F909
:392E50000000000000000000000000000000000000000000000000000000000000000000000000000000000000000000000000000000000000000080F9D0
:392E89000000000000000000000000000000000000000000000000000000000000000000000000000000000000000000000000000000000000000080F997
:392EC20000000000000000000000000000000000000000000000004000000000000000200000000000000000000000000000000000000000000000809B5C
:392EFB000000000000000000000000000000000000000000040000100000000002000008000002000000000000000000000000000000000000000000E599
:392F34000000000000000000000000000000000000000000001040004000400000082000200020000000000000000000000000000000000000000080F0BC
:392F6D000000000000000000000000000000000000000000000000000000000000000000000000000000000000400000000000000000000000000080B9B2
:392FA6000000000000000000000000000000000000000000000000000000000000000000000000000000000000000000000000000000000000000090E87A
:392FDF000000000000000000000000000000000000000000000000000000000000000000000000000000000000000100000000000000000000000080E850
:393018000000000000000000000000000000000000000000000000400000000000000020000000000000000000000000000000000802402000000100E8CC
:393051000000000000000000000000000000000000000000000000000000000000000000000000000000000000000000000000000401201000800000840D
:39308A000000000000000000000000000000000000000000000000200000000000000010000000000000000000000000000000000000000000000080C895
:3930C3000000000000000000000000000000000000000000000000000000000000000000000000000000000000000000000000000000000000000080F95B
:3930FC000000000000000000000000000000000000000000000000000000000000000000000000000000000000000000000000000000000000000080F922
:393135000000000000000000000000000000000000000000000200001800000000010000040000000000000000000000000000000000000000000000DF63
:39316E0000000000000000000000000000000000000000002000000000000000100000400000000000000000000000000000000000000000000000808CAC
:3931A7000800000000000000000000000000000000000000000000000000000000000000000000000000000000000000000000000000000000000000F9EE
:3931E0000000000000000000000000000000000000000000000000000000000000000000000000000000000000000000000000000000000000000080F93D
:393219000000000000000000000000000000000000000000000000000000000000000000000000000000000000000000000000000000000000000080F903
:393252000000000000000000000000000000000000000000000000000000000000000000000000000000000000000000000000000000000000000080F9CA
:39328B0000000000000000000000000000000000000000000040080000400800002004000020040000000000000000000000000000000000000000009F93
:3932C4000000000000000000000000000000000000000000000001000000010000800000008000000000000000000000000000000000000000000000E8E7
:3932FD000000000000000000000000000000000000000000000000000000000000000000000000000000000000000000000000000000000000000080F91F
:3933360000000000000000000000000000000000000000000000000000000000000000000000000000000000000000000000000000000000000000C0BDE1
:39336F000000000000000000000000000000000000000000000000000000000000000000000000000000000000000000000000000000000000000080F9AC
:3933A8000000000000000000000000000000000000000000000000000000000000000000000000000000000000000000000000000000000000000080F973
:3933E1000000000000000000000000000000000000000000000000000000000000000000000000000000000000000000000000000000000000000080F93A
:39341A000000000000000000000000000000000000000000000000000000000000000000000000000000000000000000000000000000000000000080F900
:393453000000000000000000000000000000000000000000000000000000000000000000000000000000000000000000000000000000000000000080F9C7
:39348C000000000000000000000000000000000000000000000000000000000000000000000000000000000000000000000000000000000000000080F98E
:3934C5000000000000000000000000000000000000000000000000000000000000000000000000000000000000000000000000000000000000000080F955
:3934FE000000000000000000000000000000000000000000000000000000000000000000000000000000000000000000000000000000000000000080F91C
:39353700000000000000000000000000000000000000000000000000000000C0000000000000006000000000000000000000000000000000000000809526
:393570000000000000000000000000000000000000000000000000000000003000000000000000180000000000000000000000000000000000000080E278
:3935A9000000000000000000000000000000000000000000000000000000002000000000000000100000000000000000000000000000000000000080EB4E
:3935E2000800000000000000000000000000000000000000000000000000000000000000000000000000000000000000000000000000000000000020DBAD
:39361B000000000000000000000000000000000000000000000000000000000000000000000000000000000000000000000000000000000000000080F9FD
:393654000000000000000000000000000000000000000000000000000000000000000000000000000000000000000000000000000000000000000080F9C4
:39368D000400000000000000000000000000000000000000000000000000000000000000000000000000000000000000000000000000000000000090ACC4
:3936C6000000000000000000000000000000000000000000000000000000005000000000000000280000000000000000000000000000000000000080D4FF
:3936FF000000000000000000000000000000000000000000000000000000000000000000000000000000000000000000000000000000000000000080F919
:393738000000000000000000000000000000000000000000000000000000000000000000000000000000000000000000000000000000000000000080F9DF
:393771000000000000000000000000000000000000000000000000000000002800000000000000140000000000000000000000000000000000000000EFF4
:3937AA000800000000000000000000000000000000000000000000000000002000000000000000100000000000000000000000000000000000000020C9C5
:3937E3000000000000000000000000000000000000000000000000000000000800000000000000040000000000000000000000000000000000000000FDA4
:39381C000000000000000000000000000000000000000000000000000000003000000000000000180000000000000000000000000000000000000080E2C9
:393855000400000000000000000000000000000000000000000000000000000000000000000000000000000000000000000000000000000000000090ACFA
:39388E000000000000000000000000000000000000000000000000000000001000000000000000000000000000000000000000000000000000000080F879
:3938C7000000000000000000000000000000000000000000000000000000004000000000000000140000000000000000000000000000000000000080E90B
:393900000000000000000000000000000000000000000000000000000000000000000000000000000000000000000000000000000000000000000080F915
:393939000000000000000000000000000000000000000000000000000000004000000000000000200000000000000000000000000000000000000080DD98
:393972000800000000000000000000000000000000000000000000000000000000000000000000000000000000000000000000000000000000000020DB19
:3939AB000000000000000000000000000000000000000000000000000000001000000000000000080000000000000000000000000000000000000080F05B
:3939E400000000000000000000000000000000000000000014000000000000100A000000000000080000000000000000000000000000000000000000CCA8
:393A1D000400000000000000000000000000000000000000000000000000002000000000000000100000000000000000000000000000000000000090BEEE
:393A56000000000000000000000000000000000000000000000000000000001000000000000000080000000000000000000000000000000000000080F0AF
:393A8F0010000000000000000000000000000000000000000A0000000000008005000000000000400000000000000000000000000000000000000080EAB5
:393AC80000000000000000000000000000000000000000000800000000000040040000000000002000000000000000000000000000000000000000809544
:393B01000000000000000000000000000000000000000000020000000000000001000000000000000000000000000000000000000000000000000080EB1D
:393B3A000C000000000000000000000000000000000000000C0000000000000006000000000000000000000000000000000000000000000000000020F321
:393B730004000000000000000000000000000000000000000000000000000018000000000000000C0000000000000000000000000000000000000000B041
:393BAC000000000000000000000000000000000000000000000000000000000000000000000000000000000000000000000000000000000000000080F967
:393BE5000C000000000000000000000000000000000000000A0000000000000005000000000000000000000000000000000000000000000000000010F686
:393C1E000000000000000000000000000000000000000000000000000000000000000000000000000000000000000000000000000000000000000080F9F4
:393C57000000000000000000000000000000000000000000100000000000000008000000000000000000000000000000000000000000000000000000E13B
:393C90000000000000000000000000000000000000000000000000000000000000000000000000000000000000000000000000000000000000000080F982
:393CC9000000000000000000000000000000000000000000040000000000000002000000000000000000000000000000000000000000000000000080DD5F
:393D02000800000000000000000000000000000000000000040000000000000002000000000000000000000000000000000000000000000000000020FF5B
:393D3B000000000000000000000000000000000000000000080000000000000004000000000000000000000000000000000000000000000000000080B112
:393D74000000000000000000000000000000000000000000040000000000000002000000000000000000000000000000000000000000000000000080DDB3
:393DAD0004000000000000000000000000000000000000002000000000000000100000000000000000000000000000000000000000000000000000909D7C
:393DE6000000000000000000000000000000000000000000100000000000000008000000000000000000000000000000000000000000000000000000E1AB
:393E1F000000000000000000000000000000000000000000000000000000000000000000000000000000000000000000000000000000000000000080F9F1
:393E58000000000000000000000000000000000000000000000000000000000000000000000000000000000000000000000000000000000000000080F9B8
:393E91000000000000000000000000000000000000000000060000000000000003000000000000000000000000000000000000000000000000000080CFA0
:393ECA000800000000000000000000000000000000000000000000000000000000000000000000200000000000000000000000000000000000000020FB7C
:393F03000000000000000000000000000000000000000000000000000000002800000000000000000000000000000000000000000000000000000000FB62
:393F3C000000000000000000000000000000000000000000000000000000000000000000000000000000000000000000000000000000000000000080F9D3
:393F75000400000000000000000000000000000000000000000000000000000000000000000000000000000000000000000000000000000000000090ACD3
:393FAE000000000000000000000000000000000000000000000000000000000000000000000000000000000000000000000000000000000000000080F961
:393FE7001000000000000000000000000000000000000000000000000000000000000000000000000000000000000000000000000000000000000080F819
:394020000000000000000000000000000000000000000000000000000000000000000000000000000000000000000000000000000000000000000080F9EE
:394059000000000000000000000000000000000000000000000000000000000000000000000000000000000000000000000000000000000000000080F9B5
:394092000C000000000000000000000000000000000000001000000000000060080000000000003000000000000000000000000000000000000000A0B1F0
:3940CB000400000000000000000000000000000000000000080000000000004004000000000000200000000000000000000000000000000000000080D1FB
:394104000000000000000000000000000000000000000000100000000000006008000000000000300000000000000000000000000000000000000000D703
:39413D000C000000000000000000000000000000000000001A000000000000400D000000000000200000000000000000000000000000000000000090CA5C
:39417600000000000000000000000000000000000000000014000000000000200A000000000000100000000000000000000000000000000000000000D7EB
:3941AF000000000000000000000000000000000000000000100000000000001008000000000000080000000000000000000000000000000000000000E8BF
:3941E8002000048000100002400008000120000480001000000000000000004000000000000000A00010000240000800012000048000100002400080DD5D
:394221000000000000000000000000000000000000000000000000000000000000000000000000000000000000000000000000000000000000000080F9EB
:39425A0024000480001000024000080001200004800010000000000000000000000000000000008000100002400008000120000480001000024000A09F64
:394293000C00000000000000000000000000000000000000000000000000000000000000000000000000000000000000000000000000000000000000BD29
:3942CC002000048000100002400008000120000480001000000000000000000000000000000000800010000240000800012000048000100002400080F9BC
:394305000800000000000000000000000000000000000000000000000000000000000000000000000000000000000000000000000000000000000010E87F
:39433E002000048000100002400008000120000480001000000000000000000000000000000000800010000240000800012000048000100002400080F949
:394377000000000000000000000000000000000000000000000000000000000000000000000000000000000000000000000000000000000000000080F994
:3943B0000000000000000000000000000000000000000000000000800000000000000000000000000000000000000000000000000000000000000000F163
:3943E90000000000000000000000000000000000000000002000008000000000100000400000000000000000000000000000000000000000000000008427
:394422000000000000000000000000000000000000000000000000000000000000000000000000000000000000000000000000000000000000000080F9E8
:39445B000000000000000000000000000000000000000000000000000000000000000000000000000000000000000000000000000000000000000080F9AF
:394494000000000000000000000000000000000000000000000000000000000000000000000000000000000000000000000000000000000000000080F976
:3944CD000000000000000000000000000000000000000000000000000000000000000000000000000000800000000000000000000000000000000000F145
:394506000000000000000000000000000000000000000000000000000000000000000000000000000000000000000000000000000000000000000080F903
:39453F0002000000000000000000000000000000000000000000000000000000000000000000000000004000000000000000000000000000000000809BE6
:394578000000000000000000000000000000000000000000000000000000000000000000000000000000000000000000048000000000000000040080F111
:3945B1000000000000000000000000000000000000000000000000000000000000000000000000000000000000000000080001000000000000100080F147
:3945EA000200000000000000000000000000000000000000000000000000000000000000000000000000000000000000000000000000000000000080DB3B
:394623000000000000000000000000000000000000000000000000000000000000000000000000000000000000000000000000000000000000000080F9E5
:39465C000000000000000000000000000000000000000000000000000000000000000000000000000000000000000000000000000000000000000080F9AC
:394695000000000000000000000000000000000000000000000000000000000000000000000000000000000000000000000000000000000000000080F973
:3946CE000000000000000000000000000000000000000000044000100040000002200008002000000000000000000000000000000000000000000000A72E
:394707000000000000000000000000000000000000000000000000000000000000000000000000000000000000000000000000000000000000000080F900
:394740000000000000000000000000000000000000000000000000000000000000000000000000000000000000000000000000000000000000000080F9C7
:394779000000000000000000000000000000000000000000000000000000000000000000000000000000000000000000000000000000000000000080F98E
:3947B2000200000000000000000000000000000000000000000000400000000000000020000004000000000000000000000000000000000000000080F9EF
:3947EB00000000000000000000000000000000000000000014000050000000000A000028000000000000000000000000000000000000000000000080BFC0
:394824000000000000000000000000000000000000000000000040000000400000002000000020000000000000000000000000000000000000000080DD3E
:39485D000000000000000000000000000000000000000000000000000000000000000000000000000000000000400000000000000000000000000080B9A9
:394896000000000000000000000000000000000000000000000000200000000000000000000000000000000000000000000000000000000000000080D970
:3948CF000000000000000000000000000000000000000000000000200000000000000000000000000000000000000100000000000000000000000080C847
:394908000400000000000000000000000000000000000000000000000000000000000010000000000000000000000000000000000802402000000100DF18
:39494100000000000000000000000000000000000000000000000000000000000000001000000000000000000000000000000000040120100080000095E3
:39497A000000000000000000000000000000000000000000000000000000000000000000000000000000000000000000000000000000000000000080F98B
:3949B3000000000000000000000000000000000000000000000000000000000000000000000000000000000000000000000000000000000000000080F952
:3949EC000000000000000000000000000000000000000000000000000000000000000000000000000000000000000000000000000000000000000080F919
:394A25000000000000000000000000000000000000000000000000001000000000000000000000000000000000000000000000000000000000000080F8D0
:394A5E0000000000000000000000000000000000000000002008000020000000100400401000000000000000000000000000000000000000000000009AD9
:394A97000000000000000000000000000000000000000000000000000000000000000000000000000000000000000000000000000000000000000080F96D
:394AD0000000000000000000000000000000000000000000000000000000000000000000000000000000000000000000000000000000000000000080F934
:394B09000000000000000000000000000000000000000000000000000000000000000000000000000000000000000000000000000000000000000080F9FA
:394B42000000000000000000000000000000000000000000000000000000000000000000000000000000000000000000000000000000000000000080F9C1
:394B7B0000000000000000000000000000000000000000000040080000400800002004000020040000000000000000000000000000000000000000009F8A
:394BB4000400000000000000000000000000000000000000000000040000000400000002000000020000000000000000000000000000000000000080DF59
:394BED000000000000000000000000000000000000000000000000000000000000000000000000000000000000000000000000000000000000000080F916
:394C26000000000000000000000000000000000000000000000000000000000000000000000000000000000000000000000000000000000000000080F9DC
:394C5F000000000000000000000000000000000000000000000000000000000000000000000000000000000000000000000000000000000000000080F9A3
:394C98000000000000000000000000000000000000000000000000000000000000000000000000000000000000000000000000000000000000000080F96A
:394CD1000000000000000000000000000000000000000000000000000000000000000000000000000000000000000000000000000000000000000080F931
:394D0A000000000000000000000000000000000000000000000000000000000000000000000000000000000000000000000000000000000000000080F9F7
:394D43000012400248000920012480049000124002480009000000000000000000000000000000004800092001548004900012400554801620012A80BFEF
:394D7C00000C8001300006C00018000360000C800130000600000000000000000000000000000000300006C000C8010360000C80AC26D0B0C0401380D8D2
:024DB500FFFFFE
:00000001FF
