:020000040000FA
:67000000FFFF62FF3F00FFFFFFFFFFFFFFFFFFFFFFFFFFFFFFFFFFFFFFFFFFFFFFFFFFFFFFFFFFFFFFFFFFFFFFFFFFFFFFFFFFFFFFFFFFFFFFFFFFFFFFFFFFFFFFFFFFFFFFFFFFFFFFFFFFFFFFFFFFFFFFFFFFFFFFFFFFFFFFFFFFFFFFFFFFFFFFFFFFFFFFFFFFFFFFFFFF5C
:67006700000C8001300006C00018000360000C8001300006C00018000360000C8001300006C00018000360000C8001000000000000000000000000000000000C8001300006C00018000360000C8001300006C00018000360000C8001300006C00018000360000C8001F0FC38
:6700CE000012400248000920012480049000124002480009200124800490001240024800092001248004900012400200000000000000000000000000000000124002480009200124800490001240024800092001248004900012400248000920012480049000124002D0FC63
:670135000000000000000000000000000000000000000000000000000000000000000000000000000000000000000000000000000000000000000000000000000000000000000000000000000000000000000000000000000000000000000000000000000000000000E0F98A
:67019C000000000000000000000000000000000000000000000000000000000000000000000000000000000000000000000000000000000000000000000000000000000000000000000000000000000000000000000000000000000000000000000000000000000000E0F923
:670203000000000000000000000000000000000000000000000000000000000000000000000000000000000000000000000000000000000000000000000000000000000000000000000000000000000000000000000000000000000000000000000000000000000000E0F9BB
:67026A000000000000000000000000000000000000000000000000000000000000000000000000000000000000000000000000000000000040000000000000000000000000000000000000000000000000000000000000000000000000000000000000000000000000E0FD10
:6702D1000000000000000000000000000000000000000000000000000000000000000000000000000000000000000000000000000000000000000000000000000000000000000000000000000000000000000000000000000000000000000000000000000000000000E0F9ED
:670338000000000000000000000000000000000000000000000000000000000000000000000000000000000000000000000000000000000000000000000000000000000000000000000000000000000000000000000000000000000000000000000000000000000000E0F985
:67039F000000000000000000000000000000000000000000000000000000000000000000000000000000000000000000000000000000000000000000000000000000000000000000000000000000000000000000000000000000000000000000000000000000000000E0F91E
:670406000000000000000000000000000000000000000000000000000000000000000000000000000000000000000000000000000000000000000000000000000000000000000000000000000000000000000000000000000000000000000000000000000000000000E0F9B6
:67046D000000000000000000000000000000000000000000000000000000000000000000000000000000000000000000000000000000000000000000000000000000000000000000000000000000000000000000000000000000000000000000000000000000000000E0F94F
:6704D4000000000000000000000000000000000000000000000000000000000000000000000000000000000000000000000000000000000000000000000000000000000000000000000000000000000000000000000000000000000000000000000000000000000000E0F9E8
:67053B000000000000000000000000000000000000000000000000000000000000000000000000000000000000000000000000000000000000000000000000000000000000000000000000000000000000000000000000000000000000000000000000000000000000E0F980
:6705A2000000000000000000000000000000000000000000000000000000000000000000000000000000000000000000000000000000000000000000000000000000000000000000000000000000000000000000000000000000000000000000000000000000000000E0F919
:67060900000000000000000000000000000000000000000000000000000000000000000000000000000000000000000000000000000030000000000000001800000000000000000000000000000000000000000000000000000000000000000000000000000000000050F8FA
:6706700000000000000000000000000000000000000000000000000000000000000000000000000000000000000000000000000000000C0000000000000006000000000000000000000000000000000000000000000000000000000000000000000000000000000000C8FD4C
:6706D7000000000000000000000000000000000000000000000000000000000000000000000000000000000000000000000000000000080000000000000004000000000000000000000000000000000000000000000000000000000000000000000000000000000000A8F90F
:67073E0008000000000000000000000000000000000000000000000000000000000000000000000000000000000000000000000000000000000000000000000000000000000000000000000000000000000000000000000000000000000000000000000000000000004AFB07
:6707A5000000000000000000000000000000000000000000000000000000000000000000000000000000000000000000000000000000000000000000000000000000000000000000000000000000000000000000000000000000000000000000000000000000000000E0F914
:67080C000000000000000000000000000000000000000000000000000000000000000000000000000000000000000000000000000000000000000000000000000000000000000000000000000000000000000000000000000000000000000000000000000000000000E0F9AC
:670873000400000000000000000000000000000000000000000000000000000000000000000000000000000000000000000000000000000000000000000000000000000000000000000000000000000000000000000000000000000000000000000000000000000000F1FC2D
:6708DA00000000000000000000000000000000000000000000000000000000000000000000000000000000000000000000000000000014000000000000000A00000000000000000000000000000000000000000000000000000000000000000000000000000000000010FD8C
:670941000000000000000000000000000000000000000000000000000000000000000000000000000000000000000000000000000000000000000000000000000000000000000000000000000000000000000000000000000000000000000000000000000000000000E0F976
:6709A800000000000000000000000000000000000000000000000000000000000000000000000000000000000000000000000000000010000000000000000800000000000000000000000000000000000000000000000000000000000000000000000000000000000070F967
:670A0F000000000000000000000000000000000000000000000000000000000000000000000000000000000000000000000000000000020000000000000001000000000000000000000000000000000000000000000000000000000000000000000000000000000000D0FBB2
:670A7600080000000000000000000000000000000000000000000000000000000000000000000000000000000000000000000000000014000000000000000A000000000000000000000000000000000000000000000000000000000000000000000000000000000000BAFF3A
:670ADD000000000000000000000000000000000000000000000000000000000000000000000000000000000000000000000000000000000000000000000000000000000000000000000000000000000000000000000000000000000000000000000000000000000000E0F9D9
:670B4400000000000000000000000000000000000000000000000000000000000000000000000000000000000000000000000000000010000000000000000800000000000000000000000000000000000000000000000000000000000000000000000000000000000070F9C9
:670BAB000400000000000000000000000000000000000000000000000000000000000000000000000000000000000000000000000000020000000000000001000000000000000000000000000000000000000000000000000000000000000000000000000000000000C1FE1D
:670C1200000000000000000000000000000000000000000000000000000000000000000000000000000000000000000000000000000014000000000000000A00000000000000000000000000000000000000000000000000000000000000000000000000000000000010FD50
:670C79000000000000000000000000000000000000000000000000000000000000000000000000000000000000000000000000000000000000000000000000000000000000000000000000000000000000000000000000000000000000000000000000000000000000E0F93B
:670CE000000000000000000000000000000000000000000000000000000000000000000000000000000000000000000000000000000010000000000000000800000000000000000000000000000000000000000000000000000000000000000000000000000000000070F92C
:670D47000000000000000000000000000000000000000000000000000000000000000000000000000000000000000000000000000000020000000000000001000000000000000000000000000000000000000000000000000000000000000000000000000000000000D0FB77
:670DAE00080000000000000000000000000000000000000000000000000000000000000000000000000000000000000000000000000014000000000000000A000000000000000000000000000000000000000000000000000000000000000000000000000000000000BAFFFF
:670E15000000000000000000000000000000000000000000000000000000000000000000000000000000000000000000000000000000000000000000000000000000000000000000000000000000000000000000000000000000000000000000000000000000000000E0F99D
:670E7C000000000000000000000000000000000000000000000000000000000000000000000000000000000000000005000000000000900200000000000008000000000000000000000000000000000000000000000000000000000000000000000000000000000000A0FBD5
:670EE3000400000000000000000000000000000000000000000000000000000000000000000000000000000000000000000000000000020000000000000001000000000000000000000000000000000000000000000000000000000000000000000000000000000000C1FEE2
:670F4A00000000000000000000000000000000000000000000000000000000000000000000000000000000000000000400000000000014020000000000000A00000000000000000000000000000000000000000000000000000000000000000000000000000000000050FFCD
:670FB1000000000000000000000000000000000000000000000000000000000000000000000000000000000000008000000000000000400000000000000000000000000000000000000000000000000000000000000000000000000000000000000000000000000000A8F978
:671018000000000000000000000000000000000000000000000000000000000000000000000000000000000000000005000000000000900200000000000008000000000000000000000000000000000000000000000000000000000000000000000000000000000000A0FB37
:67107F000000000000000000000000000000000000000000000000000000000000000000000000000000000000000000000000000000020000000000000001000000000000000000000000000000000000000000000000000000000000000000000000000000000000D0FB3C
:6710E600080000000000000000000000000000000000000000000000000000000000000000000000000000000000000400000000000014020000000000000A000000000000000000000000000000000000000000000000000000000000000000000000000000000000FAFD80
:67114D000000000000000000000000000000000000000000000000000000000000000000000000000000000000008000000000000000400000000000000000000000000000000000000000000000000000000000000000000000000000000000000000000000000000A8F9DA
:6711B400000000000000000000000000000000000000000000000000000000000000000000000000000000000000000500000000000080020000000000000000000000000000000000000000000000000000000000000000000000000000000000000000000000000030FB22
:67121B000400000000000000000000000000000000000000000000000000000000000000000000000000000000000000000000000000000000000000000000000000000000000000000000000000000000000000000000000000000000000000000000000000000000F1FC7B
:671282000000000000000000000000000000000000000000000000000000000000000000000000000000000000000004000000000000000200000000000000000000000000000000000000000000000000000000000000000000000000000000000000000000000000A0FB64
:6712E9000000000000000000000000000000000000000000000000000000000000000000000000000000000000008000000000000000400000000000000000000000000000000000000000000000000000000000000000000000000000000000000000000000000000A8F93D
:67135000000000000000000000000000000000000000000000000000000000000000000000000000000000000000000500000000000080020000000000000000000000000000000000000000000000000000000000000000000000000000000000000000000000000030FB84
:6713B7000000000000000000000000000000000000000000000000000000000000000000000000000000000000000000000000000000000000000000000000000000000000000000000000000000000000000000000000000000000000000000000000000000000000E0F9F6
:67141E0008000000000000000000000000000000000000000000000000000000000000000000000000000000000000040000000000000002000000000000000000000000000000000000000000000000000000000000000000000000000000000000000000000000000AF956
:671485000000000000000000000000000000000000000000000000000000000000000000000000000000000000008000000000000000400000000000000000000000000000000000000000000000000000000000000000000000000000000000000000000000000000A8F99F
:6714EC00000000000000000000000000000000000000000000000000000000000000000000000000000000000000000500000000000080020000000000000000000000000000000000000000000000000000000000000000000000000000000000000000000000000030FBE7
:671553000400000000000000000000000000000000000000000000000000000000000000000000000000000000000000000000000000000000000000000000000000000000000000000000000000000000000000000000000000000000000000000000000000000000F1FC40
:6715BA000000000000000000000000000000000000000000000000000000000000000000000000000000000000000004000000000000000200000000000000000000000000000000000000000000000000000000000000000000000000000000000000000000000000A0FB29
:671621000000000000000000000000000000000000000000000000000000000000000000000000000000000000008000000000000000400000000000000000000000000000000000000000000000000000000000000000000000000000000000000000000000000000A8F901
:67168800000000000000000000000000000000000000000000000000000000000000000000000000000000000000000500000000000080020000000000000000000000000000000000000000000000000000000000000000000000000000000000000000000000000030FB49
:6716EF000000000000000000000000000000000000000000000000000000000000000000000000000000000000000000000000000000000000000000000000000000000000000000000000000000000000000000000000000000000000000000000000000000000000E0F9BB
:67175600080000000000000000000000000000000000000000000000000000000000000000000000000000000000000000000000000014000000000000000A000000000000000000000000000000000000000000000000000000000000000000000000000000000000BAFF4D
:6717BD000000000000000000000000000000000000000000000000000000000000000000000000000000000000000000000000000000000000000000000000000000000000000000000000000000000000000000000000000000000000000000000000000000000000E0F9EC
:671824000000000000000000000000000000000000000000000000000000000000000000000000000000000000000000000000000000000000000000000000000000000000000000000000000000000000000000000000000000000000000000000000000000000000E0F984
:67188B000400000000000000000000000000000000000000000000000000000000000000000000000000000000000000000000000000000000000000000000000000000000000000000000000000000000000000000000000000000000000000000000000000000000F1FC05
:6718F2000000000000000000000000000000000000000000000000000000000000000000000000000000000000000000000000000000000000000000000000000000000000000000000000000000000000000000000000000000000000000000000000000000000000E0F9B6
:671959000000000000000000000000000000000000000000000000000000000000000000000000000000000000000000000000000000000000000000000000000000000000000000000000000000000000000000000000000000000000000000000000000000000000E0F94E
:6719C0000000000000000000000000000000000000000000000000000000000000000000000000000000000000000000000000000000000000000000000000000000000000000000000000000000000000000000000000000000000000000000000000000000000000E0F9E7
:671A27000000000000000000000000000000000000000000000000000000000000000000000000000000000000000000000000000000000000000000000000000000000000000000000000000000000000000000000000000000000000000000000000000000000000E0F97F
:671A8E00080000000000000000000000000000000000000000000000000000000000000000000000000000000000000400000000000018020000000000000C000000000000000000000000000000000000000000000000000000000000000000000000000000000000D2F9F4
:671AF500000000000000000000000000000000000000000000000000000000000000000000000000000000000000000200000000000010010000000000000800000000000000000000000000000000000000000000000000000000000000000000000000000000000050F827
:671B5C00000000000000000000000000000000000000000000000000000000000000000000000000000000000000000400000000000018020000000000000C00000000000000000000000000000000000000000000000000000000000000000000000000000000000078FB85
:671BC300040000000000000000000000000000000000000000000000000000000000000000000000000000000000800600000000000050030000000000000800000000000000000000000000000000000000000000000000000000000000000000000000000000000049FF8E
:671C2A0000000000000000000000000000000000000000000000000000000000000000000000000000000000000000040000000000000C020000000000000600000000000000000000000000000000000000000000000000000000000000000000000000000000000088FFB4
:671C91000000000000000000000000000000000000000000000000000000000000000000000000000000000000000004000000000000080200000000000004000000000000000000000000000000000000000000000000000000000000000000000000000000000000E8FBF7
:671CF800200004800010000240000800012000048000100002400008000120000480001000024000080001200004000000000000000010000000000000002800048000100002400008000120000480001000024000080001200004800010000240000800012000040010F922
:671D5F000000000000000000000000000000000000000000000000000000000000000000000000000000000000000000000000000000000000000000000000000000000000000000000000000000000000000000000000000000000000000000000000000000000000E0F944
:671DC60028000480001000024000080001200004800010000240000800012000048000100002400008000120000400000000000000000000000000000000200004800010000240000800012000048000100002400008000120000480001000024000080001200004002AFB47
:671E2D000000000000000000000000000000000000000000000000000000000000000000000000000000000000000000000000000000000000000000000000000000000000000000000000000000000000000000000000000000000000000000000000000000000000E0F975
:671E9400200004800010000240000800012000048000100002400008000120000480001000024000080001200004000000000000000000000000000000002000048000100002400008000120000480001000024000080001200004800010000240000800012000040080F92C
:671EFB000400000000000000000000000000000000000000000000000000000000000000000000000000000000000000000000000000000000000000000000000000000000000000000000000000000000000000000000000000000000000000000000000000000000F1FC8F
:671F6200200004800010000240000800012000048000100002400008000120000480001000024000080001200004000000000000000000000000000000002000048000100002400008000120000480001000024000080001200004800010000240000800012000040080F95D
:671FC9000000000000000000000000000000000000000000000000000000000000000000000000000000000000000000000000000000000000000000000000000000000000000000000000000000000000000000000000000000000000000000000000000000000000E0F9D8
:672030000000000000000000000000000000000000000000000000000000000000000000000000000000000000000000000440000004000000022000000200000000000000000000000000000000000000000000000000000000000000000000000000000000000000A0FB42
:672097000000000000000000000000000000000000000000000000000000000000000000000000000000000000000000000000000000000000000000000000000000000000000000000000000000000000000000000000000000000000000000000000000000000000E0F909
:6720FE000000000000000000000000000000000000000000000000000000000000000000000000000000000000000000000000000000000000000000000000000000000000000000000000000000000000000000000000000000000000000000000000000000000000E0F9A2
:672165000000000000000000000000000000000000000000000000000000000000000000000000000000000000000000000000000000000000000000000000000000000000000000000000000000000000000000000000000000000000000000000000000000000000E0F93A
:6721CC000000000000000000000000000000000000000000000000000000000000000000000000000000000000000000000000000000000000000000000000000000000000000000000000000000000000000000000000000000000000000000000000000000000000E0F9D3
:672233000000000000000000000000000000000000000000000000000000000000000000000000000000000000000000000000000000000000000000000000000000000000000000000000000000000000000000000000000000000000000000000000000000000000E0F96B
:67229A000000000000000000000000000000000000000000000000000000000000000000000000000000000000000000000000000000000000000000000000000000000000000000000000000000000000000000000000000000000000000000000000000000000000E0F904
:672301000000000000000000000000000000000000000000000000000000000000000000000000000000000000000000000000000000000000000000000000000000000000000000000000000000000000000000000000000000000000000000000000000000000000E0F99C
:672368000000000000000000000000000000000000000000000000000000000000000000000000000000000000000000000000000000000000000000000000000000000000000000000000000000000000000000000000000000000000000000000000000000000000E0F935
:6723CF000000000000000000000000000000000000000000000000000000000000000000000000000000000000000000000000000000000000000000000000000000000000000000000000000000000000000000000000000000000000000000000000000000000000E0F9CE
:672436000000000000000000000000000000000000000000000000000000000000000000000000000000000000000000000000000000000000000000000000000000000000000000000000000000000000000000000000000000000000000000000000000000000000E0F966
:67249D000000000000000000000000000000000000000000000000000000000000000000000000000000000000000000000000000000000000000000000000000000000000000000000000000000000000000000000000000000000000000000000000000000000000E0F9FF
:672504000000000000000000000000000000000000000000000000000000000000000000000000000000000000000000000000000000000000000000000000000000000000000000000000000000000000000000000000000000000000000000000000000000000000E0F997
:67256B000000000000000000000000000000000000000000000000000000000000000000000000000000000000000000000000000000000000000000000000000000000000000000000000000000000000000000000000000000000000000000000000000000000000E0F930
:6725D2000000000000000000000000000000000000000000000000000000000000000000000000000000000000000000000000000000000000000000000000000000000000000000000000000000000000000000000000000000000000000000000000000000000000E0F9C9
:672639000000000000000000000000000000000000000000000000000000000000000000000000000000000000000000000000000000000000000000000000000000000000000000000000000000000000000000000000000000000000000000000000000000000000E0F961
:6726A0000000000000000000000000000000000000000000000000000000000000000000000000000000000000000000000000000000000000000000000000000000000000000000000000000000000000000000000000000000000000000000000000000000000000E0F9FA
:672707000000000000000000000000000000000000000000000000000000000000000000000000000000000000000000000000000000000000000000000000000000000000000000000000000000000000000000000000000000000000000000000000000000000000E0F992
:67276E000000000000000000000000000000000000000000000000000000000000000000000000000000000000000000000000000000000000000000000000000000000000000000000000000000000000000000000000000000000000000000000000000000000000E0F92B
:6727D5000000000000000000000000000000000000000000000000000000000000000000000000000000000000000000000000000000000000000000000000000000000000000000000000000000000000000000000000000000000000000000000000000000000000E0F9C4
:67283C000000000000000000000000000000000000000000000000000000000000000000000000000000000000000000000000000000000000000000000000000000000000000000000000000000000000000000000000000000000000000000000000000000000000E0F95C
:6728A3000000000000000000000000000000000000000000000000000000000000000000000000000000000000000000000000000000000000000000000000000000000000000000000000000000000000000000000000000000000000000000000000000000000000E0F9F5
:67290A000000000000000000000000000000000000000000000000000000000000000000000000000000000000000000000000000000000000000000000000000000000000000000000000000000000000000000000000000000000000000000000000000000000000E0F98D
:672971000000000000000000000000000000000000000000000000000000000000000000000000000000000000000000000000000000000000000000000000000000000000000000000000000000000000000000000000000000000000000000000000000000000000E0F926
:6729D8000000000000000000000000000000000000000000000000000000000000000000000000000000000000000000000000000000000000000000000000000000000000000000000000000000000000000000000000000000000000000000000000000000000000E0F9BF
:672A3F000000000000000000000000000000000000000000000000000000000000000000000000000000000000000000000000000000000000000000000000000000000000000000000000000000000000000000000000000000000000000000000000000000000000E0F957
:672AA6000000000000000000000000000000000000000000000000000000000000000000000000000000000000000000000000000000000000000000000000000000000000000000000000000000000000000000000000000000000000000000000000000000000000E0F9F0
:672B0D000000000000000000000000000000000000000000000000000000000000000000000000000000000000000000000000000000000000000000000000000000000000000000000000000000000000000000000000000000000000000000000000000000000000E0F988
:672B74000000000000000000000000000000000000000000000000000000000000000000000000000000000000000000000000000000000000000000000000000000000000000000000000000000000000000000000000000000000000000000000000000000000000E0F921
:672BDB000000000000000000000000000000000000000000000000000000000000000000000000000000000000000000000000000000000000000000000000000000000000000000000000000000000000000000000000000000000000000000000000000000000000E0F9BA
:672C42000000000000000000000000000000000000000000000000000000000000000000000000000000000000000000000000000000000000000000000000000000000000000000000000000000000000000000000000000000000000000000000000000000000000E0F952
:672CA9000000000000000000000000000000000000000000000000000000000000000000000000000000000000000000000000000000000000000000000000000000000000000000000000000000000000000000000000000000000000000000000000000000000000E0F9EB
:672D10000000000000000000000000000000000000000000000000000000000000000000000000000000000000000000000000000000000000000000000000000000000000000000000000000000000000000000000000000000000000000000000000000000000000E0F983
:672D77000000000000000000000000000000000000000000000000000000000000000000000000000000000000000000000000000000000000000000000000000000000000000000000000000000000000000000000000000000000000000000000000000000000000E0F91C
:672DDE000000000000000000000000000000000000000000000000000000000000000000000000000000000000000000000000000000000000000000000000000000000000000000000000000000000000000000000000000000000000000000000000000000000000E0F9B5
:672E45000000000000000000000000000000000000000000000000000000000000000000000000000000000000000000000000000000000000000000000000000000000000000000000000000000000000000000000000000000000000000000000000000000000000E0F94D
:672EAC000000000000000000000000000000000000000000000000000000000000000000000000000000000000000000000000000000000000000000000000000000000000000000000000000000000000000000000000000000000000000000000000000000000000E0F9E6
:672F13000000000000000000000000000000000000000000000000000000000000000000000000000000000000000000000000000000000000000000000000000000000000000000000000000000000000000000000000000000000000000000000000000000000000E0F97E
:672F7A000000000000000000000000000000000000000000000000000000000000000000000000000000000000000000000000000000000000000000000000000000000000000000000000000000000000000000000000000000000000000000000000000000000000E0F917
:672FE1000000000000000000000000000000000000000000000000000000000000000000000000000000000000000000000000000000000000000000000000000000000000000000000000000000000000000000000000000000000000000000000000000000000000E0F9B0
:673048000000000000000000000000000000000000000000000000000000000000000000000000000000000000000000000000000000000000000000000000000000000000000000000000000000000000000000000000000000000000000000000000000000000000E0F948
:6730AF000000000000000000000000000000000000000000000000000000000000000000000000000000000000000000000000000000000000000000000000000000000000000000000000000000000000000000000000000000000000000000000000000000000000E0F9E1
:673116000000000000000000000000000000000000000000000000000000000000000000000000000000000000000000000000000000000000000000000000000000000000000000000000000000000000000000000000000000000000000000000000000000000000E0F979
:67317D000000000000000000000000000000000000000000000000000000000000000000000000000000000000000000000000000000000000000000000000000000000000000000000000000000000000000000000000000000000000000000000000000000000000E0F912
:6731E4000000000000000000000000000000000000000000000000000000000000000000000000000000000000000000000000000000000000000000000000000000000000000000000000000000000000000000000000000000000000000000000000000000000000E0F9AB
:67324B000000000000000000000000000000000000000000000000000000000000000000000000000000000000000000000000080000000000000004000000000000000000000000000000000000000000000000000000000000000000000000000000000000000000A8F96F
:6732B2000000000000000000000000000000000000000000000000000000000000000000000000000000000000000000000000000000000000000000000000000000000000000000000000000000000000000000000000000000000000000000000000000000000000E0F9DC
:673319000000000000000000000000000000000000000000000000000000000000000000000000000000000000000000000000000000000000000000000000000000000000000000000000000000000000000000000000000000000000000000000000000000000000E0F974
:673380000000000000000000000000000000000000000000000000000000000000000000000000000000000000000000000000000000000000000000000000000000000000000000000000000000000000000000000000000000000000000000000000000000000000E0F90D
:6733E7000000000000000000000000000000000000000000000000000000000000000000000000000000000000000000000000000000000000000000000000000000000000000000000000000000000000000000000000000000000000000000000000000000000000E0F9A6
:67344E000000000000000000000000000000000000000000000000000000000000000000000000000000000000000000000000000000000000000000000000000000000000000000000000000000000000000000000000000000000000000000000000000000000000E0F93E
:6734B5000000000000000000000000000000000000000000000000000000000000000000000000000000000000000000000000000000000000000000000000000000000000000000000000000000000000000000000000000000000000000000000000000000000000E0F9D7
:67351C000000000000000000000000000000000000000000000000000000000000000000000000000000000000000000000000000000000000000000000000000000000000000000000000000000000000000000000000000000000000000000000000000000000000E0F96F
:673583000000000000000000000000000000000000000000000000000000000000000000000000000000000000000000000000000000000000000000000000000000000000000000000000000000000000000000000000000000000000000000000000000000000000E0F908
:6735EA000000000000000000000000000000000000000000000000000000000000000000000000000000000000000000000000000000000000000000000000000000000000000000000000000000000000000000000000000000000000000000000000000000000000E0F9A1
:673651000000000000000000000000000000000000000000000000000000000000000000000000000000000000000000000000000000000000000000000000000000000000000000000000000000000000000000000000000000000000000000000000000000000000E0F939
:6736B8000000000000000000000000000000000000000000000000000000000000000000000000000000000000000000000000000000000000000000000000000000000000000000000000000000000000000000000000000000000000000000000000000000000000E0F9D2
:67371F000000000000000000000000000000000000000000000000000000000000000000000000000000000000000000000000000000000000000000000000000000000000000000000000000000000000000000000000000000000000000000000000000000000000E0F96A
:673786000000000000000000000000000000000000000000000000000000000000000000000000000000000000000000000000000000000000000000000000000000000000000000000000000000000000000000000000000000000000000000000000000000000000E0F903
:6737ED000000000000000000000000000000000000000000000000000000000000000000000000000000000000000000000000000000000000000000000000000000000000000000000000000000000000000000000000000000000000000000000000000000000000E0F99C
:673854000000000000000000000000000000000000000000000000000000000000000000000000000000000000000000000000000000000000000000000000000000000000000000000000000000000000000000000000000000000000000000000000000000000000E0F934
:6738BB000000000000000000000000000000000000000000000000000000000000000000000000000000000000000000000000000000000000000000000000000000000000000000000000000000000000000000000000000000000000000000000000000000000000E0F9CD
:673922000000000000000000000000000000000000000000000000000000000000000000000000000000000000000000000000000000000000000000000000000000000000000000000000000000000000000000000000000000000000000000000000000000000000E0F965
:673989000000000000000000000000000000000000000000000000000000000000000000000000000000000000000000000000000000000000000000000000000000000000000000000000000000000000000000000000000000000000000000000000000000000000E0F9FE
:6739F0000000000000000000000000000000000000000000000000000000000000000000000000000000000000000000000000000000000000000000000000000000000000000000000000000000000000000000000000000000000000000000000000000000000000E0F997
:673A57000000000000000000000000000000000000000000000000000000000000000000000000000000000000000000000000000000000000000000000000000000000000000000000000000000000000000000000000000000000000000000000000000000000000E0F92F
:673ABE000000000000000000000000000000000000000000000000000000000000000000000000000000000000000000000000000000000000000000000000000000000000000000000000000000000000000000000000000000000000000000000000000000000000E0F9C8
:673B25000000000000000000000000000000000000000000000000000000000000000000000000000000000000000000000000000000000000000000000000000000000000000000000000000000000000000000000000000000000000000000000000000000000000E0F960
:673B8C000000000000000000000000000000000000000000000000000000000000000000000000000000000000000000000000000000000000000000000000000000000000000000000000000000000000000000000000000000000000000000000000000000000000E0F9F9
:673BF300000000000000000000000000000000000000000000000000000000000000000000000000000000000000000000000000000030000000000000001800000000000000000000000000000000000000000000000000000000000000000000000000000000000050F8DB
:673C5A0000000000000000000000000000000000000000000000000000000000000000000000000000000000000000000000000000000C0000000000000006000000000000000000000000000000000000000000000000000000000000000000000000000000000000C8FD2C
:673CC1000000000000000000000000000000000000000000000000000000000000000000000000000000000000000000000000000000080000000000000004000000000000000000000000000000000000000000000000000000000000000000000000000000000000A8F9EF
:673D280008000000000000000000000000000000000000000000000000000000000000000000000000000000000000000000000000000000000000000000000000000000000000000000000000000000000000000000000000000000000000000000000000000000004AFBE7
:673D8F000000000000000000000000000000000000000000000000000000000000000000000000000000000000000000000000000000000000000000000000000000000000000000000000000000000000000000000000000000000000000000000000000000000000E0F9F4
:673DF6000000000000000000000000000000000000000000000000000000000000000000000000000000000000000000000000000000000000000000000000000000000000000000000000000000000000000000000000000000000000000000000000000000000000E0F98D
:673E5D000400000000000000000000000000000000000000000000000000000000000000000000000000000000000000000000000000000000000000000000000000000000000000000000000000000000000000000000000000000000000000000000000000000000F1FC0D
:673EC400000000000000000000000000000000000000000000000000000000000000000000000000000000000000000000000000000014000000000000000A00000000000000000000000000000000000000000000000000000000000000000000000000000000000010FD6C
:673F2B000000000000000000000000000000000000000000000000000000000000000000000000000000000000000000000000000000000000000000000000000000000000000000000000000000000000000000000000000000000000000000000000000000000000E0F956
:673F9200000000000000000000000000000000000000000000000000000000000000000000000000000000000000000000000000000010000000000000000800000000000000000000000000000000000000000000000000000000000000000000000000000000000070F947
:673FF9000000000000000000000000000000000000000000000000000000000000000000000000000000000000000000000000000000020000000000000001000000000000000000000000000000000000000000000000000000000000000000000000000000000000D0FB93
:67406000080000000000000000000000000000000000000000000000000000000000000000000000000000000000000000000000000014000000000000000A000000000000000000000000000000000000000000000000000000000000000000000000000000000000BAFF1A
:6740C7000000000000000000000000000000000000000000000000000000000000000000000000000000000000000000000000000000000000000000000000000000000000000000000000000000000000000000000000000000000000000000000000000000000000E0F9B9
:67412E00000000000000000000000000000000000000000000000000000000000000000000000000000000000000000000000000000010000000000000000800000000000000000000000000000000000000000000000000000000000000000000000000000000000070F9A9
:674195000400000000000000000000000000000000000000000000000000000000000000000000000000000000000000000000000000020000000000000001000000000000000000000000000000000000000000000000000000000000000000000000000000000000C1FEFD
:6741FC00000000000000000000000000000000000000000000000000000000000000000000000000000000000000000000000000000014000000000000000A00000000000000000000000000000000000000000000000000000000000000000000000000000000000010FD31
:674263000000000000000000000000000000000000000000000000000000000000000000000000000000000000000000000000000000000000000000000000000000000000000000000000000000000000000000000000000000000000000000000000000000000000E0F91B
:6742CA00000000000000000000000000000000000000000000000000000000000000000000000000000000000000000000000000000010000000000000000800000000000000000000000000000000000000000000000000000000000000000000000000000000000070F90C
:674331000000000000000000000000000000000000000000000000000000000000000000000000000000000000000000000000000000020000000000000001000000000000000000000000000000000000000000000000000000000000000000000000000000000000D0FB57
:67439800080000000000000000000000000000000000000000000000000000000000000000000000000000000000000000000000000014000000000000000A000000000000000000000000000000000000000000000000000000000000000000000000000000000000BAFFDF
:6743FF000000000000000000000000000000000000000000000000000000000000000000000000000000000000000000000000000000000000000000000000000000000000000000000000000000000000000000000000000000000000000000000000000000000000E0F97E
:674466000000000000000000000000000000000000000000000000000000000000000000000000000000000000000005000000000000900200000000000008000000000000000000000000000000000000000000000000000000000000000000000000000000000000A0FBB5
:6744CD000400000000000000000000000000000000000000000000000000000000000000000000000000000000000000000000000000020000000000000001000000000000000000000000000000000000000000000000000000000000000000000000000000000000C1FEC2
:67453400000000000000000000000000000000000000000000000000000000000000000000000000000000000000000400000000000014020000000000000A00000000000000000000000000000000000000000000000000000000000000000000000000000000000050FFAD
:67459B000000000000000000000000000000000000000000000000000000000000000000000000000000000000008000000000000000400000000000000000000000000000000000000000000000000000000000000000000000000000000000000000000000000000A8F958
:674602000000000000000000000000000000000000000000000000000000000000000000000000000000000000000005000000000000900200000000000008000000000000000000000000000000000000000000000000000000000000000000000000000000000000A0FB17
:674669000000000000000000000000000000000000000000000000000000000000000000000000000000000000000000000000000000020000000000000001000000000000000000000000000000000000000000000000000000000000000000000000000000000000D0FB1C
:6746D000080000000000000000000000000000000000000000000000000000000000000000000000000000000000000400000000000014020000000000000A000000000000000000000000000000000000000000000000000000000000000000000000000000000000FAFD60
:674737000000000000000000000000000000000000000000000000000000000000000000000000000000000000008000000000000000400000000000000000000000000000000000000000000000000000000000000000000000000000000000000000000000000000A8F9BA
:67479E00000000000000000000000000000000000000000000000000000000000000000000000000000000000000000500000000000080020000000000000000000000000000000000000000000000000000000000000000000000000000000000000000000000000030FB02
:674805000400000000000000000000000000000000000000000000000000000000000000000000000000000000000000000000000000000000000000000000000000000000000000000000000000000000000000000000000000000000000000000000000000000000F1FC5B
:67486C000000000000000000000000000000000000000000000000000000000000000000000000000000000000000004000000000000000200000000000000000000000000000000000000000000000000000000000000000000000000000000000000000000000000A0FB44
:6748D3000000000000000000000000000000000000000000000000000000000000000000000000000000000000008000000000000000400000000000000000000000000000000000000000000000000000000000000000000000000000000000000000000000000000A8F91D
:67493A00000000000000000000000000000000000000000000000000000000000000000000000000000000000000000500000000000080020000000000000000000000000000000000000000000000000000000000000000000000000000000000000000000000000030FB64
:6749A1000000000000000000000000000000000000000000000000000000000000000000000000000000000000000000000000000000000000000000000000000000000000000000000000000000000000000000000000000000000000000000000000000000000000E0F9D6
:674A080008000000000000000000000000000000000000000000000000000000000000000000000000000000000000040000000000000002000000000000000000000000000000000000000000000000000000000000000000000000000000000000000000000000000AF936
:674A6F000000000000000000000000000000000000000000000000000000000000000000000000000000000000008000000000000000400000000000000000000000000000000000000000000000000000000000000000000000000000000000000000000000000000A8F97F
:674AD600000000000000000000000000000000000000000000000000000000000000000000000000000000000000000500000000000080020000000000000000000000000000000000000000000000000000000000000000000000000000000000000000000000000030FBC7
:674B3D000400000000000000000000000000000000000000000000000000000000000000000000000000000000000000000000000000000000000000000000000000000000000000000000000000000000000000000000000000000000000000000000000000000000F1FC20
:674BA4000000000000000000000000000000000000000000000000000000000000000000000000000000000000000004000000000000000200000000000000000000000000000000000000000000000000000000000000000000000000000000000000000000000000A0FB09
:674C0B000000000000000000000000000000000000000000000000000000000000000000000000000000000000008000000000000000400000000000000000000000000000000000000000000000000000000000000000000000000000000000000000000000000000A8F9E1
:674C7200000000000000000000000000000000000000000000000000000000000000000000000000000000000000000500000000000080020000000000000000000000000000000000000000000000000000000000000000000000000000000000000000000000000030FB29
:674CD9000000000000000000000000000000000000000000000000000000000000000000000000000000000000000000000000000000000000000000000000000000000000000000000000000000000000000000000000000000000000000000000000000000000000E0F99B
:674D4000080000000000000000000000000000000000000000000000000000000000000000000000000000000000000000000000000014000000000000000A000000000000000000000000000000000000000000000000000000000000000000000000000000000000BAFF2D
:674DA7000000000000000000000000000000000000000000000000000000000000000000000000000000000000000000000000000000000000000000000000000000000000000000000000000000000000000000000000000000000000000000000000000000000000E0F9CC
:674E0E000000000000000000000000000000000000000000000000000000000000000000000000000000000000000000000000000000000000000000000000000000000000000000000000000000000000000000000000000000000000000000000000000000000000E0F964
:674E75000400000000000000000000000000000000000000000000000000000000000000000000000000000000000000000000000000000000000000000000000000000000000000000000000000000000000000000000000000000000000000000000000000000000F1FCE5
:674EDC000000000000000000000000000000000000000000000000000000000000000000000000000000000000000000000000000000000000000000000000000000000000000000000000000000000000000000000000000000000000000000000000000000000000E0F996
:674F43000000000000000000000000000000000000000000000000000000000000000000000000000000000000000000000000000000000000000000000000000000000000000000000000000000000000000000000000000000000000000000000000000000000000E0F92E
:674FAA000000000000000000000000000000000000000000000000000000000000000000000000000000000000000000000000000000000000000000000000000000000000000000000000000000000000000000000000000000000000000000000000000000000000E0F9C7
:675011000000000000000000000000000000000000000000000000000000000000000000000000000000000000000000000000000000000000000000000000000000000000000000000000000000000000000000000000000000000000000000000000000000000000E0F95F
:67507800080000000000000000000000000000000000000000000000000000000000000000000000000000000000000400000000000018020000000000000C000000000000000000000000000000000000000000000000000000000000000000000000000000000000D2F9D4
:6750DF00000000000000000000000000000000000000000000000000000000000000000000000000000000000000000200000000000010010000000000000800000000000000000000000000000000000000000000000000000000000000000000000000000000000050F807
:67514600000000000000000000000000000000000000000000000000000000000000000000000000000000000000000400000000000018020000000000000C00000000000000000000000000000000000000000000000000000000000000000000000000000000000078FB65
:6751AD00040000000000000000000000000000000000000000000000000000000000000000000000000000000000800600000000000050030000000000000800000000000000000000000000000000000000000000000000000000000000000000000000000000000049FF6E
:6752140000000000000000000000000000000000000000000000000000000000000000000000000000000000000000040000000000000C020000000000000600000000000000000000000000000000000000000000000000000000000000000000000000000000000088FF94
:67527B000000000000000000000000000000000000000000000000000000000000000000000000000000000000000004000000000000080200000000000004000000000000000000000000000000000000000000000000000000000000000000000000000000000000E8FBD7
:6752E200200004800010000240000800012000048000100002400008000120000480001000024000080001200004000000000000000010000000000000002800048000100002400008000120000480001000024000080001200004800010000240000800012000040010F902
:675349000000000000000000000000000000000000000000000000000000000000000000000000000000000000000000000000000000000000000000000000000000000000000000000000000000000000000000000000000000000000000000000000000000000000E0F924
:6753B00028000480001000024000080001200004800010000240000800012000048000100002400008000120000400000000000000000000000000000000200004800010000240000800012000048000100002400008000120000480001000024000080001200004002AFB27
:675417000000000000000000000000000000000000000000000000000000000000000000000000000000000000000000000000000000000000000000000000000000000000000000000000000000000000000000000000000000000000000000000000000000000000E0F955
:67547E00200004800010000240000800012000048000100002400008000120000480001000024000080001200004000000000000000000000000000000002000048000100002400008000120000480001000024000080001200004800010000240000800012000040080F90C
:6754E5000400000000000000000000000000000000000000000000000000000000000000000000000000000000000000000000000000000000000000000000000000000000000000000000000000000000000000000000000000000000000000000000000000000000F1FC6F
:67554C00200004800010000240000800012000048000100002400008000120000480001000024000080001200004000000000000000000000000000000002000048000100002400008000120000480001000024000080001200004800010000240000800012000040080F93D
:6755B3000000000000000000000000000000000000000000000000000000000000000000000000000000000000000000000000000000000000000000000000000000000000000000000000000000000000000000000000000000000000000000000000000000000000E0F9B8
:67561A000000000000000000000000000000000000000000000000000000000000000000000000000000000000000000000440000004000000022000000200000000000000000000000000000000000000000000000000000000000000000000000000000000000000A0FB22
:675681000000000000000000000000000000000000000000000000000000000000000000000000000000000000000000000000000000000000000000000000000000000000000000000000000000000000000000000000000000000000000000000000000000000000E0F9E9
:6756E8000000000000000000000000000000000000000000000000000000000000000000000000000000000000000000000000000000000000000000000000000000000000000000000000000000000000000000000000000000000000000000000000000000000000E0F982
:67574F000000000000000000000000000000000000000000000000000000000000000000000000000000000000000000000000000000000000000000000000000000000000000000000000000000000000000000000000000000000000000000000000000000000000E0F91A
:6757B6000000000000000000000000000000000000000000000000000000000000000000000000000000000000000000000000000000000000000000000000000000000000000000000000000000000000000000000000000000000000000000000000000000000000E0F9B3
:67581D000000000000000000000000000000000000000000000000000000000000000000000000000000000000000000000000000000000000000000000000000000000000000000000000000000000000000000000000000000000000000000000000000000000000E0F94B
:675884000000000000000000000000000000000000000000000000000000000000000000000000000000000000000000000000000000000000000000000000000000000000000000000000000000000000000000000000000000000000000000000000000000000000E0F9E4
:6758EB000000000000000000000000000000000000000000000000000000000000000000000000000000000000000000000000000000000000000000000000000000000000000000000000000000000000000000000000000000000000000000000000000000000000E0F97D
:675952000000000000000000000000000000000000000000000000000000000000000000000000000000000000000000000000000000000000000000000000000000000000000000000000000000000000000000000000000000000000000000000000000000000000E0F915
:6759B9000000000000000000000000000000000000000000000000000000000000000000000000000000000000000000000000000000000000000000000000000000000000000000000000000000000000000000000000000000000000000000000000000000000000E0F9AE
:675A20000000000000000000000000000000000000000000000000000000000000000000000000000000000000000000000000000000000000000000000000000000000000000000000000000000000000000000000000000000000000000000000000000000000000E0F946
:675A87000000000000000000000000000000000000000000000000000000000000000000000000000000000000000000000000000000000000000000000000000000000000000000000000000000000000000000000000000000000000000000000000000000000000E0F9DF
:675AEE000000000000000000000000000000000000000000000000000000000000000000000000000000000000000000000000000000000000000000000000000000000000000000000000000000000000000000000000000000000000000000000000000000000000E0F978
:675B55000000000000000000000000000000000000000000000000000000000000000000000000000000000000000000000000000000000000000000000000000000000000000000000000000000000000000000000000000000000000000000000000000000000000E0F910
:675BBC000000000000000000000000000000000000000000000000000000000000000000000000000000000000000000000000000000000000000000000000000000000000000000000000000000000000000000000000000000000000000000000000000000000000E0F9A9
:675C23000000000000000000000000000000000000000000000000000000000000000000000000000000000000000000000000000000000000000000000000000000000000000000000000000000000000000000000000000000000000000000000000000000000000E0F941
:675C8A000000000000000000000000000000000000000000000000000000000000000000000000000000000000000000000000000000000000000000000000000000000000000000000000000000000000000000000000000000000000000000000000000000000000E0F9DA
:675CF1000000000000000000000000000000000000000000000000000000000000000000000000000000000000000000000000000000000000000000000000000000000000000000000000000000000000000000000000000000000000000000000000000000000000E0F973
:675D58000000000000000000000000000000000000000000000000000000000000000000000000000000000000000000000000000000000000000000000000000000000000000000000000000000000000000000000000000000000000000000000000000000000000E0F90B
:675DBF000000000000000000000000000000000000000000000000000000000000000000000000000000000000000000000000000000000000000000000000000000000000000000000000000000000000000000000000000000000000000000000000000000000000E0F9A4
:675E26000000000000000000000000000000000000000000000000000000000000000000000000000000000000000000000000000000000000000000000000000000000000000000000000000000000000000000000000000000000000000000000000000000000000E0F93C
:675E8D000000000000000000000000000000000000000000000000000000000000000000000000000000000000000000000000000000000000000000000000000000000000000000000000000000000000000000000000000000000000000000000000000000000000E0F9D5
:675EF4000000000000000000000000000000000000000000000000000000000000000000000000000000000000000000000000000000000000000000000000000000000000000000000000000000000000000000000000000000000000000000000000000000000000E0F96E
:675F5B000000000000000000000000000000000000000000000000000000000000000000000000000000000000000000000000000000000000000000000000000000000000000000000000000000000000000000000000000000000000000000000000000000000000E0F906
:675FC2000000000000000000000000000000000000000000000000000000000000000000000000000000000000000000000000000000000000000000000000000000000000000000000000000000000000000000000000000000000000000000000000000000000000E0F99F
:676029000000000000000000000000000000000000000000000000000000000000000000000000000000000000000000000000000000000000000000000000000000000000000000000000000000000000000000000000000000000000000000000000000000000000E0F937
:676090000000000000000000000000000000000000000000000000000000000000000000000000000000000000000000000000000000000000000000000000000000000000000000000000000000000000000000000000000000000000000000000000000000000000E0F9D0
:6760F7000000000000000000000000000000000000000000000000000000000000000000000000000000000000000000000000000000000000000000000000000000000000000000000000000000000000000000000000000000000000000000000000000000000000E0F969
:67615E000000000000000000000000000000000000000000000000000000000000000000000000000000000000000000000000000000000000000000000000000000000000000000000000000000000000000000000000000000000000000000000000000000000000E0F901
:6761C5000000000000000000000000000000000000000000000000000000000000000000000000000000000000000000000000000000000000000000000000000000000000000000000000000000000000000000000000000000000000000000000000000000000000E0F99A
:67622C000000000000000000000000000000000000000000000000000000000000000000000000000000000000000000000000000000000000000000000000000000000000000000000000000000000000000000000000000000000000000000000000000000000000E0F932
:676293000000000000000000000000000000000000000000000000000000000000000000000000000000000000000000000000000000000000000000000000000000000000000000000000000000000000000000000000000000000000000000000000000000000000E0F9CB
:6762FA000000000000000000000000000000000000000000000000000000000000000000000000000000000000000000000000000000000000000000000000000000000000000000000000000000000000000000000000000000000000000000000000000000000000E0F964
:676361000000000000000000000000000000000000000000000000000000000000000000000000000000000000000000000000000000000000000000000000000000000000000000000000000000000000000000000000000000000000000000000000000000000000E0F9FC
:6763C8000000000000000000000000000000000000000000000000000000000000000000000000000000000000000000000000000000000000000000000000000000000000000000000000000000000000000000000000000000000000000000000000000000000000E0F995
:67642F000000000000000000000000000000000000000000000000000000000000000000000000000000000000000000000000000000000000000000000000000000000000000000000000000000000000000000000000000000000000000000000000000000000000E0F92D
:676496000000000000000000000000000000000000000000000000000000000000000000000000000000000000000000000000000000000000000000000000000000000000000000000000000000000000000000000000000000000000000000000000000000000000E0F9C6
:6764FD000000000000000000000000000000000000000000000000000000000000000000000000000000000000000000000000000000000000000000000000000000000000000000000000000000000000000000000000000000000000000000000000000000000000E0F95F
:676564000000000000000000000000000000000000000000000000000000000000000000000000000000000000000000000000000000000000000000000000000000000000000000000000000000000000000000000000000000000000000000000000000000000000E0F9F7
:6765CB000000000000000000000000000000000000000000000000000000000000000000000000000000000000000000000000000000000000000000000000000000000000000000000000000000000000000000000000000000000000000000000000000000000000E0F990
:676632000000000000000000000000000000000000000000000000000000000000000000000000000000000000000000000000000000000000000000000000000000000000000000000000000000000000000000000000000000000000000000000000000000000000E0F928
:676699000000000000000000000000000000000000000000000000000000000000000000000000000000000000000000000000000000000000000000000000000000000000000000000000000000000000000000000000000000000000000000000000000000000000E0F9C1
:676700000000000000000000000000000000000000000000000000000000000000000000000000000000000000000000000000000000000000000000000000000000000000000000000000000000000000000000000000000000000000000000000000000000000000E0F959
:676767000000000000000000000000000000000000000000000000000000000000000000000000000000000000000000000000000000000000000000000000000000000000000000000000000000000000000000000000000000000000000000000000000000000000E0F9F2
:6767CE000000000000000000000000000000000000000000000000000000000000000000000000000000000000000000000000000000000000000000000000000000000000000000000000000000000000000000000000000000000000000000000000000000000000E0F98B
:67683500000000000000000000000000000000000000000000000000000000000000000000000000000000000000000000000010000000000000000800000000000000000000000000000000000000000000000000000000000000000000000000000000000000000070F97B
:67689C000000000000000000000000000000000000000000000000000000000000000000000000000000000000000000000000000000000000000000000000000000000000000000000000000000000000000000000000000000000000000000000000000000000000E0F9BC
:676903000000000000000000000000000000000000000000000000000000000000000000000000000000000000000000000000000000000000000000000000000000000000000000000000000000000000000000000000000000000000000000000000000000000000E0F954
:67696A000000000000000000000000000000000000000000000000000000000000000000000000000000000000000000000000000000000000000000000000000000000000000000000000000000000000000000000000000000000000000000000000000000000000E0F9ED
:6769D1000000000000000000000000000000000000000000000000000000000000000000000000000000000000000000000000000000000000000000000000000000000000000000000000000000000000000000000000000000000000000000000000000000000000E0F986
:676A38000000000000000000000000000000000000000000000000000000000000000000000000000000000000000000000000000000000000000000000000000000000000000000000000000000000000000000000000000000000000000000000000000000000000E0F91E
:676A9F000000000000000000000000000000000000000000000000000000000000000000000000000000000000000000000000000000000000000000000000000000000000000000000000000000000000000000000000000000000000000000000000000000000000E0F9B7
:676B06000000000000000000000000000000000000000000000000000000000000000000000000000000000000000000000000000000000000000000000000000000000000000000000000000000000000000000000000000000000000000000000000000000000000E0F94F
:676B6D000000000000000000000000000000000000000000000000000000000000000000000000000000000000000000000000000000000000000000000000000000000000000000000000000000000000000000000000000000000000000000000000000000000000E0F9E8
:676BD4000000000000000000000000000000000000000000000000000000000000000000000000000000000000000000000000000000000000000000000000000000000000000000000000000000000000000000000000000000000000000000000000000000000000E0F981
:676C3B000000000000000000000000000000000000000000000000000000000000000000000000000000000000000000000000000000000000000000000000000000000000000000000000000000000000000000000000000000000000000000000000000000000000E0F919
:676CA2000000000000000000000000000000000000000000000000000000000000000000000000000000000000000000000000000000000000000000000000000000000000000000000000000000000000000000000000000000000000000000000000000000000000E0F9B2
:676D09000000000000000000000000000000000000000000000000000000000000000000000000000000000000000000000000000000000000000000000000000000000000000000000000000000000000000000000000000000000000000000000000000000000000E0F94A
:676D70000000000000000000000000000000000000000000000000000000000000000000000000000000000000000000000000000000000000000000000000000000000000000000000000000000000000000000000000000000000000000000000000000000000000E0F9E3
:676DD7000000000000000000000000000000000000000000000000000000000000000000000000000000000000000000000000000000000000000000000000000000000000000000000000000000000000000000000000000000000000000000000000000000000000E0F97C
:676E3E000000000000000000000000000000000000000000000000000000000000000000000000000000000000000000000000000000000000000000000000000000000000000000000000000000000000000000000000000000000000000000000000000000000000E0F914
:676EA5000000000000000000000000000000000000000000000000000000000000000000000000000000000000000000000000000000000000000000000000000000000000000000000000000000000000000000000000000000000000000000000000000000000000E0F9AD
:676F0C000000000000000000000000000000000000000000000000000000000000000000000000000000000000000000000000000000000000000000000000000000000000000000000000000000000000000000000000000000000000000000000000000000000000E0F945
:676F73000000000000000000000000000000000000000000000000000000000000000000000000000000000000000000000000000000000000000000000000000000000000000000000000000000000000000000000000000000000000000000000000000000000000E0F9DE
:676FDA000000000000000000000000000000000000000000000000000000000000000000000000000000000000000000000000000000000000000000000000000000000000000000000000000000000000000000000000000000000000000000000000000000000000E0F977
:677041000000000000000000000000000000000000000000000000000000000000000000000000000000000000000000000000000000000000000000000000000000000000000000000000000000000000000000000000000000000000000000000000000000000000E0F90F
:6770A8000000000000000000000000000000000000000000000000000000000000000000000000000000000000000000000000000000000000000000000000000000000000000000000000000000000000000000000000000000000000000000000000000000000000E0F9A8
:67710F000000000000000000000000000000000000000000000000000000000000000000000000000000000000000000000000000000000000000000000000000000000000000000000000000000000000000000000000000000000000000000000000000000000000E0F940
:677176000000000000000000000000000000000000000000000000000000000000000000000000000000000000000000000000000000000000000000000000000000000000000000000000000000000000000000000000000000000000000000000000000000000000E0F9D9
:6771DD00000000000000000000000000000000000000000000000000000000000000000000000000000000000000000000000000000030000000000000001800000000000000000000000000000000000000000000000000000000000000000000000000000000000050F8BB
:6772440000000000000000000000000000000000000000000000000000000000000000000000000000000000000000000000000000000C0000000000000006000000000000000000000000000000000000000000000000000000000000000000000000000000000000C8FD0C
:6772AB000000000000000000000000000000000000000000000000000000000000000000000000000000000000000000000000000000080000000000000004000000000000000000000000000000000000000000000000000000000000000000000000000000000000A8F9CF
:6773120008000000000000000000000000000000000000000000000000000000000000000000000000000000000000000000000000000000000000000000000000000000000000000000000000000000000000000000000000000000000000000000000000000000004AFBC7
:677379000000000000000000000000000000000000000000000000000000000000000000000000000000000000000000000000000000000000000000000000000000000000000000000000000000000000000000000000000000000000000000000000000000000000E0F9D4
:6773E0000000000000000000000000000000000000000000000000000000000000000000000000000000000000000000000000000000000000000000000000000000000000000000000000000000000000000000000000000000000000000000000000000000000000E0F96D
:677447000400000000000000000000000000000000000000000000000000000000000000000000000000000000000000000000000000000000000000000000000000000000000000000000000000000000000000000000000000000000000000000000000000000000F1FCED
:6774AE00000000000000000000000000000000000000000000000000000000000000000000000000000000000000000000000000000014000000000000000A00000000000000000000000000000000000000000000000000000000000000000000000000000000000010FD4C
:677515000000000000000000000000000000000000000000000000000000000000000000000000000000000000000000000000000000000000000000000000000000000000000000000000000000000000000000000000000000000000000000000000000000000000E0F936
:67757C00000000000000000000000000000000000000000000000000000000000000000000000000000000000000000000000000000010000000000000000800000000000000000000000000000000000000000000000000000000000000000000000000000000000070F927
