:020000040000FA
:39000000FFFF62FF3600FFFFFFFFFFFFFFFFFFFFFFFFFFFFFFFFFFFFFFFFFFFFFFFFFFFFFFFFFFFFFFFFFFFFFFFFFFFFFFFFFFFFFFFFFFFFFFFFFFFFFF65
:39003900000C8001300006C00018000360000C800130000600000000000000000000000000000000300006C00018000360000C8001300006C0001880F948
:390072000012400248000920012480049000124002480009000000000000000000000000000000004800092001248004900012400248000920012480F9A5
:3900AB000000000000000000000000000000000000000000000000000000000000000000000000000000000000000000000000000000000000000080F9A3
:3900E4000000000000000000000000000000000000000000000000000000000000000000000000000000000000000000000000000000000000000080F96A
:39011D000000000000000000000000000000000000000000000000000000000000000000000000000000000000000000000000000000000000000080F930
:390156000000000000000000000000000000000000000000000000000000000000000100000000000000000000000000000000000000000000000080E807
:39018F000000000000000000000000000000000000000000000000000000000000000000000000000000000000000000000000000000000000000080F9BE
:3901C8000000000000000000000000000000000000000000000000000000000000000000000000000000000000000000000000000000000000000080F985
:390201000000000000000000000000000000000000000000000000000000000000000000000000000000000000000000000000000000000000000080F94B
:39023A000000000000000000000000000000000000000000000000000000000000000000000000000000000000000000000000000000000000000080F912
:390273000000000000000000000000000000000000000000000000000000000000000000000000000000000000000000000000000000000000000080F9D9
:3902AC000000000000000000000000000000000000000000000000000000000000000000000000000000000000000000000000000000000000000080F9A0
:3902E5000000000000000000000000000000000000000000000000000000000000000000000000000000000000000000000000000000000000000080F967
:39031E000000000000000000000000000000000000000000000000000000000000000000000000000000000000000000000000000000000000000080F92D
:390357000000000000000000000000000000000000000000000000000000000000000000000000000000000000000000000000000000000000000080F9F4
:390390000000000000000000000000000000000000000000000000000000000000000000000000000000000000000000000000000000000000000080F9BB
:3903C9000000000000000000000000000000000000000000000000000000000000000000000000000000000000000000000000000000000000000080F982
:390402000800000000000000000000000000000000000000000000000000000000000000000000000000000000000000000000000000000000000020DBBE
:39043B000000000000000000000000000000000000000000000000000000000000000000000000000000000000000000000000000000000000000080F90F
:390474000000000000000000000000000000000000000000000000000000000000000000000000000000000000000000000000000000000000000080F9D6
:3904AD000400000000000000000000000000000000000000000000000000000000000000000000000000000000000000000000000000000000000090ACD6
:3904E6000000000000000000000000000000000000000000000000000000000000000000000000000000000000000000000000000000000000000080F964
:39051F000000000000000000000000000000000000000000000000000000000000000000000000000000000000000000000000000000000000000080F92A
:390558000000000000000000000000000000000000000000000000000000000000000000000000000000000000000000000000000000000000000080F9F1
:390591000000000000000000000000000000000000000000000000000000000000000000000000000000000000000000000000000000000000000080F9B8
:3905CA000800000000000000000000000000000000000000000000000000000000000000000000000000000000000000000000000000000000000020DBF5
:390603000000000000000000000000000000000000000000000000000000000000000000000000000000000000000000000000000000000000000080F945
:39063C000000000000000000000000000000000000000000000000000000000000000000000000000000000000000000000000000000000000000080F90C
:390675000400000000000000000000000000000000000000000000000000000000000000000000000000000000000000000000000000000000000090AC0C
:3906AE000000000000000000000000000000000000000000000000000000000000000000000000000000000000000000000000000000000000000080F99A
:3906E7000000000000000000000000000000000000000000000000000000000000000000000000000000000000000000000000000000000000000080F961
:390720000000000000000000000000000000000000000000000000000000000000000000000000000000000000000000000000000000000000000080F927
:390759000000000000000000000000000000000000000000000000000000000000000000000000000000000000000000000000000000000000000080F9EE
:390792000800000000000000000000000000000000000000000000000000000000000000000000000000000000000000000000000000000000000020DB2B
:3907CB000000000000000000000000000000000000000000000000000000000000000000000000000000000000000000000000000000000000000080F97C
:390804000000000000000000000000000000000000000000000000000000000000000000000000000000000000000000000000000000000000000080F942
:39083D000400000000000000000000000000000000000000000000000000000000000000000000000000000000000000000000000000000000000090AC42
:390876000000000000000000000000000000000000000000000000000000000000000000000000000000000000000000000000000000000000000080F9D0
:3908AF000000000000000000000000000000000000000000000000000000000000000000000000000000000000000000000000000000000000000080F997
:3908E8000000000000000000000000000000000000000000000000000000000000000000000000000000000000000000000000000000000000000080F95E
:390921000000000000000000000000000000000000000000000000000000000000000000000000000000000000000000000000000000000000000080F924
:39095A000800000000000000000000000000000000000000000000000000000000000000000000000000000000000000000000000000000000000020DB61
:390993000000000000000000000000000000000000000000000000000000000000000000000000000000000000000000000000000000000000000080F9B2
:3909CC000000000000000000000000000000000000000000000000000000000000000000000000000000000000000000000000000000000000000080F979
:390A05000400000000000000000000000000000000000000000000000000000000000000000000000000000000000000000000000000000000000090AC78
:390A3E000000000000000000000000000000000000000000000000000000000000000000000000000000000000000000000000000000000000000080F906
:390A77000000000000000000000000000000000000000000000000000000000000000000000000000000000000000000000000000000000000000080F9CD
:390AB0000000000000000000000000000000000000000000000000000000000000000000000000000000000000000000000000000000000000000080F994
:390AE9000000000000000000000000000000000000000000000000000000000000000000000000000000000000000000000000000000000000000080F95B
:390B22000800000000000000000000000000000000000000000000000000000000000000000000000000000000000000000000000000000000000020DB97
:390B5B000000000000000000000000000000000000000000000000000000000000000000000000000000000000000000000000000000000000000080F9E8
:390B94000000000000000000000000000000000000000000000000000000000000000000000000000000000000000000000000000000000000000080F9AF
:390BCD000400000000000000000000000000000000000000000000000000000000000000000000000000000000000000000000000000000000000090ACAF
:390C06000000000000000000000000000000000000000000000000000000000000000000000000000000000000000000000000000000000000000080F93C
:390C3F000000000000000000000000000000000000000000000000000000000000000000000000000000000000000000000000000000000000000080F903
:390C78000000000000000000000000000000000000000000000000000000000000000000000000000000000000000000000000000000000000000080F9CA
:390CB1000000000000000000000000000000000000000000000000000000000000000000000000000000000000000000000000000000000000000080F991
:390CEA000800000000000000000000000000000000000000000000000000000000000000000000000000000000000000000000000000000000000020DBCE
:390D23000000000000000000000000000000000000000000000000000000000000000000000000000000000000000000000000000000000000000080F91E
:390D5C000000000000000000000000000000000000000000000000000000000000000000000000000000000000000000000000000000000000000080F9E5
:390D95000400000000000000000000000000000000000000000000000000000000000000000000000000000000000000000000000000000000000090ACE5
:390DCE000000000000000000000000000000000000000000000000000000000000000000000000000000000000000000000000000000000000000080F973
:390E07000000000000000000000000000000000000000000000000000000000000000000000000000000000000000000000000000000000000000080F939
:390E40000000000000000000000000000000000000000000000000000000000000000000000000000000000000000000000000000000000000000080F900
:390E79000000000000000000000000000000000000000000000000000000000000000000000000000000000000000000000000000000000000000080F9C7
:390EB2000800000000000000000000000000000000000000000000000000000000000000000000000000000000000000000000000000000000000020DB04
:390EEB000000000000000000000000000000000000000000000000000000000000000000000000000000000000000000000000000000000000000080F955
:390F24000000000000000000000000000000000000000000000000000000000000000000000000000000000000000000000000000000000000000080F91B
:390F5D000400000000000000000000000000000000000000000000000000000000000000000000000000000000000000000000000000000000000090AC1B
:390F96000000000000000000000000000000000000000000000000000000000000000000000000000000000000000000000000000000000000000080F9A9
:390FCF000000000000000000000000000000000000000000000000000000000000000000000000000000000000000000000000000000000000000080F970
:391008002000048000100002400008000120000480001000000000000000000000000000000000800010000240000800012000048000100002400080F9B2
:391041000000000000000000000000000000000000000000000000000000000000000000000000000000000000000000000000000000000000000080F9FD
:39107A002800048000100002400008000120000480001000000000000000000000000000000000800010000240000800012000048000100002400020DBB6
:3910B3000000000000000000000000000000000000000000000000000000000000000000000000000000000000000000000000000000000000000080F98B
:3910EC002000048000100002400008000120000480001000000000000000000000000000000000800010000240000800012000048000100002400080F9CE
:391125000400000000000000000000000000000000000000000000000000000000000000000000000000000000000000000000000000000000000090AC51
:39115E002000048000100002400008000120000480001000000000000000000000000000000000800010000240000800012000048000100002400080F95B
:391197000000000000000000000000000000000000000000000000000000000000000000000000000000000000000000000000000000000000000080F9A6
:3911D0000000000000000000000000000000000000000000000000000000000000000000000000000000000000000000000000000000000000000080F96D
:391209000000000000000000000000000000000000000000000000000000000000000000000000000000000000000000000000000000000000000080F933
:391242000000000000000000000000000000000000000000000000000000000000000000000000000000000000000000000000000000000000000080F9FA
:39127B000000000000000000000000000000000000000000000000000000000000000000000000000000000000000000000000000000000000000080F9C1
:3912B4000000000000000000000000000000000000000000000000000000000000000000000000000000000000000000000000000000000000000080F988
:3912ED000000000000000000000000000000000000000000000000000000000000000000000000000000000000000000000000000000000000000080F94F
:391326000000000000000000000000000000000000000000000000000000000000000000000000000000000000000000000000000000000000000080F915
:39135F000000000000000000000000000000000000000000000000000000000000000000000000000000000000000000000000000000000000000080F9DC
:391398000000000000000000000000000000000000000000000000000000000000000000000000000000000000000000000000000000000000000080F9A3
:3913D1000000000000000000000000000000000000000000000000000000000000000000000000000000000000000000000000000000000000000080F96A
:39140A000000000000000000000000000000000000000000000000000000000000000000000000000000000000000000000000000000000000000080F930
:391443000000000000000000000000000000000000000000000000000000000000000000000000000000000000000000000000000000000000000080F9F7
:39147C000000000000000000000000000000000000000000000000000000000000000000000000000000000000000000000000000000000000000080F9BE
:3914B5000000000000000000000000000000000000000000000000000000000000000000000000000000000000000000000000000000000000000080F985
:3914EE000000000000000000000000000000000000000000000000000000000000000000000000000000000000000000000000000000000000000080F94C
:391527000000000000000000000000000000000000000000000000000000000000000000000000000000000000000000000000000000000000000080F912
:391560000000000000000000000000000000000000000000000000000000000000000000000000000000000000000000000000000000000000000080F9D9
:391599000000000000000000000000000000000000000000000000000000000000000000000000000000000000000000000000000000000000000080F9A0
:3915D2000000000000000000000000000000000000000000000000000000000000000000000000000000000000000000000000000000000000000080F967
:39160B000000000000000000000000000000000000000000000000000000000000000000000000000000000000000000000000000000000000000080F92D
:391644000000000000000000000000000000000000000000000000000000000000000000000000000000000000000000000000000000000000000080F9F4
:39167D000000000000000000000000000000000000000000000000000000000000000000000000000000000000000000000000000000000000000080F9BB
:3916B6000000000000000000000000000000000000000000000000000000000000000000000000000000000000000000000000000000000000000080F982
:3916EF000000000000000000000000000000000000000000000000000000000000000000000000000000000000000000000000000000000000000080F949
:391728000000000000000000000000000000000000000000000000000000000000000000000000000000000000000000000000000000000000000080F90F
:391761000000000000000000000000000000000000000000000000000000000000000000000000000000000000000000000000000000000000000080F9D6
:39179A000000000000000000000000000000000000000000000000000000000000000000000000000000000000000000000000000000000000000080F99D
:3917D3000000000000000000000000000000000000000000000000000000000000000000000000000000000000000000000000000000000000000080F964
:39180C000000000000000000000000000000000000000000000000000000000000000000000000000000000000000000000000000000000000000080F92A
:391845000000000000000000000000000000000000000000000000000000000000000000000000000000000000000000000000000000000000000080F9F1
:39187E000000000000000000000000000000000000000000000000000000000000000000000000000000000000000000000000000000000000000080F9B8
:3918B7000000000000000000000000000000000000000000000000000000000000000000000000000000000000000000000000000000000000000080F97F
:3918F0000000000000000000000000000000000000000000000000000000000000000000000000000000000000000000000000000000000000000080F946
:391929000000000000000000000000000000000000000000000000000000000000000000000000000000000000000000000000000000000000000080F90C
:391962000000000000000000000000000000000000000000000000000000000000000000000000000000000000000000000000000000000000000080F9D3
:39199B000000000000000000000000000000000000000000000000000000000000000000000000000000000000000000000000000000000000000080F99A
:3919D4000000000000000000000000000000000000000000000000000000000000000000000000000000000000000000000000000000000000000080F961
:391A0D000000000000000000000000000000000000000000000000000000000000000000000000000000000000000000000000000000000000000080F927
:391A46000000000000000000000000000000000000000000000000000000000000000000000000000000000000000000000000000000000000000080F9EE
:391A7F000000000000000000000000000000000000000000000000000000000000000000000000000000000000000000000000000000000000400080B9B5
:391AB8000000000000000000000000000000000000000000000000000000000000000000000000000000000000000000000000000000000000000080F97C
:391AF1000000000000000000000000000000000000000000000000000000000000000000000000000000000000000000000000000000000000000381DA5E
:391B2A000000000000000000000000000000000000000000000000000000000000000000000000000000000000000000000000000000000000000B00CAAD
:391B63000000000000000000000000000000000000000000000000000000000000000000000000000000000000000000000000000000000000002082DBCC
:391B9C000000000000000000000000000000000000000000000000000000000000000000000000000000000000000000000000000000000000C0030082CB
:391BD5000000000000000000000000000000000000000000000000000000000000000000000000000000000000000000000000000000000000000080F95E
:391C0E000000000000000000000000000000000000000000000000000000000000000000000000000000000000000000000000000000000000000B02EAA6
:391C4700000000000000000000000000000000000000000000000000000000C0000000000000006000000000000000000000000000000000000000C0D1B3
:391C80000000000000000000000000000000000000000000000000000000003000000000000000180000000000000000000000000000000000000080E281
:391CB9000000000000000000000000000000000000000000000000000000002000000000000000100000000000000000000000000000000000000080EB57
:391CF2000800000000000000000000000000000000000000000000000000000000000000000000000000000000000000000000000000000000000030CAB7
:391D2B000000000000000000000000000000000000000000000000000000000000000000000000000000000000000000000000000000000000000090E807
:391D64000000000000000000000000000000000000000000000000000000000000000000000000000000000000000000000000000000000000000080F9CD
:391D9D0004000000000000000000000000000000000000000000000000000000000000000000000000000000000000000000000000000000000000B08ECB
:391DD6000000000000000000000000000000000000000000000000000000003000000000000000180000000000000000000000000000000000000080E22A
:391E0F000000000000000000000000000000000000000000000000000000000000000000000000000000000000000000000000000000000000400080B921
:391E48000000000000000000000000000000000000000000000000000000002000000000000000100000000000000000000000000000000000000080EBC6
:391E81000000000000000000000000000000000000000000000000000000000800000000000000040000000000000000000000000000000000000300CE4B
:391EBA000800000000000000000000000000000000000000000000000000003000000000000000180000000000000000000000000000000000000BA4B33D
:391EF3000000000000000000000000000000000000000000000000000000000000000000000000000000000000000000000000000000000000002082DB39
:391F2C000000000000000000000000000000000000000000000000000000002000000000000000100000000000000000000000000000000000C0030090F9
:391F65000400000000000000000000000000000000000000000000000000000800000000000000040000000000000000000000000000000000000010A87B
:391F9E000000000000000000000000000000000000000000000000000000003000000000000000180000000000000000000000000000000000001384909B
:391FD70000000000000000000000000000000000000000000000000000000000000000000000000000000000000000000000000000000000000000C0BD54
:392010000000000000000000000000000000000000000000000000000000002000000000000000100000000000000000000000000000000000000080EBFC
:392049000000000000000000000000000000000000000000000000000000000800000000000000040000000000000000000000000000000000000000FD55
:392082000800000000000000000000000000000000000000000000000000003000000000000000180000000000000000000000000000000000000030D1D4
:3920BB000000000000000000000000000000000000000000000000000000000000000000000000000000000000000000000000000000000000000090E874
:3920F40000000000000000000000000000000000000000000C0000000000002006000000000000100000000000000000000000000000000000000080876A
:39212D0004000000000000000000000000000000000000000000000000000008000000000000000400000000000000000000000000000000000000308AAF
:392166000000000000000000000000000000000000000000080000000000003004000000000000180000000000000000000000000000000000000080AAC2
:39219F000000000000000000000000000000000000000000020000000000000001000000000000000000000000000000000000000000000000000080EB99
:3921D80000000000000000000000000000000000000000000C00000000000020060000000000001000000000000000000000000000000000000000808785
:392211000000000000000000000000000000000000000000000000000000000800000000000000040000000000000000000000000000000000000000FD8B
:39224A0008000000000000000000000000000000000000000800000000000030040000000000001800000000000000000000000000000000000000208857
:392283000000000000000000000000000000000000000000020000000000000001000000000000000000000000000000000000000000000000000080EBB4
:3922BC0000000000000000000000000000000000000000000C000000000000000600000000000000000000000000000000000000000000000000008095C2
:3922F5000400000000000000000000000000000000000000000000000000000000000000000000000000000000000000000000000000000000000090AC70
:39232E000000000000000000000000000000000000000000080000000000000004000000000000000000000000000000000000000000000000000080B139
:392367000000000000000000000000000000000000000000020000000000000001000000000000000000000000000000000000000000000000000080EBCF
:3923A00000000000000000000000000000000000000000000C000000000000000600000000000000000000000000000000000000000000000000008095DD
:3923D9000000000000000000000000000000000000000000000000000000000000000000000000000000000000000000000000000000000000000080F952
:39241200080000000000000000000000000000000000000008000000000000000400000000000000000000000000000000000000000000000000002093CA
:39244B000000000000000000000000000000000000000000020000000000000001000000000000000000000000000000000000000000000000000080EBEA
:3924840000000000000000000000000000000000000000000C000000000000000600000000000000000000000000000000000000000000000000008095F8
:3924BD000400000000000000000000000000000000000000000000000000000000000000000000000000000000000000000000000000000000000090ACA6
:3924F6000000000000000000000000000000000000000000080000000000000004000000000000000000000000000000000000000000000000000080B170
:39252F000000000000000000000000000000000000000000020000000000000001000000000000000000000000000000000000000000000000000080EB05
:3925680000000000000000000000000000000000000000000C00000000000000060000000000000000000000000000000000000000000000000000809513
:3925A1000000000000000000000000000000000000000000000000000000000000000000000000000000000000000000000000000000000000000080F988
:3925DA000800000000000000000000000000000000000000000000000000003000000000000000180000000000000000000000000000000000000020C098
:392613000000000000000000000000000000000000000000000000000000000000000000000000000000000000000000000000000000000000000080F915
:39264C000000000000000000000000000000000000000000000000000000000000000000000000000000000000000000000000000000000000000080F9DC
:392685000400000000000000000000000000000000000000000000000000000000000000000000000000000000000000000000000000000000000090ACDC
:3926BE000000000000000000000000000000000000000000000000000000000000000000000000000000000000000000000000000000000000000080F96A
:3926F7000000000000000000000000000000000000000000000000000000000000000000000000000000000000000000000000000000000000000080F931
:392730000000000000000000000000000000000000000000000000000000000000000000000000000000000000000000000000000000000000000080F9F7
:392769000000000000000000000000000000000000000000000000000000000000000000000000000000000000000000000000000000000000000080F9BE
:3927A20008000000000000000000000000000000000000001000000000000060080000000000003000000000000000000000000000000000000000A0F5B9
:3927DB0000000000000000000000000000000000000000000800000000000040040000000000002000000000000000000000000000000000000000809544
:392814000000000000000000000000000000000000000000100000000000006008000000000000300000000000000000000000000000000000000000D70C
:39284D0004000000000000000000000000000000000000001A000000000000400D000000000000200000000000000000000000000000000000000010CAED
:392886000000000000000000000000000000000000000000100000000000003008000000000000180000000000000000000000000000000000000000FABF
:3928BF000000000000000000000000000000000000000000100000000000000008000000000000000000000000000000000000000000000000000000E1E7
:3928F8002000048000100002400008000120000480001000000000000000004000000000000000A00010000240000800012000048000100002400080DD66
:392931000000000000000000000000000000000000000000000000000000000000000000000000000000000000000000000000000000000000000080F9F4
:39296A002800048000100002400008000120000480001000000000000000000000000000000000800010000240000800012000048000100002400020DBAD
:3929A3000000000000000000000000000000000000000000000000000000000000000000000000000000000000000000000000000000000000000080F982
:3929DC002000048000100002400008000120000480001000000000000000000000000000000000800010000240000800012000048000100002400080F9C5
:392A15000400000000000000000000000000000000000000000000000000000000000000000000000000000000000000000000000000000000000090AC48
:392A4E002000048000100002400008000120000480001000000000000000000000000000000000800010000240000800012000048000100002400080F952
:392A87000000000000000000000000000000000000000000000000000000000000000000000000000000000000000000000000000000000000000080F99D
:392AC0000000000000000000000000000000000000000000000000000000000000000000000000000000000000000000000000000000000000000080F964
:392AF9000000000000000000000000000000000000000000000000000000000000000000000000000000000000000000000000000000000000000080F92B
:392B32000000000000000000000000000000000000000000000000000000000000000000000000000000000000000000000000000000000000000080F9F1
:392B6B000000000000000000000000000000000000000000000000000000000000000000000000000000000000000000000000000000000000000080F9B8
:392BA4000000000000000000000000000000000000000000000000000000000000000000000000000000000000000000000000000000000000000080F97F
:392BDD000000000000000000000000000000000000000000000000000000000000000000000000000000000000000000000000000000000008040000F5BE
:392C160000000000000000000000000000000000000000000000000000000000000000000000000000000000000000000000000000000000000000C0BD08
:392C4F000000000000000000000000000000000000000000000000000000000000000000000000000000000000000000000000000000000004080080B10F
:392C880000000000000000000000000000000000000000000000000000000000000000000000000000000000000000000000000000000000C0000000BD96
:392CC1000000000000000000000000000000000000000000000000000000000000000000000000000000000000000000000000000000000000000080F961
:392CFA0000000000000000000000000000000000000000000000000000000000000000000000000000000000000000000000000000000000000000D0AC25
:392D33000000000000000000000000000000000000000000000000000000000000000000000000000000000000000000000000000000000000000080F9EE
:392D6C000000000000000000000000000000000000000000000000000000000000000000000000000000000000000000000000000000000000000080F9B5
:392DA5000000000000000000000000000000000000000000000000000000000000000000000000000000000000000000000000000000000000000080F97C
:392DDE000000000000000000000000000000000000000000000000000000000000000000000000000000000000000000000000000000000000000080F943
:392E17000000000000000000000000000000000000000000000000000000000000000000000000000000000000000000000000000000000000000080F909
:392E50000000000000000000000000000000000000000000000000000000000000000000000000000000000000000000000000000000000000000080F9D0
:392E89000000000000000000000000000000000000000000000000000000000000000000000000000000000000000000000000000000000000000080F997
:392EC2000000000000000000000000000000000000000000080000600000000004000030000000000000000000000000000000000000000000000080E2D9
:392EFB000000000000000000000000000000000000000000000000000000000000000000000000000000000000000000000000000000000000000090E826
:392F34000000000000000000000000000000000000000000000000000000000000000000000000000000000000000000000000000000000000000800F963
:392F6D000000000000000000000000000000000000000000000000000000000000000000000000000000000000000000000000000000000000000080F9B2
:392FA6000000000000000000000000000000000000000000000000000000000000000000000000000000000000000000000000000000000000000080F979
:392FDF000000000000000000000000000000000000000000000000000000000000000000000000000000000000000000000000000000000000000080F940
:393018000000000000000000000000000000000000000000000000600000000000000030000000000000000000000000000000000000000008000000A245
:393051000000000000000000000000000000000000000000000000400000000000000020000000000000000000000000000000000000000002000080BBA9
:39308A000000000000000000000000000000000000000000000000200000000000000010000000000000000000000000000000000000000000000080C895
:3930C3000000000000000000000000000000000000000000000000000000000000000000000000000000000000000000000000000000000000000180E86B
:3930FC000000000000000000000000000000000000000000000000000000000000000000000000000000000000000000000000000000000000000080F922
:393135000000000000000000000000000000000000000000000000000000000000000000000000000000000000000000000000000000000000000080F9E8
:39316E000000000000000000000000000000000000000000000000000000000000000000000000000000000000000000000000000000000000000080F9AF
:3931A7000000000000000000000000000000000000000000000000000000000000000000000000000000000000000000000000000000000000000080F976
:3931E0000000000000000000000000000000000000000000000000000000000000000000000000000000000000000000000000000000000000008080F1C5
:393219000000000000000000000000000000000000000000000000000000000000000000000000000000000000000000000000000000000000000082D921
:393252000000000000000000000000000000000000000000000000000000000000000000000000000000000000000000000000000000000000000080F9CA
:39328B000000000000000000000000000000000000000000000000000000000000000000000000000000000000000000000000000000000000000080F991
:3932C4000000000000000000000000000000000000000000000000000000000000000000000000000000000000000000000000000000000000000080F958
:3932FD000000000000000000000000000000000000000000000000000000000000000000000000000000000000000000000000000000000000000084B95B
:393336000000000000000000000000000000000000000000000000000000000000000000000000000000000000000000000000000000000000000080F9E5
:39336F000000000000000000000000000000000000000000000000000000000000000000000000000000000000000000000000000000000000000080F9AC
:3933A8000000000000000000000000000000000000000000000000000000000000000000000000000000000000000000000000000000000000000080F973
:3933E1000000000000000000000000000000000000000000000000000000000000000000000000000000000000000000000000000000000000000080F93A
:39341A000000000000000000000000000000000000000000000000000000000000000000000000000000000000000000000000000000000000000080F900
:393453000000000000000000000000000000000000000000000000000000000000000000000000000000000000000000000000000000000000000080F9C7
:39348C000000000000000000000000000000000000000000000000000000000000000000000000000000000000000000000000000000000000000080F98E
:3934C5000000000000000000000000000000000000000000000000000000000000000000000000000000000000000000000000000000000000000080F955
:3934FE000000000000000000000000000000000000000000000000000000000000000000000000000000000000000000000000000000000000000080F91C
:39353700000000000000000000000000000000000000000000000000000000C0000000000000006000000000000000000000000000000000000000809526
:393570000000000000000000000000000000000000000000000000000000003000000000000000180000000000000000000000000000000000000080E278
:3935A9000000000000000000000000000000000000000000000000000000002000000000000000100000000000000000000000000000000000000080EB4E
:3935E2000800000000000000000000000000000000000000000000000000000000000000000000000000000000000000000000000000000000000020DBAD
:39361B000000000000000000000000000000000000000000000000000000000000000000000000000000000000000000000000000000000000000080F9FD
:393654000000000000000000000000000000000000000000000000000000000000000000000000000000000000000000000000000000000000000080F9C4
:39368D000400000000000000000000000000000000000000000000000000000000000000000000000000000000000000000000000000000000000090ACC4
:3936C6000000000000000000000000000000000000000000000000000000003000000000000000180000000000000000000000000000000000000080E221
:3936FF000000000000000000000000000000000000000000000000000000000000000000000000000000000000000000000000000000000000000080F919
:393738000000000000000000000000000000000000000000000000000000002000000000000000100000000000000000000000000000000000000080EBBD
:393771000000000000000000000000000000000000000000000000000000000800000000000000040000000000000000000000000000000000000000FD16
:3937AA000800000000000000000000000000000000000000000000000000003000000000000000180000000000000000000000000000000000000020C0B6
:3937E3000000000000000000000000000000000000000000000000000000000000000000000000000000000000000000000000000000000000000080F934
:39381C000000000000000000000000000000000000000000000000000000002000000000000000100000000000000000000000000000000000000080EBD8
:393855000400000000000000000000000000000000000000000000000000000800000000000000040000000000000000000000000000000000000010A872
:39388E000000000000000000000000000000000000000000000000000000003000000000000000180000000000000000000000000000000000000080E257
:3938C7000000000000000000000000000000000000000000000000000000000000000000000000000000000000000000000000000000000000000080F94F
:393900000000000000000000000000000000000000000000000000000000002000000000000000100000000000000000000000000000000000000080EBF3
:393939000000000000000000000000000000000000000000000000000000000800000000000000040000000000000000000000000000000000000000FD4C
:393972000800000000000000000000000000000000000000000000000000003000000000000000180000000000000000000000000000000000000020C0EC
:3939AB000000000000000000000000000000000000000000000000000000000000000000000000000000000000000000000000000000000000000080F96A
:3939E40000000000000000000000000000000000000000000C00000000000020060000000000001000000000000000000000000000000000000000808761
:393A1D000400000000000000000000000000000000000000000000000000000800000000000000040000000000000000000000000000000000000010A8A8
:393A56000000000000000000000000000000000000000000080000000000003004000000000000180000000000000000000000000000000000000080AAB9
:393A8F000000000000000000000000000000000000000000020000000000000001000000000000000000000000000000000000000000000000000080EB90
:393AC80000000000000000000000000000000000000000000C0000000000002006000000000000100000000000000000000000000000000000000080877C
:393B01000000000000000000000000000000000000000000000000000000000800000000000000040000000000000000000000000000000000000000FD82
:393B3A000800000000000000000000000000000000000000080000000000003004000000000000180000000000000000000000000000000000000020884E
:393B73000000000000000000000000000000000000000000020000000000000001000000000000000000000000000000000000000000000000000080EBAB
:393BAC0000000000000000000000000000000000000000000C000000000000000600000000000000000000000000000000000000000000000000008095B9
:393BE5000400000000000000000000000000000000000000000000000000000000000000000000000000000000000000000000000000000000000090AC67
:393C1E000000000000000000000000000000000000000000080000000000000004000000000000000000000000000000000000000000000000000080B130
:393C57000000000000000000000000000000000000000000020000000000000001000000000000000000000000000000000000000000000000000080EBC6
:393C900000000000000000000000000000000000000000000C000000000000000600000000000000000000000000000000000000000000000000008095D4
:393CC9000000000000000000000000000000000000000000000000000000000000000000000000000000000000000000000000000000000000000080F949
:393D0200080000000000000000000000000000000000000008000000000000000400000000000000000000000000000000000000000000000000002093C1
:393D3B000000000000000000000000000000000000000000020000000000000001000000000000000000000000000000000000000000000000000080EBE1
:393D740000000000000000000000000000000000000000000C000000000000000600000000000000000000000000000000000000000000000000008095EF
:393DAD000400000000000000000000000000000000000000000000000000000000000000000000000000000000000000000000000000000000000090AC9D
:393DE6000000000000000000000000000000000000000000080000000000000004000000000000000000000000000000000000000000000000000080B167
:393E1F00000000000000000000000000000000000000000002000000000000000100000000000000000000000000000000000000000000008A080080CB8A
:393E580000000000000000000000000000000000000000000C0000000000000006000000000000000000000000000000000000000000000010000080840B
:393E9100000000000000000000000000000000000000000000000000000000000000000000000000000000000000000000000000000000000E0000009159
:393ECA000800000000000000000000000000000000000000000000000000003000000000000000180000000000000000000000000000000012000020F14C
:393F03000000000000000000000000000000000000000000000000000000000000000000000000000000000000000000000000000000000008000000F18C
:393F3C000000000000000000000000000000000000000000000000000000000000000000000000000000000000000000000000000000000016000080882E
:393F75000400000000000000000000000000000000000000000000000000000000000000000000000000000000000000000000000000000008000010A453
:393FAE000000000000000000000000000000000000000000000000000000000000000000000000000000000000000000000000000000000010000080E862
:393FE700000000000000000000000000000000000000000000000000000000000000000000000000000000000000000000000000000000000A050000D4BE
:394020000000000000000000000000000000000000000000000000000000000000000000000000000000000000000000000000000000000010000080E8EF
:394059000000000000000000000000000000000000000000000000000000000000000000000000000000000000000000000000000000000008000000F135
:3940920008000000000000000000000000000000000000001000000000000060080000000000003000000000000000000000000000000000100000A0E4B1
:3940CB0000000000000000000000000000000000000000000800000000000040040000000000002000000000000000000000000000000000080000009DAB
:394104000000000000000000000000000000000000000000100000000000006008000000000000300000000000000000000000000000000016000000A61E
:39413D0004000000000000000000000000000000000000001A000000000000400D000000000000200000000000000000000000000000000008000090C264
:394176000000000000000000000000000000000000000000100000000000003008000000000000180000000000000000000000000000000010000000EBB5
:3941AF000000000000000000000000000000000000000000100000000000002008000000000000100000000000000000000000000000000000000000F39C
:3941E8002000048000100002400008000120000480001000000000000000004000000000000000A00010000240000800012000048000100002400080DD5D
:394221000000000000000000000000000000000000000000000000000000000000000000000000000000000000000000000000000000000000000080F9EB
:39425A002800048000100002400008000120000480001000000000000000000000000000000000800010000240000800012000048000100002400020DBA4
:394293000000000000000000000000000000000000000000000000000000000000000000000000000000000000000000000000000000000010000080E87A
:3942CC002000048000100002400008000120000480001000000000000000000000000000000000800010000240000800012000048000100000400080D9DE
:394305000400000000000000000000000000000000000000000000000000000000000000000000000000000000000000000000000000000000000090AC3F
:39433E002000048000100002400008000120000480001000000000000000000000000000000000800010000240000800012000048000100002400080F949
:394377000000000000000000000000000000000000000000000000000000000000000000000000000000000000000000000000000000000000000080F994
:3943B0000000000000000000000000000000000000000000000000000000000000000000000000000000000000000000000000000000000000000080F95B
:3943E9000000000000000000000000000000000000000000000000000000000000000000000000000000000000000000000000000000000000000080F922
:394422000000000000000000000000000000000000000000000000000000000000000000000000000000000000000000000000000000000000000080F9E8
:39445B000000000000000000000000000000000000000000000000000000000000000000000000000000000000000000000000000000000000000080F9AF
:394494000000000000000000000000000000000000000000000000000000000000000000000000000000000000000000000000000000000000000080F976
:3944CD000000000000000000000000000000000000000000000000000000000000000000000000000000000000000000000000000000000000000080F93D
:394506000000000000000000000000000000000000000000000000000000000000000000000000000000000000000000000000000000000000000080F903
:39453F000000000000000000000000000000000000000000000000000000000000000000000000000000000000000000000000000000000000000080F9CA
:394578000000000000000000000000000000000000000000000000000000000000000000000000000000000000000000000000000000000000000080F991
:3945B1000000000000000000000000000000000000000000000000000000000000000000000000000000000000000000000000000000000000000080F958
:3945EA000000000000000000000000000000000000000000000000000000000000000000000000000000000000000000000000000000000000000080F91F
:394623000000000000000000000000000000000000000000000000000000000000000000000000000000000000000000000000000000000000000080F9E5
:39465C000000000000000000000000000000000000000000000000000000000000000000000000000000000000000000000000000000000000000080F9AC
:394695000000000000000000000000000000000000000000000000000000000000000000000000000000000000000000000000000000000000000080F973
:3946CE000000000000000000000000000000000000000000000000000000000000000000000000000000000000000000000000000000000000000080F93A
:394707000000000000000000000000000000000000000000000000000000000000000000000000000000000000000000000000000000000000000080F900
:394740000000000000000000000000000000000000000000000000000000000000000000000000000000000000000000000000000000000000000080F9C7
:394779000000000000000000000000000000000000000000000000000000000000000000000000000000000000000000000000000000000000000080F98E
:3947B2000000000000000000000000000000000000000000080000600000000004000030000000000000000000000000000000000000000008000000EA40
:3947EB000000000000000000000000000000000000000000000000000000000000000000000000000000000000000000000000000000000000000080F91C
:394824000000000000000000000000000000000000000000000000000000000000000000000000000000000000000000000000000000000000000080F9E2
:39485D000000000000000000000000000000000000000000000000000000000000000000000000000000000000000000000000000000000000000080F9A9
:394896000000000000000000000000000000000000000000000000000000000000000000000000000000000000000000000000000000000000000080F970
:3948CF000000000000000000000000000000000000000000000000080000000000000004000000000000000000000000000000000000000000000080B173
:394908000000000000000000000000000000000000000000000000000000000000000000000000000000000000000000000000000000000002000080D91B
:394941000000000000000000000000000000000000000000000000000000000000000000000000000000000000000000000000000000000000000080F9C4
:39497A000000000000000000000000000000000000000000000000000000000000000000000000000000000000000000000000000000000000000080F98B
:3949B3000000000000000000000000000000000000000000000000000000000000000000000000000000000000000000000000000000000000000080F952
:3949EC000000000000000000000000000000000000000000000000000000000000000000000000000000000000000000000000000000000000000080F919
:394A25000000000000000000000000000000000000000000000000000000000000000000000000000000000000000000000000000000000000000080F9DF
:394A5E000000000000000000000000000000000000000000000000000000000000000000000000000000000000000000000000000000000000000080F9A6
:394A97000000000000000000000000000000000000000000000000000000000000000000000000000000000000000000000000000000000000000080F96D
:394AD0000000000000000000000000000000000000000000000000000000000000000000000000000000000000000000000000000000000000000080F934
:394B09000000000000000000000000000000000000000000000000000000000000000000000000000000000000000000000000000000000000000080F9FA
:394B42000000000000000000000000000000000000000000000000000000000000000000000000000000000000000000000000000000000000000080F9C1
:394B7B000000000000000000000000000000000000000000000000000000000000000000000000000000000000000000000000000000000000000080F988
:394BB4000000000000000000000000000000000000000000000000000000000000000000000000000000000000000000000000000000000000000080F94F
:394BED000000000000000000000000000000000000000000000000000000000000000000000000000000000000000000000000000000000000000080F916
:394C26000000000000000000000000000000000000000000000000000000000000000000000000000000000000000000000000000000000000000080F9DC
:394C5F000000000000000000000000000000000000000000000000000000000000000000000000000000000000000000000000000000000010000080E8A4
:394C98000000000000000000000000000000000000000000000000000000000000000000000000000000000000000000000000000000000000020080FB66
:394CD1000000000000000000000000000000000000000000000000000000000000000000000000000000000000000000000000000000000000000080F931
:394D0A000000000000000000000000000000000000000000000000000000000000000000000000000000000000000000000000000000000000000080F9F7
:394D430000124002480009200124800490001240024800090000000000000000000000000000000048000920012480049000124002480009A0032400FB83
:394D7C00000C8001300006C00018000360000C800130000600000000000000000000000000000000300006C00018000360000C8001300006C0041880FDB0
:024DB500FFFFFE
:00000001FF
