:020000040000FA
:39000000FFFF62FF3600FFFFFFFFFFFFFFFFFFFFFFFFFFFFFFFFFFFFFFFFFFFFFFFFFFFFFFFFFFFFFFFFFFFFFFFFFFFFFFFFFFFFFFFFFFFFFFFFFFFFFF65
:39003900000C9001300006C00018200360024C800932000600000000000000000000000000000000300006C00418000360000C8001300006C0001800E160
:390072000012E002480009200124C005D0013A40075C000900000000000000000000000000000000480009A003248004900012400248000920012400C475
:3900AB000000000000000000000000000000000000000000000000000000000000000000000000000000000000000000000000000000000000000080F9A3
:3900E4000000000000000000000000000000000000000000000000000000000000000000000000000000000000000000000000000000000000000080F96A
:39011D000000200000000000000040200089200004040000000000000000000000000000000000000000000002000000000000000000000000000080E115
:390156000000880000000000000000010000001000140000000000000000000000000100000000000000000004000000000000000000000000000000BC02
:39018F000000000000000000000000000000000000000000000000000000000000000000000000000000000000000000000000000000000000000080F9BE
:3901C8000000000000000000000000000000000000000000000000000000000000000000000000000000000000000000000000000000000000000080F985
:390201000000000000000000000000000000000000000000000000000000000000000000000000000000000000000000000000000000000000000080F94B
:39023A000000000000000000000000000000000000000000000000000000000000000000000000000000000000000000000000000000000000000080F912
:390273000000000000000000000000000000000000000000000000000000000000000000000000000000000000000000000000000000000000000080F9D9
:3902AC000000000000000000000000000000000000000000000000000000000000000000000000000000000000000000000000000000000000000080F9A0
:3902E5000000000000000000000000000000000000000000000000000000000000000000000000000000000000000000000000000000000000000080F967
:39031E000000000000000000000000000000000000000000000000000000000000000000000000000000000000000000000000000000000000000080F92D
:390357000000000000000000000000000000000000000000000000000000000000000000000000000000000000000000000000000000000000000080F9F4
:390390000000000000000000000000000000000000000000000000000000000000000000000000000000000000000000000000000000000000000080F9BB
:3903C9000000000000000000000000000000000000000000000000000000000000000000000000000000000000000000000000000000000000000080F982
:390402000800000000000000000000000000000000000000000000000000000000000000000000000000000000000000000000000000000000000020DBBE
:39043B000000000000000000000000000000000000000000000000000000000000000000000000000000000000000000000000000000000000000080F90F
:390474000000000000000000000000000000000000000000000000000000000000000000000000000000000000000000000000000000000000000080F9D6
:3904AD000400000000000000000000000000000000000000000000000000000000000000000000000000000000000000000000000000000000000090ACD6
:3904E6000000000000000000000000000000000000000000000000000000000000000000000000000000000000000000000000000000000000000080F964
:39051F000000000000000000000000000000000000000000000000000000000000000000000000000000000000000000000000000000000000000080F92A
:390558000000000000000000000000000000000000000000000000000000000000000000000000000000000000000000000000000000000000000080F9F1
:390591000000000000000000000000000000000000000000000000000000000000000000000000000000000000000000000000000000000000000080F9B8
:3905CA000800000000000000000000000000000000000000000000000000000000000000000000000000000000000000000000000000000000000020DBF5
:390603000000000000000000000000000000000000000000000000000000000000000000000000000000000000000000000000000000000000000080F945
:39063C000000000000000000000000000000000000000000000000000000000000000000000000000000000000000000000000000000000000000080F90C
:390675000400000000000000000000000000000000000000000000000000000000000000000000000000000000000000000000000000000000000090AC0C
:3906AE000000000000000000000000000000000000000000000000000000000000000000000000000000000000000000000000000000000000000080F99A
:3906E7000000000000000000000000000000000000000000000000000000000000000000000000000000000000000000000000000000000000000080F961
:390720000000000000000000000000000000000000000000000000000000000000000000000000000000000000000000000000000000000000000080F927
:390759000000000000000000000000000000000000000000000000000000000000000000000000000000000000000000000000000000000000000080F9EE
:390792000800000000000000000000000000000000000000000000000000000000000000000000000000000000000000000000000000000000000020DB2B
:3907CB000000000000000000000000000000000000000000000000000000000000000000000000000000000000000000000000000000000000000080F97C
:390804000000000000000000000000000000000000000000000000000000000000000000000000000000000000000000000000000000000000000080F942
:39083D000400000000000000000000000000000000000000000000000000000000000000000000000000000000000000000000000000000000000090AC42
:390876000000000000000000000000000000000000000000000000000000000000000000000000000000000000000000000000000000000000000080F9D0
:3908AF000000000000000000000000000000000000000000000000000000000000000000000000000000000000000000000000000000000000000080F997
:3908E8000000000000000000000000000000000000000000000000000000000000000000000000000000000000000000000000000000000000000080F95E
:390921000000000000000000000000000000000000000000000000000000000000000000000000000000000000000000000000000000000000000080F924
:39095A000800000000000000000000000000000000000000000000000000000000000000000000000000000000000000000000000000000000000020DB61
:390993000000000000000000000000000000000000000000000000000000000000000000000000000000000000000000000000000000000000000080F9B2
:3909CC000000000000000000000000000000000000000000000000000000000000000000000000000000000000000000000000000000000000000080F979
:390A05000400000000000000000000000000000000000000000000000000000000000000000000000000000000000000000000000000000000000090AC78
:390A3E000000000000000000000000000000000000000000000000000000000000000000000000000000000000000000000000000000000000000080F906
:390A77000000000000000000000000000000000000000000000000000000000000000000000000000000000000000000000000000000000000000080F9CD
:390AB0000000000000000000000000000000000000000000000000000000000000000000000000000000000000000000000000000000000000000080F994
:390AE9000000000000000000000000000000000000000000000000000000000000000000000000000000000000000000000000000000000000000080F95B
:390B22000800000000000000000000000000000000000000000000000000000000000000000000000000000000000000000000000000000000000020DB97
:390B5B000000000000000000000000000000000000000000000000000000000000000000000000000000000000000000000000000000000000000080F9E8
:390B94000000000000000000000000000000000000000000000000000000000000000000000000000000000000000000000000000000000000000080F9AF
:390BCD000400000000000000000000000000000000000000000000000000000000000000000000000000000000000000000000000000000000000090ACAF
:390C06000000000000000000000000000000000000000000000000000000000000000000000000000000000000000000000000000000000000000080F93C
:390C3F000000000000000000000000000000000000000000000000000000000000000000000000000000000000000000000000000000000000000080F903
:390C78000000000000000000000000000000000000000000000000000000000000000000000000000000000000000000000000000000000000000080F9CA
:390CB1000000000000000000000000000000000000000000000000000000000000000000000000000000000000000000000000000000000000000080F991
:390CEA000800000000000000000000000000000000000000000000000000000000000000000000000000000000000000000000000000000000000020DBCE
:390D23000000000000000000000000000000000000000000000000000000000000000000000000000000000000000000000000000000000000000080F91E
:390D5C000000000000000000000000000000000000000000000000000000000000000000000000000000000000000000000000000000000000000080F9E5
:390D95000400000000000000000000000000000000000000000000000000000000000000000000000000000000000000000000000000000000000090ACE5
:390DCE000000000000000000000000000000000000000000000000000000000000000000000000000000000000000000000000000000000000000080F973
:390E07000000000000000000000000000000000000000000000000000000000000000000000000000000000000000000000000000000000000000080F939
:390E40000000000000000000000000000000000000000000000000000000000000000000000000000000000000000000000000000000000000000080F900
:390E79000000000000000000000000000000000000000000000000000000000000000000000000000000000000000000000000000000000000000080F9C7
:390EB2000800000000000000000000000000000000000000000000000000000000000000000000000000000000000000000000000000000000000020DB04
:390EEB000000000000000000000000000000000000000000000000000000000000000000000000000000000000000000000000000000000000000080F955
:390F24000000000000000000000000000000000000000000000000000000000000000000000000000000000000000000000000000000000000000080F91B
:390F5D000400000000000000000000000000000000000000000000000000000000000000000000000000000000000000000000000000000000000090AC1B
:390F96000000000000000000000000000000000000000000000000000000000000000000000000000000000000000000000000000000000000000080F9A9
:390FCF000000000000000000000000000000000000000000000000000000000000000000000000000000000000000000000000000000000000000080F970
:391008002000048000100002400008000120000480001000000000000000000000000000000000800010000240000800012000048000100002400080F9B2
:391041000000000000000000000000000000000000000000000000000000000000000000000000000000000000000000000000000000000000000080F9FD
:39107A002800048000100002400008000120000480001000000000000000000000000000000000800010000240000800012000048000100002400020DBB6
:3910B3000000000000000000000000000000000000000000000000000000000000000000000000000000000000000000000000000000000000000080F98B
:3910EC002000048000100002400008000120000480001000000000000000000000000000000000800010000240000800012000048000100002400080F9CE
:391125000400000000000000000000000000000000000000000000000000000000000000000000000000000000000000000000000000000000000090AC51
:39115E002000048000100002400008000120000480001000000000000000000000000000000000800010000240000800012000048000100002400080F95B
:391197000000000000000000000000000000000000000000000000000000000000000000000000000000000000000000000000000000000000000080F9A6
:3911D0000000000000000000000000000000000000000000000000000000000000000000000000000000000000000000000000000000000000000080F96D
:391209000000000000000000000000000000000000000000000000000000000000000000000000000000000000000000000000000000000000000080F933
:391242000000000000000000000000000000000000000000000000000000000000000000000000000000000000000000000000000000000000000080F9FA
:39127B000000000000000000000000000000000000000000000000000000000000000000000000000000000000000000000000000000000000000080F9C1
:3912B4000000000000000000000000000000000000000000000000000000000000000000000000000000000000000000000000000000000000000080F988
:3912ED000000000000000000000000000000000000000000000000000000000000000000000000000000000000000000000000000000000000000080F94F
:391326000000000000000000000000000000000000000000000000000000000000000000000000000000000000000000000000000000000000000080F915
:39135F000000000000000000000000000000000000000000000000000000000000000000000000000000000000000000000000000000000000000080F9DC
:391398000000000000000000000000000000000000000000000000000000000000000000000000000000000000000000000000000000000000000080F9A3
:3913D1000000000000000000000000000000000000000000000000000000000000000000000000000000000000000000000000000000000000000080F96A
:39140A000000000000000000000000000000000000000000000000000000000000000000000000000000000000000000000000000000000000000080F930
:391443000000000000000000000000000000000000000000000000000000000000000000000000000000000000000000000000000000000000000080F9F7
:39147C000000000000000000000000000000000000000000000000000000000000000000000000000000000000000000000000000000000000000080F9BE
:3914B5000000000000000000000000000000000000000000000000000000000000000000000000000000000000000000000000000000000000000080F985
:3914EE000000000000000000000000000000000000000000000000000000000000000000000000000000000000000000000000000000000000000080F94C
:391527000000000000000000000000000000000000000000000000000000000000000000000000000000000000000000000000000000000000000080F912
:391560000000000000000000000000000000000000000000000000000000000000000000000000000000000000000000000000000000000000000080F9D9
:391599000000000000000000000000000000000000000000000000000000000000000000000000000000000000000000000000000000000000000080F9A0
:3915D2000000000000000000000000000000000000000000000000000000000000000000000000000000000000000000000000000000000000000080F967
:39160B000000000000000000000000000000000000000000000000000000000000000000000000000000000000000000000000000000000000000080F92D
:391644000000000000000000000000000000000000000000000000000000000000000000000000000000000000000000000000000000000000000080F9F4
:39167D000000000000000000000000000000000000000000000000000000000000000000000000000000000000000000000000000000000000000080F9BB
:3916B6000000000000000000000000000000000000000000000000000000000000000000000000000000000000000000000000000000000000000080F982
:3916EF000000000000000000000000000000000000000000000000000000000000000000000000000000000000000000000000000000000000000080F949
:391728000000000000000000000000000000000000000000000000000000000000000000000000000000000000000000000000000000000000000080F90F
:391761000000000000000000000000000000000000000000000000000000000000000000000000000000000000000000000000000000000000000080F9D6
:39179A000000000000000000000000000000000000000000000000000000000000000000000000000000000000000000000000000000000000000080F99D
:3917D3000000000000000000000000000000000000000000000000000000000000000000000000000000000000000000000000000000000000000080F964
:39180C000000000000000000000000000000000000000000000000000000000000000000000000000000000000000000000000000000000000000080F92A
:391845000000000000000000000000000000000000000000000000000000000000000000000000000000000000000000000000000000000000000080F9F1
:39187E000000000000000000000000000000000000000000000000000000000000000000000000000000000000000000000000000000000000000080F9B8
:3918B7000000000000000000000000000000000000000000000000000000000000000000000000000000000000000000000000000000000000000080F97F
:3918F0000000000000000000000000000000000000000000000000000000000000000000000000000000000000000000000000000000000000000080F946
:391929000000000000000000000000000000000000000000000000000000000000000000000000000000000000000000000000000000000000000080F90C
:391962000000000000000000000000000000000000000000000000000000000000000000000000000000000000000000000000000000000000000080F9D3
:39199B000000000000000000000000000000000000000000000000000000000000000000000000000000000000000000000000000000000000000080F99A
:3919D4000000000000000000000000000000000000000000000000000000000000000000000000000000000000000000000000000000000000000080F961
:391A0D000000000000000000000000000000000000000000000000000000000000000000000000000000000000000000000000000000000000000080F927
:391A46000000000000000000000000000000000000000000000000000000000000000000000000000000000000000000000000000000000000000080F9EE
:391A7F000000000000000000000000000000000000000000000000000000000000000000000000000000000000000000000000000000000000000080F9B5
:391AB8000000000000000000000000000000000000000000000000000000000000000000000000000000000000000000000000000000000000000080F97C
:391AF1000000000000000000000000000000000000000000000000000000000000000000000000000000000000000000000000000000000000000080F943
:391B2A000000000000000000000000000000000000000000000000000000000000000000000000000000000000000000000000000000000000000080F909
:391B63000000000000000000000000000000000000000000000000000000000000000000000000000000000000000000000000000000000000000080F9D0
:391B9C000000000000000000000000000000000000000000000000000000000000000000000000000000000000000000000000000000000000000080F997
:391BD5000000000000000000000000000000000000000000000000000000000000000000000000000000000000000000000000000000000000000080F95E
:391C0E000000000000000000000000000000000000000000000000000000000000000000000000000000000000000000000000000000000000000080F924
:391C47000000000000000000000000000000000000000000000000000000000000000000000000000000000000000000000000000000000000000080F9EB
:391C80000000000000000000000000000000000000000000000000000000000000000000000000000000000000000000000000000000000000000080F9B2
:391CB9000000000000000000000000000000000000000000000000000000000000000000000000000000000000000000000000000000000000000080F979
:391CF2000800000000000000000000000000000000000000000000000000000000000000000000000000000000000000000000000000000000000020DBB6
:391D2B000000000000000000000000000000000000000000000000000000000000000000000000000000000000000000000000000000000000000080F906
:391D64000000000000000000000000000000000000000000000000000000000000000000000000000000000000000000000000000000000000000080F9CD
:391D9D000400000000000000000000000000000000000000000000000000000000000000000000000000000000000000000000000000000000000090ACCD
:391DD6000000000000000000000000000000000000000000000000000000000000000000000000000000000000000000000000000000000000000080F95B
:391E0F000000000000000000000000000000000000000000000000000000000000000000000000000000000000000000000000000000000000000080F921
:391E48000000000000000000000000000000000000000000000000000000000000000000000000000000000000000000000000000000000000000080F9E8
:391E81000000000000000000000000000000000000000000000000000000000000000000000000000000000000000000000000000000000000000080F9AF
:391EBA000800000000000000000000000000000000000000000000000000000000000000000000000000000000000000000000000000000000000020DBEC
:391EF3000000000000000000000000000000000000000000000000000000000000000000000000000000000000000000000000000000000000000080F93D
:391F2C000000000000000000000000000000000000000000000000000000000000000000000000000000000000000000000000000000000000000080F903
:391F65000400000000000000000000000000000000000000000000000000000000000000000000000000000000000000000000000000000000000090AC03
:391F9E000000000000000000000000000000000000000000000000000000000000000000000000000000000000000000000000000000000000000080F991
:391FD7000000000000000000000000000000000000000000000000000000000000000000000000000000000000000000000000000000000000000080F958
:392010000000000000000000000000000000000000000000000000000000000000000000000000000000000000000000000000000000000000000080F91E
:392049000000000000000000000000000000000000000000000000000000000000000000000000000000000000000000000000000000000000000080F9E5
:392082000800000000000000000000000000000000000000000000000000000000000000000000000000000000000000000000000000000000000020DB22
:3920BB000000000000000000000000000000000000000000000000000000000000000000000000000000000000000000000000000000000000000080F973
:3920F4000000000000000000000000000000000000000000000000000000000000000000000000000000000000000000000000000000000000000080F93A
:39212D000400000000000000000000000000000000000000000000000000000000000000000000000000000000000000000000000000000000000090AC39
:392166000000000000000000000000000000000000000000000000000000000000000000000000000000000000000000000000000000000000000080F9C7
:39219F000000000000000000000000000000000000000000000000000000000000000000000000000000000000000000000000000000000000000080F98E
:3921D8000000000000000000000000000000000000000000000000000000000000000000000000000000000000000000000000000000000000000080F955
:392211000000000000000000000000000000000000000000000000000000000000000000000000000000000000000000000000000000000000000080F91B
:39224A000800000000000000000000000000000000000000000000000000000000000000000000000000000000000000000000000000000000000020DB58
:392283000000000000000000000000000000000000000000000000000000000000000000000000000000000000000000000000000000000000000080F9A9
:3922BC000000000000000000000000000000000000000000000000000000000000000000000000000000000000000000000000000000000000000080F970
:3922F5000400000000000000000000000000000000000000000000000000000000000000000000000000000000000000000000000000000000000090AC70
:39232E000000000000000000000000000000000000000000000000000000000000000000000000000000000000000000000000000000000000000080F9FD
:392367000000000000000000000000000000000000000000000000000000000000000000000000000000000000000000000000000000000000000080F9C4
:3923A0000000000000000000000000000000000000000000000000000000000000000000000000000000000000000000000000000000000000000080F98B
:3923D9000000000000000000000000000000000000000000000000000000000000000000000000000000000000000000000000000000000000000080F952
:392412000800000000000000000000000000000000000000000000000000000000000000000000000000000000000000000000000000000000000020DB8E
:39244B000000000000000000000000000000000000000000000000000000000000000000000000000000000000000000000000000000000000000080F9DF
:392484000000000000000000000000000000000000000000000000000000000000000000000000000000000000000000000000000000000000000080F9A6
:3924BD000400000000000000000000000000000000000000000000000000000000000000000000000000000000000000000000000000000000000090ACA6
:3924F6000000000000000000000000000000000000000000000000000000000000000000000000000000000000000000000000000000000000000080F934
:39252F000000000000000000000000000000000000000000000000000000000000000000000000000000000000000000000000000000000000000080F9FA
:392568000000000000000000000000000000000000000000000000000000000000000000000000000000000000000000000000000000000000000080F9C1
:3925A1000000000000000000000000000000000000000000000000000000000000000000000000000000000000000000000000000000000000000080F988
:3925DA000800000000000000000000000000000000000000000000000000000000000000000000000000000000000000000000000000000000000020DBC5
:392613000000000000000000000000000000000000000000000000000000000000000000000000000000000000000000000000000000000000000080F915
:39264C000000000000000000000000000000000000000000000000000000000000000000000000000000000000000000000000000000000000000080F9DC
:392685000400000000000000000000000000000000000000000000000000000000000000000000000000000000000000000000000000000000000090ACDC
:3926BE000000000000000000000000000000000000000000000000000000000000000000000000000000000000000000000000000000000000000080F96A
:3926F7000000000000000000000000000000000000000000000000000000000000000000000000000000000000000000000000000000000000000080F931
:392730000000000000000000000000000000000000000000000000000000000000000000000000000000000000000000000000000000000000000080F9F7
:392769000000000000000000000000000000000000000000000000000000000000000000000000000000000000000000000000000000000000000080F9BE
:3927A2000800000000000000000000000000000000000000000000000000000000000000000000000000000000000000000000000000000000000020DBFB
:3927DB000000000000000000000000000000000000000000000000000000000000000000000000000000000000000000000000000000000000000080F94C
:392814000000000000000000000000000000000000000000000000000000000000000000000000000000000000000000000000000000000000000080F912
:39284D000400000000000000000000000000000000000000000000000000000000000000000000000000000000000000000000000000000000000090AC12
:392886000000000000000000000000000000000000000000000000000000000000000000000000000000000000000000000000000000000000000080F9A0
:3928BF000000000000000000000000000000000000000000000000000000000000000000000000000000000000000000000000000000000000000080F967
:3928F8002000048000100002400008000120000480001000000000000000000000000000000000800010000240000800012000048000100002400080F9AA
:392931000000000000000000000000000000000000000000000000000000000000000000000000000000000000000000000000000000000000000080F9F4
:39296A002800048000100002400008000120000480001000000000000000000000000000000000800010000240000800012000048000100002400020DBAD
:3929A3000000000000000000000000000000000000000000000000000000000000000000000000000000000000000000000000000000000000000080F982
:3929DC002000048000100002400008000120000480001000000000000000000000000000000000800010000240000800012000048000100002400080F9C5
:392A15000400000000000000000000000000000000000000000000000000000000000000000000000000000000000000000000000000000000000090AC48
:392A4E002000048000100002400008000120000480001000000000000000000000000000000000800010000240000800012000048000100002400080F952
:392A87000000000000000000000000000000000000000000000000000000000000000000000000000000000000000000000000000000000000000080F99D
:392AC0000000000000000000000000000000000000000000000000000000000000000000000000000000000000000000000000000000000000000080F964
:392AF9000000000000000000000000000000000000000000000000000000000000000000000000000000000000000000000000000000000000000080F92B
:392B32000000000000000000000000000000000000000000000000000000000000000000000000000000000000000000000000000000000000000080F9F1
:392B6B000000000000000000000000000000000000000000000000000000000000000000000000000000000000000000000000000000000000000080F9B8
:392BA4000000000000000000000000000000000000000000000000000000000000000000000000000000000000000000000000000000000000000080F97F
:392BDD000000000000000000000000000000000000000000000000000000000000000000000000000000000000000000000000000000000000000080F946
:392C16000000000000000000000000000000000000000000000000000000000000000000000000000000000000000000000000000000000000000080F90C
:392C4F000000000000000000000000000000000000000000000000000000000000000000000000000000000000000000000000000000000000000080F9D3
:392C88000000000000000000000000000000000000000000000000000000000000000000000000000000000000000000000000000000000000000080F99A
:392CC1000000000000000000000000000000000000000000000000000000000000000000000000000000000000000000000000000000000000000080F961
:392CFA000000000000000000000000000000000000000000000000000000000000000000000000000000000000000000000000000000000000000080F928
:392D33000000000000000000000000000000000000000000000000000000000000000000000000000000000000000000000000000000000000000080F9EE
:392D6C000000000000000000000000000000000000000000000000000000000000000000000000000000000000000000000000000000000000000080F9B5
:392DA5000000000000000000000000000000000000000000000000000000000000000000000000000000000000000000000000000000000000000080F97C
:392DDE000000000000000000000000000000000000000000000000000000000000000000000000000000000000000000000000000000000000000080F943
:392E17000000000000000000000000000000000000000000000000000000000000000000000000000000000000000000000000000000000000000080F909
:392E50000000000000000000000000000000000000000000000000000000000000000000000000000000000000000000000000000000000000000080F9D0
:392E89000000000000000000000000000000000000000000000000000000000000000000000000000000000000000000000000000000000000000080F997
:392EC2000000000000000000000000000000000000000000000000000000000000000000000000000000000000000000000000000000000000000080F95E
:392EFB000000000000000000000000000000000000000000000000000000000000000000000000000000000000000000000000000000000000000080F925
:392F34000000000000000000000000000000000000000000000000000000000000000000000000000000000000000000000000000000000000000080F9EB
:392F6D000000000000000000000000000000000000000000000000000000000000000000000000000000000000000000000000000000000000000080F9B2
:392FA6000000000000000000000000000000000000000000000000000000000000000000000000000000000000000000000000000000000000000080F979
:392FDF000000000000000000000000000000000000000000000000000000000000000000000000000000000000000000000000000000000000000080F940
:393018000000000000000000000000000000000000000000000000000000000000000000000000000000000000000000000000000000000000000080F906
:393051000000000000000000000000000000000000000000000000000000000000000000000000000000000000000000000000000000000000000080F9CD
:39308A000000000000000000000000000000000000000000000000000000000000000000000000000000000000000000000000000000000000000080F994
:3930C3000000000000000000000000000000000000000000000000000000000000000000000000000000000000000000000000000000000000000080F95B
:3930FC000000000000000000000000000000000000000000000000000000000000000000000000000000000000000000000000000000000000000080F922
:393135000000000000000000000000000000000000000000000000000000000000000000000000000000000000000000000000000000000000000080F9E8
:39316E000000000000000000000000000000000000000000000000000000000000000000000000000000000000000000000000000000000000000080F9AF
:3931A7000000000000000000000000000000000000000000000000000000000000000000000000000000000000000000000000000000000000000080F976
:3931E0000000000000000000000000000000000000000000000000000000000000000000000000000000000000000000000000000000000000000080F93D
:393219000000000000000000000000000000000000000000000000000000000000000000000000000000000000000000000000000000000000000080F903
:393252000000000000000000000000000000000000000000000000000000000000000000000000000000000000000000000000000000000000000080F9CA
:39328B000000000000000000000000000000000000000000000000000000000000000000000000000000000000000000000000000000000000000080F991
:3932C4000000000000000000000000000000000000000000000000000000000000000000000000000000000000000000000000000000000000000080F958
:3932FD000000000000000000000000000000000000000000000000000000000000000000000000000000000000000000000000000000000000000080F91F
:393336000000000000000000000000000000000000000000000000000000000000000000000000000000000000000000000000000000000000000080F9E5
:39336F00A091001000002200000060022DA011044000D084000000000000000000000000000000804201001A05000000000000000000000000000080D3B5
:3933A8000000000000000000000060400002400000000000000000000000000000000000000000000000000000000000000000000000000000000080BFCB
:3933E100E0003C0000F040000000780007E400300000C000000000000000000000000000000000000200001800000000000000000000000000000080B5C5
:39341A002091B40800D0000000006800292011310800C02200000000000000000000000000000000000100580400000000000000000000000000008091F1
:393453000010000100000400000000008000100001000004000000000000000000000000000000001000008010000000000000000000000000000080ED89
:39348C00E0413C0800F02000000018100FE2810C2000B080000000000000000000000000000000800501001600000000000000000000000000000000936D
:3934C5000001310000C00000000000000800010000004000000000000000000000000000000000000601000800000000000000000000000000000000E3A1
:3934FE00801000090000240000000000848884A00800C028000000000000000000000000000000004600005808000000000000000000000000000080B4DE
:39353700B005050000D00000000000008DA401040200D000000000000000000000000000000000800600001A00000000000000000000000000000000E544
:393570000000300000C0000000000000008001000800C000000000000000000000000000000000000600001800000000000000000000000000000080E368
:3935A9008001000000300000000000000C02003C000000400000000000000000000000000000000006000000040000000000000000000000000000809094
:3935E2008C45300500100000000000008C0044344100000800000000000000000000000000000000060000000000000000000000000000000000002083A4
:39361B000408010100000800000000004000041001000004000000000000000000000000000000002004008010000000000000000000000000000080AF24
:3936540060013C2000302000000000000BE8811C2000F080000000000000000000000000000000800100001E00000000000000000000000000000080A150
:39368D008C4030080000200000000000048201100000C020000000000000000000000000000000000602001800000000000000000000000000000090DFDA
:3936C6008011000000000200000000002C0048100A000002000000000000000000000000000000000600004004000000000000000000000000000080F7E7
:3936FF00B045040000100000000000000D0010040000D024000000000000000000000000000000801600001A0100000000000000000000000000004084FF
:393738000000000000000000000000000C00003100000000000000000000000000000000000000000002000004000000000000000000000000000000CF46
:39377100E0000010000040000000000000E0410000007020000000000000000000000000000000000602000E040000000000000000000000000000809014
:3937AA002C490001000000000000000040A111300A0090020000000000000000000000000000000016000052000000000000000000000000000000B0A4F6
:3937E3000448000A00000400000000004000440001000004000000000000000000000000000000002004004000000000000000000000000000000090D006
:39381C00E0010C0000302000000000000FE8013C2000F020000000000000000000000000000000800500001E08000000000000000000000000000000BB6C
:393855000C01010800000000000000000C80013008008000000000000000000000000000000000000200001010000000000000000000000000000030EBA2
:39388E008010300100C02400000000004002440001004088000000000000000000000000000000000602000801000000000000000000000000000080E597
:3938C700A041001000002200000000000D0110B40800D040000000000000000000000000000000802600001800000000000000000000000000000080B0DD
:393900000000000000000000000000000000000100000000000000000000000000000000000000000002000010000000000000000000000000000080D922
:39393900E0003C0000F00000000000000CE0011C0000C020000000000000000000000000000000000601001E00000000000000000000000000000000EA51
:393972002845340000D00000000000004CA201240400C0040000000000000000000000000000000016000002050000000000000000000000000000A0BD56
:3939AB000010320100C00400000000004080518000000004000000000000000000000000000000002004000005000000000000000000000000000080C8D6
:3939E400E0013C0800F02000000000000BE8013C0800B080000000000000000000000000000000800500001E000000000000000000000000000000808367
:393A1D0004010100000040000000000004000020000040800000000000000000000000000000000002000018040000000000000000000000000000909800
:393A56008010800800000000000000000C0250102200C004000000000000000000000000000000002601000001000000000000000000000000000000F7AC
:393A8F00B011340000502400000000008D2200140100D0000000000000000000000000000000008000000002000000000000000000000000000000C0B807
:393AC800008030000080000000000000000000200800C000000000000000000000000000000000000600000000000000000000000000000000000000A106
:393B01008001000800302000000000000700003008000080000000000000000000000000000000000001000000000000000000000000000000000000BF33
:393B3A008C510001001000000000000049020031010000080000000000000000000000000000000006000080100000000000000000000000000000308297
:393B730004080101004008000000000020025000010000040000000000000000000000000000000020040000090000000000000000000000000000108C83
:393BAC0060013C2000702000000000000F60002C2000F080000000000000000000000000000000800700000600000000000000000000000000000080C09B
:393BE5008C0030000000200000000000080000300000C000000000000000000000000000000000000602000008000000000000000000000000000030F59E
:393C1E008001021200000200000000008488513009000022000000000000000000000000000000000000005800000000000000000000000000000080EB5B
:393C5700A00104000010200000000000050210040000D008000000000000000000000000000000800601008200000000000000000000000000000080855E
:393C90008001000000400000000000000800000100000020000000000000000000000000000000000000000004000000000000000000000000000000D23B
:393CC9000000010000002000000000000CE0013000007000000000000000000000000000000000800300001604000000000000000000000000000000C1B6
:393D02000804800800000000000000002CB0013041009080000000000000000000000000000000802402005200000000000000000000000000000020F08E
:393D3B000008010100000800000000004080450001000000000000000000000000000000000000000000000000000000000000000000000000000000B087
:393D7400E0010C0800302000000000000BE8010C2000F0200000000000000000000000000000008007010006040000000000000000000000000000808708
:393DAD008401000000002000000000000400400000008000000000000000000000000000000000000404001010000000000000000000000000000090AE0E
:393DE6000044300900000800000000004C08103008004088000000000000000000000000000000004200001001000000000000000000000000000000B4B4
:393E1F00B000301000D00000000008000D8011040000D0440000000000000000000000000000008012010018000000000000000000000000000000C0E49D
:393E58000041300000000000000060000C80010100000000000000000000000000000000000000000400000010000200000000000000000000000080D864
:393E910080013C00003020000000000000E401000000C020000000000000000000000000000000800701001EC4030000000000000000000000000080E950
:393ECA008C093600001000000000604000A001004100C0020000000000000000000000000000008040000002400300000000000000000000000000B0AC3F
:393F03000408010A00C00800000000024000500001000004000000000000000000000000000000001200000009830000000000000000000000000090F9E8
:393F3C0060010C0000302000000078400F68000C2000B080000000000000000000000000000000800501001EC0030000000000000000000000000080F726
:393F75008C00000000002000000060000C020000080040000000000000000000000000000000000006040018088000000000000000000000000000B0ADAA
:393FAE00804100000000020000000081800000300100C024000000000000000000000000000000004000004000000000000000000000000000000000FB86
:393FE700B001001000502000000000000D2400000100D018000000000000000000000000000000800600009A00030000000000000000000000000080C4EF
:394020008001000000800000000000000000000020000000000000000000000000000000000000000600000004030200000000000000000000000000CC6B
:3940590000003C0000702000000000000702403C000070000000000000000000000000000000000000000018C4030000000000000000000000000000E6A8
:394092000C803400009000000000000089001034000090220000000000000000000000000000000040020058400300000000000000000000000000209099
:3940CB000408310A00400800000000000000443008000080000000000000000000000000000000002004008010800000000000000000000000000080FA83
:39410400E0013C0000B02000000000000F68003C0000F0000000000000000000000000000000008007000016C0000000000000000000000000000080EC29
:39413D008C0100080040200000000000080000000000800000000000000000000000000000000000060100080000000000000000000000000000009088A5
:394176000050000100400800000000008488450041004088000000000000000000000000000000001000009804000000000000000000000000000080EC05
:3941AF0010000000000000000000000000000000000000000000000000000000000000000000000000000000000000000000000000000000000000C0BC4B
:3941E8002000048000100002400008000120000480001000000000000000000000000000000000800010000240000800012000048000100002400080F9A1
:394221000000000000000000000000000000000000000000000000000000000000000000000000000000000000000000000000000000000000000080F9EB
:39425A002C000480001000024000080001200004800010000000000000000000000000000000008000100002400008000120000480001000024000308EDD
:3942930004012000008000000000400008000120000080000000000000000000000000000000000004000010000200000000000000000000000000909C22
:3942CC000000008000000002400000000000000080000000000000000000000000000000000000000010000000000800012000048000100002400080FFE9
:394305000C000000000000000000000000000000000000000000000000000000000000000000000000000000000000000000000000000000000000308EB5
:39433E002000048000100002400008000120000480001000000000000000000000000000000000800010000240000800012000048000100002400080F949
:394377000002000000000000000000000000000000000000000000000000000000000000000000000000000000000000000000000000000000000080D9B2
:3943B0000000000000000000000000000000000000000010000000000000000000000000000000000000000000000000000000000000000000000080E85C
:3943E9000000000000000000000000000000000000000000000000000000000000000000000000000000000000000000000000000000000000000080F922
:394422001200040000000000000000000000000000000000000000000000000000000000000000000800000000000000000000000000000000000020FC27
:39445B000000080000000000000000000000020000000000000000000000000000000000000000000800000000000000000000000000000000000000F323
:394494000000000000000000000000000000000000004000000000000000000000000000000000000400000000000000000000000000000000000080B972
:3944CD000040000000000000000000000000000000000000000000000000000000000000000000000000000000000000000000000000000000000008B5B9
:394506000000100802010000000000000080001000000000000000000000000000000000000000000000000000000000000000000000000000000080C988
:39453F00008514A000040000000000000022000400004000000000000000000000000000000000000000000000000000000000000000000000000000F1AF
:394578000830A000308000000000C0001C4052E000000000000000000000000000000000000000000400000000A00000000000000000000000000080AC64
:3945B1000000000000000000000000000400400000000000000000000000000000000000000000000000000000800000000000000000000000000000F518
:3945EA000040100000400000000020000400001000000000000000000000000000000000000000000200000000000000000000000000000000000008A02A
:394623000020000000000000000000000400000400000000000000000000000000000000000000000200000000000000000000000000000000000080F9BB
:39465C004000000000000000000000000000000000000000000000000000000000000000000000000000001000000000000000000000000000000080FC59
:394695000000000000000000000000000000000000000000000000000000000000000000000000000000000000000000000000000000000000000080F973
:3946CE000000000000000000000000000000000000000000000000000000000000000000000000000000000000000000000000000000000000000080F93A
:394707000000000000000000000000000000000020000000000000000000000000000000000000000000000000000000000000000000000000000080DBFE
:394740000000000000000000000000000200000000000000000000000000000000000000000000000000000000000000000000000000000000000080DBE3
:394779000000000000000000000000000000000000000000000000000000000000000000000000000000000000000000000000000000000000000080F98E
:3947B2000000000000000000000000000000000000000000000000000000000000000000000000000000000000000000000000000000000000000080F955
:3947EB000001200000000000000000000000000000000000000000000000000000000000000000000000000000000000000000000000000000000080C92B
:394824000000000000000000000000000000000000000000000000000000000000000000000000000100000400000000000000000000000000000080AC2A
:39485D0000000000000000000000000000000000000000000000000000000000000000000000000000000000000000000000000000000000000000A0DBA7
:394896000040100000000000000020000080400000020000000000000000000000000000000000000200000800000000000000000000000000000080EF3E
:3948CF000000050000000000000008100020000180000000000000000000000000000000000000800000000200000000000000000000000000000000FD73
:39490800023B0006C00010000000A00200002D08065D0100000000000000000000000000000000000001004828020000000000000000000000000080EE47
:394941000000000000000000000020000000000000000100000000000000000000000000000000000001000800000000000000000000000000000000DA39
:39497A008040000800012000000000000080400008020000000000000000000000000000000000000000000000010000000000000000000000000000FD53
:3949B3000000000000000000000000000000000000002000000000000000000000000000000000000400000800000000000000000000000000000000BFE0
:3949EC000000000000200000000000000000000000000000000000000000000000000000000000000000000008000100000000000000000000000000C0A9
:394A250000000000000000000000002000000000000000400000000000000000000000000000000000000000000000000000000000000000000000809DDB
:394A5E000000000000000000000000000000000000000000000000000000000000000000000000000000000000000000000000000000000000000080F9A6
:394A97000000000800000000000000100002000008001000000000000000000000000000000000000000000000000000000000000000000000000080C074
:394AD0000020000000000000000000000104000000000000000000000000000000000000000000008000000002000000000000000000000000000080A2E4
:394B09000800010000000000000000800210C000000000000000000000000000000000000000000000000000000000000000000000000000000000008B8D
:394B42000200010000000000000000000000000000000000000000000000000000000000000000000000000000000000000000000000000000000080DADD
:394B7B000400000000000000000000000000000000000000000000000000000000000000000000000000000000000000000000000000000000000080BDC0
:394BB4000000000000000000000000000000000000000000000000000000000000000000000000000000000000000000000000000000000000000008F1CF
:394BED000000000000000000000000000000000000000022000000000000000000000000000000000000000000000000000000000000000000000080FBF2
:394C26000000000000000000000000000000010000000000000000000000000000000000000000000000000000000000000000000000000000000080F8DC
:394C5F004000000000000000000000000000000000002004000000000000000000000000000000000000000000000000000000000000000000000080BF79
:394C98000020000000000000000000000000000000000010000000000000000000000000000000000000000000000000000000000000000000000080CA69
:394CD1000000000000000000000000000000000000000000000000000000000000000000000000000000000000000000000000000000000000000080F931
:394D0A000000000000000000000000000000000000000000000000000000000000000000000000000000000000000000000000000000000000000080F9F7
:394D4300003A40024800092001248004900012400248001D0000000000000000000000000000000048000920012480049000124002480009200124008242
:394D7C00004C8001300006C00018000360000C800130002600000000000000000000000000000000300006C00018000360000C8001300006C00018809FB2
:024DB500FFFFFE
:00000001FF
