:020000040000FA
:39000000FFFF62FF3600FFFFFFFFFFFFFFFFFFFFFFFFFFFFFFFFFFFFFFFFFFFFFFFFFFFFFFFFFFFFFFFFFFFFFFFFFFFFFFFFFFFFFFFFFFFFFFFFFFFFFF65
:39003900000C8001304006C00018000360000C800132000600000000000000000000000000000000300026C00498000360800C8001300006C0001800DB80
:390072000012400248800B200124800490001240025C00090000000000000000000000000000000048001DA003748004900017400248000920012400FBA2
:3900AB000000000000000000000000000000000000000000000000000000000000000000000000000000000000000000000000000000000000000080F9A3
:3900E4000000000000000000000000000000000000000000000000000000000000000000000000000000000000000000000000000000000000000080F96A
:39011D000000000000000000000000000000000000000000000000000000000000000000000000000000000000000000000000000000000000000080F930
:390156000000000000000000000000000000000000000000000000000000000000000100000000000000000000000000000000000000000000000080E807
:39018F000000000000000000000000000000000000000000000000000000000000000000000000000000000000000000000000000000000000000080F9BE
:3901C8000000000000000000000000000000000000000000000000000000000000000000000000000000000000000000000000000000000000000080F985
:390201000000000000000000000000000000000000000000000000000000000000000000000000000000000000000000000000000000000000000080F94B
:39023A000000000000000000000000000000000000000000000000000000000000000000000000000000000000000000000000000000000000000080F912
:390273000000000000000000000000000000000000000000000000000000000000000000000000000000000000000000000000000000000000000080F9D9
:3902AC000000000000000000000000000000000000000000000000000000000000000000000000000000000000000000000000000000000000000080F9A0
:3902E5000000000000000000000000000000000000000000000000000000000000000000000000000000000000000000000000000000000000000080F967
:39031E000000000000000000000000000000000000000000000000000000000000000000000000000000000000000000000000000000000000000080F92D
:390357000000000000000000000000000000000000000000000000000000000000000000000000000000000000000000000000000000000000000080F9F4
:390390000000000000000000000000000000000000000000000000000000000000000000000000000000000000000000000000000000000000000080F9BB
:3903C9000000000000000000000000000000000000000000000000000000000000000000000000000000000000000000000000000000000000000080F982
:390402000800000000000000000000000000000000000000000000000000000000000000000000000000000000000000000000000000000000000020DBBE
:39043B000000000000000000000000000000000000000000000000000000000000000000000000000000000000000000000000000000000000000080F90F
:390474000000000000000000000000000000000000000000000000000000000000000000000000000000000000000000000000000000000000000080F9D6
:3904AD000400000000000000000000000000000000000000000000000000000000000000000000000000000000000000000000000000000000000090ACD6
:3904E6000000000000000000000000000000000000000000000000000000000000000000000000000000000000000000000000000000000000000080F964
:39051F000000000000000000000000000000000000000000000000000000000000000000000000000000000000000000000000000000000000000080F92A
:390558000000000000000000000000000000000000000000000000000000000000000000000000000000000000000000000000000000000000000080F9F1
:390591000000000000000000000000000000000000000000000000000000000000000000000000000000000000000000000000000000000000000080F9B8
:3905CA000800000000000000000000000000000000000000000000000000000000000000000000000000000000000000000000000000000000000020DBF5
:390603000000000000000000000000000000000000000000000000000000000000000000000000000000000000000000000000000000000000000080F945
:39063C000000000000000000000000000000000000000000000000000000000000000000000000000000000000000000000000000000000000000080F90C
:390675000400000000000000000000000000000000000000000000000000000000000000000000000000000000000000000000000000000000000090AC0C
:3906AE000000000000000000000000000000000000000000000000000000000000000000000000000000000000000000000000000000000000000080F99A
:3906E7000000000000000000000000000000000000000000000000000000000000000000000000000000000000000000000000000000000000000080F961
:390720000000000000000000000000000000000000000000000000000000000000000000000000000000000000000000000000000000000000000080F927
:390759000000000000000000000000000000000000000000000000000000000000000000000000000000000000000000000000000000000000000080F9EE
:390792000800000000000000000000000000000000000000000000000000000000000000000000000000000000000000000000000000000000000020DB2B
:3907CB000000000000000000000000000000000000000000000000000000000000000000000000000000000000000000000000000000000000000080F97C
:390804000000000000000000000000000000000000000000000000000000000000000000000000000000000000000000000000000000000000000080F942
:39083D000400000000000000000000000000000000000000000000000000000000000000000000000000000000000000000000000000000000000090AC42
:390876000000000000000000000000000000000000000000000000000000000000000000000000000000000000000000000000000000000000000080F9D0
:3908AF000000000000000000000000000000000000000000000000000000000000000000000000000000000000000000000000000000000000000080F997
:3908E8000000000000000000000000000000000000000000000000000000000000000000000000000000000000000000000000000000000000000080F95E
:390921000000000000000000000000000000000000000000000000000000000000000000000000000000000000000000000000000000000000000080F924
:39095A000800000000000000000000000000000000000000000000000000000000000000000000000000000000000000000000000000000000000020DB61
:390993000000000000000000000000000000000000000000000000000000000000000000000000000000000000000000000000000000000000000080F9B2
:3909CC000000000000000000000000000000000000000000000000000000000000000000000000000000000000000000000000000000000000000080F979
:390A05000400000000000000000000000000000000000000000000000000000000000000000000000000000000000000000000000000000000000090AC78
:390A3E000000000000000000000000000000000000000000000000000000000000000000000000000000000000000000000000000000000000000080F906
:390A77000000000000000000000000000000000000000000000000000000000000000000000000000000000000000000000000000000000000000080F9CD
:390AB0000000000000000000000000000000000000000000000000000000000000000000000000000000000000000000000000000000000000000080F994
:390AE9000000000000000000000000000000000000000000000000000000000000000000000000000000000000000000000000000000000000000080F95B
:390B22000C000000000000000000000000000000000000000000000000000000000000000000000000000000000000000000000000000000000000209FCF
:390B5B000400000000000000000000000000000000000000000000000000000000000000000000000000000000000000000000000000000000000080BD20
:390B94000000000000000000000000000000000000000000000000000000000000000000000000000000000000000000000000000000000000000080F9AF
:390BCD000C00000000000000000000000000000000000000000000000000000000000000000000000000000000000000000000000000000000000010AC27
:390C06000000000000000000000000000000000000000000000000000000000000000000000000000000000000000000000000000000000000000080F93C
:390C3F000000000000000000000000000000000000000000000000000000000000000000000000000000000000000000000000000000000000000080F903
:390C78000000000000000000000000000000000000000000000000000000000000000000000000000000000000000000000000000000000000000080F9CA
:390CB1000000000000000000000000000000000000000000000000000000000000000000000000000000000000000000000000000000000000000080F991
:390CEA000800000000000000000000000000000000000000000000000000000000000000000000000000000000000000000000000000000000000020DBCE
:390D23000000000000000000000000000000000000000000000000000000000000000000000000000000000000000000000000000000000000000080F91E
:390D5C000000000000000000000000000000000000000000000000000000000000000000000000000000000000000000000000000000000000000080F9E5
:390D95000400000000000000000000000000000000000000000000000000000000000000000000000000000000000000000000000000000000000090ACE5
:390DCE000000000000000000000000000000000000000000000000000000000000000000000000000000000000000000000000000000000000000080F973
:390E07000000000000000000000000000000000000000000000000000000000000000000000000000000000000000000000000000000000000000080F939
:390E40000000000000000000000000000000000000000000000000000000000000000000000000000000000000000000000000000000000000000080F900
:390E79000000000000000000000000000000000000000000000000000000000000000000000000000000000000000000000000000000000000000080F9C7
:390EB2000C000000000000000000000000000000000000000000000000000000000000000000000000000000000000000000000000000000000000209F3C
:390EEB000400000000000000000000000000000000000000000000000000000000000000000000000000000000000000000000000000000000000080BD8D
:390F24000000000000000000000000000000000000000000000000000000000000000000000000000000000000000000000000000000000000000080F91B
:390F5D000C00000000000000000000000000000000000000000000000000000000000000000000000000000000000000000000000000000000000010AC93
:390F96000000000000000000000000000000000000000000000000000000000000000000000000000000000000000000000000000000000000000080F9A9
:390FCF000000000000000000000000000000000000000000000000000000000000000000000000000000000000000000000000000000000000000080F970
:391008002000048000100002400008000120000480001000000000000000000000000000000000800010000240000800012000048000100002400080F9B2
:391041000000000000000000000000000000000000000000000000000000000000000000000000000000000000000000000000000000000000000080F9FD
:39107A002C000480001000024000080001200004800010000000000000000000000000000000008000100002400008000120000480001000024000209FEE
:3910B3000400000000000000000000000000000000000000000000000000000000000000000000000000000000000000000000000000000000000080BDC3
:3910EC002000048000100002400008000120000480001000000000000000000000000000000000800010000240000800012000048000100002400080F9CE
:391125000C00000000000000000000000000000000000000000000000000000000000000000000000000000000000000000000000000000000000010ACC9
:39115E002000048000100002400008000120000480001000000000000000000000000000000000800010000240000800012000048000100002400080F95B
:391197000000000000000000000000000000000000000000000000000000000000000000000000000000000000000000000000000000000000000080F9A6
:3911D0000000000000000000000000000000000000000000000000000000000000000000000000000000000000000000000000000000000000000080F96D
:391209000000000000000000000000000000000000000000000000000000000000000000000000000000000000000000000000000000000000000080F933
:391242000000000000000000000000000000000000000000000000000000000000000000000000000000000000000000000000000000000000000080F9FA
:39127B000000000000000000000000000000000000000000000000000000000000000000000000000000000000000000000000000000000000000080F9C1
:3912B4000000000000000000000000000000000000000000000000000000000000000000000000000000000000000000000000000000000000000080F988
:3912ED000000000000000000000000000000000000000000000000000000000000000000000000000000000000000000000000000000000000000080F94F
:391326000000000000000000000000000000000000000000000000000000000000000000000000000000000000000000000000000000000000000080F915
:39135F000000000000000000000000000000000000000000000000000000000000000000000000000000000000000000000000000000000000000080F9DC
:391398000000000000000000000000000000000000000000000000000000000000000000000000000000000000000000000000000000000000000080F9A3
:3913D1000000000000000000000000000000000000000000000000000000000000000000000000000000000000000000000000000000000000000080F96A
:39140A000000000000000000000000000000000000000000000000000000000000000000000000000000000000000000000000000000000000000080F930
:391443000000000000000000000000000000000000000000000000000000000000000000000000000000000000000000000000000000000000000080F9F7
:39147C000000000000000000000000000000000000000000000000000000000000000000000000000000000000000000000000000000000000000080F9BE
:3914B5000000000000000000000000000000000000000000000000000000000000000000000000000000000000000000000000000000000000000080F985
:3914EE000000000000000000000000000000000000000000000000000000000000000000000000000000000000000000000000000000000000000080F94C
:391527000000000000000000000000000000000000000000000000000000000000000000000000000000000000000000000000000000000000000080F912
:391560000000000000000000000000000000000000000000000000000000000000000000000000000000000000000000000000000000000000000080F9D9
:391599000000000000000000000000000000000000000000000000000000000000000000000000000000000000000000000000000000000000000080F9A0
:3915D2000000000000000000000000000000000000000000000000000000000000000000000000000000000000000000000000000000000000000080F967
:39160B000000000000000000000000000000000000000000000000000000000000000000000000000000000000000000000000000000000000000080F92D
:391644000000000000000000000000000000000000000000000000000000000000000000000000000000000000000000000000000000000000000080F9F4
:39167D000000000000000000000000000000000000000000000000000000000000000000000000000000000000000000000000000000000000000080F9BB
:3916B6000000000000000000000000000000000000000000000000000000000000000000000000000000000000000000000000000000000000000080F982
:3916EF000000000000000000000000000000000000000000000000000000000000000000000000000000000000000000000000000000000000000080F949
:391728000000000000000000000000000000000000000000000000000000000000000000000000000000000000000000000000000000000000000080F90F
:391761000000000000000000000000000000000000000000000000000000000000000000000000000000000000000000000000000000000000000080F9D6
:39179A000000000000000000000000000000000000000000000000000000000000000000000000000000000000000000000000000000000000000080F99D
:3917D3000000000000000000000000000000000000000000000000000000000000000000000000000000000000000000000000000000000000000080F964
:39180C000000000000000000000000000000000000000000000000000000000000000000000000000000000000000000000000000000000000000080F92A
:391845000000000000000000000000000000000000000000000000000000000000000000000000000000000000000000000000000000000000000080F9F1
:39187E000000000000000000000000000000000000000000000000000000000000000000000000000000000000000000000000000000000000000080F9B8
:3918B7000000000000000000000000000000000000000000000000000000000000000000000000000000000000000000000000000000000000000080F97F
:3918F0000000000000000000000000000000000000000000000000000000000000000000000000000000000000000000000000000000000000000080F946
:391929000000000000000000000000000000000000000000000000000000000000000000000000000000000000000000000000000000000000000080F90C
:391962000000000000000000000000000000000000000000000000000000000000000000000000000000000000000000000000000000000000000080F9D3
:39199B000000000000000000000000000000000000000000000000000000000000000000000000000000000000000000000000000000000000000080F99A
:3919D4000000000000000000000000000000000000000000000000000000000000000000000000000000000000000000000000000000000000000080F961
:391A0D000000000000000000000000000000000000000000000000000000000000000000000000000000000000000000000000000000000000000080F927
:391A46000000000000000000000000000000000000000000000000000000000000000000000000000000000000000000000000000000000000000080F9EE
:391A7F00000000000000000000000000000000000000000000000000000000000000000000000000000000422000000000A005010040010080000000E382
:391AB8000000000000000000000000000000000000000000000000000000000000000000000000000000000800000000008001000000000000040000E583
:391AF100000000000000000000000000000000000000000000000000000000000000000000000000000000000000000000000000800700001E040000FC17
:391B2A00000000000000000000000000000000000000000000000000000000000000000000000000000000000400000000004000802608001A01000087EE
:391B63000000000000000000000000000000000000000000000000000000000000000000000000000000008000000000008001000020010000010080CBDB
:391B9C00000000000000000000000000000000000000000000000000000000000000000000000000000000060400000000E00101800700001E040000C5B6
:391BD50000000000000000000000000000000000000000000000000000000000000000000000000000000000000000000000800000060000180000808039
:391C0E000000000000000000000000000000000000000000000000000000000000000000000000000000000009000000008000000020010080040080CE21
:391C47000000000000000000000000000000000000000000000000000000000000000000000000000000000010000000002000000000000080000040AEC6
:391C80000000000000000000000000000000000000000000000000000000000000000000000000000000000000000000008001000000000000040080E541
:391CB9000000000000000000000000000000000000000000000000000000000000000000000000000000001E0000000000000000000000001E000080E74F
:391CF2000800000000000000000000000000000000000000000000000000000000000000000000000000001A0000000000004400000000001A000030D435
:391D2B000000000000000000000000000000000000000000000000000000000000000000000000000000001801000000000048000000000018010010AD48
:391D64000000000000000000000000000000000000000000000000000000000000000000000000000000001E0400000000600000000000001E040080A57D
:391D9D0004000000000000000000000000000000000000000000000000000000000000000000000000000000000000000000000000000000000400B08ACB
:391DD600000000000000000000000000000000000000000000000000000000000000000000000000000000400400000000002800000000000001000096D1
:391E0F0000000000000000000000000000000000000000000000000000000000000000000000000000000002000000000000080080060000020000009B6D
:391E480000000000000000000000000000000000000000000000000000000000000000000000000000000000000000000000800000060000000000009942
:391E8100000000000000000000000000000000000000000000000000000000000000000000000000000000001000000000E0010080070000000400808AA2
:391EBA00080000000000000000000000000000000000000000000000000000000000000000000000000000800000000000A051008006000000010020F5DA
:391EF3000000000000000000000000000000000000000000000000000000000000000000000000000000008004000000000048000010000000010000EDEC
:391F2C00000000000000000000000000000000000000000000000000000000000000000000000000000000060000000000E001008001010006040080FC8D
:391F65000400000000000000000000000000000000000000000000000000000000000000000000000000000000000000008001000000000000000090B47A
:391F9E000000000000000000000000000000000000000000000000000000000000000000000000000000001805000000000044000000000018050080B05C
:391FD7000000000000000000000000000000000000000000000000000000000000000000000000000000000010000000002000008000000002000080C2DD
:392010000000000000000000000000000000000000000000000000000000000000000000000000000000000000000000000000000000000000000080F91E
:392049000000000000000000000000000000000000000000000000000000000000000000000000000000001E00000000000000008007010000000000E7D1
:392082000800000000000000000000000000000000000000000000000000000000000000000000000000001A000000000000900080260000802000B092EB
:3920BB0000000000000000000000000000000000000000000000000000000000000000000000000000000098040000000000440000100000002100109536
:3920F4000000000000000000000000000000000000000000000000000000000000000000000000000000001E000000000060000080070100060000008126
:39212D0004000000000000000000000000000000000000000000000000000000000000000000000000000000000000000000400000060000000000B0AAD5
:392166000000000000000000000000000000000000000000000000000000000000000000000000000000000005000000008001000040010018210000CC74
:39219F000000000000000000000000000000000000000000000000000000000000000000000000000000001810006001008009000040010098000080B3E9
:3921D8000000000000000000000000000000000000000000000000000000000000000000000000000000001800006020000080000000000018040000C1D9
:392211000000000000000000000000000000000000000000000000000000000000000000000000000000001E0000780000E04100800700001E000000C276
:39224A000800000000000000000000000000000000000000000000000000000000000000000000000000001A0000680000201000800600001A0000A0BCA5
:392283000000000000000000000000000000000000000000000000000000000000000000000000000000008004000012000044000026010080040000C3DA
:3922BC00000000000000000000000000000000000000000000000000000000000000000000000000000000060000180000E00100800700000600000098C5
:3922F5000400000000000000000000000000000000000000000000000000000000000000000000000000000000000000008041000000000000000090F06B
:39232E000000000000000000000000000000000000000000000000000000000000000000000000000000000000000000000000000020080000000080D3FB
:3923670000000000000000000000000000000000000000000000000000000000000000000000000000000000100008000080090080060100020000C0F55E
:3923A0000000000000000000000000000000000000000000000000000000000000000000000000000000000000000000008081000000000008040080ED8A
:3923D9000000000000000000000000000000000000000000000000000000000000000000000000000000001E0000001000E001008007010000000000E84C
:392412000800000000000000000000000000000000000000000000000000000000000000000000000000005A0400000200A0010080100000002100B0AF78
:39244B000000000000000000000000000000000000000000000000000000000000000000000000000000000001000012000044000010000000010090DD83
:392484000000000000000000000000000000000000000000000000000000000000000000000000000000001E04001800006000008007010006040080C4AF
:3924BD000400000000000000000000000000000000000000000000000000000000000000000000000000001804000000000000000002000000000030EFA5
:3924F60000000000000000000000000000000000000000000000000000000000000000000000000000000040000060210000000000420100002000808C7D
:39252F000000000000000000000000000000000000000000000000000000000000000000000000000000000200000000000008008000010002000000FAEC
:392568000000000000000000000000000000000000000000000000000000000000000000000000000000000000000000000080000002000000000000D9DF
:3925A100000000000000000000000000000000000000000000000000000000000000000000000000000000000000000000E001000000000000000080E7B9
:3925DA00080000000000000000000000000000000000000000000000000000000000000000000000000000400400000000A00100004001004004002080B6
:392613000000000000000000000000000000000000000000000000000000000000000000000000000000000001000000008045000010000000000080E454
:39264C00000000000000000000000000000000000000000000000000000000000000000000000000000000060400000000E001008001010006040080BCA2
:392685000400000000000000000000000000000000000000000000000000000000000000000000000000000004000000000040000000010000040090AD92
:3926BE000000000000000000000000000000000000000000000000000000000000000000000000000000005800000000000000000010000098000000F4EF
:3926F7000000000000000000000000000000000000000000000000000000000000000000000000000000000202000001002000008002010080000000C0C2
:39273000000000000000000000000000000000000000000000000000000000000000000000000000000000000000002000800100000400000004008087C0
:39276900000000000000000000000000000000000000000000000000000000000000000000000000000000000000780000008000800300001E000000BFDF
:3927A200080000000000000000000000000000000000000000000000000000000000000000000000000000800400680000000800804401005A0400A0E956
:3927DB000000000000000000000000000000000000000000000000000000000000000000000000000000000001006012000044000010000000000080CBB3
:39281400000000000000000000000000000000000000000000000000000000000000000000000000000000061000780000600000800301001E040080CBAC
:39284D000400000000000000000000000000000000000000000000000000000000000000000000000000000000000010000000000004010018040010E12C
:392886000000000000000000000000000000000000000000000000000000000000000000000000000000008820000002000000020012000080000080C09B
:3928BF0000000000000000000000000000000000000000000000000000000000000000000000000000000000000000000000000000000000000000C0BD63
:3928F8002000048000100002400008000120000480001000000000000000000000000000000000800010000240000800012000048000100002400080F9AA
:392931000000000000000000000000000000000000000000000000000000000000000000000000000000000000000000000000000000000000000080F9F4
:39296A002800048000100002400008000120000480001000000000000000000000000000000000800010000240000800012000048000100002400030CAAE
:3929A3000000000000000000000000000000000000000000000000000000000000000000000000000000001000004000000001000004000010000090AC5A
:3929DC002000048000100002400008000120000480001000000000000000000000000000000000800010000040000000010000040000100000400000F1F9
:392A150004000000000000000000000000000000000000000000000000000000000000000000000000000000000000000000000000000000000000B08E46
:392A4E002000048000100002400008000120000480001000000000000000000000000000000000800010000240000800012000048000100002400080F952
:392A87000000000000000000000000000000000000000000000000000000000000000000000000000000000000000000000000000000000000000080F99D
:392AC0000000000000000000000000000000000000000000000000000000000000000000000000000000000000000000000000000000000000000080F964
:392AF9000000000000000000000000000000000000000000000000000000000000000000000000000000000000000000000000000000000000000080F92B
:392B320000000000000000000000000000000000000000000000000000000000000000000000000000000000000000000000000000000000000000C0BDED
:392B6B000000000000000000000000000000000000000000000000000000000000000000000000000000000000000000000000000000000000000080F9B8
:392BA4000000000000000000000000000000000000000000000000000000000000000000000000000000000000000000000000000000000000000080F97F
:392BDD000000000000000000000000000000000000000000000000000000000000000000000000000000000000000000000040000000000000000080BD42
:392C16000000000000000000000000000000000000000000000000000000000000000000000000000000000000000000000000000000010000000080F80C
:392C4F000000000000000000000000000000000000000000000000000000000000000000000000000000000000000000000080000000040000000000FDCB
:392C88000000000000000000000000000000000000000000000000000000000000000000000000000000000000000000000000000000000000000080F99A
:392CC1000000000000000000000000000000000000000000000000000000000000000000000000000000000000000000000000000000000000000080F961
:392CFA000000000000000000000000000000000000000000000000000000000000000000000000000000000000000000000000000000000000000080F928
:392D33000000000000000000000000000000000000000000000000000000000000000000000000000000000000000000000000000000000000000080F9EE
:392D6C000000000000000000000000000000000000000000000000000000000000000000000000000000000000000000000000000000000000200080D9B5
:392DA5000000000000000000000000000000000000000000000000000000000000000000000000000000000000000000000000000000000000000080F97C
:392DDE000000000000000000000000000000000000000000000000000000000000000000000000000000000000000000000000000000000000000080F943
:392E17000000000000000000000000000000000000000000000000000000000000000000000000000000000000000000000000000000000000000080F909
:392E50000000000000000000000000000000000000000000000000000000000000000000000000000000000000000000000000000000000000000080F9D0
:392E89000000000000000000000000000000000000000000000000000000000000000000000000000000000000000000000000000000000000000080F997
:392EC2000000000000000000000000000000000000000000000000000000000000000000000000000000000000000000000000000000000000000080F95E
:392EFB000000000000000000000000000000000000000000000000000000000000000000000000000000001000000000000000000000000000000080F816
:392F34000000000000000000000000000000000000000000000000000000000000000000000000000000000200000000000000000000000000000080DB07
:392F6D000000000000000000000000000000000000000000000000000000000000000000000000000000000004000010008000000000000000000008A8E7
:392FA60000000000000000000000000000000000000000000000000000000000000000000000000000000008000000000000000000020000080400C0918B
:392FDF000000000000000000000000000000000000000000000000000000000000000000000000000000000208000020004000008000000002100000CDF0
:393018000000000000000000000000000000000000000000000000000000000000000000000000000000000804002008008000000000800110040040F303
:393051000000000000000000000000000000000000000000000000000000000000000000000000000000000804002000008000000000000000040000B7DF
:39308A000000000000000000000000000000000000000000000000000000000000000000000000000000000000000010000000000000400008000000A015
:3930C3000000000000000000000000000000000000000000000000000000000000000000000000000000000000000000000001000000000000000080E96A
:3930FC000000000000000000000000000000000000000000000000000000000000000000000000000000000000004000004000000000000000100080E9A2
:393135000000000000000000000000000000000000000000000000000000000000000000000000000000000028000000004000000000000000000000D722
:39316E000000000000000000000000000000000000000000000000000000000000000000000000000000000000000000002080010000000000000000FA8D
:3931A7000000000000000000000000000000000000000000000000000000000000000000000000000000004000000000000000000000000000000080FD32
:3931E0000000000000000000000000000000000000000000000000000000000000000000000000000000000000000000000000000000000000000080F93D
:393219000000000000000000000000000000000000000000000000000000000000000000000000000000000000000000000000000000000000000080F903
:393252000000000000000000000000000000000000000000000000000000000000000000000000000000000000000000000000000000000000000080F9CA
:39328B000000000000000000000000000000000000000000000000000000000000000000000000000000000010000000000000000000000000000080E892
:3932C4000000000000000000000000000000000000000000000000000000000000000000000000000000000000000000000000000000000000000080F958
:3932FD000000000000000000000000000000000000000000000000000000000000000000000000000000000000000000000020000000040000100080CF15
:393336000000000000000000000000000000000000000000000000000000000000000000000000000000000000000000000000000000000000000080F9E5
:39336F000000000000000000000000000000000000000000000000000000000000000000000000000000000000000000000000000000000000000080F9AC
:3933A8000000000000000000000000000000000000000000000000000000000000000000000000000000000000000000000000000000000000000080F973
:3933E1000000000000000000000000000000000000000000000000000000000000000000000000000000000000000000000000000000000000000080F93A
:39341A000000000000000000000000000000000000000000000000000000000000000000000000000000000000000000000000000000000000000080F900
:393453000000000000000000000000000000000000000000000000000000000000000000000000000000000000000000000000000000000000000080F9C7
:39348C000000000000000000000000000000000000000000000000000000000000000000000000000000000000000000000000000000000000000080F98E
:3934C5000000000000000000000000000000000000000000000000000000000000000000000000000000000000000000000000000000000000000080F955
:3934FE000000000000000000000000000000000000000000000000000000000000000000000000000000000000000000000000000000000000000080F91C
:393537000000000000000000000000000000000000000000000000000000000000000000000000000000000000000000000000000000000000000080F9E2
:393570000000000000000000000000000000000000000000000000000000000000000000000000000000000000000000000000000000000000000080F9A9
:3935A9000000000000000000000000000000000000000000000000000000000000000000000000000000000000000000000000000000000000000080F970
:3935E2000C000000000000000000000000000000000000000000000000000000000000000000000000000000000000000000000000000000000000209FE5
:39361B000400000000000000000000000000000000000000000000000000000000000000000000000000000000000000000000000000000000000080BD35
:393654000000000000000000000000000000000000000000000000000000000000000000000000000000000000000000000000000000000000000080F9C4
:39368D000C00000000000000000000000000000000000000000000000000000000000000000000000000000000000000000000000000000000000010AC3C
:3936C6000000000000000000000000000000000000000000000000000000000000000000000000000000000000000000000000000000000000000080F952
:3936FF000000000000000000000000000000000000000000000000000000000000000000000000000000000000000000000000000000000000000080F919
:393738000000000000000000000000000000000000000000000000000000000000000000000000000000000000000000000000000000000000000080F9DF
:393771000000000000000000000000000000000000000000000000000000000000000000000000000000000000000000000000000000000000000080F9A6
:3937AA000800000000000000000000000000000000000000000000000000000000000000000000000000000000000000000000000000000000000020DBE3
:3937E3000000000000000000000000000000000000000000000000000000000000000000000000000000000000000000000000000000000000000080F934
:39381C000000000000000000000000000000000000000000000000000000000000000000000000000000000000000000000000000000000000000080F9FA
:393855000400000000000000000000000000000000000000000000000000000000000000000000000000000000000000000000000000000000000090ACFA
:39388E000000000000000000000000000000000000000000000000000000000000000000000000000000000000000000000000000000000000000080F988
:3938C7000000000000000000000000000000000000000000000000000000000000000000000000000000000000000000000000000000000000000080F94F
:393900000000000000000000000000000000000000000000000000000000000000000000000000000000000000000000000000000000000000000080F915
:393939000000000000000000000000000000000000000000000000000000000000000000000000000000000000000000000000000000000000000080F9DC
:393972000800000000000000000000000000000000000000000000000000000000000000000000000000000000000000000000000000000000000020DB19
:3939AB000000000000000000000000000000000000000000000000000000000000000000000000000000000000000000000000000000000000000080F96A
:3939E4000000000000000000000000000000000000000000000000000000000000000000000000000000000000000000000000000000000000000080F931
:393A1D000400000000000000000000000000000000000000000000000000000000000000000000000000000000000000000000000000000000000090AC30
:393A56000000000000000000000000000000000000000000000000000000000000000000000000000000000000000000000000000000000000000080F9BE
:393A8F000000000000000000000000000000000000000000000000000000000000000000000000000000000000000000000000000000000000000080F985
:393AC8000000000000000000000000000000000000000000000000000000000000000000000000000000000000000000000000000000000000000080F94C
:393B01000000000000000000000000000000000000000000000000000000000000000000000000000000000000000000000000000000000000000080F912
:393B3A000C000000000000000000000000000000000000000000000000000000000000000000000000000000000000000000000000000000000000209F87
:393B73000400000000000000000000000000000000000000000000000000000000000000000000000000000000000000000000000000000000000080BDD8
:393BAC000000000000000000000000000000000000000000000000000000000000000000000000000000000000000000000000000000000000000080F967
:393BE5000C00000000000000000000000000000000000000000000000000000000000000000000000000000000000000000000000000000000000010ACDF
:393C1E000000000000000000000000000000000000000000000000000000000000000000000000000000000000000000000000000000000000000080F9F4
:393C57000000000000000000000000000000000000000000000000000000000000000000000000000000000000000000000000000000000000000080F9BB
:393C90000000000000000000000000000000000000000000000000000000000000000000000000000000000000000000000000000000000000000080F982
:393CC9000000000000000000000000000000000000000000000000000000000000000000000000000000000000000000000000000000000000000080F949
:393D02000800000000000000000000000000000000000000000000000000000000000000000000000000000000000000000000000000000000000020DB85
:393D3B000000000000000000000000000000000000000000000000000000000000000000000000000000000000000000000000000000000000000080F9D6
:393D74000000000000000000000000000000000000000000000000000000000000000000000000000000000000000000000000000000000000000080F99D
:393DAD000400000000000000000000000000000000000000000000000000000000000000000000000000000000000000000000000000000000000090AC9D
:393DE6000000000000000000000000000000000000000000000000000000000000000000000000000000000000000000000000000000000000000080F92B
:393E1F000000000000000000000000000000000000000000000000000000000000000000000000000000000000000000000000000000000000000080F9F1
:393E58000000000000000000000000000000000000000000000000000000000000000000000000000000000000000000000000000000000000000080F9B8
:393E91000000000000000000000000000000000000000000000000000000000000000000000000000000000000000000000000000000000000000080F97F
:393ECA000C000000000000000000000000000000000000000000000000000000000000000000000000000000000000000000000000000000000000209FF4
:393F03000400000000000000000000000000000000000000000000000000000000000000000000000000000000000000000000000000000000000080BD44
:393F3C000000000000000000000000000000000000000000000000000000000000000000000000000000000000000000000000000000000000000080F9D3
:393F75000C00000000000000000000000000000000000000000000000000000000000000000000000000000000000000000000000000000000000010AC4B
:393FAE000000000000000000000000000000000000000000000000000000000000000000000000000000000000000000000000000000000000000080F961
:393FE7000000000000000000000000000000000000000000000000000000000000000000000000000000000000000000000000000000000000000080F928
:394020000000000000000000000000000000000000000000000000000000000000000000000000000000000000000000000000000000000000000080F9EE
:394059000000000000000000000000000000000000000000000000000000000000000000000000000000000000000000000000000000000000000080F9B5
:394092000C000000000000000000000000000000000000000000000000000000000000000000000000000000000000000000000000000000000000209F2A
:3940CB000400000000000000000000000000000000000000000000000000000000000000000000000000000000000000000000000000000000000080BD7B
:394104000000000000000000000000000000000000000000000000000000000000000000000000000000000000000000000000000000000000000080F909
:39413D000C00000000000000000000000000000000000000000000000000000000000000000000000000000000000000000000000000000000000010AC81
:394176000000000000000000000000000000000000000000000000000000000000000000000000000000000000000000000000000000000000000080F997
:3941AF000000000000000000000000000000000000000000000000000000000000000000000000000000000000000000000000000000000000000080F95E
:3941E8002000048000100002400008000120000480001000000000000000000000000000000000800010000240000800012000048000100002400080F9A1
:394221000000000000000000000000000000000000000000000000000000000000000000000000000000000000000000000000000000000000000080F9EB
:39425A002800048000100002400008000120000480001000000000000000000000000000000000800010000240000800012000048000100002400020DBA4
:394293000000000000000000000000000000000000000000000000000000000000000000000000000000000000000000000000000000000000000080F979
:3942CC002000048000100002400008000120000480001000000000000000000000000000000000800010000240000800012000048000100002400080F9BC
:394305000400000000000000000000000000000000000000000000000000000000000000000000000000000000000000000000000000000000000090AC3F
:39433E002000048000100002400008000120000480001000000000000000000000000000000000800010000240000800012000048000100002400080F949
:394377000000000000000000000000000000000000000000000000000000000000000000000000000000000000000000000000000000000000000080F994
:3943B0000000000000000000000000000000000000000000000000000000000000000000000000000000000000000000000000000000000000000080F95B
:3943E9000000000000000000000000000000000000000000000000000000000000000000000000000000000000000000000000000000000000000080F922
:394422000000000000000000000000000000000000000000000000000000000000000000000000000000000000000000000000000000000000000080F9E8
:39445B000000000000000000000000000000000000000000000000000000000000000000000000000000000000000000000000000000000000000080F9AF
:394494000000000000000000000000000000000000000000000000000000000000000000000000000000000000000000000000000000000000000080F976
:3944CD000000000000000000000000000000000000000000000000000000000000000000000000000000000000000000000000000000000000000080F93D
:394506000000000000000000000000000000000000000000000000000000000000000000000000000000000000000000000000000000000000000080F903
:39453F000000000000000000000000000000000000000000000000000000000000000000000000000000000000000000000000000000000000000080F9CA
:394578000000000000000000000000000000000000000000000000000000000000000000000000000000000000000000000000000000000000000080F991
:3945B1000000000000000000000000000000000000000000000000000000000000000000000000000000000000000000000000000000000000000080F958
:3945EA000000000000000000000000000000000000000000000000000000000000000000000000000000000000000000000000000000000000000080F91F
:394623000000000000000000000000000000000000000000000000000000000000000000000000000000000000000000000000000000000000000080F9E5
:39465C000000000000000000000000000000000000000000000000000000000000000000000000000000000000000000000000000000000000000080F9AC
:394695000000000000000000000000000000000000000000000000000000000000000000000000000000000000000000000000000000000000000080F973
:3946CE000000000000000000000000000000000000000000000000000000000000000000000000000000000000000000000000000000000000000080F93A
:394707000000000000000000000000000000000000000000000000000000000000000000000000000000000000000000000000000000000000000080F900
:394740000000000000000000000000000000000000000000000000000000000000000000000000000000000000000000000000000000000000000080F9C7
:394779000000000000000000000000000000000000000000000000000000000000000000000000000000000000000000000000000000000000000080F98E
:3947B2000000000000000000000000000000000000000000000000000000000000000000000000000000000000000000000000000000000000000080F955
:3947EB000000000000000000000000000000000000000000000000000000000000000000000000000000000000000000000000000000000000000080F91C
:394824000000000000000000000000000000000000000000000000000000000000000000000000000000000000000000000000000000000000000080F9E2
:39485D000000000000000000000000000000000000000000000000000000000000000000000000000000000000000000000000000000000000000080F9A9
:394896000000000000000000000000000000000000000000000000000000000000000000000000000000000000000000000000000000000000000080F970
:3948CF000000000000000000000000000000000000000000000000000000000000000000000000000000000000000000000000000000000000000080F937
:394908000000000000000000000000000000000000000000000000000000000000000000000000000000000000000000000000000000000000000080F9FD
:394941000000000000000000000000000000000000000000000000000000000000000000000000000000000000000000000000000000000000000080F9C4
:39497A000000000000000000000000000000000000000000000000000000000000000000000000000000000000000000000000000000000000000080F98B
:3949B3000000000000000000000000000000000000000000000000000000000000000000000000000000000000000000000000000000000000000080F952
:3949EC000000000000000000000000000000000000000000000000000000000000000000000000000000000000000000000000000000000000000080F919
:394A25000000000000000000000000000000000000000000000000000000000000000000000000000000000000000000000000000000000000000080F9DF
:394A5E000000000000000000000000000000000000000000000000000000000000000000000000000000000000000000000000000000000000000080F9A6
:394A97000000000000000000000000000000000000000000000000000000000000000000000000000000000000000000000000000000000000000080F96D
:394AD0000000000000000000000000000000000000000000000000000000000000000000000000000000000000000000000000000000000000000080F934
:394B09000000000000000000000000000000000000000000000000000000000000000000000000000000000000000000000000000000000000000080F9FA
:394B42000000000000000000000000000000000000000000000000000000000000000000000000000000000000000000000000000000000000000080F9C1
:394B7B000000000000000000000000000000000000000000000000000000000000000000000000000000000000000000000000000000000000000080F988
:394BB4000000000000000000000000000000000000000000000000000000000000000000000000000000000000000000000000000000000000000080F94F
:394BED000000000000000000000000000000000000000000000000000000000000000000000000000000000000000000000000000000000000000080F916
:394C26000000000000000000000000000000000000000000000000000000000000000000000000000000000000000000000000000000000000000080F9DC
:394C5F000000000000000000000000000000000000000000000000000000000000000000000000000000000000000000000000000000000000000080F9A3
:394C98000000000000000000000000000000000000000000000000000000000000000000000000000000000000000000000000000000000000000080F96A
:394CD1000000000000000000000000000000000000000000000000000000000000000000000000000000000000000000000000000000000000000080F931
:394D0A000000000000000000000000000000000000000000000000000000000000000000000000000000000000000000000000000000000000000080F9F7
:394D43000017400248000920012480049000124002480009000000000000000000000000000000004800092001248004900012400248001D20012480EC7B
:394D7C00800C8001300006C00018000360000C800130000600000000000000000000000000000000300006C00018000360000C8001300026C0001880F31E
:024DB500FFFFFE
:00000001FF
