:020000040000FA
:39000000FFFF62FF3600FFFFFFFFFFFFFFFFFFFFFFFFFFFFFFFFFFFFFFFFFFFFFFFFFFFFFFFFFFFFFFFFFFFFFFFFFFFFFFFFFFFFFFFFFFFFFFFFFFFFFF65
:39003900000C8001300006C00018000360000C800130000600000000000000000000000000000000300006C00018000360000C8001300006C0001880F948
:390072000012400248000920012480049000124002480009000000000000000000000000000000004800092001248004900012400248000920012480F9A5
:3900AB000000000000000000000000000000000000000000000000000000000000000000000000000000000000000000000000000000000000000080F9A3
:3900E4000000000000000000000000000000000000000000000000000000000000000000000000000000000000000000000000000000000000000080F96A
:39011D000000000000000000000000000000000000000000000000000000000000000000000000000000000000000000000000000000000000000080F930
:390156000000000000000000000000000000000000000000000000000000000000000100000000000000000000000000000000000000000000000080E807
:39018F000000008040080000000000000000000000000000000000000000000000000000000000000000000000000000000000000000000000000080BD32
:3901C8000000000004000000000000000000000000000000000000000000000000000000000000000000000000000000000000000000000000000080B9C1
:39020100000000000600000000000000000000000000000000000000000000000000000000000000000000000000000000000000000000000000008099A5
:39023A000000000044020000000000000000000000000000000000000000000000000000000000000000000000000000000000000000000000000080FFC6
:3902730000000000420100000000000000000000000000000000000000000000000000000000000000000000000000000000000000000000000000809CF3
:3902AC0000000080070000000000000000000000000000000000000000000000000000000000000000000000000000000000000000000000000000808191
:3902E5000000000002000000000000000000000000000000000000000000000000000000000000000000000000000000000000000000000000000080D985
:39031E000000000040010000000000000000000000000000000000000000000000000000000000000000000000000000000000000000000000000080BC29
:3903570000000080C20000000000000000000000000000000000000000000000000000000000000000000000000000000000000000000000000000009596
:390390000000000004000000000000000000000000000000000000000000000000000000000000000000000000000000000000000000000000000080B9F7
:3903C900000000000601000000000000000000000000000000000000000000000000000000000000000000000000000000000000000000000000008098DC
:3904020008000000400000000000000000000000000000000000000000000000000000000000000000000000000000000000000000000000000000209FBA
:39043B000000000012000000000000000000000000000000000000000000000000000000000000000000000000000000000000000000000000000080C82E
:390474000000008005010000000000000000000000000000000000000000000000000000000000000000000000000000000000000000000000000080A0A9
:3904AD000400000006000000000000000000000000000000000000000000000000000000000000000000000000000000000000000000000000000090CCB0
:3904E6000000000040020000000000000000000000000000000000000000000000000000000000000000000000000000000000000000000000000080BF5C
:39051F001000000080000000000000000000000000000000000000000000000000000000000000000000000000000000000000000000000000000000F81B
:390558000000000000000000000000000000000000000000000000000000000000000000000000000000000000000000000000000000000000000080F9F1
:390591000000008001000000000000000000000000000000000000000000000000000000000000000000000000000000000000000000000000000080E14F
:3905CA000C00008000000000000000000000000000000000000000000000000000000000000000000000000000000000000000000000000000000010A4B8
:3906030004000000460000000000000000000000000000000000000000000000000000000000000000000000000000000000000000000000000000B0AA1A
:39063C00000000800701000000000000000000000000000000000000000000000000000000000000000000000000000000000000000000000000008080FD
:390675000C000000000200000000000000000000000000000000000000000000000000000000000000000000000000000000000000000000000000209D81
:3906AE000000000040000000000000000000000000000000000000000000000000000000000000000000000000000000000000000000000000000080BD96
:3906E7000000000080000000000000000000000000000000000000000000000000000000000000000000000000000000000000000000000000000000F961
:390720000000000000000000000000000000000000000000000000000000000000000000000000000000000000000000000000000000000000000080F927
:390759000000008001000000000000000000000000000000000000000000000000000000000000000000000000000000000000000000000000000080E185
:390792000800008000000000000000000000000000000000000000000000000000000000000000000000000000000000000000000000000000000020D3B3
:3907CB00000000000600000000000000000000000000000000000000000000000000000000000000000000000000000000000000000000000000008099D6
:3908040000000080070100000000000000000000000000000000000000000000000000000000000000000000000000000000000000000000000000808033
:39083D000400000000020000000000000000000000000000000000000000000000000000000000000000000000000000000000000000000000000090AE3E
:390876000000000040000000000000000000000000000000000000000000000000000000000000000000000000000000000000000000000000000080BDCC
:3908AF001000008000000000000000000000000080200000000000000000000000000000000000000000000000000000000000000000000000000000D010
:3908E8000000000000000000000000000000000000040200000000000000000000000000000000000000000000000000000000000000000000000080DF72
:390921000000000000000000000000000000000000060000000000000000000000000000000000000000000000000000000000000000000000000080FF18
:39095A000C00000000000000000000000000000000040200000000000000000000000000000000000000000000000000000000000000000000000020B979
:390993000400000040010000000000000000000000420100000000000000000000000000000000000000000000000000000000000000000000000080AB78
:3909CC000000008001000000000000000000000080070000000000000000000000000000000000000000000000000000000000000000000000000000E604
:390A05000C00000006000000000000000000000000020000000000000000000000000000000000000000000000000000000000000000000000000010CEC6
:390A3E000000000046010000000000000000000000200400000000000000000000000000000000000000000000000000000000000000000000000080B8DC
:390A77001000008000000000000000000000000080060000000000000000000000000000000000000000000000000000000000000000000000000000F63A
:390AB0000000000000000000000000000000000000000000000000000000000000000000000000000000000000000000000000000000000000000080F994
:390AE9000000000000000000000000000000000000060000000000000000000000000000000000000000000000000000000000000000000000000080FF4F
:390B22000C000000100100000000000000000000008600000000000000000000000000000000000000000000000000000000000000000000000000A081D6
:390B5B000400000040010000000000000000000000400100000000000000000000000000000000000000000000000000000000000000000000000080A9B2
:390B94000000008001000000000000000000000080070000000000000000000000000000000000000000000000000000000000000000000000000000E63A
:390BCD000C00000000000000000000000000000000000000000000000000000000000000000000000000000000000000000000000000000000000010AC27
:390C06000000000046010000000000000000000000000200000000000000000000000000000000000000000000000000000000000000000000000080FEEE
:390C3F000000008000000000000000000000000000000100000000000000000000000000000000000000000000000000000000000000000000000080E09B
:390C78000000000000000000000000000000000000000000000000000000000000000000000000000000000000000000000000000000000000000080F9CA
:390CB1000000000000000000000000000000000080010000000000000000000000000000000000000000000000000000000000000000000000000000F891
:390CEA0008000000400200000000000000000000800000000000000000000000000000000000000000000000000000000000000000000000000000A09DCA
:390D23000000000000000000000000000000000000160100000000000000000000000000000000000000000000000000000000000000000000000080FE02
:390D5C000000008001040000000000000000000080070000000000000000000000000000000000000000000000000000000000000000000000000000E270
:390D950004000000000100000000000000000000000002000000000000000000000000000000000000000000000000000000000000000000000000908FFF
:390DCE000000000026000000000000000000000000400000000000000000000000000000000000000000000000000000000000000000000000000080FB0B
:390E07001000000080000000000000000000000080000000000000000000000000000000000000000000000000000000000000000000000000000080F82A
:390E40000000000000000000000000000000000000000000000000000000000000000000000000000000000000000000000000000000000000000080F900
:390E79000000008001000000000000000000000000060000000000000000000000000000000000000000000000000000000000000000000000000080E752
:390EB2000C0000800000000000000000000000000006000000000000000000000000000000000000000000000000000000000000000000000000002091C4
:390EEB000400000046040000000000000000000000460000000000000000000000000000000000000000000000000000000000000000000000000080DBDF
:390F24000000008007000000000000000000000080070200000000000000000000000000000000000000000000000000000000000000000000000000A4E0
:390F5D000C00000000020000000000000000000000060000000000000000000000000000000000000000000000000000000000000000000000000010A88F
:390F96000000000040000000000000000000000000160800000000000000000000000000000000000000000000000000000000000000000000000000AB19
:390FCF001000000000000000000000000000000000000000000000000000000000000000000000000000000000000000000000000000000000000080F861
:391008002000048000100002400008000120000480001000000000000000000000000000000000800010000240000800012000048000100002400080F9B2
:391041000000000000000000000000000000000000000000000000000000000000000000000000000000000000000000000000000000000000000080F9FD
:39107A002C00048000100002400008000120000480001000000000000000000000000000000000800010000240000800012000048000100002400010ACF1
:3910B30004000000040000000000000000000000000400000000000000000000000000000000000000000000000000000000000000000000000000B0CA7E
:3910EC002000040000100002400008000120000400001000000000000000000000000000000000800010000240000800012000048000100002400000F156
:391125000C000000000000000000000000000000000000000000000000000000000000000000000000000000000000000000000000000000000000209FC6
:39115E002000048000100002400008000120000480001000000000000000000000000000000000800010000240000800012000048000100002400080F95B
:391197000000000000000000000000000000000000000000000000000000000000000000000000000000000000000000000000000000000000000080F9A6
:3911D0000000000000000000000000000000000000000000000000000000000000000000000000000000000000000000000000000000000000000080F96D
:391209000000000000000000000000000000000000000000000000000000000000000000000000000000000000000000000000000000000000000080F933
:391242000800000000000000000000000000000000000000000000000000000000000000000000000000000000000000000000000000000000000000F972
:39127B000000000000000000000000000000000000000000000000000000000000000000000000000000000000000000000000000000000000000080F9C1
:3912B4000000000000000000000000000000000000000000000000000000000000000000000000000000000000000000000000000000000000000080F988
:3912ED000000000000000000000000000000000000000000000000000000000000000000000000000000000000000000000000000000000000000080F94F
:391326000200000000000000000000000000000000000000000000000000000000000000000000000000000000000000000000000000000000000080DB31
:39135F000000000000000000000000000000000000000000000000000000000000000000000000000000000000000000000000000000000000000080F9DC
:391398000000000002002800000000000000000000000000000000000000000000000000000000000000000000000000000000000000000000000000DB17
:3913D1000000000002002000000000000000000000000000000000000000000000000000000000000000000000000000000000000000000000000080DB66
:39140A000200000000000000000000000000000000000000000000000000000000000000000000000000000000000000000000000000000000000080DB4C
:391443000000000000000000000000000000000000000000000000000000000000000000000000000000000000000000000000000000000000000080F9F7
:39147C000000000000000000000000000000000000000000000000000000000000000000000000000000000000000000000000000000000000000080F9BE
:3914B5000000000000000000000000000000000000000000000000000000000000000000000000000000000000000000000000000000000000000080F985
:3914EE000000000000000000000000000000000000000000000000000000000000000000000000000000000000000000000000000000000000000080F94C
:391527000000000000000000000000000000000000000000000000000000000000000000000000000000000000000000000000000000000000000080F912
:391560000000000000000000000000000000000000000000000000000000000000000000000000000000000000000000000000000000000000000080F9D9
:391599000000000004000000000000000000000000080000000000000000000000000000000000000000000000000000000000000000000000000080B1DC
:3915D2000000000002000000000000000000000000020000000000000000000000000000000000000000000000000000000000000000000000000080DB81
:39160B000000008000000000000000000000000000040800000000000000000000000000000000000000000000000000000000000000000000000000F525
:391644000000008000040000000000000000000000000000000000000000000000000000000000000000000000000000000000000000000000000080F574
:39167D000000000000000000000000000000000000000000000000000000000000000000000000000000000000000000000000000000000000000080F9BB
:3916B6000000000000002000000000000000000000020000000000000000000000000000000000000000000000000000000000000000000000000080F960
:3916EF000000000000008000000000000000000080000000000000000000000000000000000000000000000000000000000000000000000000000020D3CF
:39172800000000000200040000000000000000000002800100000000000000000000000000000000000000000000000000000000000000000000008087F8
:391761000000000002000000000000000000000000020000000000000000000000000000000000000000000000000000000000000000000000000080DBF0
:39179A000000000000000000000000000000000000004000000000000000000000000000000000000000000000000000000000000000000000000080FD59
:3917D3000000000000000000000000000000000000000000000000000000000000000000000000000000000000000000000000000000000000000080F964
:39180C000000000010000000000000000000000000000000000000000000000000000000000000000000000000000000000000000000000000000080E82B
:391845000000000000000000000000000000000000000000000000000000000000000000000000000000000000000000000000000000000000000080F9F1
:39187E000000000000000000000000000000000000000200000000000000000000000000000000000000000000000000000000000000000000000080DBD4
:3918B7000000000000000000000000000000000000000000000000000000000000000000000000000000000000000000000000000000000000000008F1FF
:3918F0001400000000020000000000000000000000000000000000000000000000000000000000000000000000000000000000000000000000000080BE6B
:391929000000000000000000000000000000000080000000000000000000000000000000000000000000000000000000000000000000000000000000F90C
:391962000000000000000000000000000000000000000000000000000000000000000000000000000000000000000000000000000000000000000080F9D3
:39199B000000000000000000000000000000000000000000000000000000000000000000000000000000000000000000000000000000000000000080F99A
:3919D4000200000000000000000000000000000000000000000000000000000000000000000000000000000000000000000000000000000000000080DB7D
:391A0D000000000000000000000000000000000000000000000000000000000000000000000000000000000000000000000000000000000000000080F927
:391A46000000000000000000000000000000000000000000000000000000000000000000000000000000000000000000000000000000000000000080F9EE
:391A7F000000000000000000000000000000000000000000000000000000000000000000000000000000000000000000000000000000000000000080F9B5
:391AB8000000000000000000000000000000000000000000000000000000000000000000000000000000000000000000000000000000000000000080F97C
:391AF1000000000000000000000000000000000000000000000000000000000000000000000000000000000000000000000000000000000000000080F943
:391B2A000000000000000000000000000000000000000000000000000000000000000000000000000000000000000000000000000000000000000080F909
:391B63000000000000000000000000000000000000000000000000000000000000000000000000000000000000000000000000000000000000000080F9D0
:391B9C000000000000000000000000000000000000000000000000000000000000000000000000000000000000000000000000000000000000000080F997
:391BD5000000000000000000000000000000000000000000000000000000000000000000000000000000000000000000000000000000000000000080F95E
:391C0E000000000000000000000000000000000000000000000000000000000000000000000000000000000000000000000000000000000000000080F924
:391C47000000000000000000000000000000000000000000000000000000000000000000000000000000000000000000000000000000000000000080F9EB
:391C80000000000000000000000000000000000000000000000000000000000000000000000000000000000000000000000000000000000000000080F9B2
:391CB9000000000000000000000000000000000000000000000000000000000000000000000000000000000000000000000000000000000000000080F979
:391CF2000800000000000000000000000000000000000000000000000000000000000000000000000000000000000000000000000000000000000020DBB6
:391D2B000000000000000000000000000000000000000000000000000000000000000000000000000000000000000000000000000000000000000080F906
:391D64000000000000000000000000000000000000000000000000000000000000000000000000000000000000000000000000000000000000000080F9CD
:391D9D000400000000000000000000000000000000000000000000000000000000000000000000000000000000000000000000000000000000000090ACCD
:391DD6000000000000000000000000000000000000000000000000000000000000000000000000000000000000000000000000000000000000000080F95B
:391E0F000000000000000000000000000000000000000000000000000000000000000000000000000000000000000000000000000000000000000080F921
:391E48000000000000000000000000000000000000000000000000000000000000000000000000000000000000000000000000000000000000000080F9E8
:391E81000000000000000000000000000000000000000000000000000000000000000000000000000000000000000000000000000000000000000080F9AF
:391EBA000800000000000000000000000000000000000000000000000000000000000000000000000000000000000000000000000000000000000020DBEC
:391EF3000000000000000000000000000000000000000000000000000000000000000000000000000000000000000000000000000000000000000080F93D
:391F2C000000000000000000000000000000000000000000000000000000000000000000000000000000000000000000000000000000000000000080F903
:391F65000400000000000000000000000000000000000000000000000000000000000000000000000000000000000000000000000000000000000090AC03
:391F9E000000000000000000000000000000000000000000000000000000000000000000000000000000000000000000000000000000000000000080F991
:391FD7000000000000000000000000000000000000000000000000000000000000000000000000000000000000000000000000000000000000000080F958
:392010000000000000000000000000000000000000000000000000000000000000000000000000000000000000000000000000000000000000000080F91E
:392049000000000000000000000000000000000000000000000000000000000000000000000000000000000000000000000000000000000000000080F9E5
:392082000800000000000000000000000000000000000000000000000000000000000000000000000000000000000000000000000000000000000020DB22
:3920BB000000000000000000000000000000000000000000000000000000000000000000000000000000000000000000000000000000000000000080F973
:3920F4000000000000000000000000000000000000000000000000000000000000000000000000000000000000000000000000000000000000000080F93A
:39212D000400000000000000000000000000000000000000000000000000000000000000000000000000000000000000000000000000000000000090AC39
:392166000000000000000000000000000000000000000000000000000000000000000000000000000000000000000000000000000000000000000080F9C7
:39219F000000000000000000000000000000000000000000000000000000000000000000000000000000000000000000000000000000000000000080F98E
:3921D8000000000000000000000000000000000000000000000000000000000000000000000000000000000000000000000000000000000000000080F955
:392211000000000000000000000000000000000000000000000000000000000000000000000000000000000000000000000000000000000000000080F91B
:39224A000800000000000000000000000000000000000000000000000000000000000000000000000000000000000000000000000000000000000020DB58
:392283000000000000000000000000000000000000000000000000000000000000000000000000000000000000000000000000000000000000000080F9A9
:3922BC000000000000000000000000000000000000000000000000000000000000000000000000000000000000000000000000000000000000000080F970
:3922F5000400000000000000000000000000000000000000000000000000000000000000000000000000000000000000000000000000000000000090AC70
:39232E000000000000000000000000000000000000000000000000000000000000000000000000000000000000000000000000000000000000000080F9FD
:392367000000000000000000000000000000000000000000000000000000000000000000000000000000000000000000000000000000000000000080F9C4
:3923A0000000000000000000000000000000000000000000000000000000000000000000000000000000000000000000000000000000000000000080F98B
:3923D9000000000000000000000000000000000000000000000000000000000000000000000000000000000000000000000000000000000000000080F952
:392412000800000000000000000000000000000000000000000000000000000000000000000000000000000000000000000000000000000000000020DB8E
:39244B000000000000000000000000000000000000000000000000000000000000000000000000000000000000000000000000000000000000000080F9DF
:392484000000000000000000000000000000000000000000000000000000000000000000000000000000000000000000000000000000000000000080F9A6
:3924BD000400000000000000000000000000000000000000000000000000000000000000000000000000000000000000000000000000000000000090ACA6
:3924F6000000000000000000000000000000000000000000000000000000000000000000000000000000000000000000000000000000000000000080F934
:39252F000000000000000000000000000000000000000000000000000000000000000000000000000000000000000000000000000000000000000080F9FA
:392568000000000000000000000000000000000000000000000000000000000000000000000000000000000000000000000000000000000000000080F9C1
:3925A1000000000000000000000000000000000000000000000000000000000000000000000000000000000000000000000000000000000000000080F988
:3925DA000800000000000000000000000000000000000000000000000000000000000000000000000000000000000000000000000000000000000020DBC5
:392613000000000000000000000000000000000000000000000000000000000000000000000000000000000000000000000000000000000000000080F915
:39264C000000000000000000000000000000000000000000000000000000000000000000000000000000000000000000000000000000000000000080F9DC
:392685000400000000000000000000000000000000000000000000000000000000000000000000000000000000000000000000000000000000000090ACDC
:3926BE000000000000000000000000000000000000000000000000000000000000000000000000000000000000000000000000000000000000000080F96A
:3926F7000000000000000000000000000000000000000000000000000000000000000000000000000000000000000000000000000000000000000080F931
:392730000000000000000000000000000000000000000000000000000000000000000000000000000000000000000000000000000000000000000080F9F7
:392769000000000000000000000000000000000000000000000000000000000000000000000000000000000000000000000000000000000000000080F9BE
:3927A2000800000000000000000000000000000000000000000000000000000000000000000000000000000000000000000000000000000000000020DBFB
:3927DB000000000000000000000000000000000000000000000000000000000000000000000000000000000000000000000000000000000000000080F94C
:392814000000000000000000000000000000000000000000000000000000000000000000000000000000000000000000000000000000000000000080F912
:39284D000400000000000000000000000000000000000000000000000000000000000000000000000000000000000000000000000000000000000090AC12
:392886000000000000000000000000000000000000000000000000000000000000000000000000000000000000000000000000000000000000000080F9A0
:3928BF000000000000000000000000000000000000000000000000000000000000000000000000000000000000000000000000000000000000000080F967
:3928F8002000048000100002400008000120000480001000000000000000000000000000000000800010000240000800012000048000100002400080F9AA
:392931000000000000000000000000000000000000000000000000000000000000000000000000000000000000000000000000000000000000000080F9F4
:39296A002800048000100002400008000120000480001000000000000000000000000000000000800010000240000800012000048000100002400020DBAD
:3929A3000000000000000000000000000000000000000000000000000000000000000000000000000000000000000000000000000000000000000080F982
:3929DC002000048000100002400008000120000480001000000000000000000000000000000000800010000240000800012000048000100002400080F9C5
:392A15000400000000000000000000000000000000000000000000000000000000000000000000000000000000000000000000000000000000000090AC48
:392A4E002000048000100002400008000120000480001000000000000000000000000000000000800010000240000800012000048000100002400080F952
:392A87000000000000000000000000000000000000000000000000000000000000000000000000000000000000000000000000000000000000000080F99D
:392AC0000000000000000000000000000000000000000000000000000000000000000000000000000000000000000000000000000000000000000080F964
:392AF9000000000000000000000000000000000000000000000000000000000000000000000000000000000000000000000000000000000000000080F92B
:392B32000000000000000000000000000000000000000000000000000000000000000000000000000000000000000000000000000000000000000080F9F1
:392B6B000000000000000000000000000000000000000000000000000000000000000000000000000000000000000000000000000000000000000080F9B8
:392BA4000000000000000000000000000000000000000000000000000000000000000000000000000000000000000000000000000000000000000080F97F
:392BDD000000000000000000000000000000000000000000000000000000000000000000000000000000000000000000000000000000000000000080F946
:392C16000000000000000000000000000000000000000000000000000000000000000000000000000000000000000000000000000000000000000080F90C
:392C4F000000000000000000000000000000000000000000000000000000000000000000000000000000000000000000000000000000000000000080F9D3
:392C88000000000000000000000000000000000000000000000000000000000000000000000000000000000000000000000000000000000000000080F99A
:392CC1000000000000000000000000000000000000000000000000000000000000000000000000000000000000000000000000000000000000000080F961
:392CFA000000000000000000000000000000000000000000000000000000000000000000000000000000000000000000000000000000000000000080F928
:392D33000000000000000000000000000000000000000000000000000000000000000000000000000000000000000000000000000000000000000080F9EE
:392D6C000000000000000000000000000000000000000000000000000000000000000000000000000000000000000000000000000000000000000080F9B5
:392DA5000000000000000000000000000000000000000000000000000000000000000000000000000000000000000000000000000000000000000080F97C
:392DDE000000000000000000000000000000000000000000000000000000000000000000000000000000000000000000000000000000000000000080F943
:392E17000000000000000000000000000000000000000000000000000000000000000000000000000000000000000000000000000000000000000080F909
:392E50000000000000000000000000000000000000000000000000000000000000000000000000000000000000000000000000000000000000000080F9D0
:392E89000000000000000000000000000000000000000000000000000000000000000000000000000000000000000000000000000000000000000080F997
:392EC2000000000000000000000000000000000000000000000000000000000000000000000000000000000000000000000000000000000000000080F95E
:392EFB000000000000000000000000000000000000000000000000000000000000000000000000000000000000000000000000000000000000000080F925
:392F34000000000000000000000000000000000000000000000000000000000000000000000000000000000000000000000000000000000000000080F9EB
:392F6D000000000000000000000000000000000000000000000000000000000000000000000000000000000000000000000000000000000000000080F9B2
:392FA6000000000000000000000000000000000000000000000000000000000000000000000000000000000000000000000000000000000000000080F979
:392FDF000000000000000000000000000000000000000000000000000000000000000000000000000000000000000000000000000000000000000080F940
:393018000000000000000000000000000000000000000000000000000000000000000000000000000000000000000000000000000000000000000080F906
:393051000000000000000000000000000000000000000000000000000000000000000000000000000000000000000000000000000000000000000080F9CD
:39308A000000000000000000000000000000000000000000000000000000000000000000000000000000000000000000000000000000000000000080F994
:3930C3000000000000000000000000000000000000000000000000000000000000000000000000000000000000000000000000000000000000000080F95B
:3930FC000000000000000000000000000000000000000000000000000000000000000000000000000000000000000000000000000000000000000080F922
:393135000000000000000000000000000000000000000000000000000000000000000000000000000000000000000000000000000000000000000080F9E8
:39316E000000000000000000000000000000000000000000000000000000000000000000000000000000000000000000000000000000000000000080F9AF
:3931A7000000000000000000000000000000000000000000000000000000000000000000000000000000000000000000000000000000000000000080F976
:3931E0000000000000000000000000000000000000000000000000000000000000000000000000000000000000000000000000000000000000000080F93D
:393219000000000000000000000000000000000000000000000000000000000000000000000000000000000000000000000000000000000000000080F903
:393252000000000000000000000000000000000000000000000000000000000000000000000000000000000000000000000000000000000000000080F9CA
:39328B000000000000000000000000000000000000000000000000000000000000000000000000000000000000000000000000000000000000000080F991
:3932C4000000000000000000000000000000000000000000000000000000000000000000000000000000000000000000000000000000000000000080F958
:3932FD000000000000000000000000000000000000000000000000000000000000000000000000000000000000000000000000000000000000000080F91F
:393336000000000000000000000000000000000000000000000000000000000000000000000000000000000000000000000000000000000000000080F9E5
:39336F000000000000000000000000000000000000000000000000000000000000000000000000000000000000000000000000000000000000000080F9AC
:3933A8000000000000000000000000000000000000000000000000000000000000000000000000000000000000000000000000000000000000000080F973
:3933E1000000000000000000000000000000000000000000000000000000000000000000000000000000000000000000000000000000000000000080F93A
:39341A000000000000000000000000000000000000000000000000000000000000000000000000000000000000000000000000000000000000000080F900
:393453000000000000000000000000000000000000000000000000000000000000000000000000000000000000000000000000000000000000000080F9C7
:39348C000000000000000000000000000000000000000000000000000000000000000000000000000000000000000000000000000000000000000080F98E
:3934C5000000000000000000000000000000000000000000000000000000000000000000000000000000000000000000000000000000000000000080F955
:3934FE000000000000000000000000000000000000000000000000000000000000000000000000000000000000000000000000000000000000000080F91C
:393537000000000000000000000000000000000000000000000000000000000000000000000000000000000000000000000000000000000000000080F9E2
:393570000000000000000000000000000000000000000000000000000000000000000000000000000000000000000000000000000000000000000080F9A9
:3935A9000000000000000000000000000000000000000000000000000000000000000000000000000000000000000000000000000000000000000080F970
:3935E2000800000000000000000000000000000000000000000000000000000000000000000000000000000000000000000000000000000000000020DBAD
:39361B000000000000000000000000000000000000000000000000000000000000000000000000000000000000000000000000000000000000000080F9FD
:393654000000000000000000000000000000000000000000000000000000000000000000000000000000000000000000000000000000000000000080F9C4
:39368D000400000000000000000000000000000000000000000000000000000000000000000000000000000000000000000000000000000000000090ACC4
:3936C6000000000000000000000000000000000000000000000000000000000000000000000000000000000000000000000000000000000000000080F952
:3936FF000000000000000000000000000000000000000000000000000000000000000000000000000000000000000000000000000000000000000080F919
:393738000000000000000000000000000000000000000000000000000000000000000000000000000000000000000000000000000000000000000080F9DF
:393771000000000000000000000000000000000000000000000000000000000000000000000000000000000000000000000000000000000000000080F9A6
:3937AA000800000000000000000000000000000000000000000000000000000000000000000000000000000000000000000000000000000000000020DBE3
:3937E3000000000000000000000000000000000000000000000000000000000000000000000000000000000000000000000000000000000000000080F934
:39381C000000000000000000000000000000000000000000000000000000000000000000000000000000000000000000000000000000000000000080F9FA
:393855000400000000000000000000000000000000000000000000000000000000000000000000000000000000000000000000000000000000000090ACFA
:39388E000000000000000000000000000000000000000000000000000000000000000000000000000000000000000000000000000000000000000080F988
:3938C7000000000000000000000000000000000000000000000000000000000000000000000000000000000000000000000000000000000000000080F94F
:393900000000000000000000000000000000000000000000000000000000000000000000000000000000000000000000000000000000000000000080F915
:393939000000000000000000000000000000000000000000000000000000000000000000000000000000000000000000000000000000000000000080F9DC
:393972000800000000000000000000000000000000000000000000000000000000000000000000000000000000000000000000000000000000000020DB19
:3939AB000000000000000000000000000000000000000000000000000000000000000000000000000000000000000000000000000000000000000080F96A
:3939E4000000000000000000000000000000000000000000000000000000000000000000000000000000000000000000000000000000000000000080F931
:393A1D000400000000000000000000000000000000000000000000000000000000000000000000000000000000000000000000000000000000000090AC30
:393A56000000000000000000000000000000000000000000000000000000000000000000000000000000000000000000000000000000000000000080F9BE
:393A8F000000000000000000000000000000000000000000000000000000000000000000000000000000000000000000000000000000000000000080F985
:393AC8000000000000000000000000000000000000000000000000000000000000000000000000000000000000000000000000000000000000000080F94C
:393B01000000000000000000000000000000000000000000000000000000000000000000000000000000000000000000000000000000000000000080F912
:393B3A000800000000000000000000000000000000000000000000000000000000000000000000000000000000000000000000000000000000000020DB4F
:393B73000000000000000000000000000000000000000000000000000000000000000000000000000000000000000000000000000000000000000080F9A0
:393BAC000000000000000000000000000000000000000000000000000000000000000000000000000000000000000000000000000000000000000080F967
:393BE5000400000000000000000000000000000000000000000000000000000000000000000000000000000000000000000000000000000000000090AC67
:393C1E000000000000000000000000000000000000000000000000000000000000000000000000000000000000000000000000000000000000000080F9F4
:393C57000000000000000000000000000000000000000000000000000000000000000000000000000000000000000000000000000000000000000080F9BB
:393C90000000000000000000000000000000000000000000000000000000000000000000000000000000000000000000000000000000000000000080F982
:393CC9000000000000000000000000000000000000000000000000000000000000000000000000000000000000000000000000000000000000000080F949
:393D02000800000000000000000000000000000000000000000000000000000000000000000000000000000000000000000000000000000000000020DB85
:393D3B000000000000000000000000000000000000000000000000000000000000000000000000000000000000000000000000000000000000000080F9D6
:393D74000000000000000000000000000000000000000000000000000000000000000000000000000000000000000000000000000000000000000080F99D
:393DAD000400000000000000000000000000000000000000000000000000000000000000000000000000000000000000000000000000000000000090AC9D
:393DE6000000000000000000000000000000000000000000000000000000000000000000000000000000000000000000000000000000000000000080F92B
:393E1F000000000000000000000000000000000000000000000000000000000000000000000000000000000000000000000000000000000000000080F9F1
:393E58000000000000000000000000000000000000000000000000000000000000000000000000000000000000000000000000000000000000000080F9B8
:393E91000000000000000000000000000000000000000000000000000000000000000000000000000000000000000000000000000000000000000080F97F
:393ECA000800000000000000000000000000000000000000000000000000000000000000000000000000000000000000000000000000000000000020DBBC
:393F03000000000000000000000000000000000000000000000000000000000000000000000000000000000000000000000000000000000000000080F90C
:393F3C000000000000000000000000000000000000000000000000000000000000000000000000000000000000000000000000000000000000000080F9D3
:393F75000400000000000000000000000000000000000000000000000000000000000000000000000000000000000000000000000000000000000090ACD3
:393FAE000000000000000000000000000000000000000000000000000000000000000000000000000000000000000000000000000000000000000080F961
:393FE7000000000000000000000000000000000000000000000000000000000000000000000000000000000000000000000000000000000000000080F928
:394020000000000000000000000000000000000000000000000000000000000000000000000000000000000000000000000000000000000000000080F9EE
:394059000000000000000000000000000000000000000000000000000000000000000000000000000000000000000000000000000000000000000080F9B5
:394092000800000000000000000000000000000000000000000000000000000000000000000000000000000000000000000000000000000000000020DBF2
:3940CB000000000000000000000000000000000000000000000000000000000000000000000000000000000000000000000000000000000000000080F943
:394104000000000000000000000000000000000000000000000000000000000000000000000000000000000000000000000000000000000000000080F909
:39413D000400000000000000000000000000000000000000000000000000000000000000000000000000000000000000000000000000000000000090AC09
:394176000000000000000000000000000000000000000000000000000000000000000000000000000000000000000000000000000000000000000080F997
:3941AF000000000000000000000000000000000000000000000000000000000000000000000000000000000000000000000000000000000000000080F95E
:3941E8002000048000100002400008000120000480001000000000000000000000000000000000800010000240000800012000048000100002400080F9A1
:394221000000000000000000000000000000000000000000000000000000000000000000000000000000000000000000000000000000000000000080F9EB
:39425A002800048000100002400008000120000480001000000000000000000000000000000000800010000240000800012000048000100002400020DBA4
:394293000000000000000000000000000000000000000000000000000000000000000000000000000000000000000000000000000000000000000080F979
:3942CC002000048000100002400008000120000480001000000000000000000000000000000000800010000240000800012000048000100002400080F9BC
:394305000400000000000000000000000000000000000000000000000000000000000000000000000000000000000000000000000000000000000090AC3F
:39433E002000048000100002400008000120000480001000000000000000000000000000000000800010000240000800012000048000100002400080F949
:394377000000000000000000000000000000000000000000000000000000000000000000000000000000000000000000000000000000000000000080F994
:3943B0000000000000000000000000000000000000000000000000000000000000000000000000000000000000000000000000000000000000000080F95B
:3943E9000000000000000000000000000000000000000000000000000000000000000000000000000000000000000000000000000000000000000080F922
:394422000000000000000000000000000000000000000000000000000000000000000000000000000000000000000000000000000000000000000080F9E8
:39445B000000000000000000000000000000000000000000000000000000000000000000000000000000000000000000000000000000000000000080F9AF
:394494000000000000000000000000000000000000000000000000000000000000000000000000000000000000000000000000000000000000000080F976
:3944CD000000000000000000000000000000000000000000000000000000000000000000000000000000000000000000000000000000000000000080F93D
:394506000000000000000000000000000000000000000000000000000000000000000000000000000000000000000000000000000000000000000080F903
:39453F000000000000000000000000000000000000000000000000000000000000000000000000000000000000000000000000000000000000000080F9CA
:394578000000000000000000000000000000000000000000000000000000000000000000000000000000000000000000000000000000000000000080F991
:3945B1000000000000000000000000000000000000000000000000000000000000000000000000000000000000000000000000000000000000000080F958
:3945EA000000000000000000000000000000000000000000000000000000000000000000000000000000000000000000000000000000000000000080F91F
:394623000000000000000000000000000000000000000000000000000000000000000000000000000000000000000000000000000000000000000080F9E5
:39465C000000000000000000000000000000000000000000000000000000000000000000000000000000000000000000000000000000000000000080F9AC
:394695000000000000000000000000000000000000000000000000000000000000000000000000000000000000000000000000000000000000000080F973
:3946CE000000000000000000000000000000000000000000000000000000000000000000000000000000000000000000000000000000000000000080F93A
:394707000000000000000000000000000000000000000000000000000000000000000000000000000000000000000000000000000000000000000080F900
:394740000000000000000000000000000000000000000000000000000000000000000000000000000000000000000000000000000000000000000080F9C7
:394779000000000000000000000000000000000000000000000000000000000000000000000000000000000000000000000000000000000000000080F98E
:3947B2000000000000000000000000000000000000000000000000000000000000000000000000000000000000000000000000000000000000000080F955
:3947EB000000000000000000000000000000000000000000000000000000000000000000000000000000000000000000000000000000000000000080F91C
:394824000000000000000000000000000000000000000000000000000000000000000000000000000000000000000000000000000000000000000080F9E2
:39485D000000000000000000000000000000000000000000000000000000000000000000000000000000000000000000000000000000000000000080F9A9
:394896000000000000000000000000000000000000000000000000000000000000000000000000000000000000000000000000000000000000000080F970
:3948CF000000000000000000000000000000000000000000000000000000000000000000000000000000000000000000000000000000000000000080F937
:394908000000000000000000000000000000000000000000000000000000000000000000000000000000000000000000000000000000000000000080F9FD
:394941000000000000000000000000000000000000000000000000000000000000000000000000000000000000000000000000000000000000000080F9C4
:39497A000000000000000000000000000000000000000000000000000000000000000000000000000000000000000000000000000000000000000080F98B
:3949B3000000000000000000000000000000000000000000000000000000000000000000000000000000000000000000000000000000000000000080F952
:3949EC000000000000000000000000000000000000000000000000000000000000000000000000000000000000000000000000000000000000000080F919
:394A25000000000000000000000000000000000000000000000000000000000000000000000000000000000000000000000000000000000000000080F9DF
:394A5E000000000000000000000000000000000000000000000000000000000000000000000000000000000000000000000000000000000000000080F9A6
:394A97000000000000000000000000000000000000000000000000000000000000000000000000000000000000000000000000000000000000000080F96D
:394AD0000000000000000000000000000000000000000000000000000000000000000000000000000000000000000000000000000000000000000080F934
:394B09000000000000000000000000000000000000000000000000000000000000000000000000000000000000000000000000000000000000000080F9FA
:394B42000000000000000000000000000000000000000000000000000000000000000000000000000000000000000000000000000000000000000080F9C1
:394B7B000000000000000000000000000000000000000000000000000000000000000000000000000000000000000000000000000000000000000080F988
:394BB4000000000000000000000000000000000000000000000000000000000000000000000000000000000000000000000000000000000000000080F94F
:394BED000000000000000000000000000000000000000000000000000000000000000000000000000000000000000000000000000000000000000080F916
:394C26000000000000000000000000000000000000000000000000000000000000000000000000000000000000000000000000000000000000000080F9DC
:394C5F000000000000000000000000000000000000000000000000000000000000000000000000000000000000000000000000000000000000000080F9A3
:394C98000000000000000000000000000000000000000000000000000000000000000000000000000000000000000000000000000000000000000080F96A
:394CD1000000000000000000000000000000000000000000000000000000000000000000000000000000000000000000000000000000000000000080F931
:394D0A000000000000000000000000000000000000000000000000000000000000000000000000000000000000000000000000000000000000000080F9F7
:394D43000012400248000920012480049000124002480009000000000000000000000000000000004800092001248004900012400248000920012480F987
:394D7C00000C8001300006C00018000360000C800130000600000000000000000000000000000000300006C00018000360000C8001300006C0001880F9B8
:024DB500FFFFFE
:00000001FF
